:04000000DBEF31F011
:08000800046ED8CF05F0E0CF33
:1000100006F00001E9CF0CF0EACF07F0E1CF08F0DD
:10002000E2CF09F0D9CF0AF0DACF0BF0F3CF12F01C
:10003000F4CF13F0FACF14F000C00EF001C00FF0AF
:1000400002C010F003C011F09DA22AEF00F09EB292
:10005000A1EF02F09DAA30EF00F09EBA98EF02F0F7
:100060000EC000F00FC001F010C002F011C003F08C
:100070000CC0E9FF07C0EAFF078E08C0E1FF09C016
:10008000E2FF0AC0D9FF0BC0DAFF12C0F3FF13C0B2
:10009000F4FF14C0FAFF045006C0E0FF05C0D8FF0B
:1000A0001000F2CF0DF0F29EF76ABC0FF66E000E54
:1000B000F7220900F5500DBEF28E120000C18140FA
:1000C00001C0804101C0804100C1814001C0804128
:1000D00000C1814000C1814001C0804101C0804118
:1000E00000C1814000C1814001C0804100C1814008
:1000F00001C0804101C0804100C1814001C08041F8
:1001000000C1814000C1814001C0804100C18140E7
:1001100001C0804101C0804100C1814000C18140D7
:1001200001C0804101C0804100C1814001C08041C7
:1001300000C1814000C1814001C0804101C08041B7
:1001400000C1814000C1814001C0804100C18140A7
:1001500001C0804101C0804100C1814000C1814097
:1001600001C0804101C0804100C1814001C0804187
:1001700000C1814000C1814001C0804100C1814077
:1001800001C0804101C0804100C1814001C0804167
:1001900000C1814000C1814001C0804101C0804157
:1001A00000C1814000C1814001C0804100C1814047
:1001B00001C0804101C0804100C18140F2CF0DF0FB
:1001C000F29EF76AD60FF66E010EF7220900F5507F
:1001D0000DBEF28E120000C0C101C30302C2C606EA
:1001E00007C705C5C404CC0C0DCD0FCFCE0E0ACA6F
:1001F000CB0BC90908C8D81819D91BDBDA1A1EDEBF
:10020000DF1FDD1D1CDC14D4D515D71716D6D2126E
:1002100013D311D1D010F03031F133F3F23236F67E
:10022000F737F53534F43CFCFD3DFF3F3EFEFA3A2E
:100230003BFB39F9F83828E8E929EB2B2AEAEE2EBE
:100240002FEF2DEDEC2CE42425E527E7E62622E22E
:10025000E323E12120E0A06061A163A3A26266A67E
:10026000A767A56564A46CACAD6DAF6F6EAEAA6AEE
:100270006BAB69A9A86878B8B979BB7B7ABABE7E3E
:100280007FBF7DBDBC7CB47475B577B7B67672B2EE
:10029000B373B17170B0509091519353529296567E
:1002A0005797559594549C5C5D9D5F9F9E5E5A9AAE
:1002B0009B5B99595898884849894B8B8A4A4E8E3E
:1002C0008F4F8D4D4C8C44848545874746868242AE
:1002D00043834181804004006C50745C13E1766A72
:1002E000760E7624E96E010EEA6ED8B0EA2A2BC0AB
:1002F000EFFF0400762A100E746E140E0601806F54
:1003000014D10001745010085CE1760E7624E96E79
:10031000010EEA6ED8B0EA2A2BC0EFFF0400762A5D
:10032000010E765C760FE96E010EEA6ED8B0EA2A0D
:10033000EF50160807E36DC074F0140E0601806FCD
:100340003ED00001010E765C760FE96E010EEA6E7A
:10035000D8B0EA2AEF50200807E170C074F0140EFC
:100360000601806F2CD00001010E765C760FE96EDD
:10037000010EEA6ED8B0EA2AEF50210807E172C0F8
:1003800074F0140E0601806F1AD00001010E765C25
:10039000760FE96E010EEA6ED8B0EA2AEF50220815
:1003A00007E172C074F0140E0601806F08D00001DE
:1003B000766A6CC074F00601806B8A969396B5D00D
:1003C00000017250745C1CE1760E7624E96E010E19
:1003D000EA6ED8B0EA2A2BC0EFFF0400762A010E9D
:1003E000765C760FE96E010EEA6ED8B0EA2AEFCF9E
:1003F00081F60601140E806F73C074F096D0000170
:100400007350745C15E1760E7624E96E010EEA6E87
:10041000D8B0EA2A2BC0EFFF0400762A0601810734
:10042000815302E170C074F0140E806F7ED0000121
:100430006D50745C12E1760E7624E96E010EEA6E60
:10044000D8B0EA2A2BC0EFFF0400762A6EC074F001
:10045000140E0601806F69D000016E50745C12E1C9
:10046000760E7624E96E010EEA6ED8B0EA2A2BC029
:10047000EFFF0400762A6FC074F0140E0601806F3F
:1004800054D000016F50745C12E1760E7624E96E50
:10049000010EEA6ED8B0EA2A2BC0EFFF0400762ADC
:1004A000150E746E140E0601806F3FD0000174505B
:1004B000150812E1760E7624E96E010EEA6ED8B0C8
:1004C000EA2A2BC0EFFF0400762A70C074F0140EE5
:1004D0000601806F2AD000017050745C12E1760E24
:1004E0007624E96E010EEA6ED8B0EA2A2BC0EFFF3F
:1004F0000400762A71C074F0140E0601806F15D0C6
:1005000000017150745C11E1760E7624E96E010EE3
:10051000EA6ED8B0EA2A2BC0EFFF04006CC074F07A
:100520000601806B2D8A8A96939600019EEF02F059
:1005300004009EAAFDD7AECF2BF0CDD69E9A30EF09
:1005400000F0162A0601805307E08007805304E17B
:100550006CC074F08A96939619520CE019061952E1
:1005600009E11A5204E01A061A5201E117842D8893
:10057000640E196E1650320815E1166A17B004D0D1
:1005800017808A8A939A03D017908A9A939A17AC05
:1005900008D02C52D8A42C062C5202E1178A2D82A6
:1005A00001D02C6A185214E0180618520BE1FF0E05
:1005B000826F2DB405D017A202D0179201D01782F6
:1005C00069C018F02E5204E02E062E5201E12D943F
:1005D0009E92000130EF00F041542B434D47463DC1
:1005E000310041542B434D47533D220041542B438E
:1005F0004D47463D310041542B434D47533D22006A
:1006000041542B434D47463D310041542B434D4708
:10061000533D220041542B434D47463D3100415448
:100620002B434D47533D220041542B434D47463DFC
:10063000310041542B434D47533D220041542B433D
:100640004D47463D310041542B434D47533D220019
:1006500041542B434D47463D310041542B434D47B8
:10066000533D220041542B434D47463D31004154F8
:100670002B434D47533D220041542B434D47463DAC
:10068000310041542B434D47533D220041542B43ED
:100690004D47463D310041542B434D47533D2200C9
:1006A00041542B434D47463D310041542B434D4768
:1006B000533D220041542B434D47463D31004154A8
:1006C0002B434D47533D220041542B434D47463D5C
:1006D000310041542B434D47533D220041542B439D
:1006E0004D47463D310041542B434D47533D220079
:1006F00041542B434D47463D310041542B434D4718
:10070000533D220041542B434D47463D3100415457
:100710002B434D47533D220041542B434D47533DFE
:10072000220041542B434D47533D220041542B435B
:100730004D47533D220041542B434D47533D22002A
:1007400041542B434D47533D220041542B434D47C9
:10075000533D220041542B434D47533D2200415409
:100760002B434D47533D220041542B434D47463DBB
:100770003100080EEA6E790EE96EEF5011E0060EB8
:10078000016EBF0E006E0400002EFDD7012EF9D7BA
:100790007A0E006E002EFED700D00400EF2EEFD7A9
:1007A000000C929A899A08017A5140097D6FC950CC
:1007B0007DC8C9FFC730FEE3C9507BC8C9FFC73039
:1007C000FEE3C9507CC8C9FFC730FEE3929A898A0C
:1007D0000001000C929A898A929A08017A6B0A0E9B
:1007E0007B6FAA0E7C6F0001DCDF020E08017A6FBE
:1007F0000A0E7B6FAA0E7C6F0001D3DF040E080186
:100800007A6F0A0E7B6FAA0E7C6F0001CADF060E9C
:1008100008017A6F0A0E7B6FAA0E7C6F0001C1DFA0
:10082000080E08017A6F0A0E7B6FAA0E7C6F00011A
:10083000B8DF0A0E08017A6F7B6FAA0E7C6F000189
:10084000B0DF0C0E08017A6F0A0E7B6FAA0E7C6F68
:100850000001A7DF0E0E08017A6F0A0E7B6FAA0E49
:100860007C6F00019EDF45EF32F070C87AF8080116
:100870007B6B71C87CF8000194DF000C70C87AF8BB
:10088000100E08017B6F71C87CF800018ADF000C34
:10089000F2CF7AF8F29EAA6A010EA96EA69CA69ED5
:1008A000A680A85008017ABFF28E366E36C037F0A7
:1008B0000701DC9136B0DC81D8903630DC93E8B0AB
:1008C000DC833630006E00323F0E0016DC9500B03F
:1008D000DC853630006E003200321F0E0016DC97C9
:1008E00000B0DC873638006E0F0E0016DC9900B0C1
:1008F000DC893638006E0032070E0016DC9B00B033
:10090000DC8B3638006E00320032030E0016DC9DA0
:1009100000B0DC8D006A36BE0080DC9F00B0DC8F4A
:10092000080169930701DCA103D00801698307016D
:10093000080169950701DCA303D008016985070157
:10094000080169970701DCA503D008016987070141
:10095000080169990701DCA703D00801698907012B
:100960000801699B0701DCA903D00801698B070115
:100970000801699D0701DCAB03D00801698D0701FF
:100980000801699F0701DCAD03D00801698F0701E9
:1009900008016A910701DCAF03D008016A810701F1
:1009A000F2CF7AF8F29EAA6A040EA96EA69CA69EC1
:1009B000A680A85008017ABFF28E366E36C03AF093
:1009C0000701DD9136B0DD81D8903630DD93E8B097
:1009D000DD833630006E00323F0E0016DD9500B02C
:1009E000DD853630006E003200321F0E0016DD97B6
:1009F00000B0DD873638006E0F0E0016DD9900B0AE
:100A0000DD893638006E0032070E0016DD9B00B01F
:100A1000DD8B3638006E00320032030E0016DD9D8D
:100A200000B0DD8D006A36BE0080DD9F00B0DD8F36
:100A3000F2CF7AF8F29EAA6A070EA96EA69CA69E2D
:100A4000A680A85008017ABFF28E366E36C03DF0FF
:100A50000701DE9136B0DE81D8903630DE93E8B003
:100A6000DE833630006E00323F0E0016DE9500B099
:100A7000DE853630006E003200321F0E0016DE9723
:100A800000B0DE873638006E0F0E0016DE9900B01B
:100A9000DE893638006E0032070E0016DE9B00B08D
:100AA000DE8B3638006E00320032030E0016DE9DFB
:100AB00000B0DE8D006A36BE0080DE9F00B0DE8FA3
:100AC000F2CF7AF8F29EAA6A0A0EA96EA69CA69E9A
:100AD000A680A85008017ABFF28E366E36C040F06C
:100AE0000701DF9136B0DF81D8903630DF93E8B070
:100AF000DF833630006E00323F0E0016DF9500B007
:100B0000DF853630006E003200321F0E0016DF9790
:100B100000B0DF873638006E0F0E0016DF9900B088
:100B2000DF893638006E0032070E0016DF9B00B0FA
:100B3000DF8B3638006E00320032030E0016DF9D68
:100B400000B0DF8D006A36BE0080DF9F00B0DF8F0F
:100B5000F2CF7AF8F29EAA6A0D0EA96EA69CA69E06
:100B6000A680A85008017ABFF28E366E36C043F0D8
:100B70000701E09136B0E081D8903630E093E8B0DC
:100B8000E0833630006E00323F0E0016E09500B074
:100B9000E0853630006E003200321F0E0016E097FE
:100BA00000B0E0873638006E0F0E0016E09900B0F6
:100BB000E0893638006E0032070E0016E09B00B068
:100BC000E08B3638006E00320032030E0016E09DD6
:100BD00000B0E08D006A36BE0080E09F00B0E08F7C
:100BE000F2CF7AF8F29EAA6A100EA96EA69CA69E73
:100BF000A680A85008017ABFF28E366E0701E691F2
:100C000036B0E681D8903630E693E8B0E6833630E9
:100C1000006E00323F0E0016E69500B0E6853630D5
:100C2000006E003200321F0E0016E69700B0E68715
:100C30003638006E0F0E0016E69900B0E689363899
:100C4000006E0032070E0016E69B00B0E68B3638C9
:100C5000006E00320032030E0016E69D00B0E68DF5
:100C6000006A36BE0080E69F00B0E68FF2CF7AF8C9
:100C7000F29EAA6A140EA96EA69CA69EA680A850F3
:100C800008017ABFF28E366E0701E79136B0E78130
:100C9000D8903630E793E8B0E7833630006E003204
:100CA0003F0E0016E79500B0E7853630006E003243
:100CB00000321F0E0016E79700B0E7873638006E47
:100CC0000F0E0016E79900B0E7893638006E003243
:100CD000070E0016E79B00B0E78B3638006E003237
:100CE0000032030E0016E79D00B0E78D006A36BEA5
:100CF0000080E79F00B0E78FF2CF7AF8F29EAA6AF1
:100D0000180EA96EA69CA69EA680A85008017ABFC0
:100D1000F28E676EF2CF7AF8F29EAA6A190EA96E69
:100D2000A69CA69EA680A8507ABFF28E686EF2CFCF
:100D30007AF8F29EAA6A1A0EA96EA69CA69EA680B2
:100D4000A8507ABFF28E696EF2CF7AF8F29EAA6A44
:100D50001B0EA96EA69CA69EA680A8507ABFF28EF6
:100D60006A6EF2CF7AF8F29EAA6A1C0EA96EA69C51
:100D7000A69EA680A8507ABFF28E036A2D6F03C08C
:100D80002EF8F2CF7AF8F29EAA6A1D0EA96EA69CE2
:100D9000A69EA680A8507ABFF28E756EF2CF7AF822
:100DA000F29EAA6A1E0EA96EA69CA69EA680A850B8
:100DB0007ABFF28E306B2F6FF2CF7AF8F29EAA6A6A
:100DC0001F0EA96EA69CA69EA680A8507ABFF28E82
:100DD000326B316FF2CF7AF8F29EAA6A200EA96EBA
:100DE000A69CA69EA680A8507ABFF28E346B336F65
:100DF000F2CF7AF8F29EAA6A210EA96EA69CA69E50
:100E0000A680A8507ABFF28E366B356FF2CF7AF893
:100E1000F29EAA6A220EA96EA69CA69EA680A85043
:100E20007ABFF28E386B376FF2CF7AF8F29EAA6AE9
:100E3000230EA96EA69CA69EA680A8507ABFF28E0D
:100E40003A6B396FF2CF7AF8F29EAA6A240EA96E35
:100E5000A69CA69EA680A8507ABFF28E3C6B3B6FE4
:100E6000F2CF7AF8F29EAA6A250EA96EA69CA69EDB
:100E7000A680A8507ABFF28E3E6B3D6FF2CF7AF813
:100E8000F29EAA6A260EA96EA69CA69EA680A850CF
:100E90007ABFF28E406B3F6FF2CF7AF8F29EAA6A69
:100EA000270EA96EA69CA69EA680A8507ABFF28E99
:100EB000426B416FF2CF7AF8F29EAA6A280EA96EB1
:100EC000A69CA69EA680A8507ABFF28E446B436F64
:100ED000F2CF7AF8F29EAA6A290EA96EA69CA69E67
:100EE000A680A8507ABFF28E466B456FF2CF7AF893
:100EF000F29EAA6A2A0EA96EA69CA69EA680A8505B
:100F00007ABFF28E486B476FF2CF7AF8F29EAA6AE8
:100F10002B0EA96EA69CA69EA680A8507ABFF28E24
:100F20004A6B496FF2CF7AF8F29EAA6A2C0EA96E2C
:100F3000A69CA69EA680A8507ABFF28E4C6B4B6FE3
:100F4000F2CF7AF8F29EAA6A2D0EA96EA69CA69EF2
:100F5000A680A8507ABFF28E4E6B4D6FF2CF7AF812
:100F6000F29EAA6A2E0EA96EA69CA69EA680A850E6
:100F70007ABFF28E506B4F6FF2CF7AF8F29EAA6A68
:100F80002F0EA96EA69CA69EA680A8507ABFF28EB0
:100F9000526B516FF2CF7AF8F29EAA6A300EA96EA8
:100FA000A69CA69EA680A8507ABFF28E546B536F63
:100FB000F2CF7AF8F29EAA6A310EA96EA69CA69E7E
:100FC000A680A8507ABFF28E566B556F706B0400E6
:100FD000320E70257A6FF2CF7BF8F29EAA6A7AC839
:100FE000A9FFA69CA69EA680A8507BBFF28E716F1B
:100FF00071510D0803E070510F0824E2036A70512B
:10100000830FE96E060E0320EA6EEF6A320E70253A
:101010007A6FAA6A7AC8A9FF71C8A8FFA69CA69E83
:10102000A684F250006EF29E0F01550EA76EAA0E16
:10103000A76EA682A6B2FED7A6940050F2120FD0D9
:101040000BD00801036A7051830FE96E060E03206E
:10105000EA6E71C8EFFF0F010801702BB8D70801C5
:10106000736B030E726F756B746B776B766B04002A
:101070005D0E72257A6F000E73217B6FF2CF7CF8C4
:10108000F29E7BC8AAFF7AC8A9FFA69CA69EA6804E
:10109000A8507CBFF28E796B786F78510D0802E111
:1010A000795305E0755303E17451290809E2920E62
:1010B0007425E96E060E7521EA6EEF6A13D008D02A
:1010C000920E7425E96E060E7521EA6E78C8EFFF60
:1010D00073C803F07251722BD8B4732B742BD8B42D
:1010E000752BC5D7722BD8B4732B756B746B04003A
:1010F0005D0E72257A6F000E73217B6FF2CF7CF844
:10110000F29E7BC8AAFF7AC8A9FFA69CA69EA680CD
:10111000A8507CBFF28E796B786F78510D0802E190
:10112000795305E0755303E17451290809E2BB0EB8
:101130007425E96E060E7521EA6EEF6A13D008D0A9
:10114000BB0E7425E96E060E7521EA6E78C8EFFFB6
:1011500073C803F07251722BD8B4732B742BD8B4AC
:10116000752BC5D7722BD8B4732B756B746B0400B9
:101170005D0E72257A6F000E73217B6FF2CF7CF8C3
:10118000F29E7BC8AAFF7AC8A9FFA69CA69EA6804D
:10119000A8507CBFF28E796B786F78510D0802E110
:1011A000795305E0755303E17451290809E2E40E0F
:1011B0007425E96E060E7521EA6EEF6A13D008D029
:1011C000E40E7425E96E060E7521EA6E78C8EFFF0D
:1011D00073C803F07251722BD8B4732B742BD8B42C
:1011E000752BC5D7722BD8B4732B756B746B040039
:1011F0005D0E72257A6F000E73217B6FF2CF7CF843
:10120000F29E7BC8AAFF7AC8A9FFA69CA69EA680CC
:10121000A8507CBFF28E796B786F78510D0802E18F
:10122000795305E0755303E17451290809E20D0E65
:101230007425E96E070E7521EA6EEF6A13D008D0A7
:101240000D0E7425E96E070E7521EA6E78C8EFFF62
:1012500073C803F07251722BD8B4732B742BD8B4AB
:10126000752BC5D7722BD8B4732B756B746B0400B8
:101270005D0E72257A6F000E73217B6FF2CF7CF8C2
:10128000F29E7BC8AAFF7AC8A9FFA69CA69EA6804C
:10129000A8507CBFF28E796B786F78510D0802E10F
:1012A000795305E0755303E17451290809E2360EBC
:1012B0007425E96E070E7521EA6EEF6A13D008D027
:1012C000360E7425E96E070E7521EA6E78C8EFFFB9
:1012D00073C803F07251722BD8B4732B742BD8B42B
:1012E000752BC5D7722BD8B4732B756B746B040038
:1012F0005D0E72257A6F000E73217B6FF2CF7CF842
:10130000F29E7BC8AAFF7AC8A9FFA69CA69EA680CB
:10131000A8507CBFF28E796B786F78510D0802E18E
:10132000795305E0755303E17451290809E25F0E12
:101330007425E96E070E7521EA6EEF6A13D008D0A6
:101340005F0E7425E96E070E7521EA6E78C8EFFF0F
:1013500073C803F07251722BD8B4732B742BD8B4AA
:10136000752BC5D7722BD8B4732B756B746B0400B7
:101370005D0E72257A6F000E73217B6FF2CF7CF8C1
:10138000F29E7BC8AAFF7AC8A9FFA69CA69EA6804B
:10139000A8507CBFF28E796B786F78510D0802E10E
:1013A000795305E0755303E17451290809E2880E69
:1013B0007425E96E070E7521EA6EEF6A13D008D026
:1013C000880E7425E96E070E7521EA6E78C8EFFF66
:1013D00073C803F07251722BD8B4732B742BD8B42A
:1013E000752BC5D7722BD8B4732B756B746B040037
:1013F0005D0E72257A6F000E73217B6FF2CF7CF841
:10140000F29E7BC8AAFF7AC8A9FFA69CA69EA680CA
:10141000A8507CBFF28E796B786F78510D0802E18D
:10142000795305E0755303E17451290809E2B10EBF
:101430007425E96E070E7521EA6EEF6A13D008D0A5
:10144000B10E7425E96E070E7521EA6E78C8EFFFBC
:1014500073C803F07251722BD8B4732B742BD8B4A9
:10146000752BC5D70001000C929A899A08017C510E
:1014700041097F6FC9507FC8C9FFC730FEE3C9501B
:101480007DC8C9FFC730FEE3C950C96AC730FEE353
:10149000C9CF7EF8929A898A7EC801F00001000CBB
:1014A0007AC87CF8090E08017D6F0001DDDF01C0FC
:1014B0007BF808017BC801F00001E1EF0AF07AC86F
:1014C0007CF8190E08017D6F0001CEDF01C07BF8AA
:1014D00008017BC801F000012FEF0BF008017B51E0
:1014E000070B006E7B31016E013201321F0E0116B7
:1014F00001507C25E96E000E7D21EA6EEFCF01F0F0
:10150000002A01D00132002EFDD70001000C080195
:101510007E518003F3CF01F0F4CF00F08103F3504C
:1015200000267F518003F3500020026E0001000C62
:1015300008017B51070B006E7B31016E01320132D5
:101540001F0E011601507D25E96E000E7E21EA6E08
:10155000016A012A002A01D00136002EFDD77C53F2
:1015600003E00150EF1203D0011E0150EF160001FD
:10157000000C08017A6B010E7A6F7ABF03D07A51A2
:10158000100817E37C6B7C6B7AC87BF8070E7D6FC5
:10159000ED0E7C6F0001A2DF08017C6B01B07C2B9B
:1015A000070E7E6FE90E7D6F0001C2DF08017A2B06
:1015B000E4D70001DAEF0DF0020E08017A6F0001A6
:1015C0006FD701C07EF617A803D006017E1F000169
:1015D000D89006017E310701ED93E8B0ED83060156
:1015E0007E31006E00323F0E00160701ED9500B00F
:1015F000ED8506017E31006E003200321F0E0016AE
:101600000701ED9700B0ED8706017E39006E0F0EE1
:1016100000160701ED9900B0ED8906017E39006ED4
:101620000032070E00160701ED9B00B0ED8B06019E
:101630007E39006E00320032030E00160701ED9D68
:1016400000B0ED8D006A06017EBF00800701ED9FAE
:1016500000B0ED8F020E08017A6F000130D701C093
:101660007EF617A802D006017E1F0701EE91060143
:101670007EA103D00701EE810601010E0801796FFA
:1016800079510808D8A094D279C87BF8080E7D6FEC
:10169000690E7C6F000122DF000E01B0010E010B0C
:1016A0000108D8A439D179C87BF8070E08017D6FED
:1016B000ED0E7C6F000112DF000E01B0010E010B78
:1016C000D8A495D079C87BF8070E08017D6FE90E84
:1016D0007C6F000103DF000E01B0010E010BD8A4E6
:1016E00078D0D89008017935036AF10FE96E070EBA
:1016F0000320EA6E010EEE2601E3EF2AD890793539
:10170000036AF10FE96E070E0320EA6EECCF7BF857
:10171000ED52EFCF7AF8D8907935036A2D0FE96E44
:10172000080E0320EA6EECCF7DF8ED52EFCF7CF887
:101730007DC87FF87CC87EF8816B4B0E806F0001FE
:10174000E6DE02C07DF801C07CF80F0E080101241E
:10175000016E000E0220036E03507B5D38E303E14F
:1017600001507A5D34E3D8907935036AF10FE96E60
:10177000070E0320EA6EEC6AED52EF6A010E795D06
:10178000F80F25E2080F000129EF0EF00701DA91AA
:1017900008011DD00701DA93080119D00701DA9575
:1017A000080115D00701DA97080111D00701DA996D
:1017B00008010DD00701DA9B080109D00701DA9D65
:1017C000080105D00701DA9F080101D008010DD0FA
:1017D0000001D89008017935036AF10FE96E070E10
:1017E0000320EA6EEC6AED52EF6A95D0000179C8E9
:1017F0007BF8070E08017D6FE90E7C6F00016EDE3D
:10180000000E01B0010E010B0108D8A478D0D890C9
:1018100008017935036AF10FE96E070E0320EA6EBD
:10182000010EEE2601E3EF2AD8907935036AF10F15
:10183000E96E070E0320EA6EECCF7BF8ED52EFCF96
:101840007AF8D8907935036A2D0FE96E080E0320D7
:10185000EA6EECCF7DF8ED52EFCF7CF87DC87FF8D3
:101860007CC87EF8816B4B0E806F000150DE02C099
:101870007DF801C07CF80F0E08010124016E000EF6
:101880000220036E03507B5D38E303E101507A5D73
:1018900034E3D8907935036AF10FE96E070E03201F
:1018A000EA6EEC6AED52010EEF6E795DF80F25E2FB
:1018B000080F000143EF0EF00701DA8108011DD087
:1018C0000701DA83080119D00701DA85080115D06C
:1018D0000701DA87080111D00701DA8908010DD064
:1018E0000701DA8B080109D00701DA8D080105D05C
:1018F0000701DA8F080101D008010DD00001D8904E
:1019000008017935036AF10FE96E070E0320EA6ECC
:10191000EC6AED52EF6A48D179C87BF8080E0801ED
:101920007D6F690E7C6F0001D9DD000E01B0010EE4
:10193000010BD8A43AD179C87BF8070E08017D6F56
:10194000ED0E7C6F0001CADD000E01B0010E010B2F
:101950000108D8A496D079C87BF8070E08017D6FDE
:10196000E90E7C6F0001BADD000E01B0010E010B23
:101970000108D8A478D0D89008017935036AF10F0E
:10198000E96E070E0320EA6E010EEE2601E3EF2A50
:10199000D8907935036AF10FE96E070E0320EA6EDD
:1019A000ECCF7BF8ED52EFCF7AF8D8907935036A17
:1019B0002D0FE96E080E0320EA6EECCF7DF8ED5294
:1019C000EFCF7CF87DC87FF87CC87EF8816B4B0E2A
:1019D000806F00019CDD02C07DF801C07CF80F0E15
:1019E00008010124016E000E0220036E03507B5D8E
:1019F00038E303E101507A5D34E3D8907935036A26
:101A0000F10FE96E070E0320EA6EEC6AED52EF6A01
:101A1000010E795DF80F25E2080F00015DEF0EF071
:101A20000701DA8108011DD00701DA83080119D006
:101A30000701DA85080115D00701DA87080111D0FE
:101A40000701DA8908010DD00701DA8B080109D0F6
:101A50000701DA8D080105D00701DA8F080101D0EE
:101A600008010DD00001D89008017935036AF10F03
:101A7000E96E070E0320EA6EEC6AED52EF6A94D02D
:101A8000000179C87BF8070E08017D6FE90E7C6FB5
:101A9000000124DD000E01B0010E010BD8A478D0A6
:101AA000D89008017935036AF10FE96E070E03201B
:101AB000EA6E010EEE2601E3EF2AD8907935036A2B
:101AC000F10FE96E070E0320EA6EECCF7BF8ED52C2
:101AD000EFCF7AF8D8907935036A2D0FE96E080EAA
:101AE0000320EA6EECCF7DF8ED52EFCF7CF87DC895
:101AF0007FF87CC87EF8816B4B0E806F000107DD9C
:101B000002C07DF801C07CF80F0E08010124016EAF
:101B1000000E0220036E03507B5D38E303E10150A9
:101B20007A5D34E3D8907935036AF10FE96E070ED8
:101B30000320EA6EEC6AED52EF6A010E795DF80F50
:101B400025E2080F000177EF0EF00701DA91080196
:101B50001DD00701DA93080119D00701DA950801B1
:101B600015D00701DA97080111D00701DA990801A9
:101B70000DD00701DA9B080109D00701DA9D0801A1
:101B800005D00701DA9F080101D008010DD000013E
:101B9000D89008017935036AF10FE96E070E03202A
:101BA000EA6EEC6AED52EF6A00010801792B68D504
:101BB0000001DFD4466A000E0701DAAF010E4612BB
:101BC000D890463408017A6F000E0701DAAD010E95
:101BD00008017A11466ED89046347A6F000E0701DC
:101BE000DAAB010E08017A11466ED89046347A6F4E
:101BF000000E0701DAA9010E08017A11466ED8908D
:101C000046347A6F000E0701DAA7010E08017A1137
:101C1000466ED89046347A6F000E0701DAA5010EA1
:101C200008017A11466ED89046347A6F000E07018B
:101C3000DAA3010E08017A11466ED89046347A6F05
:101C4000000E0701DAA1010E08017A11466E0001AB
:101C5000000CF2CF0DF0F29EE824F76AF736770F0A
:101C6000F66E1C0EF7220A00F550FA6E0800F550C9
:101C70000DBEF28EF96E8C1794179C17A417AC1733
:101C8000B417BC17C417F2CF0DF0F29EE824F76A20
:101C9000F736AB0FF66E1C0EF7220A00F550FA6EFF
:101CA0000800F5500DBEF28EF96EB818C018C818AD
:101CB000D018D818E018E818F018F2CF0DF0F29EFE
:101CC000E824F76AF736DF0FF66E1C0EF7220A00DB
:101CD000F550FA6E0800F5500DBEF28EF96E201A1E
:101CE000281A301A381A401A481A501A581AF2CFBD
:101CF0000DF0F29EE824F76AF736130FF66E1D0E0C
:101D0000F7220A00F550FA6E0800F5500DBEF28E6B
:101D1000F96E4A1B521B5A1B621B6A1B721B7A1BF1
:101D2000821B78C87AF80A0E08017B6F79C87CF8A4
:101D30000001D1EC03F0000C78C87AF81A0E080103
:101D40007B6F79C87CF80001D1EC03F0000C4B6A82
:101D50004C6A4F6A506A2C52D8A4E5D00701DBA127
:101D600003D04B924F9214D0E6A105D0E7B103D037
:101D70004B824F920DD0E6B105D0E7A103D04B9234
:101D80004F8206D0E6A104D0E7A102D04B824F8259
:101D9000DBA303D04B944F9414D0E6A305D0E7B354
:101DA00003D04B844F940DD0E6B305D0E7A303D006
:101DB0004B944F8406D0E6A304D0E7A302D04B8413
:101DC0004F84DBA503D04B964F9614D0E6A505D0E3
:101DD000E7B503D04B864F960DD0E6B505D0E7A505
:101DE00003D04B964F8606D0E6A504D0E7A502D0D7
:101DF0004B864F86DBA703D04B984F9814D0E6A7AD
:101E000005D0E7B703D04B884F980DD0E6B705D083
:101E1000E7A703D04B984F8806D0E6A704D0E7A7E2
:101E200002D04B884F88DBA903D04B9A4F9A14D02D
:101E3000E6A905D0E7B903D04B8A4F9A0DD0E6B991
:101E400005D0E7A903D04B9A4F8A06D0E6A904D063
:101E5000E7A902D04B8A4F8ADBAB03D04B9C4F9C47
:101E600014D0E6AB05D0E7BB03D04B8C4F9C0DD014
:101E7000E6BB05D0E7AB03D04B9C4F8C06D0E6AB5E
:101E800004D0E7AB02D04B8C4F8CDBAD03D04B9E24
:101E90004F9E14D0E6AD05D0E7BD03D04B8E4F9ECC
:101EA0000DD0E6BD05D0E7AD03D04B9E4F8E06D0DA
:101EB000E6AD04D0E7AD02D04B8E4F8EDBAF03D042
:101EC0004C90509014D0E6AF05D0E7BF03D04C80C3
:101ED00050900DD0E6BF05D0E7AF03D04C905080B6
:101EE00006D0E6AF04D0E7AF02D04C805080040E9D
:101EF0000801786F4BC079F8000113DF040E080168
:101F0000786F4CC079F8000117DF060E0801786F72
:101F10004FC079F8000105DF060E0801786F50C048
:101F200079F8000109DF000C0900F5520EE0F6CF48
:101F300078F8F7CF79F8F55004009EA8FDD7AD6E7C
:101F400078C8F6FF79C8F7FFEFD7000C04009EA809
:101F5000FDD7AD6E000CFF0E0501776F766F08019F
:101F60007E6B7C517E5D2DE20400036A7E517A25F2
:101F7000E96E7B510320EA6EEF50050177190801E5
:101F80007D6F036A7D51F2CF7FF8F29E000151EC24
:101F900000F008017FBFF28E016E05017651011835
:101FA000776F036A08017D51F2CF7FF8F29E00013E
:101FB000DEEC00F008017FBFF28EE8CF76F57E2BD5
:101FC000D0D70001000C1B6A236A0701E2B104D0DC
:101FD000DBB102D0E58101D0E591E2B304D0DBB3FF
:101FE00002D0E58301D0E593E2B504D0DBB502D0A1
:101FF000E58501D0E595E2B704D0DBB702D0E587EF
:1020000001D0E597E2B904D0DBB902D0E58901D06F
:10201000E599E2BB04D0DBBB02D0E58B01D0E59BA8
:10202000E2BD04D0DBBD02D0E58D01D0E59DE2BF6D
:1020300004D0DBBF02D0E58F01D0E59F000EE5BFE5
:10204000010E2312D89023340801796F000E070186
:10205000E5BD010E08017911236ED8902334796F04
:10206000000E0701E5BB010E08017911236ED8901F
:102070002334796F000E0701E5B9010E08017911CB
:10208000236ED8902334796F000E0701E5B7010E57
:1020900008017911236ED8902334796F000E07015F
:1020A000E5B5010E08017911236ED8902334796FBC
:1020B000000E0701E5B3010E08017911236ED890D7
:1020C0002334796F000E0701E5B1010E0801791183
:1020D000236E000E0701E2BF010E1B12D8901B34C5
:1020E0000801796F000E0701E2BD010E08017911A8
:1020F0001B6ED8901B34796F000E0701E2BB010EF6
:10210000080179111B6ED8901B34796F000E0701FE
:10211000E2B9010E080179111B6ED8901B34796F5A
:10212000000E0701E2B7010E080179111B6ED8906D
:102130001B34796F000E0701E2B5010E0801791119
:102140001B6ED8901B34796F000E0701E2B3010EAD
:10215000080179111B6ED8901B34796F000E0701AE
:10216000E2B1010E080179111B6E00018DEF15F02F
:10217000948082B002D017AE02D017A406D0320EDF
:102180000801796F0001B9EC03F0948082B002D0AD
:1021900017AE02D017A455D017941A6A0701E2B1FE
:1021A00002D0E3A105D0E181E291E391DB91E891D6
:1021B000E2B302D0E3A305D0E183E293E393DB93A0
:1021C000E893E2B502D0E3A505D0E185E295E39579
:1021D000DB95E895E2B702D0E3A705D0E187E29767
:1021E000E397DB97E897E2B902D0E3A905D0E1894C
:1021F000E299E399DB99E899E2BB02D0E3AB05D021
:10220000E18BE29BE39BDB9BE89BE2BD02D0E3AD6D
:1022100005D0E18DE29DE39DDB9DE89DE2BF02D00C
:10222000E3AF05D0E18FE29FE39FDB9FE89F2DA204
:1022300001D02D92178E898892988986929608D01F
:102240000001948082A003D017AE01D0179E070131
:102250000001000C948282B202D02DA002D017A6F9
:1022600006D0320E0801796F0001B9EC03F09482B8
:1022700082B202D02DA002D017A69DD01796000ED4
:102280000701DAB1010E0801796F000E0701DCB118
:10229000010E0801791906E10701E2A102D0080147
:1022A00001D0DB81000E0701DAB3010E0801796F5E
:1022B000000E0701DCB3010E0801791906E10701E0
:1022C000E2A302D0080101D0DB83000E0701DAB5DA
:1022D000010E0801796F000E0701DCB5010E08013F
:1022E000791906E10701E2A502D0080101D0DB85DA
:1022F000000E0701DAB7010E0801796F000E070121
:10230000DCB7010E0801791906E10701E2A702D046
:10231000080101D0DB87000E0701DAB9010E0801C0
:10232000796F000E0701DCB9010E0801791906E189
:102330000701E2A902D0080101D0DB89000E0701E4
:10234000DABB010E0801796F000E0701DCBB010E3C
:102350000801791906E10701E2AB02D0080101D0BA
:10236000DB8B000E0701DABD010E0801796F000E4C
:102370000701DCBD010E0801791906E10701E2AD94
:1023800002D0080101D0DB8D000E0701DABF010E7B
:102390000801796F000E0701DCBF010E08017919F1
:1023A00007E10701E2AF02D0080102D0DB8F08018C
:1023B0002D8008D00001948282A203D02DA001D0EC
:1023C0002D9008010001000C0400010E765C08014C
:1023D000796F010E7B6F760E7A6F79C87CF80001F9
:1023E000BADD010E765C760FE96E010EEA6ED8B0AA
:1023F000EA2AEF500501775DD8A42EEF22F0760E81
:102400007624E96E010EEA6ED8B0EA2AEF50765DC6
:10241000D8A42EEF22F001017651AA08D8A45DD1EC
:1024200077512008D8A459D175C077F0200E786E66
:102430001C0E796E37C07AF038C07BF039C07CF062
:102440003AC07DF03BC07EF03CC07FF03DC080F0E4
:102450003EC081F03FC082F040C083F041C084F0B4
:1024600042C085F043C086F044C087F045C088F084
:10247000F2CF79F8F29EAA6A100EA96EA69CA69ECB
:10248000A680A850080179BFF28E0001896FF2CFB3
:1024900079F8F29EAA6A110EA96EA69CA69EA68045
:1024A000A850080179BFF28E00018A6FF2CF79F847
:1024B000F29EAA6A120EA96EA69CA69EA680A8509D
:1024C000080179BFF28E00018B6FF2CF79F8F29E8E
:1024D000AA6A130EA96EA69CA69EA680A850080103
:1024E00079BFF28E00018C6FF2CF79F8F29EAA6A62
:1024F000140EA96EA69CA69EA680A850080179BFBE
:10250000F28E00018D6FF2CF79F8F29EAA6A150E55
:10251000A96EA69CA69EA680A850080179BFF28E3F
:1025200000018E6FF2CF79F8F29EAA6A160EA96E9C
:10253000A69CA69EA680A850080179BFF28E000135
:102540008F6FF2CF79F8F29EAA6A170EA96EA69C39
:10255000A69EA680A850080179BFF28E0001906F58
:1025600067C091F068C092F069C093F06AC094F0BF
:102570002D0E956F75C096F02FC897F031C898F062
:1025800033C899F035C89AF037C89BF039C89CF029
:102590003BC89DF03DC89EF03FC89FF041C8A0F0E9
:1025A00043C8A1F045C8A2F047C8A3F049C8A4F0A9
:1025B0004BC8A5F04DC8A6F04FC8A7F051C8A8F069
:1025C00053C8A9F055C8AAF008017B6B770E7A6F43
:1025D000340E7C6F0001BFDC77C5ABF076C5ACF084
:1025E0008A8693960A0E0801796F0001B9EC03F010
:1025F0007750ACDC7850AADC7950A8DC7A50A6DCA5
:102600007B50A4DC7C50A2DC7D50A0DC7E509EDCA4
:102610007F509CDC80519ADC815198DC825196DCA1
:10262000835194DC845192DC855190DC86518EDCA0
:1026300087518CDC88518ADC895188DC8A5186DCA0
:102640008B5184DC8C5182DC8D5180DC8E517EDCA0
:102650008F517CDC90517ADC915178DC925176DCA0
:10266000935174DC945172DC955170DC96516EDCA0
:1026700097516CDC98516ADC995168DC9A5166DCA0
:102680009B5164DC9C5162DC9D5160DC9E515EDCA0
:102690009F515CDCA0515ADCA15158DCA25156DCA0
:1026A000A35154DCA45152DCA55150DCA6514EDCA0
:1026B000A7514CDCA8514ADCA95148DCAA5146DCA0
:1026C000AB5144DCAC5142DC030E0801796F0001D0
:1026D000B9EC03F08A96939601017550765DD8A403
:1026E00029EF22F0772D12D205017B6B78C17AF5A4
:1026F0007AC57AF80801796B7951010179110501E0
:102700007A6F7AC87BF505017D6B7AC17CF57CC553
:102710007AF80801796B795101017B1105017C6F11
:102720007AC87DF505017B53D8A4B8D17A510F083A
:10273000D8A0B4D17C517A250801796F05017D516B
:102740007B2108017A6F7A53D8B402D00501A6D153
:1027500079511008D8B002D00501A0D105017D53F0
:1027600006E17C51080803E3010E7E6F12D07D5311
:1027700006E17C51100803E3020E7E6F0AD07D5300
:1027800006E17C51180803E3030E7E6F02D0010EB0
:102790007E6F7E2DA1D07B530DE17A5108080AE3AC
:1027A00046C07FF57A51016E04E0D8907F33012E48
:1027B000FCD71AD07B5303E17A51080815E27B530A
:1027C00013E17A510F0810E3080E7A5D006E000ED7
:1027D0007B59036E00C001F047C07FF5015204E051
:1027E000D8907F33012EFCD77C51080803E17D533C
:1027F00001E135D07C51070804E17D5302E17F9F60
:102800002ED07C51060805E17D5303E13F0E7F1772
:1028100026D07C51050805E17D5303E11F0E7F178B
:102820001ED07C51040805E17D5303E10F0E7F1794
:1028300016D07C51030805E17D5303E1070E7F1795
:102840000ED07C51020805E17D5303E1030E7F1792
:1028500006D07C2D04D07D5302E1010E7F1775C098
:1028600077F0010E786E7EC579F07FC57AF00801A9
:102870007B6B770E7A6F040E7C6F0001ABEC0FF070
:1028800077C57BF076C57CF08A8693960400040EAB
:102890000801796F0001B9EC03F004007750A6EC51
:1028A0000FF07850A6EC0FF07950A6EC0FF07A50AC
:1028B000A6EC0FF07B50A6EC0FF07C50A6EC0FF0CE
:1028C0000400030E0801796F0001B9EC03F0040065
:1028D0008A969396E1D005017E510208D8A4DDD0F6
:1028E00046C07FF57A51016E04E0D8907F33012E07
:1028F000FCD747C080F5070E7C5D0801796F000E9C
:1029000005017D5908017A6F7951080803E17A536E
:1029100001E183D0070E05017C5D0801796F000E8F
:1029200005017D5908017A6F7951070805E17A534D
:1029300003E10501809F70D0070E05017C5D080151
:10294000796F000E05017D5908017A6F79510608EB
:1029500006E17A5304E13F0E050180175DD0070EB2
:1029600005017C5D0801796F000E05017D590801A4
:102970007A6F7951050806E17A5304E11F0E0501CB
:1029800080174AD0070E05017C5D0801796F000EA3
:1029900005017D5908017A6F7951040806E17A53DF
:1029A00004E10F0E0501801737D0070E05017C5D8D
:1029B0000801796F000E05017D5908017A6F795180
:1029C000030806E17A5304E1070E0501801724D0BD
:1029D000070E05017C5D0801796F000E05017D5928
:1029E00008017A6F7951020806E17A5304E1030E77
:1029F0000501801711D0070E05017C5D0801796F74
:102A0000000E05017D5908017A6F792D06D07A53A1
:102A100004E1010E05018017080175C077F0010E71
:102A2000786E7EC579F07FC57AF080C57BF07B6BD0
:102A3000770E7A6F050E7C6F0001ABEC0FF077C557
:102A40007CF076C57DF08A8693960400040E08011A
:102A5000796F0001B9EC03F004007750A6EC0FF099
:102A60007850A6EC0FF07950A6EC0FF07A50A6EC57
:102A70000FF07B50A6EC0FF07C50A6EC0FF07D50D1
:102A8000A6EC0FF00400030E0801796F0001B9EC09
:102A900003F004008A969396050137D075C077F04D
:102AA000810E786E020E796E08017B6B770E7A6F5D
:102AB000030E7C6F0001ABEC0FF077C57AF076C5A2
:102AC0007BF08A8693960400040E0801796F00015A
:102AD000B9EC03F004007750A6EC0FF07850A6ECA8
:102AE0000FF07950A6EC0FF07A50A6EC0FF07B5067
:102AF000A6EC0FF00400030E0801796F0001B9EC99
:102B000003F004008A9693960501010177510708A6
:102B1000D8A4B1D00001E3EF0FF09D921BC07FF568
:102B20001CC080F51DC081F51EC082F51FC083F555
:102B300020C084F521C085F522C086F523C087F525
:102B400024C088F525C089F526C08AF527C08BF5F5
:102B500028C08CF529C08DF52AC08EF575C077F098
:102B6000070E786E100E05017E6F7EC579F07FC569
:102B70007AF080C57BF081C57CF082C57DF083C58D
:102B80007EF084C57FF085C580F086C581F087C55D
:102B900082F088C583F089C584F08AC585F08BC52D
:102BA00086F08CC587F08DC588F08EC589F0080148
:102BB0007B6B770E7A6F130E7C6F0001ABEC0FF01E
:102BC00077C58AF076C58BF08A8693960400040E4A
:102BD0000801796F0001B9EC03F004007750A6EC0E
:102BE0000FF07850A6EC0FF07950A6EC0FF07A5069
:102BF000A6EC0FF07B50A6EC0FF07C50A6EC0FF08B
:102C00007D50A6EC0FF07E50A6EC0FF07F50A6ECA6
:102C10000FF08051A6EC0FF08151A6EC0FF082511D
:102C2000A6EC0FF08351A6EC0FF08451A6EC0FF048
:102C30008551A6EC0FF08651A6EC0FF08751A6EC5B
:102C40000FF08851A6EC0FF08951A6EC0FF08A51D5
:102C5000A6EC0FF08B51A6EC0FF00400030E080158
:102C6000796F0001B9EC03F004008A9693969D8277
:102C7000E0EF21F0010177510508D8A475D20501D4
:102C80007B6B78C17AF57AC57AF80801796B79514E
:102C90000101791105017A6F7AC87BF505017D6B19
:102CA0007AC17CF57CC57AF80801796B795101010C
:102CB0007B1105017C6F7AC87DF505017A534EE1E1
:102CC0007B534CE17C5349E17D3D47D0178475C06F
:102CD00077F0050E786E78C179F079C17AF07AC113
:102CE0007BF07BC17CF008017B6B770E7A6F060E60
:102CF0007C6F0001ABEC0FF077C57DF076C57EF000
:102D00008A8693960400040E0801796F0001B9ECDD
:102D100003F004007750A6EC0FF07850A6EC0FF00B
:102D20007950A6EC0FF07A50A6EC0FF07B50A6EC91
:102D30000FF07C50A6EC0FF07D50A6EC0FF07E500B
:102D4000A6EC0FF00400030E0801796F0001B9EC46
:102D500003F004008A969396050103D27A2D4ED093
:102D60007B534CE17C5349E17D3D47D0178675C0CC
:102D700077F0050E786E78C179F079C17AF07AC172
:102D80007BF07BC17CF008017B6B770E7A6F060EBF
:102D90007C6F0001ABEC0FF077C57DF076C57EF05F
:102DA0008A8693960400040E0801796F0001B9EC3D
:102DB00003F004007750A6EC0FF07850A6EC0FF06B
:102DC0007950A6EC0FF07A50A6EC0FF07B50A6ECF1
:102DD0000FF07C50A6EC0FF07D50A6EC0FF07E506B
:102DE000A6EC0FF00400030E0801796F0001B9ECA6
:102DF00003F004008A9693960501B3D17A51020834
:102E0000D8A4A4D07B53D8A4A1D07C534AE17D3D63
:102E100048D0178875C077F0050E786E78C179F0C4
:102E200079C17AF07AC17BF07BC17CF008017B6BC1
:102E3000770E7A6F060E7C6F0001ABEC0FF077C552
:102E40007DF076C57EF08A8693960400040E080114
:102E5000796F0001B9EC03F004007750A6EC0FF095
:102E60007850A6EC0FF07950A6EC0FF07A50A6EC53
:102E70000FF07B50A6EC0FF07C50A6EC0FF07D50CD
:102E8000A6EC0FF07E50A6EC0FF00400030E080134
:102E9000796F0001B9EC03F004008A96939654D040
:102EA00005017C5352E17D5350E117980001DCECA1
:102EB0000AF01784B8EC10F017862AEC11F075C0F0
:102EC00077F0050E786E78C179F079C17AF07AC121
:102ED0007BF07BC17CF008017B6B770E7A6F060E6E
:102EE0007C6F0001ABEC0FF077C57DF076C57EF00E
:102EF0008A8693960400040E0801796F0001B9ECEC
:102F000003F004007750A6EC0FF07850A6EC0FF019
:102F10007950A6EC0FF07A50A6EC0FF07B50A6EC9F
:102F20000FF07C50A6EC0FF07D50A6EC0FF07E5019
:102F3000A6EC0FF00400030E0801796F0001B9EC54
:102F400003F004008A96939605010BD17A51030889
:102F5000D8A4A4D07B53D8A4A1D07C534AE17D3D12
:102F600048D0178A75C077F0050E786E78C179F071
:102F700079C17AF07AC17BF07BC17CF008017B6B70
:102F8000770E7A6F060E7C6F0001ABEC0FF077C501
:102F90007DF076C57EF08A8693960400040E0801C3
:102FA000796F0001B9EC03F004007750A6EC0FF044
:102FB0007850A6EC0FF07950A6EC0FF07A50A6EC02
:102FC0000FF07B50A6EC0FF07C50A6EC0FF07D507C
:102FD000A6EC0FF07E50A6EC0FF004000A0E0801DC
:102FE000796F0001B9EC03F004008A96939654D0EF
:102FF00005017C5352E17D5350E1179A0001DCEC4E
:103000000AF01784B8EC10F017862AEC11F075C09E
:1030100077F0050E786E78C179F079C17AF07AC1CF
:103020007BF07BC17CF008017B6B770E7A6F060E1C
:103030007C6F0001ABEC0FF077C57DF076C57EF0BC
:103040008A8693960400040E0801796F0001B9EC9A
:1030500003F004007750A6EC0FF07850A6EC0FF0C8
:103060007950A6EC0FF07A50A6EC0FF07B50A6EC4E
:103070000FF07C50A6EC0FF07D50A6EC0FF07E50C8
:10308000A6EC0FF00400030E0801796F0001B9EC03
:1030900003F004008A969396050163D07A51640880
:1030A00060E17B535EE17CC575F0AA6A1D0EA96ED6
:1030B00075C0A8FFA69CA69EA684F250006EF29E44
:1030C0000F01550EA76EAA0EA76EA682A6B2FED756
:1030D000A6940050F21275C077F0050E786E78C194
:1030E00079F079C17AF07AC17BF07BC17CF008017C
:1030F0007B6B770E7A6F060E7C6F0001ABEC0FF0E6
:1031000077C57DF076C57EF08A8693960400040E1E
:103110000801796F0001B9EC03F004007750A6ECC8
:103120000FF07850A6EC0FF07950A6EC0FF07A5023
:10313000A6EC0FF07B50A6EC0FF07C50A6EC0FF045
:103140007D50A6EC0FF07E50A6EC0FF00400030EAD
:103150000801796F0001B9EC03F004008A96939698
:103160000501E0EF21F0010177512108D8A46AEFB1
:103170001DF0AA6AA96A0F0EA86EA69CA69EA68438
:10318000F250006EF29E0F01550EA76EAA0EA76EAA
:10319000A682A6B2FED7A6940050F212AA6A010E29
:1031A000A96E79C1A8FFA69CA69EA684F2CF00F0C6
:1031B000F29E550EA76EAA0EA76EA682A6B2FED7E5
:1031C000A6940050F212AA6A020EA96E7AC1A8FF54
:1031D000A69CA69EA684F2CF00F0F29E550EA76E86
:1031E000AA0EA76EA682A6B2FED7A6940050F2122F
:1031F000AA6A030EA96E7BC1A8FFA69CA69EA68400
:10320000F2CF00F0F29E550EA76EAA0EA76EA68210
:10321000A6B2FED7A6940050F212AA6A040EA96EB6
:103220007CC1A8FFA69CA69EA684F2CF00F0F29EC9
:10323000550EA76EAA0EA76EA682A6B2FED7A694BA
:103240000050F212AA6A050EA96E7DC1A8FFA69CC5
:10325000A69EA684F2CF00F0F29E550EA76EAA0E8F
:10326000A76EA682A6B2FED7A6940050F212AA6A52
:10327000060EA96E7EC1A8FFA69CA69EA684F2CFCC
:1032800000F0F29E550EA76EAA0EA76EA682A6B2F9
:10329000FED7A6940050F212AA6A070EA96E7FC14B
:1032A000A8FFA69CA69EA684F2CF00F0F29E550E23
:1032B000A76EAA0EA76EA682A6B2FED7A69400504D
:1032C000F212AA6A080EA96E80C1A8FFA69CA69E4B
:1032D000A684F2CF00F0F29E550EA76EAA0EA76E3E
:1032E000A682A6B2FED7A6940050F212AA6A090ED0
:1032F000A96E81C1A8FFA69CA69EA684F2CF00F06D
:10330000F29E550EA76EAA0EA76EA682A6B2FED793
:10331000A6940050F212AA6A0A0EA96E82C1A8FFF2
:10332000A69CA69EA684F2CF00F0F29E550EA76E34
:10333000AA0EA76EA682A6B2FED7A6940050F212DD
:10334000AA6A0B0EA96E83C1A8FFA69CA69EA6849E
:10335000F2CF00F0F29E550EA76EAA0EA76EA682BF
:10336000A6B2FED7A6940050F212AA6A0C0EA96E5D
:1033700084C1A8FFA69CA69EA684F2CF00F0F29E70
:10338000550EA76EAA0EA76EA682A6B2FED7A69469
:103390000050F212AA6A0D0EA96E85C1A8FFA69C64
:1033A000A69EA684F2CF00F0F29E550EA76EAA0E3E
:1033B000A76EA682A6B2FED7A6940050F212AA6A01
:1033C0000E0EA96E86C1A8FFA69CA69EA684F2CF6B
:1033D00000F0F29E550EA76EAA0EA76EA682A6B2A8
:1033E000FED7A6940050F212AA6A0F0EA96E87C1EA
:1033F000A8FFA69CA69EA684F2CF00F0F29E550ED2
:10340000A76EAA0EA76EA682A6B2FED7A6940050FB
:10341000F212AA6A100EA96E88C1A8FFA69CA69EE9
:10342000A684F2CF00F0F29E550EA76EAA0EA76EEC
:10343000A682A6B2FED7A6940050F212AA6A110E76
:10344000A96E89C1A8FFA69CA69EA684F2CF00F013
:10345000F29E550EA76EAA0EA76EA682A6B2FED742
:10346000A6940050F212AA6A120EA96E8AC1A8FF91
:10347000A69CA69EA684F2CF00F0F29E550EA76EE3
:10348000AA0EA76EA682A6B2FED7A6940050F2128C
:10349000AA6A130EA96E8BC1A8FFA69CA69EA6843D
:1034A000F2CF00F0F29E550EA76EAA0EA76EA6826E
:1034B000A6B2FED7A6940050F212AA6A140EA96E04
:1034C0008CC1A8FFA69CA69EA684F2CF00F0F29E17
:1034D000550EA76EAA0EA76EA682A6B2FED7A69418
:1034E0000050F212AA6A150EA96E8DC1A8FFA69C03
:1034F000A69EA684F2CF00F0F29E550EA76EAA0EED
:10350000A76EA682A6B2FED7A6940050F212AA6AAF
:10351000160EA96E8EC1A8FFA69CA69EA684F2CF09
:1035200000F0F29E550EA76EAA0EA76EA682A6B256
:10353000FED7A6940050F212AA6A170EA96E8FC188
:10354000A8FFA69CA69EA684F2CF00F0F29E550E80
:10355000A76EAA0EA76EA682A6B2FED7A6940050AA
:10356000F212AA6A180EA96E90C1A8FFA69CA69E88
:10357000A684F2CF00F0F29E550EA76EAA0EA76E9B
:10358000A682A6B2FED7A6940050F212AA6A190E1D
:10359000A96E91C1A8FFA69CA69EA684F2CF00F0BA
:1035A000F29E550EA76EAA0EA76EA682A6B2FED7F1
:1035B000A6940050F212AA6A1A0EA96E92C1A8FF30
:1035C000A69CA69EA684F2CF00F0F29E550EA76E92
:1035D000AA0EA76EA682A6B2FED7A6940050F2123B
:1035E000AA6A1B0EA96E93C1A8FFA69CA69EA684DC
:1035F000F2CF00F0F29E550EA76EAA0EA76EA6821D
:10360000A6B2FED7A6940050F212AA6A1C0EA96EAA
:1036100094C1A8FFA69CA69EA684F2CF00F0F29EBD
:10362000550EA76EAA0EA76EA682A6B2FED7A694C6
:103630000050F212AA6A1D0EA96E95C1A8FFA69CA1
:10364000A69EA684F2CF00F0F29E550EA76EAA0E9B
:10365000A76EA682A6B2FED7A6940050F212AA6A5E
:103660001E0EA96E96C1A8FFA69CA69EA684F2CFA8
:1036700000F0F29E550EA76EAA0EA76EA682A6B205
:10368000FED7A6940050F212AA6A1F0EA96E97C127
:10369000A8FFA69CA69EA684F2CF00F0F29E550E2F
:1036A000A76EAA0EA76EA682A6B2FED7A694005059
:1036B000F212AA6A200EA96E98C1A8FFA69CA69E27
:1036C000A684F2CF00F0F29E550EA76EAA0EA76E4A
:1036D000A682A6B2FED7A6940050F212AA6A210EC4
:1036E000A96E99C1A8FFA69CA69EA684F2CF00F061
:1036F000F29E550EA76EAA0EA76EA682A6B2FED7A0
:10370000A6940050F212AA6A220EA96E9AC1A8FFCE
:10371000A69CA69EA684F2CF00F0F29E550EA76E40
:10372000AA0EA76EA682A6B2FED7A6940050F212E9
:10373000AA6A230EA96E9BC1A8FFA69CA69EA6847A
:10374000F2CF00F0F29E550EA76EAA0EA76EA682CB
:10375000A6B2FED7A6940050F212AA6A240EA96E51
:103760009CC1A8FFA69CA69EA684F2CF00F0F29E64
:10377000550EA76EAA0EA76EA682A6B2FED7A69475
:103780000050F212AA6A250EA96E9DC1A8FFA69C40
:10379000A69EA684F2CF00F0F29E550EA76EAA0E4A
:1037A000A76EA682A6B2FED7A6940050F212AA6A0D
:1037B000260EA96E9EC1A8FFA69CA69EA684F2CF47
:1037C00000F0F29E550EA76EAA0EA76EA682A6B2B4
:1037D000FED7A6940050F212AA6A270EA96E9FC1C6
:1037E000A8FFA69CA69EA684F2CF00F0F29E550EDE
:1037F000A76EAA0EA76EA682A6B2FED7A694005008
:10380000F212AA6A280EA96EA0C1A8FFA69CA69EC5
:10381000A684F2CF00F0F29E550EA76EAA0EA76EF8
:10382000A682A6B2FED7A6940050F212AA6A290E6A
:10383000A96EA1C1A8FFA69CA69EA684F2CF00F007
:10384000F29E550EA76EAA0EA76EA682A6B2FED74E
:10385000A6940050F212AA6A2A0EA96EA2C1A8FF6D
:10386000A69CA69EA684F2CF00F0F29E550EA76EEF
:10387000AA0EA76EA682A6B2FED7A6940050F21298
:10388000AA6A2B0EA96EA3C1A8FFA69CA69EA68419
:10389000F2CF00F0F29E550EA76EAA0EA76EA6827A
:1038A000A6B2FED7A6940050F212AA6A2C0EA96EF8
:1038B000A4C1A8FFA69CA69EA684F2CF00F0F29E0B
:1038C000550EA76EAA0EA76EA682A6B2FED7A69424
:1038D0000050F212AA6A2D0EA96EA5C1A8FFA69CDF
:1038E000A69EA684F2CF00F0F29E550EA76EAA0EF9
:1038F000A76EA682A6B2FED7A6940050F212AA6ABC
:103900002E0EA96EA6C1A8FFA69CA69EA684F2CFE5
:1039100000F0F29E550EA76EAA0EA76EA682A6B262
:10392000FED7A6940050F212AA6A2F0EA96EA7C164
:10393000A8FFA69CA69EA684F2CF00F0F29E550E8C
:10394000A76EAA0EA76EA682A6B2FED7A6940050B6
:10395000F212AA6A300EA96EA8C1A8FFA69CA69E64
:10396000A684F2CF00F0F29E550EA76EAA0EA76EA7
:10397000A682A6B2FED7A6940050F212AA6A310E11
:10398000A96EA9C1A8FFA69CA69EA684F2CF00F0AE
:10399000F29E550EA76EAA0EA76EA682A6B2FED7FD
:1039A000A6940050F2120801716B706B0400AA0E0D
:1039B0007025E96E010E7121EA6EEFCF72F8725137
:1039C0000D0805E0715303E170510F0827E2830EE3
:1039D0007025E96E060E7121EA6EEF6A320E7025CF
:1039E000796F000E71217A6F7AC8AAFF79C8A9FF92
:1039F00072C8A8FFA69CA69EA684F250006EF29EF6
:103A00000F01550EA76EAA0EA76EA682A6B2FED70C
:103A1000A6940050F2122DD026D00801830E7025F6
:103A2000E96E060E7121EA6E72C8EFFF320E702544
:103A3000796F000E71217A6F7AC8AAFF79C8A9FF41
:103A400072C8A8FFA69CA69EA684F250006EF29EA5
:103A50000F01550EA76EAA0EA76EA682A6B2FED7BC
:103A6000A6940050F2120801702BD8B4712B9ED787
:103A70000F0175C077F0210E786E08017B6B770E11
:103A80007A6F020E7C6F0001ABEC0FF077C579F016
:103A900076C57AF08A8693960A0E0801796F00013E
:103AA000B9EC03F07750A6EC0FF07850A6EC0FF0CD
:103AB0007950A6EC0FF07A50A6EC0FF0030E080137
:103AC000796F0001B9EC03F08A969396FF00E0EF5E
:103AD00021F0010177512208D8A4E0EF21F008017C
:103AE000746B030E736F766B756B786B776B04007A
:103AF000760E7325E96E010E7421EA6EEF500D0803
:103B000005E0765303E17551290828E25D0E73251F
:103B1000796F000E74217A6F760E7325E96E010EAF
:103B20007421EA6EEFCF7BF87AC8AAFF79C8A9FFA3
:103B30007BC8A8FFA69CA69EA684F250006EF29EAB
:103B40000F01550EA76EAA0EA76EA682A6B2FED7CB
:103B5000A6940050F21246D03AD00801920E752574
:103B6000016E060E7621036E760E7325E96E010E48
:103B70007421EA6EEFCF7BF803C0EAFF01C0E9FFD2
:103B80007BC8EFFF5D0E7325796F000E74217A6F8D
:103B9000760E7325E96E010E7421EA6EEFCF7BF885
:103BA0007AC8AAFF79C8A9FF7BC8A8FFA69CA69ED1
:103BB000A684F250006EF29E0F01550EA76EAA0E5B
:103BC000A76EA682A6B2FED7A6940050F2120801F4
:103BD00074C803F07351732BD8B4742B752BD8B4FD
:103BE000762B85D7920E08017525E96E060E762193
:103BF000EA6EEF6A766B756B732BD8B4742B040086
:103C0000760E7325E96E010E7421EA6EEF500D08F1
:103C100005E0765303E17551290828E25D0E73250E
:103C2000796F000E74217A6F760E7325E96E010E9E
:103C30007421EA6EEFCF7BF87AC8AAFF79C8A9FF92
:103C40007BC8A8FFA69CA69EA684F250006EF29E9A
:103C50000F01550EA76EAA0EA76EA682A6B2FED7BA
:103C6000A6940050F21246D03AD00801BB0E75253A
:103C7000016E060E7621036E760E7325E96E010E37
:103C80007421EA6EEFCF7BF803C0EAFF01C0E9FFC1
:103C90007BC8EFFF5D0E7325796F000E74217A6F7C
:103CA000760E7325E96E010E7421EA6EEFCF7BF874
:103CB0007AC8AAFF79C8A9FF7BC8A8FFA69CA69EC0
:103CC000A684F250006EF29E0F01550EA76EAA0E4A
:103CD000A76EA682A6B2FED7A6940050F2120801E3
:103CE00074C803F07351732BD8B4742B752BD8B4EC
:103CF000762B85D7BB0E08017525E96E060E762159
:103D0000EA6EEF6A766B756B732BD8B4742B040074
:103D1000760E7325E96E010E7421EA6EEF500D08E0
:103D200005E0765303E17551290828E25D0E7325FD
:103D3000796F000E74217A6F760E7325E96E010E8D
:103D40007421EA6EEFCF7BF87AC8AAFF79C8A9FF81
:103D50007BC8A8FFA69CA69EA684F250006EF29E89
:103D60000F01550EA76EAA0EA76EA682A6B2FED7A9
:103D7000A6940050F21246D03AD00801E40E752500
:103D8000016E060E7621036E760E7325E96E010E26
:103D90007421EA6EEFCF7BF803C0EAFF01C0E9FFB0
:103DA0007BC8EFFF5D0E7325796F000E74217A6F6B
:103DB000760E7325E96E010E7421EA6EEFCF7BF863
:103DC0007AC8AAFF79C8A9FF7BC8A8FFA69CA69EAF
:103DD000A684F250006EF29E0F01550EA76EAA0E39
:103DE000A76EA682A6B2FED7A6940050F2120801D2
:103DF00074C803F07351732BD8B4742B752BD8B4DB
:103E0000762B85D7E40E08017525E96E060E76211E
:103E1000EA6EEF6A766B756B732BD8B4742B040063
:103E2000760E7325E96E010E7421EA6EEF500D08CF
:103E300005E0765303E17551290828E25D0E7325EC
:103E4000796F000E74217A6F760E7325E96E010E7C
:103E50007421EA6EEFCF7BF87AC8AAFF79C8A9FF70
:103E60007BC8A8FFA69CA69EA684F250006EF29E78
:103E70000F01550EA76EAA0EA76EA682A6B2FED798
:103E8000A6940050F21246D03AD008010D0E7525C6
:103E9000016E070E7621036E760E7325E96E010E14
:103EA0007421EA6EEFCF7BF803C0EAFF01C0E9FF9F
:103EB0007BC8EFFF5D0E7325796F000E74217A6F5A
:103EC000760E7325E96E010E7421EA6EEFCF7BF852
:103ED0007AC8AAFF79C8A9FF7BC8A8FFA69CA69E9E
:103EE000A684F250006EF29E0F01550EA76EAA0E28
:103EF000A76EA682A6B2FED7A6940050F2120801C1
:103F000074C803F07351732BD8B4742B752BD8B4C9
:103F1000762B85D70D0E08017525E96E070E7621E3
:103F2000EA6EEF6A766B756B732BD8B4742B040052
:103F3000760E7325E96E010E7421EA6EEF500D08BE
:103F400005E0765303E17551290828E25D0E7325DB
:103F5000796F000E74217A6F760E7325E96E010E6B
:103F60007421EA6EEFCF7BF87AC8AAFF79C8A9FF5F
:103F70007BC8A8FFA69CA69EA684F250006EF29E67
:103F80000F01550EA76EAA0EA76EA682A6B2FED787
:103F9000A6940050F21246D03AD00801360E75258C
:103FA000016E070E7621036E760E7325E96E010E03
:103FB0007421EA6EEFCF7BF803C0EAFF01C0E9FF8E
:103FC0007BC8EFFF5D0E7325796F000E74217A6F49
:103FD000760E7325E96E010E7421EA6EEFCF7BF841
:103FE0007AC8AAFF79C8A9FF7BC8A8FFA69CA69E8D
:103FF000A684F250006EF29E0F01550EA76EAA0E17
:10400000A76EA682A6B2FED7A6940050F2120801AF
:1040100074C803F07351732BD8B4742B752BD8B4B8
:10402000762B85D7360E08017525E96E070E7621A9
:10403000EA6EEF6A766B756B732BD8B4742B040041
:10404000760E7325E96E010E7421EA6EEF500D08AD
:1040500005E0765303E17551290828E25D0E7325CA
:10406000796F000E74217A6F760E7325E96E010E5A
:104070007421EA6EEFCF7BF87AC8AAFF79C8A9FF4E
:104080007BC8A8FFA69CA69EA684F250006EF29E56
:104090000F01550EA76EAA0EA76EA682A6B2FED776
:1040A000A6940050F21248D03CD008015D0E732552
:1040B000796F000E74217A6F760E7325E96E010E0A
:1040C0007421EA6EEFCF7BF87AC8AAFF79C8A9FFFE
:1040D0007BC8A8FFA69CA69EA684F250006EF29E06
:1040E0000F01550EA76EAA0EA76EA682A6B2FED726
:1040F000A6940050F2125F0E08017525016E070E9E
:104100007621036E760E7325E96E010E7421EA6E38
:10411000EFCF7BF803C0EAFF01C0E9FF7BC8EFFFE8
:104120000F01080174C803F07351732BD8B4742BBA
:10413000752BD8B4762B83D75F0E08017525E96EF1
:10414000070E7621EA6EEF6A766B756B732BD8B427
:10415000742B0400760E7325E96E010E7421EA6E4D
:10416000EF500D0805E0765303E17551290828E268
:104170005D0E7325796F000E74217A6F760E7325AC
:10418000E96E010E7421EA6EEFCF7BF87AC8AAFFC0
:1041900079C8A9FF7BC8A8FFA69CA69EA684F2505A
:1041A000006EF29E0F01550EA76EAA0EA76EA68294
:1041B000A6B2FED7A6940050F21246D03AD008011B
:1041C000880E7525016E070E7621036E760E732517
:1041D000E96E010E7421EA6EEFCF7BF803C0EAFFAF
:1041E00001C0E9FF7BC8EFFF5D0E7325796F000EFC
:1041F00074217A6F760E7325E96E010E7421EA6ED2
:10420000EFCF7BF87AC8AAFF79C8A9FF7BC8A8FFBF
:10421000A69CA69EA684F250006EF29E0F01550E3B
:10422000A76EAA0EA76EA682A6B2FED7A6940050CD
:10423000F212080174C803F07351732BD8B4742BB5
:10424000752BD8B4762B85D7880E08017525E96EB5
:10425000070E7621EA6EEF6A766B756B732BD8B416
:10426000742B0400760E7325E96E010E7421EA6E3C
:10427000EF500D0805E0765303E17551290828E257
:104280005D0E7325796F000E74217A6F760E73259B
:10429000E96E010E7421EA6EEFCF7BF87AC8AAFFAF
:1042A00079C8A9FF7BC8A8FFA69CA69EA684F25049
:1042B000006EF29E0F01550EA76EAA0EA76EA68283
:1042C000A6B2FED7A6940050F21246D03AD008010A
:1042D000B10E7525016E070E7621036E760E7325DD
:1042E000E96E010E7421EA6EEFCF7BF803C0EAFF9E
:1042F00001C0E9FF7BC8EFFF5D0E7325796F000EEB
:1043000074217A6F760E7325E96E010E7421EA6EC0
:10431000EFCF7BF87AC8AAFF79C8A9FF7BC8A8FFAE
:10432000A69CA69EA684F250006EF29E0F01550E2A
:10433000A76EAA0EA76EA682A6B2FED7A6940050BC
:10434000F212080174C803F07351732BD8B4742BA4
:10435000752BD8B4762B85D7B10E08017525E96E7B
:10436000070E7621EA6EEF6A75C077F0210E786E3F
:104370007B6B770E7A6F020E7C6F0001ABEC0FF057
:1043800077C579F076C57AF08A8693960A0E080189
:10439000796F0001B9EC03F07750A6EC0FF078507C
:1043A000A6EC0FF07950A6EC0FF07A50A6EC0FF0C7
:1043B000030E0801796F0001B9EC03F08A96939619
:1043C00001017751030845E105017F6B46C080F587
:1043D00075C077F0030E786E020E796E7FC57AF0A5
:1043E00080C57BF008017B6B770E7A6F050E7C6FC2
:1043F0000001ABEC0FF077C57CF076C57DF08A86C6
:1044000093960400040E0801796F0001B9EC03F0E3
:1044100004007750A6EC0FF07850A6EC0FF079501E
:10442000A6EC0FF07A50A6EC0FF07B50A6EC0FF044
:104430007C50A6EC0FF07D50A6EC0FF00400030EAC
:104440000801796F0001B9EC03F004008A96939695
:104450000101010E0501796FF40E786F2D9A6CC081
:1044600074F00601806B766A8A96939600015AEF83
:1044700035F00701E281E283E285E287E289E28B9F
:10448000E28DE28F00013EEF31F0EF5211E0EACF12
:1044900079F8E9CF78F8EF5004009EA8FDD7AD6E0B
:1044A00079C8EAFF78C8E9FFE92AD8B4EA2AEDD743
:1044B000000C0801782D34D1000E0701E2B1010E85
:1044C00008017A6F000E0701E3B1010E08017A13AB
:1044D000000E0701E1A1010E08017A17000E070185
:1044E000DEB1010E08017B6F000E0701DFB1010E86
:1044F00008017B117A157991E8B07981000E79B1C4
:10450000010E7A6F000E0701E2B3010E08017B6F06
:10451000000E0701E3B3010E08017B13000E070133
:10452000E1A3010E08017B17000E0701DEB3010EA7
:1045300008017C6F000E0701DFB3010E08017C113A
:104540007B157A117991E8B07981000E79B1010E6D
:104550007A6F000E0701E2B5010E08017B6F000EB5
:104560000701E3B5010E08017B13000E0701E1A569
:10457000010E08017B17000E0701DEB5010E0801D0
:104580007C6F000E0701DFB5010E08017C117B1561
:104590007A117991E8B07981000E79B1010E7A6FC4
:1045A000000E0701E2B7010E08017B6F000E070144
:1045B000E3B7010E08017B13000E0701E1A7010E0E
:1045C00008017B17000E0701DEB7010E08017C6FA2
:1045D000000E0701DFB7010E08017C117B157A116F
:1045E0007991E8B07981000E79B1010E7A6F000EF1
:1045F0000701E2B9010E08017B6F000E0701E3B964
:10460000010E08017B13000E0701E1A9010E08014C
:104610007B17000E0701DEB9010E08017C6F000E4A
:104620000701DFB9010E08017C117B157A11799120
:10463000E8B07981000E79B1010E7A6F000E0701A2
:10464000E2BB010E08017B6F000E0701E3BB010E08
:1046500008017B13000E0701E1AB010E08017B1777
:10466000000E0701DEBB010E08017C6F000E070182
:10467000DFBB010E08017C117B157A117991E8B03E
:104680007981000E79B1010E7A6F000E0701E2BD4B
:10469000010E08017B6F000E0701E3BD010E08014A
:1046A0007B13000E0701E1AD010E08017B17000E20
:1046B0000701DEBD010E08017C6F000E0701DFBDA2
:1046C000010E08017C117B157A117991E8B079818E
:1046D000000E79B1010E7A6F000E0701E2BF010EE4
:1046E00008017B6F000E0701E3BF010E08017B1379
:1046F000000E0701E1AF010E08017B17000E070154
:10470000DEBF010E08017C6F000E0701DFBF010E46
:1047100008017C117B157A117991E8B0798137D144
:1047200078510208D8A433D1000E0701E2B1010E7E
:1047300008017A6F000E0701E3B1010E08017A1338
:10474000000E0701E1A1010E08017A17000E070112
:10475000DEA1010E08017B6F000E0701DFB1010E23
:1047600008017B117A157991E8B07981000E79B151
:10477000010E7A6F000E0701E2B3010E08017B6F94
:10478000000E0701E3B3010E08017B13000E0701C1
:10479000E1A3010E08017B17000E0701DEA3010E45
:1047A00008017C6F000E0701DFB3010E08017C11C8
:1047B0007B157A117991E8B07981000E79B1010EFB
:1047C0007A6F000E0701E2B5010E08017B6F000E43
:1047D0000701E3B5010E08017B13000E0701E1A5F7
:1047E000010E08017B17000E0701DEA5010E08016E
:1047F0007C6F000E0701DFB5010E08017C117B15EF
:104800007A117991E8B07981000E79B1010E7A6F51
:10481000000E0701E2B7010E08017B6F000E0701D1
:10482000E3B7010E08017B13000E0701E1A7010E9B
:1048300008017B17000E0701DEA7010E08017C6F3F
:10484000000E0701DFB7010E08017C117B157A11FC
:104850007991E8B07981000E79B1010E7A6F000E7E
:104860000701E2B9010E08017B6F000E0701E3B9F1
:10487000010E08017B13000E0701E1A9010E0801DA
:104880007B17000E0701DEA9010E08017C6F000EE8
:104890000701DFB9010E08017C117B157A117991AE
:1048A000E8B07981000E79B1010E7A6F000E070130
:1048B000E2BB010E08017B6F000E0701E3BB010E96
:1048C00008017B13000E0701E1AB010E08017B1705
:1048D000000E0701DEAB010E08017C6F000E070120
:1048E000DFBB010E08017C117B157A117991E8B0CC
:1048F0007981000E79B1010E7A6F000E0701E2BDD9
:10490000010E08017B6F000E0701E3BD010E0801D7
:104910007B13000E0701E1AD010E08017B17000EAD
:104920000701DEAD010E08017C6F000E0701DFBD3F
:10493000010E08017C117B157A117991E8B079811B
:10494000000E79B1010E7A6F000E0701E2BF010E71
:1049500008017B6F000E0701E3BF010E08017B1306
:10496000000E0701E1AF010E08017B17000E0701E1
:10497000DEAF010E08017C6F000E0701DFBF010EE4
:1049800008017C117B157A117991E8B07981000ECC
:1049900079B1010E016E0001000C0701E0A176D093
:1049A000000EDAB1010E0801786F000E0701DCB1CC
:1049B000010E08017819010803E10701DDB103D0F8
:1049C0000701E2A160D0E1B15DD0E2B107D067504C
:1049D0000F0804E1640E196E68C01AF0E28117B284
:1049E00002D0DB9101D0DB8117B80ED0DFB105D04A
:1049F000899892988996929607D0DEA103D08998DB
:104A0000929802D089969296E8B13CD02DB23AD0D5
:104A1000E1B138D0D80EF66E050EF76E000194ECB9
:104A20000FF00A0EA6EC0FF00A0E0801796F0001D4
:104A3000B9EC03F00701E881E20EF66E050EF76EA1
:104A4000000194EC0FF0060EEA6E830EE96E1DDD98
:104A5000220E04009EA8FDD7AD6E0A0EA6EC0FF044
:104A6000320E0801796F0001B9EC03F0060EEA6E10
:104A7000920EE96E0ADD0A0EA6EC0FF01A0EA6ECF5
:104A80000FF0070102D0DDB1E19153D0000EDAB191
:104A9000010E0801786F000E0701DCB1010E08015C
:104AA0007819010842E10701DB91E8B13CD02DB251
:104AB0003AD0E1B138D0EC0EF66E050EF76E00017B
:104AC00094EC0FF00A0EA6EC0FF00A0E0801796FB5
:104AD0000001B9EC03F00701E881F60EF66E050E51
:104AE000F76E000194EC0FF0060EEA6E830EE96E8D
:104AF000CCDC220E04009EA8FDD7AD6E0A0EA6ECFB
:104B00000FF0320E0801796F0001B9EC03F0060EC8
:104B1000EA6E920EE96EB9DC0A0EA6EC0FF01A0EE0
:104B2000A6EC0FF0070105D008010701DB81E89131
:104B30002D92E0A376D0000EDAB3010E0801786F53
:104B4000000E0701DCB3010E08017819010803E12A
:104B50000701DDB303D00701E2A360D0E1B31FD0AA
:104B6000E2B307D067500F0804E1640E196E68C005
:104B70001AF0E28317B202D0DB9301D0DB8317B8BF
:104B80000ED0DFB305D0899892988996929607D077
:104B9000DEA303D08998929802D089969296E8B3C2
:104BA0003CD02DB23AD0E1B338D0000EF66E060EEE
:104BB000F76E000194EC0FF00A0EA6EC0FF00A0E4F
:104BC0000801796F0001B9EC03F00701E8830A0ED0
:104BD000F66E060EF76E000194EC0FF0060EEA6E0C
:104BE000830EE96E52DC220E04009EA8FDD7AD6E46
:104BF0000A0EA6EC0FF0320E0801796F0001B9EC35
:104C000003F0060EEA6EBB0EE96E3FDC0A0EA6EC60
:104C10000FF01A0EA6EC0FF0070102D0DDB3E193FE
:104C200054D0000EDAB3010E0801786F000E0701B0
:104C3000DCB3010E08017819010843E10701DB9399
:104C4000E8B33DD02DB23BD0E1B339D0140EF66EAF
:104C5000060EF76E000194EC0FF00A0EA6EC0FF0B2
:104C60000A0E0801796F0001B9EC03F00701E8832F
:104C70001E0EF66E060EF76E000194EC0FF0060E97
:104C8000EA6E830EE96E01DC220E04009EA8FDD7B9
:104C9000AD6E0A0EA6EC0FF0320E0801796F00011E
:104CA000B9EC03F0060EEA6E920EE96E45EC22F0C6
:104CB0000A0EA6EC0FF01A0EA6EC0FF0070105D0B5
:104CC00008010701DB83E8932D92E0A578D0000E60
:104CD000DAB5010E0801786F000E0701DCB5010E90
:104CE00008017819010803E10701DDB503D00701C8
:104CF000E2A562D0E1B51FD0E2B507D067500F083A
:104D000004E1640E196E68C01AF0E28517B202D091
:104D1000DB9501D0DB8517B80ED0DFB505D08998BB
:104D200092988996929607D0DEA503D0899892989A
:104D300002D089969296E8B53ED02DB23CD0E1B52E
:104D40003AD0280EF66E060EF76E000194EC0FF0C6
:104D50000A0EA6EC0FF00A0E0801796F0001B9ECFB
:104D600003F00701E885320EF66E060EF76E0001BD
:104D700094EC0FF0060EEA6E830EE96E45EC22F01D
:104D8000220E04009EA8FDD7AD6E0A0EA6EC0FF011
:104D9000320E0801796F0001B9EC03F0060EEA6EDD
:104DA000E40EE96E45EC22F00A0EA6EC0FF01A0EA6
:104DB000A6EC0FF0070102D0DDB5E19554D0000E4E
:104DC000DAB5010E0801786F000E0701DCB5010E9F
:104DD00008017819010844E10701DB95E8B53ED0E8
:104DE0002DB23CD0E1B53AD03C0EF66E060EF76E11
:104DF000000194EC0FF00A0EA6EC0FF00A0E080169
:104E0000796F0001B9EC03F00701E885460EF66EF4
:104E1000060EF76E000194EC0FF0060EEA6E830E9C
:104E2000E96E45EC22F0220E04009EA8FDD7AD6E7F
:104E30000A0EA6EC0FF0320E0801796F0001B9ECF2
:104E400003F0060EEA6EE40EE96E45EC22F00A0E5F
:104E5000A6EC0FF01A0EA6EC0FF0070104D0080123
:104E60000701DB85E895E0A778D0000EDAB7010EE0
:104E70000801786F000E0701DCB7010E08017819F0
:104E8000010803E10701DDB703D00701E2A762D003
:104E9000E1B71FD0E2B707D067500F0804E1640EF6
:104EA000196E68C01AF0E28717B202D0DB9701D002
:104EB000DB8717B80ED0DFB705D08998929889960E
:104EC000929607D0DEA703D08998929802D089964F
:104ED0009296E8B73ED02DB23CD0E1B73AD0500E12
:104EE000F66E060EF76E000194EC0FF00A0EA6ECBB
:104EF0000FF00A0E0801796F0001B9EC03F0070109
:104F0000E8875A0EF66E060EF76E000194EC0FF06D
:104F1000060EEA6E830EE96E45EC22F0220E0400C6
:104F20009EA8FDD7AD6E0A0EA6EC0FF0320E08015A
:104F3000796F0001B9EC03F0070EEA6E0D0EE96E11
:104F400045EC22F00A0EA6EC0FF01A0EA6EC0FF0BC
:104F5000070102D0DDB7E19754D0000EDAB7010E99
:104F60000801786F000E0701DCB7010E08017819FF
:104F7000010844E10701DB97E8B73ED02DB23CD0F1
:104F8000E1B73AD0640EF66E060EF76E000194ECAF
:104F90000FF00A0EA6EC0FF00A0E0801796F00015F
:104FA000B9EC03F00701E8876E0EF66E060EF76E99
:104FB000000194EC0FF0060EEA6E830EE96E45ECEC
:104FC00022F0220E04009EA8FDD7AD6E0A0EA6ECBC
:104FD0000FF0320E0801796F0001B9EC03F0070EF3
:104FE000EA6E0D0EE96E45EC22F00A0EA6EC0FF00B
:104FF0001A0EA6EC0FF0070104D008010701DB87A9
:10500000E897E0A978D0000EDAB9010E0801786FB0
:10501000000E0701DCB9010E08017819010803E14F
:105020000701DDB903D00701E2A962D0E1B91FD0C1
:10503000E2B907D067500F0804E1640E196E68C02A
:105040001AF0E28917B202D0DB9901D0DB8917B8D8
:105050000ED0DFB905D0899892988996929607D09C
:10506000DEA903D08998929802D089969296E8B9E1
:105070003ED02DB23CD0E1B93AD0780EF66E060E95
:10508000F76E000194EC0FF00A0EA6EC0FF00A0E7A
:105090000801796F0001B9EC03F00701E889820E7D
:1050A000F66E060EF76E000194EC0FF0060EEA6E37
:1050B000830EE96E45EC22F0220E04009EA8FDD777
:1050C000AD6E0A0EA6EC0FF0320E0801796F0001EA
:1050D000B9EC03F0070EEA6E360EE96E45EC22F0ED
:1050E0000A0EA6EC0FF01A0EA6EC0FF0070102D084
:1050F000DDB9E19954D0000EDAB9010E0801786FDC
:10510000000E0701DCB9010E08017819010844E11D
:105110000701DB99E8B93ED02DB23CD0E1B93AD0D5
:105120008C0EF66E060EF76E000194EC0FF00A0E70
:10513000A6EC0FF00A0E0801796F0001B9EC03F03C
:105140000701E889960EF66E060EF76E000194ECE4
:105150000FF0060EEA6E830EE96E45EC22F0220E89
:1051600004009EA8FDD7AD6E0A0EA6EC0FF0320E1D
:105170000801796F0001B9EC03F0070EEA6E360EF4
:10518000E96E45EC22F00A0EA6EC0FF01A0EA6EC22
:105190000FF0070104D008010701DB89E899E0ABB3
:1051A00078D0000EDABB010E0801786F000E0701FF
:1051B000DCBB010E08017819010803E10701DDBB22
:1051C00003D00701E2AB62D0E1BB1FD0E2BB07D046
:1051D00067500F0804E1640E196E68C01AF0E28B84
:1051E00017B202D0DB9B01D0DB8B17B80ED0DFBB30
:1051F00005D0899892988996929607D0DEAB03D015
:105200008998929802D089969296E8BB3ED02DB2AA
:105210003CD0E1BB3AD0A00EF66E060EF76E000150
:1052200094EC0FF00A0EA6EC0FF00A0E0801796F4D
:105230000001B9EC03F00701E88BAA0EF66E060E2A
:10524000F76E000194EC0FF0060EEA6E830EE96E25
:1052500045EC22F0220E04009EA8FDD7AD6E0A0E8A
:10526000A6EC0FF0320E0801796F0001B9EC03F0E3
:10527000070EEA6E5F0EE96E45EC22F00A0EA6EC10
:105280000FF01A0EA6EC0FF0070102D0DDBBE19B78
:1052900054D0000EDABB010E0801786F000E070132
:1052A000DCBB010E08017819010844E10701DB9B12
:1052B000E8BB3ED02DB23CD0E1BB3AD0B40EF66E86
:1052C000060EF76E000194EC0FF00A0EA6EC0FF03C
:1052D0000A0E0801796F0001B9EC03F00701E88BB1
:1052E000BE0EF66E060EF76E000194EC0FF0060E81
:1052F000EA6E830EE96E45EC22F0220E04009EA8B1
:10530000FDD7AD6E0A0EA6EC0FF0320E0801796FD4
:105310000001B9EC03F0070EEA6E5F0EE96E45EC92
:1053200022F00A0EA6EC0FF01A0EA6EC0FF0070101
:1053300004D008010701DB8BE89BE0AD78D0000EBC
:10534000DABD010E0801786F000E0701DCBD010E09
:1053500008017819010803E10701DDBD03D0070149
:10536000E2AD62D0E1BD1FD0E2BD07D067500F08AB
:1053700004E1640E196E68C01AF0E28D17B202D013
:10538000DB9D01D0DB8D17B80ED0DFBD05D089982D
:1053900092988996929607D0DEAD03D0899892981C
:1053A00002D089969296E8BD3ED02DB23CD0E1BDA8
:1053B0003AD0C80EF66E060EF76E000194EC0FF0B0
:1053C0000A0EA6EC0FF00A0E0801796F0001B9EC85
:1053D00003F00701E88DD20EF66E060EF76E00019F
:1053E00094EC0FF0060EEA6E830EE96E45EC22F0A7
:1053F000220E04009EA8FDD7AD6E0A0EA6EC0FF09B
:10540000320E0801796F0001B9EC03F0070EEA6E65
:10541000880EE96E45EC22F00A0EA6EC0FF01A0E8B
:10542000A6EC0FF0070102D0DDBDE19D54D0000EC7
:10543000DABD010E0801786F000E0701DCBD010E18
:1054400008017819010844E10701DB9DE8BD3ED061
:105450002DB23CD0E1BD3AD0DC0EF66E060EF76EF2
:10546000000194EC0FF00A0EA6EC0FF00A0E0801F2
:10547000796F0001B9EC03F00701E88DE60EF66ED6
:10548000060EF76E000194EC0FF0060EEA6E830E26
:10549000E96E45EC22F0220E04009EA8FDD7AD6E09
:1054A0000A0EA6EC0FF0320E0801796F0001B9EC7C
:1054B00003F0070EEA6E880EE96E45EC22F00A0E44
:1054C000A6EC0FF01A0EA6EC0FF0070104D00801AD
:1054D0000701DB8DE89DE0AF78D0000EDABF010E4A
:1054E0000801786F000E0701DCBF010E0801781972
:1054F000010803E10701DDBF03D00701E2AF62D07D
:10550000E1BF1FD0E2BF07D067500F0804E1640E6F
:10551000196E68C01AF0E28F17B202D0DB9F01D07B
:10552000DB8F17B80ED0DFBF05D089989298899687
:10553000929607D0DEAF03D08998929802D08996D0
:105540009296E8BF3ED02DB23CD0E1BF3AD0F00EEB
:10555000F66E060EF76E000194EC0FF00A0EA6EC44
:105560000FF00A0E0801796F0001B9EC03F0070192
:10557000E88FFA0EF66E060EF76E000194EC0FF04F
:10558000060EEA6E830EE96E45EC22F0220E040050
:105590009EA8FDD7AD6E0A0EA6EC0FF0320E0801E4
:1055A000796F0001B9EC03F0070EEA6EB10EE96EF7
:1055B00045EC22F00A0EA6EC0FF01A0EA6EC0FF046
:1055C000070102D0DDBFE19F54D0000EDABF010E0B
:1055D0000801786F000E0701DCBF010E0801781981
:1055E000010844E10701DB9FE8BF3ED02DB23CD06B
:1055F000E1BF3AD0040EF66E070EF76E000194EC90
:105600000FF00A0EA6EC0FF00A0E0801796F0001E8
:10561000B9EC03F00701E88F0E0EF66E070EF76E79
:10562000000194EC0FF0060EEA6E830EE96E45EC75
:1056300022F0220E04009EA8FDD7AD6E0A0EA6EC45
:105640000FF0320E0801796F0001B9EC03F0070E7C
:10565000EA6EB10EE96E45EC22F00A0EA6EC0FF0F0
:105660001A0EA6EC0FF0070104D008010701DB8F2A
:10567000E89F000EDAB1010E0801786F000E0701F5
:10568000DCB1010E08017819010804E10701DDA170
:1056900004D0080117AA5AD00701E3B109D0675016
:1056A0000F0806E1E1B104D0640E196E68C01AF06B
:1056B000E381E1B117D017B202D0DB9101D0DB81D9
:1056C00017B810D0E0A10ED0DFB105D0899892981C
:1056D0008996929607D0DEA103D08998929802D03D
:1056E00089969296010E08016C6F0701E8B12DD0E2
:1056F0002DB22BD0E1B129D0E881180EF66E070E3D
:10570000F76E000194EC0FF0060EEA6E830EE96E60
:1057100045EC22F0220E04009EA8FDD7AD6E0A0EC5
:10572000A6EC0FF0320E0801796F0001B9EC03F01E
:10573000060EEA6E920EE96E45EC22F00A0EA6EC19
:105740000FF01A0EA6EC0FF0070145D00701DDB1EE
:1057500042D0E391E191DB81E891DEB102D0DFB18B
:1057600011D008016C53D8B402D007010BD0010E40
:10577000786F000159EC22F0012C01D002D0898809
:1057800092980701DEA102D0DFB111D008016C535D
:10579000D8B402D007010BD0020E786F000159EC8B
:1057A00022F0012C01D002D0898692960701E3B144
:1057B00012D0E3B310D0E3B50ED0E3B70CD0E3B909
:1057C0000AD0E3BB08D0E3BD06D0E3BF04D089868E
:1057D000929689889298000EDAB3010E0801786FCC
:1057E000000E0701DCB3010E08017819010804E17D
:1057F0000701DDA304D0080117AA5AD00701E3B3BB
:1058000009D067500F0806E1E1B304D0640E196EA9
:1058100068C01AF0E383E1B317D017B202D0DB936C
:1058200001D0DB8317B810D0E0A30ED0DFB305D0D2
:10583000899892988996929607D0DEA303D089988A
:10584000929802D089969296010E08016C6F07011A
:10585000E8B32DD02DB22BD0E1B329D0E883220EAE
:10586000F66E070EF76E000194EC0FF0060EEA6E6E
:10587000830EE96E45EC22F0220E04009EA8FDD7AF
:10588000AD6E0A0EA6EC0FF0320E0801796F000122
:10589000B9EC03F0060EEA6EBB0EE96E45EC22F0A1
:1058A0000A0EA6EC0FF01A0EA6EC0FF0070145D079
:1058B0000701DDB342D0E393E193DB83E893DEB3EA
:1058C00002D0DFB311D008016C53D8B402D0070165
:1058D0000BD0010E786F000159EC22F0012C01D0A1
:1058E00002D0898892980701DEA302D0DFB311D0DD
:1058F00008016C53D8B402D007010BD0020E786FA8
:10590000000159EC22F0012C01D002D08986929638
:105910000701E3B112D0E3B310D0E3B50ED0E3B783
:105920000CD0E3B90AD0E3BB08D0E3BD06D0E3BF97
:1059300004D08986929689889298000EDAB5010E75
:105940000801786F000E0701DCB5010E0801781917
:10595000010804E10701DDA504D0080117AA5AD007
:105960000701E3B509D067500F0806E1E1B504D09F
:10597000640E196E68C01AF0E385E1B517D017B24E
:1059800002D0DB9501D0DB8517B810D0E0A50ED092
:10599000DFB505D0899892988996929607D0DEA5B2
:1059A00003D08998929802D089969296010E0801A8
:1059B0006C6F0701E8B52DD02DB22BD0E1B529D001
:1059C000E8852C0EF66E070EF76E000194EC0FF0D2
:1059D000060EEA6E830EE96E45EC22F0220E0400FC
:1059E0009EA8FDD7AD6E0A0EA6EC0FF0320E080190
:1059F000796F0001B9EC03F0060EEA6EE40EE96E71
:105A000045EC22F00A0EA6EC0FF01A0EA6EC0FF0F1
:105A1000070145D00701DDB542D0E395E195DB856F
:105A2000E895DEB502D0DFB511D008016C53D8B4CB
:105A300002D007010BD0010E786F000159EC22F063
:105A4000012C01D002D0898892980701DEA502D0EE
:105A5000DFB511D008016C53D8B402D007010BD0C8
:105A6000020E786F000159EC22F0012C01D002D017
:105A7000898692960701E3B112D0E3B310D0E3B563
:105A80000ED0E3B70CD0E3B90AD0E3BB08D0E3BD36
:105A900006D0E3BF04D08986929689889298000E3A
:105AA000DAB7010E0801786F000E0701DCB7010EAE
:105AB00008017819010804E10701DDA704D00801F5
:105AC00017AA5AD00701E3B709D067500F0806E1BB
:105AD000E1B704D0640E196E68C01AF0E387E1B72D
