:04000000C3EF32F028
:08000800046ED8CF05F0E0CF33
:1000100006F00001E9CF0CF0EACF07F0E1CF08F0DD
:10002000E2CF09F0D9CF0AF0DACF0BF0F3CF12F01C
:10003000F4CF13F0FACF14F0F5CF15F0F6CF16F099
:10004000F7CF17F000C00EF001C00FF002C010F0A3
:1000500003C011F09DA230EF00F09EB293EF02F0CA
:100060009DAA36EF00F09EBA8BEF02F00EC000F0B2
:100070000FC001F010C002F011C003F00CC0E9FF86
:1000800007C0EAFF078E08C0E1FF09C0E2FF0AC00F
:10009000D9FF0BC0DAFF12C0F3FF13C0F4FF14C086
:1000A000FAFF15C0F5FF16C0F6FF17C0F7FF0450A2
:1000B00006C0E0FF05C0D8FF1000F76ACA0FF66E51
:1000C000000EF7220900F550120000C1814001C066
:1000D000804101C0804100C1814001C0804100C118
:1000E000814000C1814001C0804101C0804100C108
:1000F000814000C1814001C0804100C1814001C0F8
:10010000804101C0804100C1814001C0804100C1E7
:10011000814000C1814001C0804100C1814001C0D7
:10012000804101C0804100C1814000C1814001C0C7
:10013000804101C0804100C1814001C0804100C1B7
:10014000814000C1814001C0804101C0804100C1A7
:10015000814000C1814001C0804100C1814001C097
:10016000804101C0804100C1814000C1814001C087
:10017000804101C0804100C1814001C0804100C177
:10018000814000C1814001C0804100C1814001C067
:10019000804101C0804100C1814001C0804100C157
:1001A000814000C1814001C0804101C0804100C147
:1001B000814000C1814001C0804100C1814001C037
:1001C000804101C0804100C18140F76ADA0FF66EBC
:1001D000010EF7220900F550120000C0C101C3034F
:1001E00002C2C60607C705C5C404CC0C0DCD0FCF8F
:1001F000CE0E0ACACB0BC90908C8D81819D91BDBFF
:10020000DA1A1EDEDF1FDD1D1CDC14D4D515D7174E
:1002100016D6D21213D311D1D010F03031F133F3FE
:10022000F23236F6F737F53534F43CFCFD3DFF3F4E
:100230003EFEFA3A3BFB39F9F83828E8E929EB2B7E
:100240002AEAEE2E2FEF2DEDEC2CE42425E527E70E
:10025000E62622E2E323E12120E0A06061A163A37E
:10026000A26266A6A767A56564A46CACAD6DAF6F0E
:100270006EAEAA6A6BAB69A9A86878B8B979BB7B7E
:100280007ABABE7E7FBF7DBDBC7CB47475B577B7CE
:10029000B67672B2B373B17170B0509091519353FE
:1002A000529296565797559594549C5C5D9D5F9FCE
:1002B0009E5E5A9A9B5B99595898884849894B8BFE
:1002C0008A4A4E8E8F4F8D4D4C8C4484854587478E
:1002D0004686824243834181804004006F51775DAE
:1002E00012E1796BFA0E7925E96EEA6AD8B0EA2A4A
:1002F0002EC0EFFF0400792B100E776F140E05014E
:10030000696F06D100017751100857E1FA0E79257F
:10031000E96EEA6AD8B0EA2A2EC0EFFF0400792B12
:10032000010E795DFA0FE96EEA6AD8B0EA2AEF5059
:10033000160807E370C077F0140E0501696F3BD013
:100340000001010E795DFA0FE96EEA6AD8B0EA2A77
:10035000EF50200807E173C077F0140E0501696FB4
:100360002AD00001010E795DFA0FE96EEA6AD8B071
:10037000EA2AEF50210807E175C077F0140E050155
:10038000696F19D00001010E795DFA0FE96EEA6A12
:10039000D8B0EA2AEF50220807E175C077F0140EB2
:1003A0000501696F08D00001796B6FC077F0050116
:1003B000696B8A969396ACD000017551775D1AE10E
:1003C000FA0E7925E96EEA6AD8B0EA2A2EC0EFFF64
:1003D0000400792B010E795DFA0FE96EEA6AD8B054
:1003E000EA2AEFCF6AF5140E0501696F76C077F03F
:1003F0008FD000017651775D14E1FA0E7925E96E10
:10040000EA6AD8B0EA2A2EC0EFFF0400792B050172
:100410006A076A5302E173C077F0140E696F78D0EF
:1004200000017051775D11E1FA0E7925E96EEA6AF3
:10043000D8B0EA2A2EC0EFFF0400792B71C077F004
:10044000140E0501696F64D000017151775D11E1EF
:10045000FA0E7925E96EEA6AD8B0EA2A2EC0EFFFD3
:100460000400792B72C077F0140E0501696F50D02B
:1004700000017251775D11E1FA0E7925E96EEA6AA1
:10048000D8B0EA2A2EC0EFFF0400792B150E776F43
:10049000140E0501696F3CD000017751150811E178
:1004A000FA0E7925E96EEA6AD8B0EA2A2EC0EFFF83
:1004B0000400792B73C077F0140E0501696F28D002
:1004C00000017351775D11E1FA0E7925E96EEA6A50
:1004D000D8B0EA2A2EC0EFFF0400792B74C077F061
:1004E000140E0501696F14D000017451775D10E19D
:1004F000FA0E7925E96EEA6AD8B0EA2A2EC0EFFF33
:1005000004006FC077F00501696B308A8A96939674
:10051000000190EF02F09EAAFED7AECF2EF0DDD6FE
:100520009E9A36EF00F0192A0501695307E0690722
:10053000695304E16FC077F08A9693961C520CE0E1
:100540001C061C5209E11D5204E01D061D5201E16A
:100550001A843088640E1C6E1950320815E1196A2D
:100560001AB004D01A808A8A939A03D01A908A9A71
:10057000939A1AAC08D02F5201E02F062F5202E1B5
:100580001A8A308201D02F6A1B5211E01B061B52BF
:1005900008E16B691AA202D01A9201D01A826CC0CB
:1005A0001BF0315204E03106315201E130949E9249
:1005B000000136EF00F041542B434D47463D3100DA
:1005C00041542B434D47533D220041542B434D474B
:1005D000463D310041542B434D47533D2200415489
:1005E0002B434D47463D310041542B434D47533D2E
:1005F000220041542B434D47463D310041542B438B
:100600004D47533D220041542B434D47463D310059
:1006100041542B434D47533D220041542B434D47FA
:10062000463D310041542B434D47533D2200415438
:100630002B434D47463D310041542B434D47533DDD
:10064000220041542B434D47463D310041542B433A
:100650004D47533D220041542B434D47463D310009
:1006600041542B434D47533D220041542B434D47AA
:10067000463D310041542B434D47533D22004154E8
:100680002B434D47463D310041542B434D47533D8D
:10069000220041542B434D47463D310041542B43EA
:1006A0004D47533D220041542B434D47463D3100B9
:1006B00041542B434D47533D220041542B434D475A
:1006C000463D310041542B434D47533D2200415498
:1006D0002B434D47463D310041542B434D47533D3D
:1006E000220041542B434D47463D310041542B439A
:1006F0004D47533D220041542B434D47533D22006B
:1007000041542B434D47533D220041542B434D4709
:10071000533D220041542B434D47533D2200415449
:100720002B434D47533D220041542B434D47533DEE
:10073000220041542B434D47533D220041542B434B
:100740004D47533D220041542B434D47463D310018
:10075000070EEA6E3A0EE96EEF5011E0050E016EDB
:10076000BF0E006E0400002EFDD7012EF9D72E0E0D
:10077000006E002EFED700000400EF2EEFD712000F
:10078000929A899A07013B5140093E6FC9503EC772
:10079000C9FFC730FEE3C9503CC7C9FFC730FEE3FD
:1007A000C9503DC7C9FFC730FEE3929A898A00014C
:1007B0001200929A898A929A07013B6B0A0E3C6F4B
:1007C000AA0E3D6F0001DCDF020E07013B6F0A0E2F
:1007D0003C6FAA0E3D6F0001D3DF040E07013B6F93
:1007E0000A0E3C6FAA0E3D6F0001CADF060E07011C
:1007F0003B6F0A0E3C6FAA0E3D6F0001C1DF080E71
:1008000007013B6F0A0E3C6FAA0E3D6F0001B8DF77
:100810000A0E07013B6F3C6FAA0E3D6F0001B0DF6F
:100820000C0E07013B6F0A0E3C6FAA0E3D6F0001D4
:10083000A7DF0E0E07013B6F0A0E3C6FAA0E3D6F3D
:1008400000019EDF3AEF33F031C73BF707013C6B05
:1008500032C73DF7000194DF120031C73BF7100E9D
:1008600007013C6F32C73DF700018ADF1200F2CF6B
:100870003BF7F29EAA6A010EA96EA69CA69EA680D0
:10088000A85007013BBFF28E396E39C03AF006011D
:10089000C59139B0C581D8903930C593E8B0C583CA
:1008A0003930006E00323F0E0016C59500B0C58588
:1008B0003930006E003200321F0E0016C59700B0AE
:1008C000C5873938006E0F0E0016C59900B0C5896E
:1008D0003938006E0032070E0016C59B00B0C58B7C
:1008E0003938006E00320032030E0016C59D00B08C
:1008F000C58D006A39BE0080C59F00B0C58F070155
:1009000029930601C5A103D0070129830601070128
:1009100029950601C5A303D0070129850601070112
:1009200029970601C5A503D00701298706010701FC
:1009300029990601C5A703D00701298906010701E6
:10094000299B0601C5A903D00701298B06010701D0
:10095000299D0601C5AB03D00701298D06010701BA
:10096000299F0601C5AD03D00701298F06010701A4
:100970002A910601C5AF03D007012A810601F2CFF3
:100980003BF7F29EAA6A040EA96EA69CA69EA680BC
:10099000A85007013BBFF28E396E39C03DF0060109
:1009A000C69139B0C681D8903930C693E8B0C683B5
:1009B0003930006E00323F0E0016C69500B0C68575
:1009C0003930006E003200321F0E0016C69700B09C
:1009D000C6873938006E0F0E0016C69900B0C6895A
:1009E0003938006E0032070E0016C69B00B0C68B69
:1009F0003938006E00320032030E0016C69D00B07A
:100A0000C68D006A39BE0080C69F00B0C68FF2CF87
:100A10003BF7F29EAA6A070EA96EA69CA69EA68028
:100A2000A85007013BBFF28E396E39C040F0060175
:100A3000C79139B0C781D8903930C793E8B0C78320
:100A40003930006E00323F0E0016C79500B0C785E2
:100A50003930006E003200321F0E0016C79700B00A
:100A6000C7873938006E0F0E0016C79900B0C789C6
:100A70003938006E0032070E0016C79B00B0C78BD6
:100A80003938006E00320032030E0016C79D00B0E8
:100A9000C78D006A39BE0080C79F00B0C78FF2CFF4
:100AA0003BF7F29EAA6A0A0EA96EA69CA69EA68095
:100AB000A85007013BBFF28E396E39C043F00601E2
:100AC000C89139B0C881D8903930C893E8B0C8838C
:100AD0003930006E00323F0E0016C89500B0C88550
:100AE0003930006E003200321F0E0016C89700B079
:100AF000C8873938006E0F0E0016C89900B0C88933
:100B00003938006E0032070E0016C89B00B0C88B43
:100B10003938006E00320032030E0016C89D00B056
:100B2000C88D006A39BE0080C89F00B0C88FF2CF60
:100B30003BF7F29EAA6A0D0EA96EA69CA69EA68001
:100B4000A85007013BBFF28E396E39C046F006014E
:100B5000C99139B0C981D8903930C993E8B0C983F7
:100B60003930006E00323F0E0016C99500B0C985BD
:100B70003930006E003200321F0E0016C99700B0E7
:100B8000C9873938006E0F0E0016C99900B0C9899F
:100B90003938006E0032070E0016C99B00B0C98BB1
:100BA0003938006E00320032030E0016C99D00B0C5
:100BB000C98D006A39BE0080C99F00B0C98FF2CFCD
:100BC0003BF7F29EAA6A100EA96EA69CA69EA6806E
:100BD000A85007013BBFF28E396E0601CF9139B0A4
:100BE000CF81D8903930CF93E8B0CF833930006EC1
:100BF00000323F0E0016CF9500B0CF853930006E21
:100C0000003200321F0E0016CF9700B0CF87393860
:100C1000006E0F0E0016CF9900B0CF893938006EE4
:100C20000032070E0016CF9B00B0CF8B3938006E14
:100C300000320032030E0016CF9D00B0CF8D006A47
:100C400039BE0080CF9F00B0CF8FF2CF3BF7F29E2E
:100C5000AA6A140EA96EA69CA69EA680A85007019B
:100C60003BBFF28E396E0601D09139B0D081D89059
:100C70003930D093E8B0D0833930006E00323F0E67
:100C80000016D09500B0D0853930006E00320032A9
:100C90001F0E0016D09700B0D0873938006E0F0EA7
:100CA0000016D09900B0D0893938006E0032070E96
:100CB0000016D09B00B0D08B3938006E0032003265
:100CC000030E0016D09D00B0D08D006A39BE0080A2
:100CD000D09F00B0D08FF2CF3BF7F29EAA6A180ED9
:100CE000A96EA69CA69EA680A85007013BBFF28EC7
:100CF00000016A6FF2CF3BF7F29EAA6A190EA96E45
:100D0000A69CA69EA680A85007013BBFF28E0001BC
:100D10006B6FF2CF3BF7F29EAA6A1A0EA96EA69CE1
:100D2000A69EA680A85007013BBFF28E00016C6F03
:100D30006CC01BF0F2CF3BF7F29EAA6A1B0EA96EA5
:100D4000A69CA69EA680A85007013BBFF28E00017C
:100D50006D6FF2CF3BF7F29EAA6A1C0EA96EA69C9D
:100D6000A69EA680A85007013BBFF28E286FF2CF47
:100D70003BF7F29EAA6A1D0EA96EA69CA69EA680AF
:100D8000A8503BBFF28E0001786FF2CF3BF7F29E86
:100D9000AA6A1E0EA96EA69CA69EA680A850070150
:100DA0003BBFF28E036B026FF2CF3BF7F29EAA6A53
:100DB0001F0EA96EA69CA69EA680A8503BBFF28ED1
:100DC000056B046FF2CF3BF7F29EAA6A200EA96E64
:100DD000A69CA69EA680A8503BBFF28E076B066F0E
:100DE000F2CF3BF7F29EAA6A210EA96EA69CA69EA0
:100DF000A680A8503BBFF28E096B086FF2CF3BF77D
:100E0000F29EAA6A220EA96EA69CA69EA680A85053
:100E10003BBFF28E0B6B0A6FF2CF3BF7F29EAA6AD2
:100E2000230EA96EA69CA69EA680A8503BBFF28E5C
:100E30000D6B0C6FF2CF3BF7F29EAA6A240EA96EDF
:100E4000A69CA69EA680A8503BBFF28E0F6B0E6F8D
:100E5000F2CF3BF7F29EAA6A250EA96EA69CA69E2B
:100E6000A680A8503BBFF28E116B106FF2CF3BF7FC
:100E7000F29EAA6A260EA96EA69CA69EA680A850DF
:100E80003BBFF28E136B126FF2CF3BF7F29EAA6A52
:100E9000270EA96EA69CA69EA680A8503BBFF28EE8
:100EA000156B146FF2CF3BF7F29EAA6A280EA96E5B
:100EB000A69CA69EA680A8503BBFF28E176B166F0D
:100EC000F2CF3BF7F29EAA6A290EA96EA69CA69EB7
:100ED000A680A8503BBFF28E196B186FF2CF3BF77C
:100EE000F29EAA6A2A0EA96EA69CA69EA680A8506B
:100EF0003BBFF28E1B6B1A6FF2CF3BF7F29EAA6AD2
:100F00002B0EA96EA69CA69EA680A8503BBFF28E73
:100F10001D6B1C6FF2CF3BF7F29EAA6A2C0EA96ED6
:100F2000A69CA69EA680A8503BBFF28E1F6B1E6F8C
:100F3000F2CF3BF7F29EAA6A2D0EA96EA69CA69E42
:100F4000A680A8503BBFF28E216B206FF2CF3BF7FB
:100F5000F29EAA6A2E0EA96EA69CA69EA680A850F6
:100F60003BBFF28E236B226FF2CF3BF7F29EAA6A51
:100F70002F0EA96EA69CA69EA680A8503BBFF28EFF
:100F8000256B246FF2CF3BF7F29EAA6A300EA96E52
:100F9000A69CA69EA680A8503BBFF28E276B266F0C
:100FA000F2CF3BF7F29EAA6A310EA96EA69CA69ECE
:100FB000A680A8503BBFF28E296B286F316B0400CE
:100FC000320E31253B6FF2CF3CF7F29EAA6A3BC747
:100FD000A9FFA69CA69EA680A8503CBFF28E326FA9
:100FE00032510D0803E031510F0824E2036A3151F8
:100FF0006C0FE96E050E0320EA6EEF6A320E3125A2
:101000003B6FF250006EF29EAA6A3BC7A9FF32C73F
:10101000A8FFA69CA69EA6840F01550EA76EAA0E39
:10102000A76EA682A6B2FED7A6940050F21210D0E8
:101030000BD00701036A31516C0FE96E050E0320D6
:10104000EA6E32C7EFFF0F010701312BB8D70F014E
:101050000701346B030E336F366B356B386B376BB0
:1010600004005D0E33253B6F000E34213C6FF2CF40
:101070003DF7F29E3CC7AAFF3BC7A9FFA69CA69ED0
:10108000A680A8503DBFF28E3A6B396F39510D08DA
:1010900002E13A5305E0365303E13551290809E2EC
:1010A0007B0E3525E96E050E3621EA6EEF6A13D008
:1010B00008D07B0E3525E96E050E3621EA6E39C75C
:1010C000EFFF34C703F03351332BD8B4342B352B17
:1010D000D8B4362BC5D7332BD8B4342B366B356BFD
:1010E00004005D0E33253B6F000E34213C6FF2CFC0
:1010F0003DF7F29E3CC7AAFF3BC7A9FFA69CA69E50
:10110000A680A8503DBFF28E3A6B396F39510D0859
:1011100002E13A5305E0365303E13551290809E26B
:10112000A40E3525E96E050E3621EA6EEF6A13D05E
:1011300008D0A40E3525E96E050E3621EA6E39C7B2
:10114000EFFF34C703F03351332BD8B4342B352B96
:10115000D8B4362BC5D7332BD8B4342B366B356B7C
:1011600004005D0E33253B6F000E34213C6FF2CF3F
:101170003DF7F29E3CC7AAFF3BC7A9FFA69CA69ECF
:10118000A680A8503DBFF28E3A6B396F39510D08D9
:1011900002E13A5305E0365303E13551290809E2EB
:1011A000CD0E3525E96E050E3621EA6EEF6A13D0B5
:1011B00008D0CD0E3525E96E050E3621EA6E39C709
:1011C000EFFF34C703F03351332BD8B4342B352B16
:1011D000D8B4362BC5D7332BD8B4342B366B356BFC
:1011E00004005D0E33253B6F000E34213C6FF2CFBF
:1011F0003DF7F29E3CC7AAFF3BC7A9FFA69CA69E4F
:10120000A680A8503DBFF28E3A6B396F39510D0858
:1012100002E13A5305E0365303E13551290809E26A
:10122000F60E3525E96E050E3621EA6EEF6A13D00B
:1012300008D0F60E3525E96E050E3621EA6E39C75F
:10124000EFFF34C703F03351332BD8B4342B352B95
:10125000D8B4362BC5D7332BD8B4342B366B356B7B
:1012600004005D0E33253B6F000E34213C6FF2CF3E
:101270003DF7F29E3CC7AAFF3BC7A9FFA69CA69ECE
:10128000A680A8503DBFF28E3A6B396F39510D08D8
:1012900002E13A5305E0365303E13551290809E2EA
:1012A0001F0E3525E96E060E3621EA6EEF6A13D061
:1012B00008D01F0E3525E96E060E3621EA6E39C7B5
:1012C000EFFF34C703F03351332BD8B4342B352B15
:1012D000D8B4362BC5D7332BD8B4342B366B356BFB
:1012E00004005D0E33253B6F000E34213C6FF2CFBE
:1012F0003DF7F29E3CC7AAFF3BC7A9FFA69CA69E4E
:10130000A680A8503DBFF28E3A6B396F39510D0857
:1013100002E13A5305E0365303E13551290809E269
:10132000480E3525E96E060E3621EA6EEF6A13D0B7
:1013300008D0480E3525E96E060E3621EA6E39C70B
:10134000EFFF34C703F03351332BD8B4342B352B94
:10135000D8B4362BC5D7332BD8B4342B366B356B7A
:1013600004005D0E33253B6F000E34213C6FF2CF3D
:101370003DF7F29E3CC7AAFF3BC7A9FFA69CA69ECD
:10138000A680A8503DBFF28E3A6B396F39510D08D7
:1013900002E13A5305E0365303E13551290809E2E9
:1013A000710E3525E96E060E3621EA6EEF6A13D00E
:1013B00008D0710E3525E96E060E3621EA6E39C762
:1013C000EFFF34C703F03351332BD8B4342B352B14
:1013D000D8B4362BC5D7332BD8B4342B366B356BFA
:1013E00004005D0E33253B6F000E34213C6FF2CFBD
:1013F0003DF7F29E3CC7AAFF3BC7A9FFA69CA69E4D
:10140000A680A8503DBFF28E3A6B396F39510D0856
:1014100002E13A5305E0365303E13551290809E268
:101420009A0E3525E96E060E3621EA6EEF6A13D064
:1014300008D09A0E3525E96E060E3621EA6E39C7B8
:10144000EFFF34C703F03351332BD8B4342B352B93
:10145000D8B4362BC5D700011200929A899A070199
:101460003D514109406FC95040C7C9FFC730FEE335
:10147000C9503EC7C9FFC730FEE3C950C96AC7306B
:10148000FEE3C9CF3FF7929A898A3FC701F0000176
:1014900012003BC73DF7090E07013E6F0001DDDF7B
:1014A00001C03CF707013CC701F00001E9EF0AF079
:1014B0003BC73DF7190E07013E6F0001CEDF01C0AB
:1014C0003CF707013CC701F0000137EF0BF00701C3
:1014D0003E51070B006E3E31016E013201321F0E8C
:1014E000011601503F25E96E000E4021EA6EEFCF54
:1014F00001F0002A01D00132002EFDD7010E0116A5
:101500000001120007013F514103F3CF01F0F4CF76
:1015100000F04203F350002640514103F3500020F5
:10152000026E0001120007013E51070B006E3E31B2
:10153000016E013201321F0E011601504025E96E85
:10154000000E4121EA6E016A012A002A01D001360B
:10155000002EFDD73F5303E00150EF1203D0011ED0
:101560000150EF160001DEEF0AF007013B6B010EA0
:101570003B6F3BBF03D03B51100823E3036A3B5151
:10158000006EE8BE03063C6F03C03DF7036A3B51A3
:10159000006EE8BE03063E6F060E406FD50E3F6F2D
:1015A000000195DF3CC73EF707013F6B01B03F2BC1
:1015B000060E416FD20E406F0001B5D707013B2BDD
:1015C000D8D70001B7EF0DF0020E07013B6F000105
:1015D00060D701C067F51AA803D00501671F000195
:1015E000D890050167310601D593E8B0D583050190
:1015F0006731006E00323F0E00160601D59500B02F
:10160000D58505016731006E003200321F0E0016CD
:101610000601D59700B0D58705016739006E0F0E1A
:1016200000160601D59900B0D58905016739006E0D
:101630000032070E00160601D59B00B0D58B0501C0
:101640006739006E00320032030E00160601D59D88
:1016500000B0D58D006A050167BF00800601D59FE7
:1016600000B0D58F020E07013B6F000121D701C0EA
:1016700067F51AA803D00501671F00010601D6917E
:10168000050167A103D00601D6810501010E0701FE
:101690003A6F3A510808D8A068D23AC73EF7070E09
:1016A000406F290E3F6F000112DF0150010B01084E
:1016B000D8A425D13AC73EF7060E0701406FD50ED4
:1016C0003F6F000104DF0150010BD8A48CD03AC752
:1016D0003EF7060E0701406FD20E3F6F0001F7DEA6
:1016E0000150010BD8A471D0D89007013A35036A94
:1016F000D80FE96E060E0320EA6E010EEE2601E316
:10170000EF2AD8903A35036AD80FE96E060E032007
:10171000EA6EECCF3CF7ED52EFCF3BF7D8903A357D
:10172000E96E070EEA6EECCF40F7ED52EFCF3FF7D0
:10173000426B4B0E416F0001E5DE02C03EF701C077
:101740003DF70F0E07010124016E000E0220036E0B
:1017500003503C5D38E303E101503B5D34E3D89036
:101760003A35036AD80FE96E060E0320EA6EEC6A7A
:10177000ED52EF6A010E3A5DF80F25E2080F000105
:1017800006EF0EF00601C39107011DD00601C393B9
:10179000070119D00601C395070115D00601C397AB
:1017A000070111D00601C39907010DD00601C39BA3
:1017B000070109D00601C39D070105D00601C39F9B
:1017C000070101D007010DD00001D89007013A357B
:1017D000036AD80FE96E060E0320EA6EEC6AED523A
:1017E000EF6A8CD000013AC73EF7060E0701406F42
:1017F000D20E3F6F00016BDE0150010B0108D8A42F
:1018000071D0D89007013A35036AD80FE96E060EF9
:101810000320EA6E010EEE2601E3EF2AD8903A3556
:10182000036AD80FE96E060E0320EA6EECCF3CF790
:10183000ED52EFCF3BF7D8903A35E96E070EEA6EDE
:10184000ECCF40F7ED52EFCF3FF7426B4B0E416FBD
:10185000000158DE02C03EF701C03DF70F0E070140
:101860000124016E000E0220036E03503C5D38E33C
:1018700003E101503B5D34E3D8903A35036AD80F59
:10188000E96E060E0320EA6EEC6AED52010EEF6E71
:101890003A5DF80F25E2080F00011BEF0EF006017C
:1018A000C38107011DD00601C383070119D00601BA
:1018B000C385070115D00601C387070111D00601B2
:1018C000C38907010DD00601C38B070109D00601AA
:1018D000C38D070105D00601C38F070101D00701A1
:1018E0000DD00001D89007013A35036AD80FE96E90
:1018F000060E0320EA6EEC6AED52EF6A32D13AC767
:101900003EF7070E0701406F290E3F6F0001DFDD34
:101910000150010BD8A426D13AC73EF7060E0701A5
:10192000406FD50E3F6F0001D2DD0150010B010861
:10193000D8A48DD03AC73EF7060E0701406FD20EED
:101940003F6F0001C4DD0150010B0108D8A471D024
:10195000D89007013A35036AD80FE96E060E0320C6
:10196000EA6E010EEE2601E3EF2AD8903A35036ABB
:10197000D80FE96E060E0320EA6EECCF3CF7ED526D
:10198000EFCF3BF7D8903A35E96E070EEA6EECCF11
:1019900040F7ED52EFCF3FF7426B4B0E416F000126
:1019A000B1DD02C03EF701C03DF70F0E0701012473
:1019B000016E000E0220036E03503C5D38E303E12C
:1019C00001503B5D34E3D8903A35036AD80FE96E95
:1019D000060E0320EA6EEC6AED52EF6A010E3A5DE4
:1019E000F80F25E2080F000130EF0EF00601C38169
:1019F00007011DD00601C383070119D00601C38565
:101A0000070115D00601C387070111D00601C3895C
:101A100007010DD00601C38B070109D00601C38D54
:101A2000070105D00601C38F070101D007010DD0C2
:101A30000001D89007013A35036AD80FE96E060E07
:101A40000320EA6EEC6AED52EF6A8BD000013AC7D0
:101A50003EF7060E0701406FD20E3F6F000137DDE3
:101A60000150010BD8A471D0D89007013A35036A10
:101A7000D80FE96E060E0320EA6E010EEE2601E392
:101A8000EF2AD8903A35036AD80FE96E060E032084
:101A9000EA6EECCF3CF7ED52EFCF3BF7D8903A35FA
:101AA000E96E070EEA6EECCF40F7ED52EFCF3FF74D
:101AB000426B4B0E416F000125DD02C03EF701C0B5
:101AC0003DF70F0E07010124016E000E0220036E88
:101AD00003503C5D38E303E101503B5D34E3D890B3
:101AE0003A35036AD80FE96E060E0320EA6EEC6AF7
:101AF000ED52EF6A010E3A5DF80F25E2080F000182
:101B000045EF0EF00601C39107011DD00601C393F6
:101B1000070119D00601C395070115D00601C39727
:101B2000070111D00601C39907010DD00601C39B1F
:101B3000070109D00601C39D070105D00601C39F17
:101B4000070101D007010DD00001D89007013A35F7
:101B5000036AD80FE96E060E0320EA6EEC6AED52B6
:101B6000EF6A000107013A2B94D50001FED4496ABF
:101B7000000E0601C3AF010E4912D8904934070187
:101B80003B6F000E0601C3AD010E07013B11496E0C
:101B9000D89049343B6F000E0601C3AB010E07011C
:101BA0003B11496ED89049343B6F000E0601C3A922
:101BB000010E07013B11496ED89049343B6F000E6E
:101BC0000601C3A7010E07013B11496ED8904934A5
:101BD0003B6F000E0601C3A5010E07013B11496EC4
:101BE000D89049343B6F000E0601C3A3010E0701D4
:101BF0003B11496ED89049343B6F000E0601C3A1DA
:101C0000010E07013B11496E00011200E824F76A3A
:101C1000F736270FF66E1C0EF7220A00F550FA6E03
:101C20000800F550F96E84178C1794179C17A417A9
:101C3000AC17B417BC17E824F76AF736510FF66EE5
:101C40001C0EF7220A00F550FA6E0800F550F96EE6
:101C50009E18A618AE18B618BE18C618CE18D618F4
:101C6000E824F76AF7367B0FF66E1C0EF7220A009F
:101C7000F550FA6E0800F550F96EEC19F419FC19DC
:101C8000041A0C1A141A1C1A241AE824F76AF736D4
:101C9000A50FF66E1C0EF7220A00F550FA6E08002A
:101CA000F550F96E041B0C1B141B1C1B241B2C1B56
:101CB000341B3C1B39C73BF70A0E07013C6F3AC780
:101CC0003DF70001C0EC03F0120039C73BF71A0ED4
:101CD00007013C6F3AC73DF70001C0EC03F012006A
:101CE0004E6A4F6A526A536A2F52D8A4E5D0060151
:101CF000C4A103D04E92529214D0CFA105D0D0B13E
:101D000003D04E8252920DD0CFB105D0D0A103D0D6
:101D10004E92528206D0CFA104D0D0A102D04E82E2
:101D20005282C4A303D04E94529414D0CFA305D0B2
:101D3000D0B303D04E8452940DD0CFB305D0D0A3EE
:101D400003D04E94528406D0CFA304D0D0A302D0A7
:101D50004E845284C4A503D04E96529614D0CFA57B
:101D600005D0D0B503D04E8652960DD0CFB505D054
:101D7000D0A503D04E96528606D0CFA504D0D0A5CC
:101D800002D04E865286C4A703D04E98529814D0E3
:101D9000CFA705D0D0B703D04E8852980DD0CFB77B
:101DA00005D0D0A703D04E98528806D0CFA704D034
:101DB000D0A702D04E885288C4A903D04E9A529A16
:101DC00014D0CFA905D0D0B903D04E8A529A0DD0E5
:101DD000CFB905D0D0A903D04E9A528A06D0CFA948
:101DE00004D0D0A902D04E8A528AC4AB03D04E9CF4
:101DF000529C14D0CFAB05D0D0BB03D04E8C529C9C
:101E00000DD0CFBB05D0D0AB03D04E9C528C06D0AA
:101E1000CFAB04D0D0AB02D04E8C528CC4AD03D02B
:101E20004E9E529E14D0CFAD05D0D0BD03D04E8E65
:101E3000529E0DD0CFBD05D0D0AD03D04E9E528E58
:101E400006D0CFAD04D0D0AD02D04E8E528EC4AFEE
:101E500003D04F90539014D0CFAF05D0D0BF03D054
:101E60004F8053900DD0CFBF05D0D0AF03D04F904F
:101E7000538006D0CFAF04D0D0AF02D04F80538074
:101E8000040E0701396F4EC03AF7000113DF040E4C
:101E90000701396F4FC03AF7000117DF060E07013F
:101EA000396F52C03AF7000105DF060E0701396F9E
:101EB00053C03AF7000109DF120093908A90080E90
:101EC000016E00D00000018E10D0019E07013B334F
:101ED0000001D8B08A80D8A08A90018C06D0019CDD
:101EE000012EF4D700D000008A80840EE96EE92E1E
:101EF000FED700D0000001BEE8D701BCF0D7120029
:101F00000900F5520CE0F6CF39F7F7CF3AF7F5CFE5
:101F10003BF7D3DF39C7F6FF3AC7F7FFF1D7120017
:101F20000401FB69FA6907013F6B3D513F5D21E206
:101F300004003F513B25E96E000E3C21EA6EEF5054
:101F40000401FB1907013E6F036A3E5100015DEC7D
:101F500000F0016E0401FA510118FB6F036A0701DA
:101F60003E510001E5EC00F0E8CFFAF407013F2B09
:101F7000DCD7000112009EA8FED7AD6E12001E6ACB
:101F8000266A0601CBB104D0C4B102D0CE8101D003
:101F9000CE91CBB304D0C4B302D0CE8301D0CE93C4
:101FA000CBB504D0C4B502D0CE8501D0CE95CBB789
:101FB00004D0C4B702D0CE8701D0CE97CBB904D01D
:101FC000C4B902D0CE8901D0CE99CBBB04D0C4BB5A
:101FD00002D0CE8B01D0CE9BCBBD04D0C4BD02D0ED
:101FE000CE8D01D0CE9DCBBF04D0C4BF02D0CE8F4A
:101FF00001D0CE9F000ECEBF010E2612D8902634FF
:1020000007013B6F000E0601CEBD010E07013B111B
:10201000266ED89026343B6F000E0601CEBB010E13
:1020200007013B11266ED89026343B6F000E060147
:10203000CEB9010E07013B11266ED89026343B6FB6
:10204000000E0601CEB7010E07013B11266ED89097
:1020500026343B6F000E0601CEB5010E07013B1181
:10206000266ED89026343B6F000E0601CEB3010ECB
:1020700007013B11266ED89026343B6F000E0601F7
:10208000CEB1010E07013B11266E000E0601CBBF3B
:10209000010E1E12D8901E3407013B6F000E060180
:1020A000CBBD010E07013B111E6ED8901E343B6F55
:1020B000000E0601CBBB010E07013B111E6ED8902E
:1020C0001E343B6F000E0601CBB9010E07013B1118
:1020D0001E6ED8901E343B6F000E0601CBB7010E6A
:1020E00007013B111E6ED8901E343B6F000E060197
:1020F000CBB5010E07013B111E6ED8901E343B6F0D
:10210000000E0601CBB3010E07013B111E6ED890E5
:102110001E343B6F000E0601CBB1010E07013B11CF
:102120001E6E000185EF15F0948082B002D01AAEC9
:1021300002D01AA406D0320E07013A6F0001A8ECB3
:1021400003F0948082B002D01AAE02D01AA455D007
:102150001A941D6A0601CBB102D0CCA105D0CA8168
:10216000CB91CC91C491D191CBB302D0CCA305D06B
:10217000CA83CB93CC93C493D193CBB502D0CCA5D7
:1021800005D0CA85CB95CC95C495D195CBB702D057
:10219000CCA705D0CA87CB97CC97C497D197CBB99A
:1021A00002D0CCA905D0CA89CB99CC99C499D19930
:1021B000CBBB02D0CCAB05D0CA8BCB9BCC9BC49BFA
:1021C000D19BCBBD02D0CCAD05D0CA8DCB9DCC9DD3
:1021D000C49DD19DCBBF02D0CCAF05D0CA8FCB9FC1
:1021E000CC9FC49FD19F30A201D030921A8E898893
:1021F00092988986929608D00001948082A003D09C
:102200001AAE01D01A9E060100011200948282B219
:1022100002D030A002D01AA606D0320E07013A6FC3
:102220000001A8EC03F0948282B202D030A002D068
:102230001AA6A4D01A96000E0601C3B1010E07011A
:102240003B6F000E0601C5B1010E07013B1907E106
:102250000601CBA102D0070102D0C4810701000E04
:102260000601C3B3010E07013B6F000E0601C5B3A3
:10227000010E07013B1907E10601CBA302D00701BC
:1022800002D0C4830701000E0601C3B5010E070189
:102290003B6F000E0601C5B5010E07013B1907E1B2
:1022A0000601CBA502D0070102D0C4850701000EAC
:1022B0000601C3B7010E07013B6F000E0601C5B74B
:1022C000010E07013B1907E10601CBA702D0070168
:1022D00002D0C4870701000E0601C3B9010E070131
:1022E0003B6F000E0601C5B9010E07013B1907E15E
:1022F0000601CBA902D0070102D0C4890701000E54
:102300000601C3BB010E07013B6F000E0601C5BBF2
:10231000010E07013B1907E10601CBAB02D0070113
:1023200002D0C48B0701000E0601C3BD010E0701D8
:102330003B6F000E0601C5BD010E07013B1907E109
:102340000601CBAD02D0070102D0C48D0701000EFB
:102350000601C3BF010E07013B6F000E0601C5BF9A
:10236000010E07013B1907E10601CBAF02D00701BF
:1023700002D0C48F0701308008D00001948282A26D
:1023800003D030A001D030900701000112000400FA
:10239000010E795D07013A6F3C6BFA0E3B6F3AC74D
:1023A0003DF70001BDDD010E795DFA0FE96EEA6AC5
:1023B000D8B0EA2AEF500401FB5DD8A43BEF22F02D
:1023C000FA0E00017925E96EEA6AD8B0EA2AEF50E0
:1023D0000401FA5DD8A43BEF22F00001FA51AA08EB
:1023E000D8A45BD1FB512008D8A457D178C07AF08B
:1023F000200E7B6F1C0E7C6F3AC07DF03BC07EF0E0
:102400003CC07FF03DC080F03EC081F03FC082F014
:1024100040C083F041C084F042C085F043C086F0E4
:1024200044C087F045C088F046C089F047C08AF0B4
:1024300048C08BF0F2CF3AF7F29EAA6A100EA96E4E
:10244000A69CA69EA680A85007013ABFF28E000166
:102450008C6FF2CF3AF7F29EAA6A110EA96EA69C73
:10246000A69EA680A85007013ABFF28E00018D6F8C
:10247000F2CF3AF7F29EAA6A120EA96EA69CA69E09
:10248000A680A85007013ABFF28E00018E6FF2CFEE
:102490003AF7F29EAA6A130EA96EA69CA69EA68083
:1024A000A85007013ABFF28E00018F6FF2CF3AF7C2
:1024B000F29EAA6A140EA96EA69CA69EA680A8509B
:1024C00007013ABFF28E0001906FF2CF3AF7F29E09
:1024D000AA6A150EA96EA69CA69EA680A850070102
:1024E0003ABFF28E0001916FF2CF3AF7F29EAA6ADC
:1024F000160EA96EA69CA69EA680A85007013ABFFC
:10250000F28E0001926FF2CF3AF7F29EAA6A170E8E
:10251000A96EA69CA69EA680A85007013ABFF28E7F
:102520000001936F6AC094F06BC095F06CC096F098
:102530006DC097F0986B78C099F002C79AF004C705
:102540009BF006C79CF008C79DF00AC79EF00CC719
:102550009FF00EC7A0F010C7A1F012C7A2F014C7D9
:10256000A3F016C7A4F018C7A5F01AC7A6F01CC799
:10257000A7F01EC7A8F020C7A9F022C7AAF024C759
:10258000ABF026C7ACF028C7ADF007013C6B7A0E64
:102590003B6F340E3D6F0001C3DCFBC4AEF0FAC4E8
:1025A000AFF08A8693960A0E07013A6F0001A8ECF5
:1025B00003F07A51E0DC7B51DEDC7C51DCDC7D51C8
:1025C000DADC7E51D8DC7F51D6DC8051D4DC8151FD
:1025D000D2DC8251D0DC8351CEDC8451CCDC8551FD
:1025E000CADC8651C8DC8751C6DC8851C4DC8951FD
:1025F000C2DC8A51C0DC8B51BEDC8C51BCDC8D51FD
:10260000BADC8E51B8DC8F51B6DC9051B4DC9151FC
:10261000B2DC9251B0DC9351AEDC9451ACDC9551FC
:10262000AADC9651A8DC9751A6DC9851A4DC9951FC
:10263000A2DC9A51A0DC9B519EDC9C519CDC9D51FC
:102640009ADC9E5198DC9F5196DCA05194DCA151FC
:1026500092DCA25190DCA3518EDCA4518CDCA551FC
:102660008ADCA65188DCA75186DCA85184DCA951FC
:1026700082DCAA5180DCAB517EDCAC517CDCAD51FC
:102680007ADCAE5178DCAF5176DC030E07013A6F8D
:102690000001A8EC03F08A9693967851FA5DD8A4CD
:1026A00036EF22F0FB2D29D20401FF6BFCC0FEF4B3
:1026B000FEC4FFF407013A6B3A510001FD11040119
:1026C000FE6F04010501016BFEC000F500C501F5B8
:1026D00007013A6B3A510001FF110501006F050136
:1026E0000401FF53D8A4D2D1FE510F08D8A0CED1F7
:1026F000050100510401FE2507013A6F0501015152
:102700000401FF2107013B6F3B53D8B402D0040101
:10271000BDD13A511008D8B002D00401B7D105019B
:10272000015306E10051080803E3010E026F12D0C5
:10273000015306E10051100803E3020E026F0AD0B4
:10274000015306E10051180803E3030E026F02D0A3
:10275000010E026F022DAED00401FF5312E1FE51B3
:1027600008080FE349C003F5FE51016E09E0D89057
:1027700005010333012E01D002D00401F8D7040172
:102780001FD0FF5303E1FE5108081AE2FF5318E17E
:10279000FE510F0815E3080EFE5D006E000EFF5996
:1027A000036E00C001F04AC003F5015209E0D89061
:1027B00005010333012E01D002D00401F8D7040132
:1027C00005010051080803E1015301E135D0005132
:1027D000070804E1015302E1039F2ED000510608CF
:1027E00005E1015303E13F0E031726D00051050810
:1027F00005E1015303E11F0E03171ED00051040829
:1028000005E1015303E10F0E031716D00051030831
:1028100005E1015303E1070E03170ED00051020832
:1028200005E1015303E1030E031706D0002D04D088
:10283000015302E1010E031778C07AF0010E000186
:102840007B6F02C57CF003C57DF007013C6B7A0EFF
:102850003B6F040E3D6F000190EC0FF0FBC47EF067
:10286000FAC47FF08A8693960400040E07013A6F3B
:102870000001A8EC03F004007A51BBEC0FF07B518F
:10288000BBEC0FF07C51BBEC0FF07D51BBEC0FF0BB
:102890007E51BBEC0FF07F51BBEC0FF00400030E38
:1028A00007013A6F0001A8EC03F004008A969396A2
:1028B000EAD0050102510208D8A4E6D049C003F5C8
:1028C0000401FE51016E09E0D89005010333012E89
:1028D00001D002D00401F8D704014AC004F5070E64
:1028E0000501005D07013A6F000E0501015907015E
:1028F0003B6F3A51080803E13B5301E183D0070ED7
:102900000501005D07013A6F000E0501015907013D
:102910003B6F3A51070805E13B5303E10501049F72
:1029200070D0070E0501005D07013A6F000E05012A
:10293000015907013B6F3A51060806E13B5304E198
:102940003F0E050104175DD0070E0501005D07016C
:102950003A6F000E0501015907013B6F3A51050816
:1029600006E13B5304E11F0E050104174AD0070E90
:102970000501005D07013A6F000E050101590701CD
:102980003B6F3A51040806E13B5304E10F0E050189
:10299000041737D0070E0501005D07013A6F000EDE
:1029A0000501015907013B6F3A51030806E13B530A
:1029B00004E1070E0501041724D0070E0501005D90
:1029C00007013A6F000E0501015907013B6F3A51AB
:1029D000020806E13B5304E1030E0501041711D080
:1029E000070E0501005D07013A6F000E0501015950
:1029F00007013B6F3A2D06D03B5304E1010E050160
:102A00000417070178C07AF0010E00017B6F02C540
:102A10007CF003C57DF004C57EF007013C6B7A0EA7
:102A20003B6F050E3D6F000190EC0FF0FBC47FF093
:102A3000FAC480F08A8693960400040E07013A6F68
:102A40000001A8EC03F004007A51BBEC0FF07B51BD
:102A5000BBEC0FF07C51BBEC0FF07D51BBEC0FF0E9
:102A60007E51BBEC0FF07F51BBEC0FF08051BBEC03
:102A70000FF00400030E07013A6F0001A8EC03F009
:102A800004008A969396050139D0040178C07AF043
:102A9000810E00017B6F020E7C6F07013C6B7A0E8A
:102AA0003B6F030E3D6F000190EC0FF0FBC47DF017
:102AB000FAC47EF08A8693960400040E07013A6FEA
:102AC0000001A8EC03F004007A51BBEC0FF07B513D
:102AD000BBEC0FF07C51BBEC0FF07D51BBEC0FF069
:102AE0007E51BBEC0FF00400030E07013A6F0001AA
:102AF000A8EC03F004008A96939605010001FB51AF
:102B00000708D8A4AFD0BFEF0FF09D921EC003F509
:102B10001FC004F520C005F521C006F522C007F549
:102B200023C008F524C009F525C00AF526C00BF519
:102B300027C00CF528C00DF529C00EF52AC00FF5E9
:102B40002BC010F52CC011F52DC012F578C07AF00D
:102B5000070E7B6F100E0501026F02C57CF003C5E6
:102B60007DF004C57EF005C57FF006C580F007C581
:102B700081F008C582F009C583F00AC584F00BC551
:102B800085F00CC586F00DC587F00EC588F00FC521
:102B900089F010C58AF011C58BF012C58CF00701C1
:102BA0003C6B7A0E3B6F130E3D6F000190EC0FF003
:102BB000FBC48DF0FAC48EF08A8693960400040E4E
:102BC00007013A6F0001A8EC03F004007A51BBEC56
:102BD0000FF07B51BBEC0FF07C51BBEC0FF07D5143
:102BE000BBEC0FF07E51BBEC0FF07F51BBEC0FF054
:102BF0008051BBEC0FF08151BBEC0FF08251BBEC6C
:102C00000FF08351BBEC0FF08451BBEC0FF08551FA
:102C1000BBEC0FF08651BBEC0FF08751BBEC0FF013
:102C20008851BBEC0FF08951BBEC0FF08A51BBEC23
:102C30000FF08B51BBEC0FF08C51BBEC0FF08D51B2
:102C4000BBEC0FF08E51BBEC0FF00400030E07013C
:102C50003A6F0001A8EC03F004008A9693969D82D7
:102C6000ECEF21F0FB510508D8A480D20401FF6BE2
:102C7000FCC0FEF4FEC4FFF407013A6B3A510001B8
:102C8000FD110401FE6F04010501016BFEC000F59A
:102C900000C501F507013A6B3A510001FF1105012A
:102CA000006F05010401FE5351E1FF534FE105019F
:102CB00000534AE1013D48D01A8478C07AF0050EED
:102CC00000017B6FFCC07CF0FDC07DF0FEC07EF09B
:102CD000FFC07FF007013C6B7A0E3B6F060E3D6F25
:102CE000000190EC0FF0FBC480F0FAC481F08A86FA
:102CF00093960400040E07013A6F0001A8EC03F05C
:102D000004007A51BBEC0FF07B51BBEC0FF07C510F
:102D1000BBEC0FF07D51BBEC0FF07E51BBEC0FF024
:102D20007F51BBEC0FF08051BBEC0FF08151BBEC3D
:102D30000FF00400030E07013A6F0001A8EC03F046
:102D400004008A96939605010ED20401FE2D51D0FF
:102D5000FF534FE1050100534AE1013D48D01A8677
:102D600078C07AF0050E00017B6FFCC07CF0FDC0DE
:102D70007DF0FEC07EF0FFC07FF007013C6B7A0E55
:102D80003B6F060E3D6F000190EC0FF0FBC480F02E
:102D9000FAC481F08A8693960400040E07013A6F04
:102DA0000001A8EC03F004007A51BBEC0FF07B515A
:102DB000BBEC0FF07C51BBEC0FF07D51BBEC0FF086
:102DC0007E51BBEC0FF07F51BBEC0FF08051BBECA0
:102DD0000FF08151BBEC0FF00400030E07013A6FB6
:102DE0000001A8EC03F004008A9693960501BBD17C
:102DF0000401FE510208D8A4A7D0FF53D8A4A4D040
:102E0000050100534BE1013D49D01A8878C07AF0A2
:102E1000050E00017B6FFCC07CF0FDC07DF0FEC0A4
:102E20007EF0FFC07FF007013C6B7A0E3B6F060E11
:102E30003D6F000190EC0FF0FBC480F0FAC481F00C
:102E40008A8693960400040E07013A6F0001A8ECED
:102E500003F004007A51BBEC0FF07B51BBEC0FF098
:102E60007C51BBEC0FF07D51BBEC0FF07E51BBEC05
:102E70000FF07F51BBEC0FF08051BBEC0FF0815194
:102E8000BBEC0FF00400030E07013A6F0001A8EC41
:102E900003F004008A96939654D00501005352E142
:102EA000015350E11A980001E4EC0AF01A8494EC02
:102EB00010F01A8606EC11F078C07AF0050E7B6FE0
:102EC000FCC07CF0FDC07DF0FEC07EF0FFC07FF056
:102ED00007013C6B7A0E3B6F060E3D6F000190ECD4
:102EE0000FF0FBC480F0FAC481F08A869396040048
:102EF000040E07013A6F0001A8EC03F004007A51B8
:102F0000BBEC0FF07B51BBEC0FF07C51BBEC0FF036
:102F10007D51BBEC0FF07E51BBEC0FF07F51BBEC51
:102F20000FF08051BBEC0FF08151BBEC0FF00400AF
:102F3000030E07013A6F0001A8EC03F004008A9623
:102F40009396050110D10401FE510308D8A4A7D01F
:102F5000FF53D8A4A4D0050100534BE1013D49D053
:102F60001A8A78C07AF0050E00017B6FFCC07CF0F5
:102F7000FDC07DF0FEC07EF0FFC07FF007013C6B1E
:102F80007A0E3B6F060E3D6F000190EC0FF0FBC414
:102F900080F0FAC481F08A8693960400040E07013B
:102FA0003A6F0001A8EC03F004007A51BBEC0FF07B
:102FB0007B51BBEC0FF07C51BBEC0FF07D51BBECB7
:102FC0000FF07E51BBEC0FF07F51BBEC0FF0805146
:102FD000BBEC0FF08151BBEC0FF004000A0E0701AF
:102FE0003A6F0001A8EC03F004008A96939654D03F
:102FF0000501005352E1015350E11A9A0001E4EC3B
:103000000AF01A8494EC10F01A8606EC11F078C0DD
:103010007AF0050E7B6FFCC07CF0FDC07DF0FEC039
:103020007EF0FFC07FF007013C6B7A0E3B6F060E0F
:103030003D6F000190EC0FF0FBC480F0FAC481F00A
:103040008A8693960400040E07013A6F0001A8ECEB
:1030500003F004007A51BBEC0FF07B51BBEC0FF096
:103060007C51BBEC0FF07D51BBEC0FF07E51BBEC03
:103070000FF07F51BBEC0FF08051BBEC0FF0815192
:10308000BBEC0FF00400030E07013A6F0001A8EC3F
:1030900003F004008A969396050165D00401FE5161
:1030A000640860E1FF535EE100C578F0F250006E05
:1030B000F29EAA6A1D0EA96E78C0A8FFA69CA69EC5
:1030C000A6840F01550EA76EAA0EA76EA682A6B201
:1030D000FED7A6940050F21278C07AF0050E0001D7
:1030E0007B6FFCC07CF0FDC07DF0FEC07EF0FFC0B9
:1030F0007FF007013C6B7A0E3B6F060E3D6F0001BF
:1031000090EC0FF0FBC480F0FAC481F08A869396AD
:103110000400040E07013A6F0001A8EC03F004005C
:103120007A51BBEC0FF07B51BBEC0FF07C51BBEC48
:103130000FF07D51BBEC0FF07E51BBEC0FF07F51D7
:10314000BBEC0FF08051BBEC0FF08151BBEC0FF0EA
:103150000400030E07013A6F0001A8EC03F004001D
:103160008A9693960501EDEF21F00001FB512108AD
:10317000D8A46CEF1DF0F250006EF29EAA6AA96A04
:103180000F0EA86EA69CA69EA6840F01550EA76ED4
:10319000AA0EA76EA682A6B2FED7A6940050F2127F
:1031A000F2CF00F0F29EAA6A010EA96EFDC0A8FF40
:1031B000A69CA69EA684550EA76EAA0EA76EA682F2
:1031C000A6B2FED7A6940050F212F2CF00F0F29E03
:1031D000AA6A020EA96EFEC0A8FFA69CA69EA6849F
:1031E000550EA76EAA0EA76EA682A6B2FED7A6940B
:1031F0000050F212F2CF00F0F29EAA6A030EA96EFE
:10320000FFC0A8FFA69CA69EA684550EA76EAA0E78
:10321000A76EA682A6B2FED7A6940050F212F2CFF5
:1032200000F0F29EAA6A040EA96E00C1A8FFA69C37
:10323000A69EA684550EA76EAA0EA76EA682A6B25B
:10324000FED7A6940050F212F2CF00F0F29EAA6AC6
:10325000050EA96E01C1A8FFA69CA69EA684550EC8
:10326000A76EAA0EA76EA682A6B2FED7A69400509D
:10327000F212F2CF00F0F29EAA6A060EA96E02C107
:10328000A8FFA69CA69EA684550EA76EAA0EA76EA2
:10329000A682A6B2FED7A6940050F212F2CF00F09A
:1032A000F29EAA6A070EA96E03C1A8FFA69CA69E5D
:1032B000A684550EA76EAA0EA76EA682A6B2FED74A
:1032C000A6940050F212F2CF00F0F29EAA6A080E05
:1032D000A96E04C1A8FFA69CA69EA684550EA76E43
:1032E000AA0EA76EA682A6B2FED7A6940050F2122E
:1032F000F2CF00F0F29EAA6A090EA96E05C1A8FFDE
:10330000A69CA69EA684550EA76EAA0EA76EA682A0
:10331000A6B2FED7A6940050F212F2CF00F0F29EB1
:10332000AA6A0A0EA96E06C1A8FFA69CA69EA6843C
:10333000550EA76EAA0EA76EA682A6B2FED7A694B9
:103340000050F212F2CF00F0F29EAA6A0B0EA96EA4
:1033500007C1A8FFA69CA69EA684550EA76EAA0E1E
:10336000A76EA682A6B2FED7A6940050F212F2CFA4
:1033700000F0F29EAA6A0C0EA96E08C1A8FFA69CD6
:10338000A69EA684550EA76EAA0EA76EA682A6B20A
:10339000FED7A6940050F212F2CF00F0F29EAA6A75
:1033A0000D0EA96E09C1A8FFA69CA69EA684550E67
:1033B000A76EAA0EA76EA682A6B2FED7A69400504C
:1033C000F212F2CF00F0F29EAA6A0E0EA96E0AC1A6
:1033D000A8FFA69CA69EA684550EA76EAA0EA76E51
:1033E000A682A6B2FED7A6940050F212F2CF00F049
:1033F000F29EAA6A0F0EA96E0BC1A8FFA69CA69EFC
:10340000A684550EA76EAA0EA76EA682A6B2FED7F8
:10341000A6940050F212F2CF00F0F29EAA6A100EAB
:10342000A96E0CC1A8FFA69CA69EA684550EA76EE9
:10343000AA0EA76EA682A6B2FED7A6940050F212DC
:10344000F2CF00F0F29EAA6A110EA96E0DC1A8FF7C
:10345000A69CA69EA684550EA76EAA0EA76EA6824F
:10346000A6B2FED7A6940050F212F2CF00F0F29E60
:10347000AA6A120EA96E0EC1A8FFA69CA69EA684DB
:10348000550EA76EAA0EA76EA682A6B2FED7A69468
:103490000050F212F2CF00F0F29EAA6A130EA96E4B
:1034A0000FC1A8FFA69CA69EA684550EA76EAA0EC5
:1034B000A76EA682A6B2FED7A6940050F212F2CF53
:1034C00000F0F29EAA6A140EA96E10C1A8FFA69C75
:1034D000A69EA684550EA76EAA0EA76EA682A6B2B9
:1034E000FED7A6940050F212F2CF00F0F29EAA6A24
:1034F000150EA96E11C1A8FFA69CA69EA684550E06
:10350000A76EAA0EA76EA682A6B2FED7A6940050FA
:10351000F212F2CF00F0F29EAA6A160EA96E12C144
:10352000A8FFA69CA69EA684550EA76EAA0EA76EFF
:10353000A682A6B2FED7A6940050F212F2CF00F0F7
:10354000F29EAA6A170EA96E13C1A8FFA69CA69E9A
:10355000A684550EA76EAA0EA76EA682A6B2FED7A7
:10356000A6940050F212F2CF00F0F29EAA6A180E52
:10357000A96E14C1A8FFA69CA69EA684550EA76E90
:10358000AA0EA76EA682A6B2FED7A6940050F2128B
:10359000F2CF00F0F29EAA6A190EA96E15C1A8FF1B
:1035A000A69CA69EA684550EA76EAA0EA76EA682FE
:1035B000A6B2FED7A6940050F212F2CF00F0F29E0F
:1035C000AA6A1A0EA96E16C1A8FFA69CA69EA6847A
:1035D000550EA76EAA0EA76EA682A6B2FED7A69417
:1035E0000050F212F2CF00F0F29EAA6A1B0EA96EF2
:1035F00017C1A8FFA69CA69EA684550EA76EAA0E6C
:10360000A76EA682A6B2FED7A6940050F212F2CF01
:1036100000F0F29EAA6A1C0EA96E18C1A8FFA69C13
:10362000A69EA684550EA76EAA0EA76EA682A6B267
:10363000FED7A6940050F212F2CF00F0F29EAA6AD2
:103640001D0EA96E19C1A8FFA69CA69EA684550EA4
:10365000A76EAA0EA76EA682A6B2FED7A6940050A9
:10366000F212F2CF00F0F29EAA6A1E0EA96E1AC1E3
:10367000A8FFA69CA69EA684550EA76EAA0EA76EAE
:10368000A682A6B2FED7A6940050F212F2CF00F0A6
:10369000F29EAA6A1F0EA96E1BC1A8FFA69CA69E39
:1036A000A684550EA76EAA0EA76EA682A6B2FED756
:1036B000A6940050F212F2CF00F0F29EAA6A200EF9
:1036C000A96E1CC1A8FFA69CA69EA684550EA76E37
:1036D000AA0EA76EA682A6B2FED7A6940050F2123A
:1036E000F2CF00F0F29EAA6A210EA96E1DC1A8FFBA
:1036F000A69CA69EA684550EA76EAA0EA76EA682AD
:10370000A6B2FED7A6940050F212F2CF00F0F29EBD
:10371000AA6A220EA96E1EC1A8FFA69CA69EA68418
:10372000550EA76EAA0EA76EA682A6B2FED7A694C5
:103730000050F212F2CF00F0F29EAA6A230EA96E98
:103740001FC1A8FFA69CA69EA684550EA76EAA0E12
:10375000A76EA682A6B2FED7A6940050F212F2CFB0
:1037600000F0F29EAA6A240EA96E20C1A8FFA69CB2
:10377000A69EA684550EA76EAA0EA76EA682A6B216
:10378000FED7A6940050F212F2CF00F0F29EAA6A81
:10379000250EA96E21C1A8FFA69CA69EA684550E43
:1037A000A76EAA0EA76EA682A6B2FED7A694005058
:1037B000F212F2CF00F0F29EAA6A260EA96E22C182
:1037C000A8FFA69CA69EA684550EA76EAA0EA76E5D
:1037D000A682A6B2FED7A6940050F212F2CF00F055
:1037E000F29EAA6A270EA96E23C1A8FFA69CA69ED8
:1037F000A684550EA76EAA0EA76EA682A6B2FED705
:10380000A6940050F212F2CF00F0F29EAA6A280E9F
:10381000A96E24C1A8FFA69CA69EA684550EA76EDD
:10382000AA0EA76EA682A6B2FED7A6940050F212E8
:10383000F2CF00F0F29EAA6A290EA96E25C1A8FF58
:10384000A69CA69EA684550EA76EAA0EA76EA6825B
:10385000A6B2FED7A6940050F212F2CF00F0F29E6C
:10386000AA6A2A0EA96E26C1A8FFA69CA69EA684B7
:10387000550EA76EAA0EA76EA682A6B2FED7A69474
:103880000050F212F2CF00F0F29EAA6A2B0EA96E3F
:1038900027C1A8FFA69CA69EA684550EA76EAA0EB9
:1038A000A76EA682A6B2FED7A6940050F212F2CF5F
:1038B00000F0F29EAA6A2C0EA96E28C1A8FFA69C51
:1038C000A69EA684550EA76EAA0EA76EA682A6B2C5
:1038D000FED7A6940050F212F2CF00F0F29EAA6A30
:1038E0002D0EA96E29C1A8FFA69CA69EA684550EE2
:1038F000A76EAA0EA76EA682A6B2FED7A694005007
:10390000F212F2CF00F0F29EAA6A2E0EA96E2AC120
:10391000A8FFA69CA69EA684550EA76EAA0EA76E0B
:10392000A682A6B2FED7A6940050F212F2CF00F003
:10393000F29EAA6A2F0EA96E2BC1A8FFA69CA69E76
:10394000A684550EA76EAA0EA76EA682A6B2FED7B3
:10395000A6940050F212F2CF00F0F29EAA6A300E46
:10396000A96E2CC1A8FFA69CA69EA684550EA76E84
:10397000AA0EA76EA682A6B2FED7A6940050F21297
:10398000F2CF00F0F29EAA6A310EA96E2DC1A8FFF7
:10399000A69CA69EA684550EA76EAA0EA76EA6820A
:1039A000A6B2FED7A6940050F2120701326B316B1B
:1039B00004002E0E3125E96E010E3221EA6EEFCFA2
:1039C00033F733510D0805E0325303E131510F084D
:1039D00027E26C0E3125E96E050E3221EA6EEF6AA0
:1039E000320E31253A6F000E32213B6FF250006EDD
:1039F000F29E3BC7AAFF3AC7A9FF33C7A8FFA69C00
:103A0000A69EA6840F01550EA76EAA0EA76EA682CB
:103A1000A6B2FED7A6940050F2122DD026D00701F0
:103A20006C0E3125E96E050E3221EA6E33C7EFFFC9
:103A3000320E31253A6F000E32213B6FF250006E8C
:103A4000F29E3BC7AAFF3AC7A9FF33C7A8FFA69CAF
:103A5000A69EA6840F01550EA76EAA0EA76EA6827B
:103A6000A6B2FED7A6940050F2120701312BD8B4AB
:103A7000322B9ED70F0178C07AF0210E00017B6FA8
:103A800007013C6B7A0E3B6F020E3D6F000190EC1C
:103A90000FF0FBC47CF0FAC47DF08A8693960A0E80
:103AA00007013A6F0001A8EC03F07A51BBEC0FF06C
:103AB0007B51BBEC0FF07C51BBEC0FF07D51BBECAC
:103AC0000FF0030E07013A6F0001A8EC03F08A968D
:103AD0009396FF00ECEF21F0FB512208D8A4ECEF05
:103AE00021F00701356B030E346F376B366B396B82
:103AF000386B0400FA0E3425E96E000E3521EA6EAB
:103B0000EF500D0805E0375303E13651290828E24C
:103B10005D0E34253A6F000E35213B6FFA0E3425C9
:103B2000E96E000E3521EA6EEFCF3CF7F250006EE1
:103B3000F29E3BC7AAFF3AC7A9FF3CC7A8FFA69CB5
:103B4000A69EA6840F01550EA76EAA0EA76EA6828A
:103B5000A6B2FED7A6940050F21247D03AD0070181
:103B60007B0E3625016E050E3721036EFA0E3425C5
:103B7000E96E000E3521EA6EEFCF3CF703C0EAFF95
:103B800001C0E9FF3CC7EFFF5D0E34253A6F000E20
:103B900035213B6FFA0E3425E96E000E3521EA6EB1
:103BA000EFCF3CF7F250006EF29E3BC7AAFF3AC738
:103BB000A9FF3CC7A8FFA69CA69EA6840F01550E90
:103BC000A76EAA0EA76EA682A6B2FED7A694005034
:103BD000F212070135C703F03451342BD8B4352B1A
:103BE000362BD8B4372B85D70F017B0E070136252E
:103BF000E96E050E3721EA6EEF6A376B366B342BB0
:103C0000D8B4352B0400FA0E3425E96E000E3521A8
:103C1000EA6EEF500D0805E0375303E136512908ED
:103C200028E25D0E34253A6F000E35213B6FFA0E07
:103C30003425E96E000E3521EA6EEFCF3CF7F250E5
:103C4000006EF29E3BC7AAFF3AC7A9FF3CC7A8FF78
:103C5000A69CA69EA6840F01550EA76EAA0EA76E5F
:103C6000A682A6B2FED7A6940050F21247D03AD050
:103C70000701A40E3625016E050E3721036EFA0EDC
:103C80003425E96E000E3521EA6EEFCF3CF703C014
:103C9000EAFF01C0E9FF3CC7EFFF5D0E34253A6F34
:103CA000000E35213B6FFA0E3425E96E000E3521EA
:103CB000EA6EEFCF3CF7F250006EF29E3BC7AAFFD0
:103CC0003AC7A9FF3CC7A8FFA69CA69EA6840F01E1
:103CD000550EA76EAA0EA76EA682A6B2FED7A69410
:103CE0000050F212070135C703F03451342BD8B419
:103CF000352B362BD8B4372B85D70F01A40E0701EF
:103D00003625E96E050E3721EA6EEF6A376B366BA2
:103D1000342BD8B4352B0400FA0E3425E96E000E8E
:103D20003521EA6EEF500D0805E0375303E13651B7
:103D3000290828E25D0E34253A6F000E35213B6FCD
:103D4000FA0E3425E96E000E3521EA6EEFCF3CF70E
:103D5000F250006EF29E3BC7AAFF3AC7A9FF3CC7CC
:103D6000A8FFA69CA69EA6840F01550EA76EAA0EBC
:103D7000A76EA682A6B2FED7A6940050F21247D034
:103D80003AD00701CD0E3625016E050E3721036EA0
:103D9000FA0E3425E96E000E3521EA6EEFCF3CF7BE
:103DA00003C0EAFF01C0E9FF3CC7EFFF5D0E342509
:103DB0003A6F000E35213B6FFA0E3425E96E000E86
:103DC0003521EA6EEFCF3CF7F250006EF29E3BC712
:103DD000AAFF3AC7A9FF3CC7A8FFA69CA69EA68437
:103DE0000F01550EA76EAA0EA76EA682A6B2FED729
:103DF000A6940050F212070135C703F03451342B5A
:103E0000D8B4352B362BD8B4372B85D70F01CD0E30
:103E100007013625E96E050E3721EA6EEF6A376B2A
:103E2000366B342BD8B4352B0400FA0E3425E96EEA
:103E3000000E3521EA6EEF500D0805E0375303E11F
:103E40003651290828E25D0E34253A6F000E3521DF
:103E50003B6FFA0E3425E96E000E3521EA6EEFCF86
:103E60003CF7F250006EF29E3BC7AAFF3AC7A9FF8B
:103E70003CC7A8FFA69CA69EA6840F01550EA76E60
:103E8000AA0EA76EA682A6B2FED7A6940050F21282
:103E900047D03AD00701F60E3625016E050E3721C0
:103EA000036EFA0E3425E96E000E3521EA6EEFCF6F
:103EB0003CF703C0EAFF01C0E9FF3CC7EFFF5D0E1E
:103EC00034253A6F000E35213B6FFA0E3425E96E2A
:103ED000000E3521EA6EEFCF3CF7F250006EF29EF5
:103EE0003BC7AAFF3AC7A9FF3CC7A8FFA69CA69E4E
:103EF000A6840F01550EA76EAA0EA76EA682A6B2C3
:103F0000FED7A6940050F212070135C703F03451D2
:103F1000342BD8B4352B362BD8B4372B85D70F019B
:103F2000F60E07013625E96E050E3721EA6EEF6AB7
:103F3000376B366B342BD8B4352B0400FA0E34258E
:103F4000E96E000E3521EA6EEF500D0805E037539B
:103F500003E13651290828E25D0E34253A6F000E40
:103F600035213B6FFA0E3425E96E000E3521EA6EDD
:103F7000EFCF3CF7F250006EF29E3BC7AAFF3AC764
:103F8000A9FF3CC7A8FFA69CA69EA6840F01550EBC
:103F9000A76EAA0EA76EA682A6B2FED7A694005060
:103FA000F21247D03AD007011F0E3625016E060ED9
:103FB0003721036EFA0E3425E96E000E3521EA6EC4
:103FC000EFCF3CF703C0EAFF01C0E9FF3CC7EFFFBA
:103FD0005D0E34253A6F000E35213B6FFA0E342505
:103FE000E96E000E3521EA6EEFCF3CF7F250006E1D
:103FF000F29E3BC7AAFF3AC7A9FF3CC7A8FFA69CF1
:10400000A69EA6840F01550EA76EAA0EA76EA682C5
:10401000A6B2FED7A6940050F212070135C703F0EE
:104020003451342BD8B4352B362BD8B4372B85D715
:104030000F011F0E07013625E96E060E3721EA6EC5
:10404000EF6A376B366B342BD8B4352B0400FA0E7D
:104050003425E96E000E3521EA6EEF500D0805E0BB
:10406000375303E13651290828E25D0E34253A6FB3
:10407000000E35213B6FFA0E3425E96E000E352116
:10408000EA6EEFCF3CF7F250006EF29E3BC7AAFFFC
:104090003AC7A9FF3CC7A8FFA69CA69EA6840F010D
:1040A000550EA76EAA0EA76EA682A6B2FED7A6943C
:1040B0000050F21249D03CD007015D0E34253A6F12
:1040C000000E35213B6FFA0E3425E96E000E3521C6
:1040D000EA6EEFCF3CF7F250006EF29E3BC7AAFFAC
:1040E0003AC7A9FF3CC7A8FFA69CA69EA6840F01BD
:1040F000550EA76EAA0EA76EA682A6B2FED7A694EC
:104100000050F212480E07013625016E060E3721C7
:10411000036EFA0E3425E96E000E3521EA6EEFCFFC
:104120003CF703C0EAFF01C0E9FF3CC7EFFF0F0106
:10413000070135C703F03451342BD8B4352B362B57
:10414000D8B4372B83D70F01480E07013625E96E07
:10415000060E3721EA6EEF6A376B366B342BD8B414
:10416000352B0400FA0E3425E96E000E3521EA6E77
:10417000EF500D0805E0375303E13651290828E2D6
:104180005D0E34253A6F000E35213B6FFA0E342553
:10419000E96E000E3521EA6EEFCF3CF7F250006E6B
:1041A000F29E3BC7AAFF3AC7A9FF3CC7A8FFA69C3F
:1041B000A69EA6840F01550EA76EAA0EA76EA68214
:1041C000A6B2FED7A6940050F21247D03AD007010B
:1041D000710E3625016E060E3721036EFA0E342558
:1041E000E96E000E3521EA6EEFCF3CF703C0EAFF1F
:1041F00001C0E9FF3CC7EFFF5D0E34253A6F000EAA
:1042000035213B6FFA0E3425E96E000E3521EA6E3A
:10421000EFCF3CF7F250006EF29E3BC7AAFF3AC7C1
:10422000A9FF3CC7A8FFA69CA69EA6840F01550E19
:10423000A76EAA0EA76EA682A6B2FED7A6940050BD
:10424000F212070135C703F03451342BD8B4352BA3
:10425000362BD8B4372B85D70F01710E07013625C1
:10426000E96E060E3721EA6EEF6A376B366B342B38
:10427000D8B4352B0400FA0E3425E96E000E352132
:10428000EA6EEF500D0805E0375303E13651290877
:1042900028E25D0E34253A6F000E35213B6FFA0E91
:1042A0003425E96E000E3521EA6EEFCF3CF7F2506F
:1042B000006EF29E3BC7AAFF3AC7A9FF3CC7A8FF02
:1042C000A69CA69EA6840F01550EA76EAA0EA76EE9
:1042D000A682A6B2FED7A6940050F21247D03AD0DA
:1042E00007019A0E3625016E060E3721036EFA0E6F
:1042F0003425E96E000E3521EA6EEFCF3CF703C09E
:10430000EAFF01C0E9FF3CC7EFFF5D0E34253A6FBD
:10431000000E35213B6FFA0E3425E96E000E352173
:10432000EA6EEFCF3CF7F250006EF29E3BC7AAFF59
:104330003AC7A9FF3CC7A8FFA69CA69EA6840F016A
:10434000550EA76EAA0EA76EA682A6B2FED7A69499
:104350000050F212070135C703F03451342BD8B4A2
:10436000352B362BD8B4372B85D70F019A0E070182
:104370003625E96E060E3721EA6EEF6A78C07AF0CC
:10438000210E00017B6F07013C6B7A0E3B6F020E22
:104390003D6F000190EC0FF0FBC47CF0FAC47DF09F
:1043A0008A8693960A0E07013A6F0001A8EC03F083
:1043B0007A51BBEC0FF07B51BBEC0FF07C51BBECA6
:1043C0000FF07D51BBEC0FF0030E07013A6F0001B7
:1043D000A8EC03F08A96939605010001FB510308AF
:1043E00045E10501036B49C004F578C07AF0030E7E
:1043F00000017B6F020E7C6F03C57DF004C57EF06B
:1044000007013C6B7A0E3B6F050E3D6F000190EC8F
:104410000FF0FBC47FF0FAC480F08A869396040004
:10442000040E07013A6F0001A8EC03F004007A5172
:10443000BBEC0FF07B51BBEC0FF07C51BBEC0FF0F1
:104440007D51BBEC0FF07E51BBEC0FF07F51BBEC0C
:104450000FF08051BBEC0FF00400030E07013A6F20
:104460000001A8EC03F004008A969396010E040163
:10447000FD6FF40EFC6F309A6FC077F00501696B29
:104480000001796B8A96939651EF35F00601CB8146
:10449000CB83CB85CB87CB89CB8BCB8DCB8F0001CF
:1044A000AFEF32F0EF5210E0EACF3AF7E9CF39F749
:1044B000EFCF3BF75DEC0FF03AC7EAFF39C7E9FFF2
:1044C000E92AD8B4EA2AEED712000701392D3CD1E7
:1044D000000E0601CBB1010E07013C6F000E060174
:1044E000CCB1010E07013C113B6F000E0601CAA1C1
:1044F000010E07013B17000E0601C7B1010E0701AF
:104500003E6F000E0601C8B1010E07013E113B15BA
:104510003A91E8B03A81000E3AB1010E3B6F000EBD
:104520000601CBB3010E07013D6F000E0601CCB3AF
:10453000010E07013D113C6F000E0601CAA3010EDA
:1045400007013C17000E0601C7B3010E07013F6FBC
:10455000000E0601C8B3010E07013F113C153B11C7
:104560003A91E8B03A81000E3AB1010E3B6F000E6D
:104570000601CBB5010E07013D6F000E0601CCB55B
:10458000010E07013D113C6F000E0601CAA5010E88
:1045900007013C17000E0601C7B5010E07013F6F6A
:1045A000000E0601C8B5010E07013F113C153B1175
:1045B0003A91E8B03A81000E3AB1010E3B6F000E1D
:1045C0000601CBB7010E07013D6F000E0601CCB707
:1045D000010E07013D113C6F000E0601CAA7010E36
:1045E00007013C17000E0601C7B7010E07013F6F18
:1045F000000E0601C8B7010E07013F113C153B1123
:104600003A91E8B03A81000E3AB1010E3B6F000ECC
:104610000601CBB9010E07013D6F000E0601CCB9B2
:10462000010E07013D113C6F000E0601CAA9010EE3
:1046300007013C17000E0601C7B9010E07013F6FC5
:10464000000E0601C8B9010E07013F113C153B11D0
:104650003A91E8B03A81000E3AB1010E3B6F000E7C
:104660000601CBBB010E07013D6F000E0601CCBB5E
:10467000010E07013D113C6F000E0601CAAB010E91
:1046800007013C17000E0601C7BB010E07013F6F73
:10469000000E0601C8BB010E07013F113C153B117E
:1046A0003A91E8B03A81000E3AB1010E3B6F000E2C
:1046B0000601CBBD010E07013D6F000E0601CCBD0A
:1046C000010E07013D113C6F000E0601CAAD010E3F
:1046D00007013C17000E0601C7BD010E07013F6F21
:1046E000000E0601C8BD010E07013F113C153B112C
:1046F0003A91E8B03A81000E3AB1010E3B6F000EDC
:104700000601CBBF010E07013D6F000E0601CCBFB5
:10471000010E07013D113C6F000E0601CAAF010EEC
:1047200007013C17000E0601C7BF010E07013F6FCE
:10473000000E0601C8BF010E07013F113C153B11D9
:104740003A91E8B03A813FD139510208D8A43BD11F
:10475000000E0601CBB1010E07013C6F000E0601F1
:10476000CCB1010E07013C113B6F000E0601CAA13E
:10477000010E07013B17000E0601C7A1010E07013C
:104780003E6F000E0601C8B1010E07013E113B1538
:104790003A91E8B03A81000E3AB1010E3B6F000E3B
:1047A0000601CBB3010E07013D6F000E0601CCB32D
:1047B000010E07013D113C6F000E0601CAA3010E58
:1047C00007013C17000E0601C7A3010E07013F6F4A
:1047D000000E0601C8B3010E07013F113C153B1145
:1047E0003A91E8B03A81000E3AB1010E3B6F000EEB
:1047F0000601CBB5010E07013D6F000E0601CCB5D9
:10480000010E07013D113C6F000E0601CAA5010E05
:1048100007013C17000E0601C7A5010E07013F6FF7
:10482000000E0601C8B5010E07013F113C153B11F2
:104830003A91E8B03A81000E3AB1010E3B6F000E9A
:104840000601CBB7010E07013D6F000E0601CCB784
:10485000010E07013D113C6F000E0601CAA7010EB3
:1048600007013C17000E0601C7A7010E07013F6FA5
:10487000000E0601C8B7010E07013F113C153B11A0
:104880003A91E8B03A81000E3AB1010E3B6F000E4A
:104890000601CBB9010E07013D6F000E0601CCB930
:1048A000010E07013D113C6F000E0601CAA9010E61
:1048B00007013C17000E0601C7A9010E07013F6F53
:1048C000000E0601C8B9010E07013F113C153B114E
:1048D0003A91E8B03A81000E3AB1010E3B6F000EFA
:1048E0000601CBBB010E07013D6F000E0601CCBBDC
:1048F000010E07013D113C6F000E0601CAAB010E0F
:1049000007013C17000E0601C7AB010E07013F6F00
:10491000000E0601C8BB010E07013F113C153B11FB
:104920003A91E8B03A81000E3AB1010E3B6F000EA9
:104930000601CBBD010E07013D6F000E0601CCBD87
:10494000010E07013D113C6F000E0601CAAD010EBC
:1049500007013C17000E0601C7AD010E07013F6FAE
:10496000000E0601C8BD010E07013F113C153B11A9
:104970003A91E8B03A81000E3AB1010E3B6F000E59
:104980000601CBBF010E07013D6F000E0601CCBF33
:10499000010E07013D113C6F000E0601CAAF010E6A
:1049A00007013C17000E0601C7AF010E07013F6F5C
:1049B000000E0601C8BF010E07013F113C153B1157
:1049C0003A91E8B03A81000E3AB1010E016E000151
:1049D00012000601C9A189D0000EC3B1010E070162
:1049E0003A6F000E0601C5B1010E07013A19010820
:1049F00003E10601C6B103D00601CBA172D0CAB152
:104A00006FD0CBB10CD000016A510F08D8B402D0DE
:104A1000060105D0640E1C6E6BC01DF00601CB8133
:104A20001AB202D0C49101D0C4811AB80ED0C8B154
:104A300005D0899892988996929607D0C7A103D0FD
:104A40008998929802D089969296D1B149D030B285
:104A500047D0CAB145D0B60EF66E050EF76E00010E
:104A600080EC0FF00A0E07013B6F00015DEC0FF0C8
:104A70000A0E07013A6F0001A8EC03F00601D1818C
:104A8000C00EF66E050EF76E000180EC0FF0050EFD
:104A9000EA6E6C0EE96E06DD220E07013B6F000127
:104AA0005DEC0FF00A0E07013B6F00015DEC0FF0AB
:104AB000320E07013A6F0001A8EC03F0050EEA6E12
:104AC0007B0EE96EEFDC0A0E07013B6F00015DEC27
:104AD0000FF01A0E07013B6F00015DEC0FF00601AD
:104AE00003D0C6A101D0CA9160D0000EC3B1010E9F
:104AF00007013A6F000E0601C5B1010E07013A1910
:104B000001084FE10601C491D1B149D030B247D07C
:104B1000CAB145D0CA0EF66E050EF76E000180ECE4
:104B20000FF00A0E07013B6F00015DEC0FF00A0E5B
:104B300007013A6F0001A8EC03F00601D181D40E01
:104B4000F66E050EF76E000180EC0FF0050EEA6EB2
:104B50006C0EE96EA7DC220E07013B6F00015DECD5
:104B60000FF00A0E07013B6F00015DEC0FF0320EF3
:104B700007013A6F0001A8EC03F0050EEA6E7B0E08
:104B8000E96E90DC0A0E07013B6F00015DEC0FF04F
:104B90001A0E07013B6F00015DEC0FF0060105D016
:104BA00007010601C481D1913092C9A389D0000EBA
:104BB000C3B3010E07013A6F000E0601C5B3010E23
:104BC00007013A19010803E10601C6B303D0060143
:104BD000CBA372D0CAB324D0CBB30CD000016A519E
:104BE0000F08D8B402D0060105D0640E1C6E6BC04D
:104BF0001DF00601CB831AB202D0C49301D0C48346
:104C00001AB80ED0C8B305D0899892988996929612
:104C100007D0C7A303D08998929802D0899692961C
:104C2000D1B349D030B247D0CAB345D0DE0EF66E0C
:104C3000050EF76E000180EC0FF00A0E07013B6FC6
:104C400000015DEC0FF00A0E07013A6F0001A8ECBD
:104C500003F00601D183E80EF66E050EF76E000133
:104C600080EC0FF0050EEA6E6C0EE96E1BDC220E76
:104C700007013B6F00015DEC0FF00A0E07013B6F6F
:104C800000015DEC0FF0320E07013A6F0001A8EC55
:104C900003F0050EEA6EA40EE96E04DC0A0E0701AD
:104CA0003B6F00015DEC0FF01A0E07013B6F000136
:104CB0005DEC0FF0060103D0C6A301D0CA9362D009
:104CC000000EC3B3010E07013A6F000E0601C5B313
:104CD000010E07013A19010851E10601C493D1B34D
:104CE0004BD030B249D0CAB347D0F20EF66E050EA3
:104CF000F76E000180EC0FF00A0E07013B6F000118
:104D00005DEC0FF00A0E07013A6F0001A8EC03F00A
:104D10000601D183FC0EF66E050EF76E000180ECE5
:104D20000FF0050EEA6E6C0EE96E52EC22F0220EC8
:104D300007013B6F00015DEC0FF00A0E07013B6FAE
:104D400000015DEC0FF0320E07013A6F0001A8EC94
:104D500003F0050EEA6E7B0EE96E52EC22F00A0EAD
:104D600007013B6F00015DEC0FF01A0E07013B6F6E
:104D700000015DEC0FF0060105D007010601C483B8
:104D8000D1933092C9A58BD0000EC3B5010E070197
:104D90003A6F000E0601C5B5010E07013A19010868
:104DA00003E10601C6B503D00601CBA574D0CAB590
:104DB00024D0CBB50CD000016A510F08D8B402D072
:104DC000060105D0640E1C6E6BC01DF00601CB857C
:104DD0001AB202D0C49501D0C4851AB80ED0C8B595
:104DE00005D0899892988996929607D0C7A503D046
:104DF0008998929802D089969296D1B54BD030B2CC
:104E000049D0CAB547D0060EF66E060EF76E000101
:104E100080EC0FF00A0E07013B6F00015DEC0FF014
:104E20000A0E07013A6F0001A8EC03F00601D185D4
:104E3000100EF66E060EF76E000180EC0FF0050EF8
:104E4000EA6E6C0EE96E52EC22F0220E07013B6F07
:104E500000015DEC0FF00A0E07013B6F00015DECF5
:104E60000FF0320E07013A6F0001A8EC03F0050EB7
:104E7000EA6ECD0EE96E52EC22F00A0E07013B6F8E
:104E800000015DEC0FF01A0E07013B6F00015DECB5
:104E90000FF0060103D0C6A501D0CA9561D0000E5F
:104EA000C3B5010E07013A6F000E0601C5B5010E2C
:104EB00007013A19010851E10601C495D1B54BD05B
:104EC00030B249D0CAB547D01A0EF66E060EF76E4C
:104ED000000180EC0FF00A0E07013B6F00015DEC52
:104EE0000FF00A0E07013A6F0001A8EC03F006016B
:104EF000D185240EF66E060EF76E000180EC0FF0E1
:104F0000050EEA6E6C0EE96E52EC22F0220E0701DD
:104F10003B6F00015DEC0FF00A0E07013B6F0001D3
:104F20005DEC0FF0320E07013A6F0001A8EC03F0C0
:104F3000050EEA6ECD0EE96E52EC22F00A0E070164
:104F40003B6F00015DEC0FF01A0E07013B6F000193
:104F50005DEC0FF0060104D007010601C485D19570
:104F6000C9A78BD0000EC3B7010E07013A6F000E20
:104F70000601C5B7010E07013A19010803E1060150
:104F8000C6B703D00601CBA774D0CAB724D0CBB71D
:104F90000CD000016A510F08D8B402D0060105D028
:104FA000640E1C6E6BC01DF00601CB871AB202D0D6
:104FB000C49701D0C4871AB80ED0C8B705D0899855
:104FC00092988996929607D0C7A703D0899892980D
:104FD00002D089969296D1B74BD030B249D0CAB799
:104FE00047D02E0EF66E060EF76E000180EC0FF025
:104FF0000A0E07013B6F00015DEC0FF00A0E07017E
:105000003A6F0001A8EC03F00601D187380EF66E66
:10501000060EF76E000180EC0FF0050EEA6E6C0EC6
:10502000E96E52EC22F0220E07013B6F00015DECAD
:105030000FF00A0E07013B6F00015DEC0FF0320E1E
:1050400007013A6F0001A8EC03F0050EEA6EF60EB8
:10505000E96E52EC22F00A0E07013B6F00015DEC95
:105060000FF01A0E07013B6F00015DEC0FF0060117
:1050700003D0C6A701D0CA9761D0000EC3B7010EF6
:1050800007013A6F000E0601C5B7010E07013A1974
:10509000010851E10601C497D1B74BD030B249D0D5
:1050A000CAB747D0420EF66E060EF76E000180ECCE
:1050B0000FF00A0E07013B6F00015DEC0FF00A0EC6
:1050C00007013A6F0001A8EC03F00601D1874C0EEE
:1050D000F66E060EF76E000180EC0FF0050EEA6E1C
:1050E0006C0EE96E52EC22F0220E07013B6F0001BC
:1050F0005DEC0FF00A0E07013B6F00015DEC0FF055
:10510000320E07013A6F0001A8EC03F0050EEA6EBB
:10511000F60EE96E52EC22F00A0E07013B6F000119
:105120005DEC0FF01A0E07013B6F00015DEC0FF014
:10513000060104D007010601C487D197C9A98BD005
:10514000000EC3B9010E07013A6F000E0601C5B982
:10515000010E07013A19010803E10601C6B903D09F
:105160000601CBA974D0CAB924D0CBB90CD00001A8
:105170006A510F08D8B402D0060105D0640E1C6E27
:105180006BC01DF00601CB891AB202D0C49901D0C0
:10519000C4891AB80ED0C8B905D089989298899652
:1051A000929607D0C7A903D08998929802D0899681
:1051B0009296D1B94BD030B249D0CAB947D0560E29
:1051C000F66E060EF76E000180EC0FF00A0E070176
:1051D0003B6F00015DEC0FF00A0E07013A6F000112
:1051E000A8EC03F00601D189600EF66E060EF76E8C
:1051F000000180EC0FF0050EEA6E6C0EE96E52ECC9
:1052000022F0220E07013B6F00015DEC0FF00A0E49
:1052100007013B6F00015DEC0FF0320E07013A6FA2
:105220000001A8EC03F0060EEA6E1F0EE96E52ECC8
:1052300022F00A0E07013B6F00015DEC0FF01A0E21
:1052400007013B6F00015DEC0FF0060103D0C6A91A
:1052500001D0CA9961D0000EC3B9010E07013A6F9F
:10526000000E0601C5B9010E07013A19010851E106
:105270000601C499D1B94BD030B249D0CAB947D090
:105280006A0EF66E060EF76E000180EC0FF00A0E45
:1052900007013B6F00015DEC0FF00A0E07013A6F4A
:1052A0000001A8EC03F00601D189740EF66E060E1B
:1052B000F76E000180EC0FF0050EEA6E6C0EE96EE1
:1052C00052EC22F0220E07013B6F00015DEC0FF063
:1052D0000A0E07013B6F00015DEC0FF0320E070173
:1052E0003A6F0001A8EC03F0060EEA6E1F0EE96E9D
:1052F00052EC22F00A0E07013B6F00015DEC0FF04B
:105300001A0E07013B6F00015DEC0FF0060104D09F
:1053100007010601C489D199C9AB8BD0000EC3BB6C
:10532000010E07013A6F000E0601C5BB010E070111
:105330003A19010803E10601C6BB03D00601CBAB55
:1053400074D0CABB24D0CBBB0CD000016A510F086B
:10535000D8B402D0060105D0640E1C6E6BC01DF0DF
:105360000601CB8B1AB202D0C49B01D0C48B1AB8F1
:105370000ED0C8BB05D0899892988996929607D08E
:10538000C7AB03D08998929802D089969296D1BBE8
:105390004BD030B249D0CABB47D07E0EF66E060E57
:1053A000F76E000180EC0FF00A0E07013B6F000161
:1053B0005DEC0FF00A0E07013A6F0001A8EC03F054
:1053C0000601D18B880EF66E060EF76E000180EC9A
:1053D0000FF0050EEA6E6C0EE96E52EC22F0220E12
:1053E00007013B6F00015DEC0FF00A0E07013B6FF8
:1053F00000015DEC0FF0320E07013A6F0001A8ECDE
:1054000003F0060EEA6E480EE96E52EC22F00A0E28
:1054100007013B6F00015DEC0FF01A0E07013B6FB7
:1054200000015DEC0FF0060103D0C6AB01D0CA9BB2
:1054300061D0000EC3BB010E07013A6F000E0601DA
:10544000C5BB010E07013A19010851E10601C49BD1
:10545000D1BB4BD030B249D0CABB47D0920EF66E0A
:10546000060EF76E000180EC0FF00A0E07013B6F8D
:1054700000015DEC0FF00A0E07013A6F0001A8EC85
:1054800003F00601D18B9C0EF66E060EF76E00013E
:1054900080EC0FF0050EEA6E6C0EE96E52EC22F015
:1054A000220E07013B6F00015DEC0FF00A0E0701B1
:1054B0003B6F00015DEC0FF0320E07013A6F000107
:1054C000A8EC03F0060EEA6E480EE96E52EC22F0EC
:1054D0000A0E07013B6F00015DEC0FF01A0E070189
:1054E0003B6F00015DEC0FF0060104D007010601DF
:1054F000C48BD19BC9AD8BD0000EC3BD010E07017B
:105500003A6F000E0601C5BD010E07013A190108E8
:1055100003E10601C6BD03D00601CBAD74D0CABD00
:1055200024D0CBBD0CD000016A510F08D8B402D0F2
:10553000060105D0640E1C6E6BC01DF00601CB8DFC
:105540001AB202D0C49D01D0C48D1AB80ED0C8BD05
:1055500005D0899892988996929607D0C7AD03D0C6
:105560008998929802D089969296D1BD4BD030B24C
:1055700049D0CABD47D0A60EF66E060EF76E0001E2
:1055800080EC0FF00A0E07013B6F00015DEC0FF09D
:105590000A0E07013A6F0001A8EC03F00601D18D55
:1055A000B00EF66E060EF76E000180EC0FF0050EE1
:1055B000EA6E6C0EE96E52EC22F0220E07013B6F90
:1055C00000015DEC0FF00A0E07013B6F00015DEC7E
:1055D0000FF0320E07013A6F0001A8EC03F0060E3F
:1055E000EA6E710EE96E52EC22F00A0E07013B6F73
:1055F00000015DEC0FF01A0E07013B6F00015DEC3E
:105600000FF0060103D0C6AD01D0CA9D61D0000ED7
:10561000C3BD010E07013A6F000E0601C5BD010EA4
:1056200007013A19010851E10601C49DD1BD4BD0D3
:1056300030B249D0CABD47D0BA0EF66E060EF76E2C
:10564000000180EC0FF00A0E07013B6F00015DECDA
:105650000FF00A0E07013A6F0001A8EC03F00601F3
:10566000D18DC40EF66E060EF76E000180EC0FF0C1
:10567000050EEA6E6C0EE96E52EC22F0220E070166
:105680003B6F00015DEC0FF00A0E07013B6F00015C
:105690005DEC0FF0320E07013A6F0001A8EC03F049
:1056A000060EEA6E710EE96E52EC22F00A0E070148
:1056B0003B6F00015DEC0FF01A0E07013B6F00011C
:1056C0005DEC0FF0060104D007010601C48DD19DE9
:1056D000C9AF8BD0000EC3BF010E07013A6F000E99
:1056E0000601C5BF010E07013A19010803E10601D1
:1056F000C6BF03D00601CBAF74D0CABF24D0CBBF86
:105700000CD000016A510F08D8B402D0060105D0B0
:10571000640E1C6E6BC01DF00601CB8F1AB202D056
:10572000C49F01D0C48F1AB80ED0C8BF05D08998C5
:1057300092988996929607D0C7AF03D0899892988D
:1057400002D089969296D1BF4BD030B249D0CABF11
:1057500047D0CE0EF66E060EF76E000180EC0FF00D
:105760000A0E07013B6F00015DEC0FF00A0E070106
:105770003A6F0001A8EC03F00601D18FD80EF66E47
:10578000060EF76E000180EC0FF0050EEA6E6C0E4F
:10579000E96E52EC22F0220E07013B6F00015DEC36
:1057A0000FF00A0E07013B6F00015DEC0FF0320EA7
:1057B00007013A6F0001A8EC03F0060EEA6E9A0E9C
:1057C000E96E52EC22F00A0E07013B6F00015DEC1E
:1057D0000FF01A0E07013B6F00015DEC0FF00601A0
:1057E00003D0C6AF01D0CA9F61D0000EC3BF010E67
:1057F00007013A6F000E0601C5BF010E07013A19F5
:10580000010851E10601C49FD1BF4BD030B249D04D
:10581000CABF47D0E20EF66E060EF76E000180ECAE
:105820000FF00A0E07013B6F00015DEC0FF00A0E4E
:1058300007013A6F0001A8EC03F00601D18FEC0ECE
:10584000F66E060EF76E000180EC0FF0050EEA6EA4
:105850006C0EE96E52EC22F0220E07013B6F000144
:105860005DEC0FF00A0E07013B6F00015DEC0FF0DD
:10587000320E07013A6F0001A8EC03F0060EEA6E43
:105880009A0EE96E52EC22F00A0E07013B6F0001FE
:105890005DEC0FF01A0E07013B6F00015DEC0FF09D
:1058A000060104D007010601C48FD19F000EC3B1C9
:1058B000010E07013A6F000E0601C5B1010E070186
:1058C0003A19010804E10601C6A104D007011AAA89
:1058D00069D00601CCB10ED000016A510F08D8B4CE
:1058E00002D0060107D00601CAB104D0640E1C6EB6
:1058F0006BC01DF0CC81CAB117D01AB202D0C491CE
:1059000001D0C4811AB810D0C9A10ED0C8B105D039
:10591000899892988996929607D0C7A103D08998C2
:10592000929802D089969296010E07012E6F060179
:10593000D1B137D030B235D0CAB133D0D181F60E23
:10594000F66E060EF76E000180EC0FF0050EEA6EA3
:105950006C0EE96E52EC22F0220E07013B6F000143
:105960005DEC0FF00A0E07013B6F00015DEC0FF0DC
:10597000320E07013A6F0001A8EC03F0050EEA6E43
:105980007B0EE96E52EC22F00A0E07013B6F00011C
:105990005DEC0FF01A0E07013B6F00015DEC0FF09C
:1059A000060145D00601C6B142D0CC91CA91C4814E
:1059B000D191C7B102D0C8B111D007012E53D8B4CC
:1059C00002D006010BD0010E396F000165EC22F008
:1059D000012C01D002D0898892980601C7A102D07B
:1059E000C8B111D007012E53D8B402D006010BD094
:1059F000020E396F000165EC22F0012C01D002D0BB
:105A0000898692960601CCB112D0CCB310D0CCB519
:105A10000ED0CCB70CD0CCB90AD0CCBB08D0CCBD02
:105A200006D0CCBF04D08986929689889298000EC1
:105A3000C3B3010E07013A6F000E0601C5B3010E94
:105A400007013A19010804E10601C6A304D00701C1
:105A50001AAA69D00601CCB30ED000016A510F0812
:105A6000D8B402D0060107D00601CAB304D0640E30
:105A70001C6E6BC01DF0CC83CAB317D01AB202D013
:105A8000C49301D0C4831AB810D0C9A30ED0C8B330
:105A900005D0899892988996929607D0C7A303D08B
:105AA0008998929802D089969296010E07012E6FDE
:105AB0000601D1B337D030B235D0CAB333D0D18399
:105AC000000EF66E070EF76E000180EC0FF0050E6B
:105AD000EA6E6C0EE96E52EC22F0220E07013B6F6B
