:04000000BEEF32F02D
:08000800046ED8CF05F0E0CF33
:1000100006F00001E9CF0CF0EACF07F0E1CF08F0DD
:10002000E2CF09F0D9CF0AF0DACF0BF0F3CF12F01C
:10003000F4CF13F0FACF14F0F5CF15F0F6CF16F099
:10004000F7CF17F000C00EF001C00FF002C010F0A3
:1000500003C011F09DA230EF00F09EB2CDEF02F090
:100060009DAA36EF00F09EBAC5EF02F00EC000F078
:100070000FC001F010C002F011C003F00CC0E9FF86
:1000800007C0EAFF078E08C0E1FF09C0E2FF0AC00F
:10009000D9FF0BC0DAFF12C0F3FF13C0F4FF14C086
:1000A000FAFF15C0F5FF16C0F6FF17C0F7FF0450A2
:1000B00006C0E0FF05C0D8FF1000F76ACA0FF66E51
:1000C000000EF7220900F550120000C1814001C066
:1000D000804101C0804100C1814001C0804100C118
:1000E000814000C1814001C0804101C0804100C108
:1000F000814000C1814001C0804100C1814001C0F8
:10010000804101C0804100C1814001C0804100C1E7
:10011000814000C1814001C0804100C1814001C0D7
:10012000804101C0804100C1814000C1814001C0C7
:10013000804101C0804100C1814001C0804100C1B7
:10014000814000C1814001C0804101C0804100C1A7
:10015000814000C1814001C0804100C1814001C097
:10016000804101C0804100C1814000C1814001C087
:10017000804101C0804100C1814001C0804100C177
:10018000814000C1814001C0804100C1814001C067
:10019000804101C0804100C1814001C0804100C157
:1001A000814000C1814001C0804101C0804100C147
:1001B000814000C1814001C0804100C1814001C037
:1001C000804101C0804100C18140F76ADA0FF66EBC
:1001D000010EF7220900F550120000C0C101C3034F
:1001E00002C2C60607C705C5C404CC0C0DCD0FCF8F
:1001F000CE0E0ACACB0BC90908C8D81819D91BDBFF
:10020000DA1A1EDEDF1FDD1D1CDC14D4D515D7174E
:1002100016D6D21213D311D1D010F03031F133F3FE
:10022000F23236F6F737F53534F43CFCFD3DFF3F4E
:100230003EFEFA3A3BFB39F9F83828E8E929EB2B7E
:100240002AEAEE2E2FEF2DEDEC2CE42425E527E70E
:10025000E62622E2E323E12120E0A06061A163A37E
:10026000A26266A6A767A56564A46CACAD6DAF6F0E
:100270006EAEAA6A6BAB69A9A86878B8B979BB7B7E
:100280007ABABE7E7FBF7DBDBC7CB47475B577B7CE
:10029000B67672B2B373B17170B0509091519353FE
:1002A000529296565797559594549C5C5D9D5F9FCE
:1002B0009E5E5A9A9B5B99595898884849894B8BFE
:1002C0008A4A4E8E8F4F8D4D4C8C4484854587478E
:1002D0004686824243834181804004006F51785DAD
:1002E00015E17A6B7A0E7A25E96E010EEA6ED8B0C6
:1002F000EA2A2EC0EFFF04007A2B100E786F070158
:10030000016B140E0501856F3DD100017851100875
:100310005CE17A0E7A25E96E010EEA6ED8B0EA2A1F
:100320002EC0EFFF04007A2B010E7A5D7A0FE96E82
:10033000010EEA6ED8B0EA2AEF50160807E370C043
:1003400078F0140E0501856F3ED00001010E7A5D34
:100350007A0FE96E010EEA6ED8B0EA2AEF50200853
:1003600007E173C078F0140E0501856F2CD00001F1
:10037000010E7A5D7A0FE96E010EEA6ED8B0EA2AB4
:10038000EF50210807E176C078F0140E0501856F63
:100390001AD00001010E7A5D7A0FE96E010EEA6E45
:1003A000D8B0EA2AEF50220807E175C078F0140EA1
:1003B0000501856F08D000017A6B6FC078F00501E8
:1003C000856B8A969396DED000017551785D12E1B7
:1003D0007A0E7A25E96E010EEA6ED8B0EA2A2EC0AE
:1003E000EFFF04007A2B76C078F0140E0501856FBC
:1003F000C9D000017651785D2BE17A0E7A25E96E3D
:10040000010EEA6ED8B0EA2A2EC0EFFF04007A2B64
:1004100001017B51220809E17C51640DF3507D25D7
:100420000501866F876B0ED00101010E00017A5D18
:100430007A0FE96E010EEA6ED8B0EA2A0501876BE1
:10044000EFCF86F5140E856F77C078F09BD0000152
:100450007751785D1AE17A0E7A25E96E010EEA6E1F
:10046000D8B0EA2A2EC0EFFF04007A2B050186518E
:10047000D8B487078607865304E1875302E173C027
:1004800078F0140E856F7ED000017051785D12E116
:100490007A0E7A25E96E010EEA6ED8B0EA2A2EC0ED
:1004A000EFFF04007A2B71C078F0140E0501856F00
:1004B00069D000017151785D12E17A0E7A25E96EFA
:1004C000010EEA6ED8B0EA2A2EC0EFFF04007A2BA4
:1004D00072C078F0140E0501856F54D0000172517E
:1004E000785D12E17A0E7A25E96E010EEA6ED8B0D7
:1004F000EA2A2EC0EFFF04007A2B150E786F140E37
:100500000501856F3FD000017851150812E17A0E80
:100510007A25E96E010EEA6ED8B0EA2A2EC0EFFF06
:1005200004007A2B73C078F0140E0501856F2AD071
:1005300000017351785D12E17A0E7A25E96E010EA1
:10054000EA6ED8B0EA2A2EC0EFFF04007A2B74C0FE
:1005500078F0140E0501856F15D000017451785D97
:1005600011E17A0E7A25E96E010EEA6ED8B0EA2A18
:100570002EC0EFFF04006FC078F00501856B308A54
:100580008A9693960001CAEF02F09EAAFED7AECFDC
:100590002EF0A3D69E9A36EF00F0192A0501855356
:1005A0000BE08507855308E100017A6B6FC078F096
:1005B0000501856B8A9693961C520CE01C061C5212
:1005C00009E11D5204E01D061D5201E11A84308824
:1005D000640E1C6E1950320815E1196A1AB004D065
:1005E0001A808A8A939A03D01A908A9A939A1AAC9C
:1005F00008D02F5201E02F062F5202E11A8A3082D2
:1006000001D02F6A1B5211E01B061B5208E18869BA
:100610001AA202D01A9201D01A826CC01BF0315279
:1006200004E03106315201E130949E92000136EF30
:1006300000F041542B434D47463D310041542B437C
:100640004D47533D220041542B434D47463D310019
:1006500041542B434D47533D220041542B434D47BA
:10066000463D310041542B434D47533D22004154F8
:100670002B434D47463D310041542B434D47533D9D
:10068000220041542B434D47463D310041542B43FA
:100690004D47533D220041542B434D47463D3100C9
:1006A00041542B434D47533D220041542B434D476A
:1006B000463D310041542B434D47533D22004154A8
:1006C0002B434D47463D310041542B434D47533D4D
:1006D000220041542B434D47463D310041542B43AA
:1006E0004D47533D220041542B434D47463D310079
:1006F00041542B434D47533D220041542B434D471A
:10070000463D310041542B434D47533D2200415457
:100710002B434D47463D310041542B434D47533DFC
:10072000220041542B434D47463D310041542B4359
:100730004D47533D220041542B434D47463D310028
:1007400041542B434D47533D220041542B434D47C9
:10075000463D310041542B434D47533D2200415407
:100760002B434D47463D310041542B434D47533DAC
:10077000220041542B434D47533D220041542B430B
:100780004D47533D220041542B434D47533D2200DA
:1007900041542B434D47533D220041542B434D4779
:1007A000533D220041542B434D47533D22004154B9
:1007B0002B434D47533D220041542B434D47533D5E
:1007C000220041542B434D47463D3100070EEA6E4F
:1007D000100EE96EEF5011E0050E016EBF0E006EB7
:1007E0000400002EFDD7012EF9D72E0E006E002E2C
:1007F000FED700000400EF2EEFD71200929A899ADC
:10080000070111514009146FC95014C7C9FFC730FF
:10081000FEE3C95012C7C9FFC730FEE3C95013C772
:10082000C9FFC730FEE3929A898A00011200929AAA
:10083000898A929A0701116B0A0E126FAA0E136F22
:100840000001DCDF020E0701116F0A0E126FAA0E03
:10085000136F0001D3DF040E0701116F0A0E126F30
:10086000AA0E136F0001CADF060E0701116F0A0EF0
:10087000126FAA0E136F0001C1DF080E0701116F7E
:100880000A0E126FAA0E136F0001B8DF0A0E0701DD
:10089000116F126FAA0E136F0001B0DF0C0E07016B
:1008A000116F0A0E126FAA0E136F0001A7DF0E0E52
:1008B0000701116F0A0E126FAA0E136F00019EDF5F
:1008C00039EF33F007C711F70701126B08C713F7A9
:1008D000000194DF120007C711F7100E0701126F15
:1008E00008C713F700018ADF1200F2CF11F7F29E5A
:1008F000AA6A010EA96EA69CA69EA680A850070112
:1009000011BFF28E396E39C03AF006019A9139B0B2
:100910009A81D89039309A93E8B09A833930006E32
:1009200000323F0E00169A9500B09A853930006E5D
:10093000003200321F0E00169A9700B09A8739389D
:10094000006E0F0E00169A9900B09A893938006E21
:100950000032070E00169A9B00B09A8B3938006E51
:1009600000320032030E00169A9D00B09A8D006A84
:1009700039BE00809A9F00B09A8FFE939AB1FE8391
:10098000FE959AB3FE85FE979AB5FE87FE999AB7B3
:10099000FE89FE9B9AB9FE8BFE9D9ABBFE8DFE9F43
:1009A0009ABDFE8FFF919ABFFF81F2CF11F7F29EA1
:1009B000AA6A040EA96EA69CA69EA680A85007014E
:1009C00011BFF28E396E39C03DF006019B9139B0EE
:1009D0009B81D89039309B93E8B09B833930006E6F
:1009E00000323F0E00169B9500B09B853930006E9B
:1009F000003200321F0E00169B9700B09B873938DB
:100A0000006E0F0E00169B9900B09B893938006E5E
:100A10000032070E00169B9B00B09B8B3938006E8E
:100A200000320032030E00169B9D00B09B8D006AC1
:100A300039BE00809B9F00B09B8FF2CF11F7F29ED2
:100A4000AA6A070EA96EA69CA69EA680A8500701BA
:100A500011BFF28E396E39C040F006019C9139B059
:100A60009C81D89039309C93E8B09C833930006EDB
:100A700000323F0E00169C9500B09C853930006E08
:100A8000003200321F0E00169C9700B09C87393848
:100A9000006E0F0E00169C9900B09C893938006ECC
:100AA0000032070E00169C9B00B09C8B3938006EFC
:100AB00000320032030E00169C9D00B09C8D006A2F
:100AC00039BE00809C9F00B09C8FF2CF11F7F29E40
:100AD000AA6A0A0EA96EA69CA69EA680A850070127
:100AE00011BFF28E396E39C043F006019D9139B0C5
:100AF0009D81D89039309D93E8B09D833930006E48
:100B000000323F0E00169D9500B09D853930006E75
:100B1000003200321F0E00169D9700B09D873938B5
:100B2000006E0F0E00169D9900B09D893938006E39
:100B30000032070E00169D9B00B09D8B3938006E69
:100B400000320032030E00169D9D00B09D8D006A9C
:100B500039BE00809D9F00B09D8FF2CF11F7F29EAD
:100B6000AA6A0D0EA96EA69CA69EA680A850070193
:100B700011BFF28E396E39C046F006019E9139B030
:100B80009E81D89039309E93E8B09E833930006EB4
:100B900000323F0E00169E9500B09E853930006EE3
:100BA000003200321F0E00169E9700B09E87393823
:100BB000006E0F0E00169E9900B09E893938006EA7
:100BC0000032070E00169E9B00B09E8B3938006ED7
:100BD00000320032030E00169E9D00B09E8D006A0A
:100BE00039BE00809E9F00B09E8FF2CF11F7F29E1B
:100BF000AA6A100EA96EA69CA69EA680A850070100
:100C000011BFF28E396E0601A49139B0A481D8903B
:100C10003930A493E8B0A4833930006E00323F0E1F
:100C20000016A49500B0A4853930006E0032003261
:100C30001F0E0016A49700B0A4873938006E0F0E5F
:100C40000016A49900B0A4893938006E0032070E4E
:100C50000016A49B00B0A48B3938006E003200321D
:100C6000030E0016A49D00B0A48D006A39BE00805A
:100C7000A49F00B0A48FF2CF11F7F29EAA6A140EBF
:100C8000A96EA69CA69EA680A850070111BFF28E51
:100C9000396E0601A59139B0A581D8903930A59358
:100CA000E8B0A5833930006E00323F0E0016A595DE
:100CB00000B0A5853930006E003200321F0E0016DC
:100CC000A59700B0A5873938006E0F0E0016A599BC
:100CD00000B0A5893938006E0032070E0016A59BBA
:100CE00000B0A58B3938006E00320032030E0016BA
:100CF000A59D00B0A58D006A39BE0080A59F00B0FB
:100D0000A58FF2CF11F7F29EAA6A180EA96EA69CC3
:100D1000A69EA680A850070111BFF28E00016A6F3F
:100D2000F2CF11F7F29EAA6A190EA96EA69CA69E92
:100D3000A680A850070111BFF28E00016B6FF2CFA1
:100D400011F7F29EAA6A1A0EA96EA69CA69EA6800C
:100D5000A850070111BFF28E00016C6F6CC01BF030
:100D6000F2CF11F7F29EAA6A1B0EA96EA69CA69E50
:100D7000A680A850070111BFF28E00016D6FF2CF5F
:100D800011F7F29EAA6A1C0EA96EA69CA69EA680CA
:100D9000A850070111BFF28E0601FD6FF2CF11F7C7
:100DA000F29EAA6A1D0EA96EA69CA69EA680A850B9
:100DB000070111BFF28E0001796FF2CF11F7F29E99
:100DC000AA6A1E0EA96EA69CA69EA680A850070120
:100DD00011BFF28E0601D86BD76FF2CF11F7F29EDA
:100DE000AA6A1F0EA96EA69CA69EA680A8500701FF
:100DF00011BFF28E0601DA6BD96FF2CF11F7F29EB6
:100E0000AA6A200EA96EA69CA69EA680A8500701DD
:100E100011BFF28E0601DC6BDB6FF2CF11F7F29E91
:100E2000AA6A210EA96EA69CA69EA680A8500701BC
:100E300011BFF28E0601DE6BDD6FF2CF11F7F29E6D
:100E4000AA6A220EA96EA69CA69EA680A85007019B
:100E500011BFF28E0601E06BDF6FF2CF11F7F29E49
:100E6000AA6A230EA96EA69CA69EA680A85007017A
:100E700011BFF28E0601E26BE16FF2CF11F7F29E25
:100E8000AA6A240EA96EA69CA69EA680A850070159
:100E900011BFF28E0601E46BE36FF2CF11F7F29E01
:100EA000AA6A250EA96EA69CA69EA680A850070138
:100EB00011BFF28E0601E66BE56FF2CF11F7F29EDD
:100EC000AA6A260EA96EA69CA69EA680A850070117
:100ED00011BFF28E0601E86BE76FF2CF11F7F29EB9
:100EE000AA6A270EA96EA69CA69EA680A8500701F6
:100EF00011BFF28E0601EA6BE96FF2CF11F7F29E95
:100F0000AA6A280EA96EA69CA69EA680A8500701D4
:100F100011BFF28E0601EC6BEB6FF2CF11F7F29E70
:100F2000AA6A290EA96EA69CA69EA680A8500701B3
:100F300011BFF28E0601EE6BED6FF2CF11F7F29E4C
:100F4000AA6A2A0EA96EA69CA69EA680A850070192
:100F500011BFF28E0601F06BEF6FF2CF11F7F29E28
:100F6000AA6A2B0EA96EA69CA69EA680A850070171
:100F700011BFF28E0601F26BF16FF2CF11F7F29E04
:100F8000AA6A2C0EA96EA69CA69EA680A850070150
:100F900011BFF28E0601F46BF36FF2CF11F7F29EE0
:100FA000AA6A2D0EA96EA69CA69EA680A85007012F
:100FB00011BFF28E0601F66BF56FF2CF11F7F29EBC
:100FC000AA6A2E0EA96EA69CA69EA680A85007010E
:100FD00011BFF28E0601F86BF76FF2CF11F7F29E98
:100FE000AA6A2F0EA96EA69CA69EA680A8500701ED
:100FF00011BFF28E0601FA6BF96FF2CF11F7F29E74
:10100000AA6A300EA96EA69CA69EA680A8500701CB
:1010100011BFF28E0601FC6BFB6FF2CF11F7F29E4F
:10102000AA6A310EA96EA69CA69EA680A8500701AA
:1010300011BFF28E0601FE6BFD6F0701076B040006
:10104000320E0725116FF2CF12F7F29EAA6A11C76E
:10105000A9FFA69CA69EA680A85012BFF28E086F7C
:1010600008510D0803E007510F0824E2036A0751F5
:10107000890FE96E050E0320EA6EEF6A320E07252E
:10108000116FF250006EF29EAA6A11C7A9FF08C73D
:10109000A8FFA69CA69EA6840F01550EA76EAA0EB9
:1010A000A76EA682A6B2FED7A6940050F21210D068
:1010B0000BD00701036A0751890FE96E050E032063
:1010C000EA6E08C7EFFF0F010701072BB8D70F0122
:1010D00007010A6B030E096F0C6B0B6B0E6B0D6B2C
:1010E00004005D0E0925116F000E0A21126FF2CF68
:1010F00013F7F29E12C7AAFF11C7A9FFA69CA69ECE
:10110000A680A85013BFF28E106B0F6F0F510D0801
:1011100002E1105305E00C5303E10B51290809E2E9
:10112000980E0B25E96E050E0C21EA6EEF6A13D0BE
:1011300008D0980E0B25E96E050E0C21EA6E0FC73C
:10114000EFFF0AC703F00951092BD8B40A2B0B2B68
:10115000D8B40C2BC5D7092BD8B40A2B0C6B0B6B4E
:1011600004005D0E0925116F000E0A21126FF2CFE7
:1011700013F7F29E12C7AAFF11C7A9FFA69CA69E4D
:10118000A680A85013BFF28E106B0F6F0F510D0881
:1011900002E1105305E00C5303E10B51290809E269
:1011A000B80E0B25E96E050E0C21EA6EEF6A13D01E
:1011B00008D0B80E0B25E96E050E0C21EA6E0FC79C
:1011C000EFFF0AC703F00951092BD8B40A2B0B2BE8
:1011D000D8B40C2BC5D7092BD8B40A2B0C6B0B6BCE
:1011E00004005D0E0925116F000E0A21126FF2CF67
:1011F00013F7F29E12C7AAFF11C7A9FFA69CA69ECD
:10120000A680A85013BFF28E106B0F6F0F510D0800
:1012100002E1105305E00C5303E10B51290809E2E8
:10122000D80E0B25E96E050E0C21EA6EEF6A13D07D
:1012300008D0D80E0B25E96E050E0C21EA6E0FC7FB
:10124000EFFF0AC703F00951092BD8B40A2B0B2B67
:10125000D8B40C2BC5D7092BD8B40A2B0C6B0B6B4D
:1012600004005D0E0925116F000E0A21126FF2CFE6
:1012700013F7F29E12C7AAFF11C7A9FFA69CA69E4C
:10128000A680A85013BFF28E106B0F6F0F510D0880
:1012900002E1105305E00C5303E10B51290809E268
:1012A000F80E0B25E96E050E0C21EA6EEF6A13D0DD
:1012B00008D0F80E0B25E96E050E0C21EA6E0FC75B
:1012C000EFFF0AC703F00951092BD8B40A2B0B2BE7
:1012D000D8B40C2BC5D7092BD8B40A2B0C6B0B6BCD
:1012E00004005D0E0925116F000E0A21126FF2CF66
:1012F00013F7F29E12C7AAFF11C7A9FFA69CA69ECC
:10130000A680A85013BFF28E106B0F6F0F510D08FF
:1013100002E1105305E00C5303E10B51290809E2E7
:10132000180E0B25E96E060E0C21EA6EEF6A13D03B
:1013300008D0180E0B25E96E060E0C21EA6E0FC7B9
:10134000EFFF0AC703F00951092BD8B40A2B0B2B66
:10135000D8B40C2BC5D7092BD8B40A2B0C6B0B6B4C
:1013600004005D0E0925116F000E0A21126FF2CFE5
:1013700013F7F29E12C7AAFF11C7A9FFA69CA69E4B
:10138000A680A85013BFF28E106B0F6F0F510D087F
:1013900002E1105305E00C5303E10B51290809E267
:1013A000380E0B25E96E060E0C21EA6EEF6A13D09B
:1013B00008D0380E0B25E96E060E0C21EA6E0FC719
:1013C000EFFF0AC703F00951092BD8B40A2B0B2BE6
:1013D000D8B40C2BC5D7092BD8B40A2B0C6B0B6BCC
:1013E00004005D0E0925116F000E0A21126FF2CF65
:1013F00013F7F29E12C7AAFF11C7A9FFA69CA69ECB
:10140000A680A85013BFF28E106B0F6F0F510D08FE
:1014100002E1105305E00C5303E10B51290809E2E6
:10142000580E0B25E96E060E0C21EA6EEF6A13D0FA
:1014300008D0580E0B25E96E060E0C21EA6E0FC778
:10144000EFFF0AC703F00951092BD8B40A2B0B2B65
:10145000D8B40C2BC5D7092BD8B40A2B0C6B0B6B4B
:1014600004005D0E0925116F000E0A21126FF2CFE4
:1014700013F7F29E12C7AAFF11C7A9FFA69CA69E4A
:10148000A680A85013BFF28E106B0F6F0F510D087E
:1014900002E1105305E00C5303E10B51290809E266
:1014A000780E0B25E96E060E0C21EA6EEF6A13D05A
:1014B00008D0780E0B25E96E060E0C21EA6E0FC7D8
:1014C000EFFF0AC703F00951092BD8B40A2B0B2BE5
:1014D000D8B40C2BC5D700011200929A899A070143
:1014E00013514109166FC95016C7C9FFC730FEE333
:1014F000C95014C7C9FFC730FEE3C950C96AC73015
:10150000FEE3C9CF15F7929A898A15C701F0000149
:10151000120011C713F7090E0701146F0001DDDF78
:1015200001C012F7070112C701F0000129EF0BF00B
:1015300011C713F7190E0701146F0001CEDF01C0A8
:1015400012F7070112C701F0000177EF0BF0070156
:101550001451070B006E1431016E013201321F0E5F
:10156000011601501525E96E000E1621EA6EEFCF27
:1015700001F0002A01D00132002EFDD7010E011624
:1015800000011200070115511703F3CF01F0F4CF4A
:1015900000F01803F350002616511703F3500020F3
:1015A000026E0001120007011451070B006E143186
:1015B000016E013201321F0E011601501625E96E2F
:1015C000000E1721EA6E016A012A002A01D00136B5
:1015D000002EFDD7155303E00150EF1203D0011E7A
:1015E0000150EF1600011EEF0BF00701116B010E09
:1015F000116F11BF03D01151100823E3036A115179
:10160000006EE8BE0306126F03C013F7036A1151A0
:10161000006EE8BE0306146F060E166FAA0E156F55
:10162000000195DF12C714F70701156B01B0152BE8
:10163000060E176FA70E166F0001B5D70701112B05
:10164000D8D7000103EF0EF0020E0701116F000161
:1016500060D701C083F51AA803D00501831F0001DC
:10166000D890050183310601AA93E8B0AA83050149
:101670008331006E00323F0E00160601AA9500B0BD
:10168000AA8505018331006E003200321F0E00165C
:101690000601AA9700B0AA8705018339006E0F0ED4
:1016A00000160601AA9900B0AA8905018339006EC7
:1016B0000032070E00160601AA9B00B0AA8B050196
:1016C0008339006E00320032030E00160601AA9D17
:1016D00000B0AA8D006A050183BF00800601AA9FA1
:1016E00000B0AA8F020E0701116F000121D701C0BF
:1016F00083F51AA803D00501831F00010601AB91F1
:10170000050183A103D00601AB810501010E07018C
:10171000106F10510808D8A074D210C714F7060E25
:10172000166FFE0E156F000112DF0150010B01084C
:10173000D8A42BD110C714F7060E0701166FAA0EF6
:10174000156F000104DF0150010BD8A48FD010C722
:1017500014F7060E0701166FA70E156F0001F7DECE
:101760000150010BD8A474D0D89007011035036A3A
:10177000AD0FE96E060E0320EA6E010EEE2601E3C0
:10178000EF2AD8901035036AAD0FE96E060E0320DC
:10179000EA6EECCF12F7ED52EFCF11F7D89010357B
:1017A000036AD50FE96E060E0320EA6EECCF16F73A
:1017B000ED52EFCF15F7186B4B0E176F0001E2DEFD
:1017C00002C014F701C013F70F0E07010124016EC8
:1017D000000E0220036E0350125D38E303E1015056
:1017E000115D34E3D8901035036AAD0FE96E060E33
:1017F0000320EA6EEC6AED52EF6A010E105DF80FFD
:1018000025E2080F000152EF0EF006019891070142
:101810001DD006019893070119D00601989507017C
:1018200015D006019897070111D006019899070174
:101830000DD00601989B070109D00601989D07016C
:1018400005D00601989F070101D007010DD00001C6
:10185000D89007011035036AAD0FE96E060E03201C
:10186000EA6EEC6AED52EF6A8FD0000110C714F7F0
:10187000060E0701166FA70E156F000168DE0150F6
:10188000010B0108D8A474D0D89007011035036A61
:10189000AD0FE96E060E0320EA6E010EEE2601E39F
:1018A000EF2AD8901035036AAD0FE96E060E0320BB
:1018B000EA6EECCF12F7ED52EFCF11F7D89010355A
:1018C000036AD50FE96E060E0320EA6EECCF16F719
:1018D000ED52EFCF15F7186B4B0E176F000152DE6C
:1018E00002C014F701C013F70F0E07010124016EA7
:1018F000000E0220036E0350125D38E303E1015035
:10190000115D34E3D8901035036AAD0FE96E060E11
:101910000320EA6EEC6AED52010EEF6E105DF80FD7
:1019200025E2080F000167EF0EF00601988107011C
:101930001DD006019883070119D00601988507017B
:1019400015D006019887070111D006019889070173
:101950000DD00601988B070109D00601988D07016B
:1019600005D00601988F070101D007010DD00001B5
:10197000D89007011035036AAD0FE96E060E0320FB
:10198000EA6EEC6AED52EF6A38D110C714F7060E12
:101990000701166FFE0E156F0001D9DD0150010B16
:1019A000D8A42CD110C714F7060E0701166FAA0E83
:1019B000156F0001CCDD0150010B0108D8A490D0B7
:1019C00010C714F7060E0701166FA70E156F00015A
:1019D000BEDD0150010B0108D8A474D0D8900701D6
:1019E0001035036AAD0FE96E060E0320EA6E010E94
:1019F000EE2601E3EF2AD8901035036AAD0FE96EA9
:101A0000060E0320EA6EECCF12F7ED52EFCF11F77E
:101A1000D8901035036AD50FE96E060E0320EA6EE2
:101A2000ECCF16F7ED52EFCF15F7186B4B0E176F83
:101A30000001A8DD02C014F701C013F70F0E070163
:101A40000124016E000E0220036E0350125D38E384
:101A500003E10150115D34E3D8901035036AAD0FF6
:101A6000E96E060E0320EA6EEC6AED52EF6A010E93
:101A7000105DF80F25E2080F00017CEF0EF0060163
:101A8000988107011DD006019883070119D006012E
:101A90009885070115D006019887070111D0060126
:101AA000988907010DD00601988B070109D006011E
:101AB000988D070105D00601988F070101D0070115
:101AC0000DD00001D89007011035036AAD0FE96E03
:101AD000060E0320EA6EEC6AED52EF6A8ED000012A
:101AE00010C714F7060E0701166FA70E156F000139
:101AF0002EDD0150010BD8A474D0D8900701103509
:101B0000036AAD0FE96E060E0320EA6E010EEE26A3
:101B100001E3EF2AD8901035036AAD0FE96E060E87
:101B20000320EA6EECCF12F7ED52EFCF11F7D89009
:101B30001035036AD50FE96E060E0320EA6EECCF6E
:101B400016F7ED52EFCF15F7186B4B0E176F00011C
:101B500019DD02C014F701C013F70F0E07010124AD
:101B6000016E000E0220036E0350125D38E303E1A4
:101B70000150115D34E3D8901035036AAD0FE96E62
:101B8000060E0320EA6EEC6AED52EF6A010E105D5C
:101B9000F80F25E2080F000191EF0EF00601989171
:101BA00007011DD006019893070119D006019895E9
:101BB000070115D006019897070111D006019899E1
:101BC00007010DD00601989B070109D00601989DD9
:101BD000070105D00601989F070101D007010DD02C
:101BE0000001D89007011035036AAD0FE96E060EAB
:101BF0000320EA6EEC6AED52EF6A00010701102B38
:101C000088D50001F2D4496A000E060198AF010E92
:101C10004912D89049340701116F000E060198ADA2
:101C2000010E07011111496ED8904934116F000E51
:101C3000060198AB010E07011111496ED890493485
:101C4000116F000E060198A9010E07011111496ECE
:101C5000D8904934116F000E060198A7010E0701B4
:101C60001111496ED8904934116F000E060198A5E4
:101C7000010E07011111496ED8904934116F000E01
:101C8000060198A3010E07011111496ED89049343D
:101C9000116F000E060198A1010E07011111496E86
:101CA00000011200E824F76AF736BF0FF66E1C0E2B
:101CB000F7220A00F550FA6E0800F550F96E0A187E
:101CC00012181A1822182A1832183A184218E8243A
:101CD000F76AF736E90FF66E1C0EF7220A00F55088
:101CE000FA6E0800F550F96E2A1932193A1942199C
:101CF0004A1952195A196219E824F76AF736130F6C
:101D0000F66E1D0EF7220A00F550FA6E0800F55027
:101D1000F96E7E1A861A8E1A961A9E1AA61AAE1A8C
:101D2000B61AE824F76AF7363D0FF66E1D0EF72255
:101D30000A00F550FA6E0800F550F96E9C1BA41BC2
:101D4000AC1BB41BBC1BC41BCC1BD41B0FC711F793
:101D50000A0E0701126F10C713F70001FEEC03F023
:101D600012000FC711F71A0E0701126F10C713F7F1
:101D70000001FEEC03F012004E6A4F6A526A536A89
:101D80002F52D8A4E5D0060199A103D04E925292C9
:101D900014D0A4A105D0A5B103D04E8252920DD08B
:101DA000A4B105D0A5A103D04E92528206D0A4A121
:101DB00004D0A5A102D04E82528299A303D04E94A2
:101DC000529414D0A4A305D0A5B303D04E8452944A
:101DD0000DD0A4B305D0A5A303D04E94528406D051
:101DE000A4A304D0A5A302D04E84528499A503D005
:101DF0004E96529614D0A4A505D0A5B503D04E8614
:101E000052960DD0A4B505D0A5A503D04E96528606
:101E100006D0A4A504D0A5A502D04E86528699A7C7
:101E200003D04E98529814D0A4A705D0A5B703D0DC
:101E30004E8852980DD0A4B705D0A5A703D04E98D0
:101E4000528806D0A4A704D0A5A702D04E885288F5
:101E500099A903D04E9A529A14D0A4A905D0A5B935
:101E600003D04E8A529A0DD0A4B905D0A5A903D0AB
:101E70004E9A528A06D0A4A904D0A5A902D04E8AAF
:101E8000528A99AB03D04E9C529C14D0A4AB05D07F
:101E9000A5BB03D04E8C529C0DD0A4BB05D0A5ABE6
:101EA00003D04E9C528C06D0A4AB04D0A5AB02D07C
:101EB0004E8C528C99AD03D04E9E529E14D0A4AD40
:101EC00005D0A5BD03D04E8E529E0DD0A4BD05D029
:101ED000A5AD03D04E9E528E06D0A4AD04D0A5ADC4
:101EE00002D04E8E528E99AF03D04F90539014D0A3
:101EF000A4AF05D0A5BF03D04F8053900DD0A4BF91
:101F000005D0A5AF03D04F90538006D0A4AF04D026
:101F1000A5AF02D04F805380040E07010F6F4EC053
:101F200010F7000113DF040E07010F6F4FC010F709
:101F3000000117DF060E07010F6F52C010F70001F6
:101F400005DF060E07010F6F53C010F7000109DF10
:101F5000120093908A90080E016E00D00000018E4E
:101F600010D0019E070111330001D8B08A80D8A09B
:101F70008A90018C06D0019C012EF4D700D000007D
:101F80008A80840EE96EE92EFED700D0000001BEE3
:101F9000E8D701BCF0D712000900F5520CE0F6CFEB
:101FA0000FF7F7CF10F7F5CF11F7D3DF0FC7F6FF15
:101FB00010C7F7FFF1D7120003017B697A690701A7
:101FC000156B1351155D21E2040015511125E96EC1
:101FD000000E1221EA6EEF5003017B190701146F06
:101FE000036A145100015DEC00F0016E03017A51A7
:101FF00001187B6F036A070114510001E5EC00F042
:10200000E8CF7AF30701152BDCD7000112009EA858
:10201000FED7AD6E12001E6A266A0601A0B104D07A
:1020200099B102D0A38101D0A391A0B304D099B3F8
:1020300002D0A38301D0A393A0B504D099B502D058
:10204000A38501D0A395A0B704D099B702D0A387E8
:1020500001D0A397A0B904D099B902D0A38901D027
:10206000A399A0BB04D099BB02D0A38B01D0A39BA2
:10207000A0BD04D099BD02D0A38D01D0A39DA0BF67
:1020800004D099BF02D0A38F01D0A39F000EA3BF9D
:10209000010E2612D89026340701116F000E06019A
:1020A000A3BD010E07011111266ED8902634116FC1
:1020B000000E0601A3BB010E07011111266ED89078
:1020C0002634116F000E0601A3B9010E070111118C
:1020D000266ED8902634116F000E0601A3B7010EAC
:1020E00007011111266ED8902634116F000E0601DB
:1020F000A3B5010E07011111266ED8902634116F79
:10210000000E0601A3B3010E07011111266ED8902F
:102110002634116F000E0601A3B1010E0701111143
:10212000266E000E0601A0BF010E1E12D8901E34AE
:102130000701116F000E0601A0BD010E070111116C
:102140001E6ED8901E34116F000E0601A0BB010E4A
:10215000070111111E6ED8901E34116F000E06017A
:10216000A0B9010E070111111E6ED8901E34116F17
:10217000000E0601A0B7010E070111111E6ED890C6
:102180001E34116F000E0601A0B5010E07011111DA
:102190001E6ED8901E34116F000E0601A0B3010E02
:1021A000070111111E6ED8901E34116F000E06012A
:1021B000A0B1010E070111111E6E0001C1EF15F053
:1021C000948082B002D01AAE02D01AA406D0320E89
:1021D0000701106F0001E6EC03F0948082B002D09A
:1021E0001AAE02D01AA455D01A941D6A0601A0B1E5
:1021F00002D0A1A105D09F81A091A1919991A69112
:10220000A0B302D0A1A305D09F83A093A1939993DB
:10221000A693A0B502D0A1A505D09F85A095A195B4
:102220009995A695A0B702D0A1A705D09F87A097A2
:10223000A1979997A697A0B902D0A1A905D09F8987
:10224000A099A1999999A699A0BB02D0A1AB05D05C
:102250009F8BA09BA19B999BA69BA0BD02D0A1ADEB
:1022600005D09F8DA09DA19D999DA69DA0BF02D048
:10227000A1AF05D09F8FA09FA19F999FA69F30A23D
:1022800001D030921A8E898892988986929608D0C9
:102290000001948082A003D01AAE01D01A9E0601DC
:1022A00000011200948282B202D030A002D01AA69D
:1022B00006D0320E0701106F0001E6EC03F09482A5
:1022C00082B202D030A002D01AA6A4D01A96000E74
:1022D000060198B1010E0701116F000E06019AB1B7
:1022E000010E0701111907E10601A0A102D00701A3
:1022F00002D099810701000E060198B3010E070173
:10230000116F000E06019AB3010E0701111907E1C2
:102310000601A0A302D0070102D099830701000E95
:10232000060198B5010E0701116F000E06019AB55E
:10233000010E0701111907E10601A0A502D007014E
:1023400002D099850701000E060198B7010E07011A
:10235000116F000E06019AB7010E0701111907E16E
:102360000601A0A702D0070102D099870701000E3D
:10237000060198B9010E0701116F000E06019AB906
:10238000010E0701111907E10601A0A902D00701FA
:1023900002D099890701000E060198BB010E0701C2
:1023A000116F000E06019ABB010E0701111907E11A
:1023B0000601A0AB02D0070102D0998B0701000EE5
:1023C000060198BD010E0701116F000E06019ABDAE
:1023D000010E0701111907E10601A0AD02D00701A6
:1023E00002D0998D0701000E060198BF010E07016A
:1023F000116F000E06019ABF010E0701111907E1C6
:102400000601A0AF02D0070102D0998F07013080EA
:1024100008D00001948282A203D030A001D0309075
:102420000701000112000400010E7A5D0701106F20
:10243000010E126F7A0E116F10C713F70001BCDD89
:10244000010E7A5D7A0FE96E010EEA6ED8B0EA2AC3
:10245000EF5003017B5DD8A430EF22F07A0E00012B
:102460007A25E96E010EEA6ED8B0EA2AEF50030130
:102470007A5DD8A430EF22F001017A51AA08D8A4DD
:102480005ED17B512008D8A45AD179C07BF0200EB0
:1024900000017C6F1C0E7D6F3AC07EF03BC07FF068
:1024A0003CC080F03DC081F03EC082F03FC083F070
:1024B00040C084F041C085F042C086F043C087F040
:1024C00044C088F045C089F046C08AF047C08BF010
:1024D00048C08CF0F2CF10F7F29EAA6A100EA96ED7
:1024E000A69CA69EA680A850070110BFF28E0001F0
:1024F0008D6FF2CF10F7F29EAA6A110EA96EA69CFC
:10250000A69EA680A850070110BFF28E00018E6F14
:10251000F2CF10F7F29EAA6A120EA96EA69CA69E92
:10252000A680A850070110BFF28E00018F6FF2CF76
:1025300010F7F29EAA6A130EA96EA69CA69EA6800C
:10254000A850070110BFF28E0001906FF2CF10F774
:10255000F29EAA6A140EA96EA69CA69EA680A850FA
:10256000070110BFF28E0001916FF2CF10F7F29EBB
:10257000AA6A150EA96EA69CA69EA680A850070161
:1025800010BFF28E0001926FF2CF10F7F29EAA6A8E
:10259000160EA96EA69CA69EA680A850070110BF85
:1025A000F28E0001936FF2CF10F7F29EAA6A170E17
:1025B000A96EA69CA69EA680A850070110BFF28E09
:1025C0000001946F6AC095F06BC096F06CC097F0F4
:1025D0006DC098F0D50E996F79C09AF0D7C69BF070
:1025E000D9C69CF0DBC69DF0DDC69EF0DFC69FF02D
:1025F000E1C6A0F0E3C6A1F0E5C6A2F0E7C6A3F0ED
:10260000E9C6A4F0EBC6A5F0EDC6A6F0EFC6A7F0AC
:10261000F1C6A8F0F3C6A9F0F5C6AAF0F7C6ABF06C
:10262000F9C6ACF0FBC6ADF0FDC6AEF00701126B0B
:102630007B0E116F340E136F0001BEDC7BC3AFF055
:102640007AC3B0F08A8693960A0E0701106F0001D4
:10265000E6EC03F07B51DBDC7C51D9DC7D51D7DC2F
:102660007E51D5DC7F51D3DC8051D1DC8151CFDC70
:102670008251CDDC8351CBDC8451C9DC8551C7DC70
:102680008651C5DC8751C3DC8851C1DC8951BFDC70
:102690008A51BDDC8B51BBDC8C51B9DC8D51B7DC70
:1026A0008E51B5DC8F51B3DC9051B1DC9151AFDC70
:1026B0009251ADDC9351ABDC9451A9DC9551A7DC70
:1026C0009651A5DC9751A3DC9851A1DC99519FDC70
:1026D0009A519DDC9B519BDC9C5199DC9D5197DC70
:1026E0009E5195DC9F5193DCA05191DCA1518FDC70
:1026F000A2518DDCA3518BDCA45189DCA55187DC70
:10270000A65185DCA75183DCA85181DCA9517FDC6F
:10271000AA517DDCAB517BDCAC5179DCAD5177DC6F
:10272000AE5175DCAF5173DCB05171DC030E0701A3
:10273000106F0001E6EC03F08A9693960101000108
:10274000795101017A5DD8A42BEF22F07B2D12D2B2
:1027500003017F6B7CC17EF37EC37FF30701106BA7
:10276000105101017D1103017E6F0301816B7EC158
:1027700080F380C381F30701106B105101017F11B9
:102780000301806F03017F53D8A4BBD17E510F0892
:10279000D8A0B7D180517E250701106F0301815168
:1027A0007F210701116F1153D8B402D00301A9D1C1
:1027B00010511008D8B002D00301A3D103018153F6
:1027C00006E18051080803E3010E826F12D08153A5
:1027D00006E18051100803E3020E826F0AD0815394
:1027E00006E18051180803E3030E826F02D0010E48
:1027F000826F822DA2D07F530DE17E5108080AE33B
:1028000049C083F37E51016E04E0D8908333012EDA
:10281000FCD71AD07F5303E17E51080815E27F539D
:1028200013E17E510F0810E3080E7E5D006E000E6E
:102830007F59036E00C001F04AC083F3015204E0E7
:10284000D8908333012EFCD78051080803E18153CF
:1028500001E135D08051070804E1815302E1839FF3
:102860002ED08051060805E1815303E13F0E831706
:1028700026D08051050805E1815303E11F0E83171F
:102880001ED08051040805E1815303E10F0E831728
:1028900016D08051030805E1815303E1070E831729
:1028A0000ED08051020805E1815303E1030E831726
:1028B00006D0802D04D0815302E1010E831779C028
:1028C0007BF0010E00017C6F82C37DF083C37EF03C
:1028D0000701126B7B0E116F040E136F0001DCEC0D
:1028E0000FF07BC37FF07AC380F08A869396040052
:1028F000040E0701106F0001E6EC03F004007B51A9
:1029000007EC10F07C5107EC10F07D5107EC10F053
:102910007E5107EC10F07F5107EC10F0805107EC6E
:1029200010F00400030E0701106F0001E6EC03F045
:1029300004008A969396E3D0030182510208D8A43A
:10294000DFD049C083F37E51016E04E0D890833319
:10295000012EFCD74AC084F3070E805D0701106F7B
:10296000000E030181590701116F1051080803E19E
:10297000115301E183D0070E0301805D0701106F41
:10298000000E030181590701116F1051070805E17D
:10299000115303E10301849F70D0070E0301805D92
:1029A0000701106F000E030181590701116F1051CB
:1029B000060806E1115304E13F0E030184175DD0C0
:1029C000070E0301805D0701106F000E030181599E
:1029D0000701116F1051050806E1115304E11F0EA4
:1029E000030184174AD0070E0301805D0701106FB1
:1029F000000E030181590701116F1051040806E10F
:102A0000115304E10F0E0301841737D0070E0301A1
:102A1000805D0701106F000E030181590701116FDE
:102A20001051030806E1115304E1070E0301841756
:102A300024D0070E0301805D0701106F000E030113
:102A400081590701116F1051020806E1115304E189
:102A5000030E0301841711D0070E0301805D0701E7
:102A6000106F000E030181590701116F102D06D060
:102A7000115304E1010E03018417070179C07BF0B3
:102A8000010E00017C6F82C37DF083C37EF084C39E
:102A90007FF00701126B7B0E116F050E136F0001A3
:102AA000DCEC0FF07BC380F07AC381F08A869396CA
:102AB0000400040E0701106F0001E6EC03F00400AF
:102AC0007B5107EC10F07C5107EC10F07D5107ECC6
:102AD00010F07E5107EC10F07F5107EC10F08051A0
:102AE00007EC10F0815107EC10F00400030E070111
:102AF000106F0001E6EC03F004008A969396030140
:102B000038D079C07BF0810E00017C6F020E7D6FA2
:102B10000701126B7B0E116F030E136F0001DCECCB
:102B20000FF07BC37EF07AC37FF08A869396040011
:102B3000040E0701106F0001E6EC03F004007B5166
:102B400007EC10F07C5107EC10F07D5107EC10F011
:102B50007E5107EC10F07F5107EC10F00400030EDB
:102B60000701106F0001E6EC03F004008A969396CB
:102B7000030101017B510708D8A4B1D000010BEF7C
:102B800010F09D921EC083F31FC084F320C085F314
:102B900021C086F322C087F323C088F324C089F3C1
:102BA00025C08AF326C08BF327C08CF328C08DF391
:102BB00029C08EF32AC08FF32BC090F32CC091F361
:102BC0002DC092F379C07BF0070E7C6F100E0301CD
:102BD000826F82C37DF083C37EF084C37FF085C3A0
:102BE00080F086C381F087C382F088C383F089C3F5
:102BF00084F08AC385F08BC386F08CC387F08DC3C5
:102C000088F08EC389F08FC38AF090C38BF091C394
:102C10008CF092C38DF00701126B7B0E116F130EB7
:102C2000136F0001DCEC0FF07BC38EF07AC38FF0E2
:102C30008A8693960400040E0701106F0001E6ECEB
:102C400003F004007B5107EC10F07C5107EC10F00E
:102C50007D5107EC10F07E5107EC10F07F5107EC2E
:102C600010F0805107EC10F0815107EC10F0825108
:102C700007EC10F0835107EC10F0845107EC10F0D2
:102C8000855107EC10F0865107EC10F0875107ECE6
:102C900010F0885107EC10F0895107EC10F08A51C0
:102CA00007EC10F08B5107EC10F08C5107EC10F092
:102CB0008D5107EC10F08E5107EC10F08F5107EC9E
:102CC00010F00400030E0701106F0001E6EC03F0A2
:102CD00004008A9693969D82E0EF21F001017B51DA
:102CE0000508D8A476D203017F6B7CC17EF37EC336
:102CF0007FF30701106B105101017D1103017E6FFD
:102D00000301816B7EC180F380C381F30701106BE7
:102D1000105101017F110301806F03017E534FE1C8
:102D20007F534DE180534AE1813D48D01A8479C0F8
:102D30007BF0050E00017C6F7CC17DF07DC17EF0D3
:102D40007EC17FF07FC180F00701126B7B0E116F97
:102D5000060E136F0001DCEC0FF07BC381F07AC329
:102D600082F08A8693960400040E0701106F00011A
:102D7000E6EC03F004007B5107EC10F07C5107EC0B
:102D800010F07D5107EC10F07E5107EC10F07F51F0
:102D900007EC10F0805107EC10F0815107EC10F0B7
:102DA000825107EC10F00400030E0701106F0001C0
:102DB000E6EC03F004008A969396030107D27E2D79
:102DC0004FD07F534DE180534AE1813D48D01A8670
:102DD00079C07BF0050E00017C6F7CC17DF07DC168
:102DE0007EF07EC17FF07FC180F00701126B7B0E09
:102DF000116F060E136F0001DCEC0FF07BC381F046
:102E00007AC382F08A8693960400040E0701106F3D
:102E10000001E6EC03F004007B5107EC10F07C515C
:102E200007EC10F07D5107EC10F07E5107EC10F02C
:102E30007F5107EC10F0805107EC10F0815107EC46
:102E400010F0825107EC10F00400030E0701106F20
:102E50000001E6EC03F004008A9693960301B6D1D4
:102E60007E510208D8A4A5D07F53D8A4A2D0805305
:102E70004BE1813D49D01A8879C07BF0050E0001F5
:102E80007C6F7CC17DF07DC17EF07EC17FF07FC113
:102E900080F00701126B7B0E116F060E136F00019D
:102EA000DCEC0FF07BC381F07AC382F08A869396C4
:102EB0000400040E0701106F0001E6EC03F00400AB
:102EC0007B5107EC10F07C5107EC10F07D5107ECC2
:102ED00010F07E5107EC10F07F5107EC10F080519C
:102EE00007EC10F0815107EC10F0825107EC10F064
:102EF0000400030E0701106F0001E6EC03F004006C
:102F00008A96939654D00301805352E1815350E145
:102F10001A98000124EC0BF01A84E0EC10F01A86E9
:102F200052EC11F079C07BF0050E7C6F7CC17DF016
:102F30007DC17EF07EC17FF07FC180F00701126B02
:102F40007B0E116F060E136F0001DCEC0FF07BC3DC
:102F500081F07AC382F08A8693960400040E0701FA
:102F6000106F0001E6EC03F004007B5107EC10F059
:102F70007C5107EC10F07D5107EC10F07E5107EC0E
:102F800010F07F5107EC10F0805107EC10F08151E8
:102F900007EC10F0825107EC10F00400030E07015B
:102FA000106F0001E6EC03F004008A96939603018B
:102FB0000DD17E510308D8A4A5D07F53D8A4A2D0A8
:102FC00080534BE1813D49D01A8A79C07BF0050ED0
:102FD00000017C6F7CC17DF07DC17EF07EC17FF001
:102FE0007FC180F00701126B7B0E116F060E136F0D
:102FF0000001DCEC0FF07BC381F07AC382F08A869B
:1030000093960400040E0701106F0001E6EC03F034
:1030100004007B5107EC10F07C5107EC10F07D515F
:1030200007EC10F07E5107EC10F07F5107EC10F028
:10303000805107EC10F0815107EC10F0825107EC41
:1030400010F004000A0E0701106F0001E6EC03F017
:1030500004008A96939654D00301805352E1815321
:1030600050E11A9A000124EC0BF01A84E0EC10F005
:103070001A8652EC11F079C07BF0050E7C6F7CC192
:103080007DF07DC17EF07EC17FF07FC180F00701C1
:10309000126B7B0E116F060E136F0001DCEC0FF04C
:1030A0007BC381F07AC382F08A8693960400040E73
:1030B0000701106F0001E6EC03F004007B5107EC00
:1030C00010F07C5107EC10F07D5107EC10F07E51B0
:1030D00007EC10F07F5107EC10F0805107EC10F076
:1030E000815107EC10F0825107EC10F00400030E40
:1030F0000701106F0001E6EC03F004008A96939636
:10310000030164D07E51640861E17F535FE180C3B5
:1031100079F0F250006EF29EAA6A1D0EA96E79C077
:10312000A8FFA69CA69EA6840F01550EA76EAA0E08
:10313000A76EA682A6B2FED7A6940050F21279C05E
:103140007BF0050E00017C6F7CC17DF07DC17EF0BF
:103150007EC17FF07FC180F00701126B7B0E116F83
:10316000060E136F0001DCEC0FF07BC381F07AC315
:1031700082F08A8693960400040E0701106F000106
:10318000E6EC03F004007B5107EC10F07C5107ECF7
:1031900010F07D5107EC10F07E5107EC10F07F51DC
:1031A00007EC10F0805107EC10F0815107EC10F0A3
:1031B000825107EC10F00400030E0701106F0001AC
:1031C000E6EC03F004008A9693960301E1EF21F008
:1031D00001017B512108D8A4A0EF1DF0F250006E30
:1031E000F29EAA6AA96A0F0EA86EA69CA69EA68445
:1031F0000F01550EA76EAA0EA76EA682A6B2FED725
:10320000A6940050F212F2CF00F0F29EAA6A010ECC
:10321000A96E7DC1A8FFA69CA69EA684550EA76E8A
:10322000AA0EA76EA682A6B2FED7A6940050F212EE
:10323000F2CF00F0F29EAA6A020EA96E7EC1A8FF2C
:10324000A69CA69EA684550EA76EAA0EA76EA68261
:10325000A6B2FED7A6940050F212F2CF00F0F29E72
:10326000AA6A030EA96E7FC1A8FFA69CA69EA6848B
:10327000550EA76EAA0EA76EA682A6B2FED7A6947A
:103280000050F212F2CF00F0F29EAA6A040EA96E6C
:1032900080C1A8FFA69CA69EA684550EA76EAA0E66
:1032A000A76EA682A6B2FED7A6940050F212F2CF65
:1032B00000F0F29EAA6A050EA96E81C1A8FFA69C25
:1032C000A69EA684550EA76EAA0EA76EA682A6B2CB
:1032D000FED7A6940050F212F2CF00F0F29EAA6A36
:1032E000060EA96E82C1A8FFA69CA69EA684550EB6
:1032F000A76EAA0EA76EA682A6B2FED7A69400500D
:10330000F212F2CF00F0F29EAA6A070EA96E83C1F4
:10331000A8FFA69CA69EA684550EA76EAA0EA76E11
:10332000A682A6B2FED7A6940050F212F2CF00F009
:10333000F29EAA6A080EA96E84C1A8FFA69CA69E4A
:10334000A684550EA76EAA0EA76EA682A6B2FED7B9
:10335000A6940050F212F2CF00F0F29EAA6A090E73
:10336000A96E85C1A8FFA69CA69EA684550EA76E31
:10337000AA0EA76EA682A6B2FED7A6940050F2129D
:10338000F2CF00F0F29EAA6A0A0EA96E86C1A8FFCB
:10339000A69CA69EA684550EA76EAA0EA76EA68210
:1033A000A6B2FED7A6940050F212F2CF00F0F29E21
:1033B000AA6A0B0EA96E87C1A8FFA69CA69EA6842A
:1033C000550EA76EAA0EA76EA682A6B2FED7A69429
:1033D0000050F212F2CF00F0F29EAA6A0C0EA96E13
:1033E00088C1A8FFA69CA69EA684550EA76EAA0E0D
:1033F000A76EA682A6B2FED7A6940050F212F2CF14
:1034000000F0F29EAA6A0D0EA96E89C1A8FFA69CC3
:10341000A69EA684550EA76EAA0EA76EA682A6B279
:10342000FED7A6940050F212F2CF00F0F29EAA6AE4
:103430000E0EA96E8AC1A8FFA69CA69EA684550E54
:10344000A76EAA0EA76EA682A6B2FED7A6940050BB
:10345000F212F2CF00F0F29EAA6A0F0EA96E8BC193
:10346000A8FFA69CA69EA684550EA76EAA0EA76EC0
:10347000A682A6B2FED7A6940050F212F2CF00F0B8
:10348000F29EAA6A100EA96E8CC1A8FFA69CA69EE9
:10349000A684550EA76EAA0EA76EA682A6B2FED768
:1034A000A6940050F212F2CF00F0F29EAA6A110E1A
:1034B000A96E8DC1A8FFA69CA69EA684550EA76ED8
:1034C000AA0EA76EA682A6B2FED7A6940050F2124C
:1034D000F2CF00F0F29EAA6A120EA96E8EC1A8FF6A
:1034E000A69CA69EA684550EA76EAA0EA76EA682BF
:1034F000A6B2FED7A6940050F212F2CF00F0F29ED0
:10350000AA6A130EA96E8FC1A8FFA69CA69EA684C8
:10351000550EA76EAA0EA76EA682A6B2FED7A694D7
:103520000050F212F2CF00F0F29EAA6A140EA96EB9
:1035300090C1A8FFA69CA69EA684550EA76EAA0EB3
:10354000A76EA682A6B2FED7A6940050F212F2CFC2
:1035500000F0F29EAA6A150EA96E91C1A8FFA69C62
:10356000A69EA684550EA76EAA0EA76EA682A6B228
:10357000FED7A6940050F212F2CF00F0F29EAA6A93
:10358000160EA96E92C1A8FFA69CA69EA684550EF3
:10359000A76EAA0EA76EA682A6B2FED7A69400506A
:1035A000F212F2CF00F0F29EAA6A170EA96E93C132
:1035B000A8FFA69CA69EA684550EA76EAA0EA76E6F
:1035C000A682A6B2FED7A6940050F212F2CF00F067
:1035D000F29EAA6A180EA96E94C1A8FFA69CA69E88
:1035E000A684550EA76EAA0EA76EA682A6B2FED717
:1035F000A6940050F212F2CF00F0F29EAA6A190EC1
:10360000A96E95C1A8FFA69CA69EA684550EA76E7E
:10361000AA0EA76EA682A6B2FED7A6940050F212FA
:10362000F2CF00F0F29EAA6A1A0EA96E96C1A8FF08
:10363000A69CA69EA684550EA76EAA0EA76EA6826D
:10364000A6B2FED7A6940050F212F2CF00F0F29E7E
:10365000AA6A1B0EA96E97C1A8FFA69CA69EA68467
:10366000550EA76EAA0EA76EA682A6B2FED7A69486
:103670000050F212F2CF00F0F29EAA6A1C0EA96E60
:1036800098C1A8FFA69CA69EA684550EA76EAA0E5A
:10369000A76EA682A6B2FED7A6940050F212F2CF71
:1036A00000F0F29EAA6A1D0EA96E99C1A8FFA69C01
:1036B000A69EA684550EA76EAA0EA76EA682A6B2D7
:1036C000FED7A6940050F212F2CF00F0F29EAA6A42
:1036D0001E0EA96E9AC1A8FFA69CA69EA684550E92
:1036E000A76EAA0EA76EA682A6B2FED7A694005019
:1036F000F212F2CF00F0F29EAA6A1F0EA96E9BC1D1
:10370000A8FFA69CA69EA684550EA76EAA0EA76E1D
:10371000A682A6B2FED7A6940050F212F2CF00F015
:10372000F29EAA6A200EA96E9CC1A8FFA69CA69E26
:10373000A684550EA76EAA0EA76EA682A6B2FED7C5
:10374000A6940050F212F2CF00F0F29EAA6A210E67
:10375000A96E9DC1A8FFA69CA69EA684550EA76E25
:10376000AA0EA76EA682A6B2FED7A6940050F212A9
:10377000F2CF00F0F29EAA6A220EA96E9EC1A8FFA7
:10378000A69CA69EA684550EA76EAA0EA76EA6821C
:10379000A6B2FED7A6940050F212F2CF00F0F29E2D
:1037A000AA6A230EA96E9FC1A8FFA69CA69EA68406
:1037B000550EA76EAA0EA76EA682A6B2FED7A69435
:1037C0000050F212F2CF00F0F29EAA6A240EA96E07
:1037D000A0C1A8FFA69CA69EA684550EA76EAA0E01
:1037E000A76EA682A6B2FED7A6940050F212F2CF20
:1037F00000F0F29EAA6A250EA96EA1C1A8FFA69CA0
:10380000A69EA684550EA76EAA0EA76EA682A6B285
:10381000FED7A6940050F212F2CF00F0F29EAA6AF0
:10382000260EA96EA2C1A8FFA69CA69EA684550E30
:10383000A76EAA0EA76EA682A6B2FED7A6940050C7
:10384000F212F2CF00F0F29EAA6A270EA96EA3C16F
:10385000A8FFA69CA69EA684550EA76EAA0EA76ECC
:10386000A682A6B2FED7A6940050F212F2CF00F0C4
:10387000F29EAA6A280EA96EA4C1A8FFA69CA69EC5
:10388000A684550EA76EAA0EA76EA682A6B2FED774
:10389000A6940050F212F2CF00F0F29EAA6A290E0E
:1038A000A96EA5C1A8FFA69CA69EA684550EA76ECC
:1038B000AA0EA76EA682A6B2FED7A6940050F21258
:1038C000F2CF00F0F29EAA6A2A0EA96EA6C1A8FF46
:1038D000A69CA69EA684550EA76EAA0EA76EA682CB
:1038E000A6B2FED7A6940050F212F2CF00F0F29EDC
:1038F000AA6A2B0EA96EA7C1A8FFA69CA69EA684A5
:10390000550EA76EAA0EA76EA682A6B2FED7A694E3
:103910000050F212F2CF00F0F29EAA6A2C0EA96EAD
:10392000A8C1A8FFA69CA69EA684550EA76EAA0EA7
:10393000A76EA682A6B2FED7A6940050F212F2CFCE
:1039400000F0F29EAA6A2D0EA96EA9C1A8FFA69C3E
:10395000A69EA684550EA76EAA0EA76EA682A6B234
:10396000FED7A6940050F212F2CF00F0F29EAA6A9F
:103970002E0EA96EAAC1A8FFA69CA69EA684550ECF
:10398000A76EAA0EA76EA682A6B2FED7A694005076
:10399000F212F2CF00F0F29EAA6A2F0EA96EABC10E
:1039A000A8FFA69CA69EA684550EA76EAA0EA76E7B
:1039B000A682A6B2FED7A6940050F212F2CF00F073
:1039C000F29EAA6A300EA96EACC1A8FFA69CA69E64
:1039D000A684550EA76EAA0EA76EA682A6B2FED723
:1039E000A6940050F212F2CF00F0F29EAA6A310EB5
:1039F000A96EADC1A8FFA69CA69EA684550EA76E73
:103A0000AA0EA76EA682A6B2FED7A6940050F21206
:103A10000701086B076B0400AE0E0725E96E010E67
:103A20000821EA6EEFCF09F709510D0805E00853A8
:103A300003E107510F0827E2890E0725E96E050EFD
:103A40000821EA6EEF6A320E0725106F000E08217A
:103A5000116FF250006EF29E11C7AAFF10C7A9FFA6
:103A600009C7A8FFA69CA69EA6840F01550EA76EA7
:103A7000AA0EA76EA682A6B2FED7A6940050F21296
:103A80002DD026D00701890E0725E96E050E0821E5
:103A9000EA6E09C7EFFF320E0725106F000E0821EE
:103AA000116FF250006EF29E11C7AAFF10C7A9FF56
:103AB00009C7A8FFA69CA69EA6840F01550EA76E57
:103AC000AA0EA76EA682A6B2FED7A6940050F21246
:103AD0000701072BD8B4082B9ED70F0179C07BF0C4
:103AE000210E00017C6F0701126B7B0E116F020E1D
:103AF000136F0001DCEC0FF07BC37DF07AC37EF026
:103B00008A8693960A0E0701106F0001E6EC03F017
:103B10007B5107EC10F07C5107EC10F07D5107EC65
:103B200010F07E5107EC10F0030E0701106F00013A
:103B3000E6EC03F08A969396FF00E0EF21F0010196
:103B40007B512208D8A4E0EF21F007010B6B040E93
:103B50000A6F0D6B0C6B0F6B0E6B04007A0E0A254F
:103B6000E96E010E0B21EA6EEF500D0805E00D53D2
:103B700003E10C51200820E25D0E0A25106F000EB3
:103B80000B21116FF250006EF29E11C7AAFF10C7F1
:103B9000A9FF0D0EA86EA69CA69EA6840F01550E29
:103BA000A76EAA0EA76EA682A6B2FED7A694005054
:103BB000F21247D03AD00701980E0C25016E050E7F
:103BC0000D21036E7A0E0A25E96E010E0B21EA6EB5
:103BD000EFCF12F703C0EAFF01C0E9FF12C7EFFF02
:103BE0005D0E0A25106F000E0B21116F7A0E0A254B
:103BF000E96E010E0B21EA6EEFCF12F7F250006E64
:103C0000F29E11C7AAFF10C7A9FF12C7A8FFA69C62
:103C1000A69EA6840F01550EA76EAA0EA76EA682B9
:103C2000A6B2FED7A6940050F21207010BC703F00C
:103C30000A510A2BD8B40B2B0C2BD8B40D2B8DD7D3
:103C40000F01980E07010C25E96E050E0D21EA6E95
:103C5000EF6A0D6B0C6B0A2BD8B40B2B04007A0E99
:103C60000A25E96E010E0B21EA6EEF500D0805E002
:103C70000D5303E10C51200820E25D0E0A25106F60
:103C8000000E0B21116FF250006EF29E11C7AAFFB9
:103C900010C7A9FF0D0EA86EA69CA69EA6840F01B4
:103CA000550EA76EAA0EA76EA682A6B2FED7A69440
:103CB0000050F21247D03AD00701B80E0C25016E21
:103CC000050E0D21036E7A0E0A25E96E010E0B21F9
:103CD000EA6EEFCF12F703C0EAFF01C0E9FF12C797
:103CE000EFFF5D0E0A25106F000E0B21116F7A0E8B
:103CF0000A25E96E010E0B21EA6EEFCF12F7F250A2
:103D0000006EF29E11C7AAFF10C7A9FF12C7A8FF35
:103D1000A69CA69EA6840F01550EA76EAA0EA76E9E
:103D2000A682A6B2FED7A6940050F21207010BC7D6
:103D300003F00A510A2BD8B40B2B0C2BD8B40D2B43
:103D40008DD70F01B80E07010C25E96E050E0D2168
:103D5000EA6EEF6A0D6B0C6B0A2BD8B40B2B0400C8
:103D60007A0E0A25E96E010E0B21EA6EEF500D085E
:103D700005E00D5303E10C51200820E25D0E0A25F9
:103D8000106F000E0B21116FF250006EF29E11C7E2
:103D9000AAFF10C7A9FF0D0EA86EA69CA69EA6841A
:103DA0000F01550EA76EAA0EA76EA682A6B2FED769
:103DB000A6940050F21247D03AD00701D80E0C2535
:103DC000016E050E0D21036E7A0E0A25E96E010EB5
:103DD0000B21EA6EEFCF12F703C0EAFF01C0E9FF43
:103DE00012C7EFFF5D0E0A25106F000E0B21116F39
:103DF0007A0E0A25E96E010E0B21EA6EEFCF12F75B
:103E0000F250006EF29E11C7AAFF10C7A9FF12C799
:103E1000A8FFA69CA69EA6840F01550EA76EAA0E0B
:103E2000A76EA682A6B2FED7A6940050F212070192
:103E30000BC703F00A510A2BD8B40B2B0C2BD8B4A8
:103E40000D2B8DD70F01D80E07010C25E96E050E3D
:103E50000D21EA6EEF6A0D6B0C6B0A2BD8B40B2B9D
:103E600004007A0E0A25E96E010E0B21EA6EEF506E
:103E70000D0805E00D5303E10C51200820E25D0E12
:103E80000A25106F000E0B21116FF250006EF29E8A
:103E900011C7AAFF10C7A9FF0D0EA86EA69CA69E6B
:103EA000A6840F01550EA76EAA0EA76EA682A6B213
:103EB000FED7A6940050F21247D03AD00701F80E70
:103EC0000C25016E050E0D21036E7A0E0A25E96E92
:103ED000010E0B21EA6EEFCF12F703C0EAFF01C01B
:103EE000E9FF12C7EFFF5D0E0A25106F000E0B21D0
:103EF000116F7A0E0A25E96E010E0B21EA6EEFCFE3
:103F000012F7F250006EF29E11C7AAFF10C7A9FF68
:103F100012C7A8FFA69CA69EA6840F01550EA76EE9
:103F2000AA0EA76EA682A6B2FED7A6940050F212E1
:103F300007010BC703F00A510A2BD8B40B2B0C2B2B
:103F4000D8B40D2B8DD70F01F80E07010C25E96EA3
:103F5000050E0D21EA6EEF6A0D6B0C6B0A2BD8B4BF
:103F60000B2B04007A0E0A25E96E010E0B21EA6E76
:103F7000EF500D0805E00D5303E10C51200820E23D
:103F80005D0E0A25106F000E0B21116FF250006EAE
:103F9000F29E11C7AAFF10C7A9FF0D0EA86EA69C1E
:103FA000A69EA6840F01550EA76EAA0EA76EA68226
:103FB000A6B2FED7A6940050F21247D03AD007011D
:103FC000180E0C25016E060E0D21036E7A0E0A25C1
:103FD000E96E010E0B21EA6EEFCF12F703C0EAFF84
:103FE00001C0E9FF12C7EFFF5D0E0A25106F000E3A
:103FF0000B21116F7A0E0A25E96E010E0B21EA6E74
:10400000EFCF12F7F250006EF29E11C7AAFF10C751
:10401000A9FF12C7A8FFA69CA69EA6840F01550E55
:10402000A76EAA0EA76EA682A6B2FED7A6940050CF
:10403000F21207010BC703F00A510A2BD8B40B2B5D
:104040000C2BD8B40D2B8DD70F01180E07010C25A2
:10405000E96E060E0D21EA6EEF6A0D6B0C6B0A2BF2
:10406000D8B40B2B04007A0E0A25E96E010E0B2141
:10407000EA6EEF500D0805E00D5303E10C512008E6
:1040800020E25D0E0A25106F000E0B21116FF25019
:10409000006EF29E11C7AAFF10C7A9FF0D0EA86EF1
:1040A000A69CA69EA6840F01550EA76EAA0EA76E0B
:1040B000A682A6B2FED7A6940050F21249D03CD0F8
:1040C00007015D0E0A25106F000E0B21116F7A0E8D
:1040D0000A25E96E010E0B21EA6EEFCF12F7F250BE
:1040E000006EF29E11C7AAFF10C7A9FF12C7A8FF52
:1040F000A69CA69EA6840F01550EA76EAA0EA76EBB
:10410000A682A6B2FED7A6940050F212380E07017E
:104110000C25016E060E0D21036E7A0E0A25E96E3E
:10412000010E0B21EA6EEFCF12F703C0EAFF01C0C8
:10413000E9FF12C7EFFF0F0107010BC703F00A5198
:104140000A2BD8B40B2B0C2BD8B40D2B8BD70F010B
:10415000380E07010C25E96E060E0D21EA6EEF6A96
:104160000D6B0C6B0A2BD8B40B2B04007A0E0A25AE
:10417000E96E010E0B21EA6EEF500D0805E00D53BC
:1041800003E10C51200820E25D0E0A25106F000E9D
:104190000B21116FF250006EF29E11C7AAFF10C7DB
:1041A000A9FF0D0EA86EA69CA69EA6840F01550E13
:1041B000A76EAA0EA76EA682A6B2FED7A69400503E
:1041C000F21247D03AD00701580E0C25016E060EA8
:1041D0000D21036E7A0E0A25E96E010E0B21EA6E9F
:1041E000EFCF12F703C0EAFF01C0E9FF12C7EFFFEC
:1041F0005D0E0A25106F000E0B21116F7A0E0A2535
:10420000E96E010E0B21EA6EEFCF12F7F250006E4D
:10421000F29E11C7AAFF10C7A9FF12C7A8FFA69C4C
:10422000A69EA6840F01550EA76EAA0EA76EA682A3
:10423000A6B2FED7A6940050F21207010BC703F0F6
:104240000A510A2BD8B40B2B0C2BD8B40D2B8DD7BD
:104250000F01580E07010C25E96E060E0D21EA6EBE
:10426000EF6A0D6B0C6B0A2BD8B40B2B04007A0E83
:104270000A25E96E010E0B21EA6EEF500D0805E0EC
:104280000D5303E10C51200820E25D0E0A25106F4A
:10429000000E0B21116FF250006EF29E11C7AAFFA3
:1042A00010C7A9FF0D0EA86EA69CA69EA6840F019E
:1042B000550EA76EAA0EA76EA682A6B2FED7A6942A
:1042C0000050F21247D03AD00701780E0C25016E4B
:1042D000060E0D21036E7A0E0A25E96E010E0B21E2
:1042E000EA6EEFCF12F703C0EAFF01C0E9FF12C781
:1042F000EFFF5D0E0A25106F000E0B21116F7A0E75
:104300000A25E96E010E0B21EA6EEFCF12F7F2508B
:10431000006EF29E11C7AAFF10C7A9FF12C7A8FF1F
:10432000A69CA69EA6840F01550EA76EAA0EA76E88
:10433000A682A6B2FED7A6940050F21207010BC7C0
:1043400003F00A510A2BD8B40B2B0C2BD8B40D2B2D
:104350008DD70F01780E07010C25E96E060E0D2191
:10436000EA6EEF6A79C07BF0220E00017C6F0701D4
:10437000126B7B0E116F020E136F0001DCEC0FF05D
:104380007BC37DF07AC37EF08A8693960A0E07017E
:10439000106F0001E6EC03F07B5107EC10F07C514C
:1043A00007EC10F07D5107EC10F07E5107EC10F097
:1043B000030E0701106F0001E6EC03F08A96939656
:1043C000030101017B51030846E10301836B49C0EE
:1043D00084F379C07BF0030E00017C6F020E7D6FC9
:1043E00083C37EF084C37FF00701126B7B0E116FD5
:1043F000050E136F0001DCEC0FF07BC380F07AC375
:1044000081F08A8693960400040E0701106F000164
:10441000E6EC03F004007B5107EC10F07C5107EC54
:1044200010F07D5107EC10F07E5107EC10F07F5139
:1044300007EC10F0805107EC10F0815107EC10F000
:104440000400030E0701106F0001E6EC03F0040006
:104450008A9693960101010E03017D6FF40E7C6F25
:10446000309A6FC078F00501856B00017A6B8A96EF
:10447000939651EF35F00601A081A083A085A08717
:10448000A089A08BA08DA08F0001AAEF32F0EF527F
:1044900010E0EACF10F7E9CF0FF7EFCF11F7A9EC53
:1044A0000FF010C7EAFF0FC7E9FFE92AD8B4EA2ADC
:1044B000EED7120007010F2D3CD1000E0601A0B16E
:1044C000010E0701126F000E0601A1B1010E0701D6
:1044D0001211116F000E06019FA1010E07011117A5
:1044E000000E06019CB1010E0701146F000E0601BB
:1044F0009DB1010E0701141111151091E8B0108142
:10450000000E10B1010E116F000E0601A0B3010ED6
:104510000701136F000E0601A1B3010E070113116D
:10452000126F000E06019FA3010E07011217000E65
:1045300006019CB3010E0701156F000E06019DB325
:10454000010E07011511121511111091E8B010811B
:10455000000E10B1010E116F000E0601A0B5010E84
:104560000701136F000E0601A1B5010E070113111B
:10457000126F000E06019FA5010E07011217000E13
:1045800006019CB5010E0701156F000E06019DB5D1
:10459000010E07011511121511111091E8B01081CB
:1045A000000E10B1010E116F000E0601A0B7010E32
:1045B0000701136F000E0601A1B7010E07011311C9
:1045C000126F000E06019FA7010E07011217000EC1
:1045D00006019CB7010E0701156F000E06019DB77D
:1045E000010E07011511121511111091E8B010817B
:1045F000000E10B1010E116F000E0601A0B9010EE0
:104600000701136F000E0601A1B9010E0701131176
:10461000126F000E06019FA9010E07011217000E6E
:1046200006019CB9010E0701156F000E06019DB928
:10463000010E07011511121511111091E8B010812A
:10464000000E10B1010E116F000E0601A0BB010E8D
:104650000701136F000E0601A1BB010E0701131124
:10466000126F000E06019FAB010E07011217000E1C
:1046700006019CBB010E0701156F000E06019DBBD4
:10468000010E07011511121511111091E8B01081DA
:10469000000E10B1010E116F000E0601A0BD010E3B
:1046A0000701136F000E0601A1BD010E07011311D2
:1046B000126F000E06019FAD010E07011217000ECA
:1046C00006019CBD010E0701156F000E06019DBD80
:1046D000010E07011511121511111091E8B010818A
:1046E000000E10B1010E116F000E0601A0BF010EE9
:1046F0000701136F000E0601A1BF010E0701131180
:10470000126F000E06019FAF010E07011217000E77
:1047100006019CBF010E0701156F000E06019DBF2B
:10472000010E07011511121511111091E8B0108139
:104730003FD10F510208D8A43BD1000E0601A0B111
:10474000010E0701126F000E0601A1B1010E070153
:104750001211116F000E06019FA1010E0701111722
:10476000000E06019CA1010E0701146F000E060148
:104770009DB1010E0701141111151091E8B01081BF
:10478000000E10B1010E116F000E0601A0B3010E54
:104790000701136F000E0601A1B3010E07011311EB
:1047A000126F000E06019FA3010E07011217000EE3
:1047B00006019CA3010E0701156F000E06019DB3B3
:1047C000010E07011511121511111091E8B0108199
:1047D000000E10B1010E116F000E0601A0B5010E02
:1047E0000701136F000E0601A1B5010E0701131199
:1047F000126F000E06019FA5010E07011217000E91
:1048000006019CA5010E0701156F000E06019DB55E
:10481000010E07011511121511111091E8B0108148
:10482000000E10B1010E116F000E0601A0B7010EAF
:104830000701136F000E0601A1B7010E0701131146
:10484000126F000E06019FA7010E07011217000E3E
:1048500006019CA7010E0701156F000E06019DB70A
:10486000010E07011511121511111091E8B01081F8
:10487000000E10B1010E116F000E0601A0B9010E5D
:104880000701136F000E0601A1B9010E07011311F4
:10489000126F000E06019FA9010E07011217000EEC
:1048A00006019CA9010E0701156F000E06019DB9B6
:1048B000010E07011511121511111091E8B01081A8
:1048C000000E10B1010E116F000E0601A0BB010E0B
:1048D0000701136F000E0601A1BB010E07011311A2
:1048E000126F000E06019FAB010E07011217000E9A
:1048F00006019CAB010E0701156F000E06019DBB62
:10490000010E07011511121511111091E8B0108157
:10491000000E10B1010E116F000E0601A0BD010EB8
:104920000701136F000E0601A1BD010E070113114F
:10493000126F000E06019FAD010E07011217000E47
:1049400006019CAD010E0701156F000E06019DBD0D
:10495000010E07011511121511111091E8B0108107
:10496000000E10B1010E116F000E0601A0BF010E66
:104970000701136F000E0601A1BF010E07011311FD
:10498000126F000E06019FAF010E07011217000EF5
:1049900006019CAF010E0701156F000E06019DBFB9
:1049A000010E07011511121511111091E8B01081B7
:1049B000000E10B1010E016E0001120006019EA151
:1049C00089D0000E98B1010E0701106F000E06018C
:1049D0009AB1010E07011019010803E106019BB10C
:1049E00003D00601A0A172D09FB16FD0A0B10CD0AE
:1049F00000016A510F08D8B402D0060105D0640E38
:104A00001C6E6BC01DF00601A0811AB202D09991F4
:104A100001D099811AB80ED09DB105D0899892988D
:104A20008996929607D09CA103D08998929802D03B
:104A300089969296A6B149D030B247D09FB145D061
:104A4000320EF66E060EF76E0001CCEC0FF00A0E79
:104A50000701116F0001A9EC0FF00A0E0701106F9A
:104A60000001E6EC03F00601A6813C0EF66E060E90
:104A7000F76E0001CCEC0FF0050EEA6E890EE96EC0
:104A800006DD220E0701116F0001A9EC0FF00A0EDE
:104A90000701116F0001A9EC0FF0320E0701106F32
:104AA0000001E6EC03F0050EEA6E980EE96EEFDC0D
:104AB0000A0E0701116F0001A9EC0FF01A0E070191
:104AC000116F0001A9EC0FF0060103D09BA101D0EA
:104AD0009F9160D0000E98B1010E0701106F000E7B
:104AE00006019AB1010E0701101901084FE10601F4
:104AF0009991A6B149D030B247D09FB145D0460E6A
:104B0000F66E060EF76E0001CCEC0FF00A0E0701F0
:104B1000116F0001A9EC0FF00A0E0701106F0001E0
:104B2000E6EC03F00601A681500EF66E060EF76E57
:104B30000001CCEC0FF0050EEA6E890EE96EA7DCE1
:104B4000220E0701116F0001A9EC0FF00A0E0701F8
:104B5000116F0001A9EC0FF0320E0701106F000178
:104B6000E6EC03F0050EEA6E980EE96E90DC0A0E94
:104B70000701116F0001A9EC0FF01A0E0701116F68
:104B80000001A9EC0FF0060105D00701060199818B
:104B9000A69130929EA389D0000E98B3010E070112
:104BA000106F000E06019AB3010E070110190108DB
:104BB00003E106019BB303D00601A0A372D09FB30B
:104BC00024D0A0B30CD000016A510F08D8B402D091
:104BD000060105D0640E1C6E6BC01DF00601A0839B
:104BE0001AB202D0999301D099831AB80ED09DB30E
:104BF00005D0899892988996929607D09CA303D065
:104C00008998929802D089969296A6B349D030B2EC
:104C100047D09FB345D05A0EF66E060EF76E0001D0
:104C2000CCEC0FF00A0E0701116F0001A9EC0FF098
:104C30000A0E0701106F0001E6EC03F00601A683DF
:104C4000640EF66E060EF76E0001CCEC0FF0050E4A
:104C5000EA6E890EE96E1BDC220E0701116F00015E
:104C6000A9EC0FF00A0E0701116F0001A9EC0FF07B
:104C7000320E0701106F0001E6EC03F0050EEA6E3C
:104C8000B80EE96E04DC0A0E0701116F0001A9ECF1
:104C90000FF01A0E0701116F0001A9EC0FF00601C9
:104CA00003D09BA301D09F9362D0000E98B3010E56
:104CB0000701106F000E06019AB3010E07011019CB
:104CC000010851E106019993A6B34BD030B249D007
:104CD0009FB347D06E0EF66E060EF76E0001CCEC59
:104CE0000FF00A0E0701116F0001A9EC0FF00A0E78
:104CF0000701106F0001E6EC03F00601A683780EB1
:104D0000F66E060EF76E0001CCEC0FF0050EEA6EA3
:104D1000890EE96E47EC22F0220E0701116F0001A7
:104D2000A9EC0FF00A0E0701116F0001A9EC0FF0BA
:104D3000320E0701106F0001E6EC03F0050EEA6E7B
:104D4000980EE96E47EC22F00A0E0701116F000180
:104D5000A9EC0FF01A0E0701116F0001A9EC0FF07A
:104D6000060105D0070106019983A69330929EA5FE
:104D70008BD0000E98B5010E0701106F000E0601D2
:104D80009AB5010E07011019010803E106019BB550
:104D900003D00601A0A574D09FB524D0A0B50CD037
:104DA00000016A510F08D8B402D0060105D0640E84
:104DB0001C6E6BC01DF00601A0851AB202D0999539
:104DC00001D099851AB80ED09DB505D089989298D2
:104DD0008996929607D09CA503D08998929802D084
:104DE00089969296A6B54BD030B249D09FB547D0A0
:104DF000820EF66E060EF76E0001CCEC0FF00A0E76
:104E00000701116F0001A9EC0FF00A0E0701106FE6
:104E10000001E6EC03F00601A6858C0EF66E060E88
:104E2000F76E0001CCEC0FF0050EEA6E890EE96E0C
:104E300047EC22F0220E0701116F0001A9EC0FF0E0
:104E40000A0E0701116F0001A9EC0FF0320E0701E5
:104E5000106F0001E6EC03F0050EEA6ED80EE96E65
:104E600047EC22F00A0E0701116F0001A9EC0FF0C8
:104E70001A0E0701116F0001A9EC0FF0060103D013
:104E80009BA501D09F9562D0000E98B5010E070139
:104E9000106F000E06019AB5010E070110190108E6
:104EA00051E106019995A6B54BD030B249D09FB5D6
:104EB00047D0960EF66E060EF76E0001CCEC0FF0A2
:104EC0000A0E0701116F0001A9EC0FF00A0E07018D
:104ED000106F0001E6EC03F00601A685A00EF66E49
:104EE000060EF76E0001CCEC0FF0050EEA6E890E8F
:104EF000E96E47EC22F0220E0701116F0001A9ECC8
:104F00000FF00A0E0701116F0001A9EC0FF0320E2D
:104F10000701106F0001E6EC03F0050EEA6ED80EF3
:104F2000E96E47EC22F00A0E0701116F0001A9ECAF
:104F30000FF01A0E0701116F0001A9EC0FF0060126
:104F400005D0070106019985A69530929EA78BD0C2
:104F5000000E98B7010E0701106F000E06019AB7F8
:104F6000010E07011019010803E106019BB703D0E8
:104F70000601A0A774D09FB724D0A0B70CD0000121
:104F80006A510F08D8B402D0060105D0640E1C6E19
:104F90006BC01DF00601A0871AB202D0999701D00C
:104FA00099871AB80ED09DB705D08998929889969E
:104FB000929607D09CA703D08998929802D08996A0
:104FC0009296A6B74BD030B249D09FB747D0AA0E21
:104FD000F66E060EF76E0001CCEC0FF00A0E07011C
:104FE000116F0001A9EC0FF00A0E0701106F00010C
:104FF000E6EC03F00601A687B40EF66E060EF76E19
:105000000001CCEC0FF0050EEA6E890EE96E47EC5C
:1050100022F0220E0701116F0001A9EC0FF00A0E19
:105020000701116F0001A9EC0FF0320E0701106F9C
:105030000001E6EC03F0050EEA6EF80EE96E47ECAF
:1050400022F00A0E0701116F0001A9EC0FF01A0EF1
:105050000701116F0001A9EC0FF0060103D09BA717
:1050600001D09F9762D0000E98B7010E0701106F14
:10507000000E06019AB7010E07011019010851E14F
:1050800006019997A6B74BD030B249D09FB747D009
:10509000BE0EF66E060EF76E0001CCEC0FF00A0E97
:1050A0000701116F0001A9EC0FF00A0E0701106F44
:1050B0000001E6EC03F00601A687C80EF66E060EA8
:1050C000F76E0001CCEC0FF0050EEA6E890EE96E6A
:1050D00047EC22F0220E0701116F0001A9EC0FF03E
:1050E0000A0E0701116F0001A9EC0FF0320E070143
:1050F000106F0001E6EC03F0050EEA6EF80EE96EA3
:1051000047EC22F00A0E0701116F0001A9EC0FF025
:105110001A0E0701116F0001A9EC0FF0060105D06E
:10512000070106019987A69730929EA98BD0000EA1
:1051300098B9010E0701106F000E06019AB9010E11
:1051400007011019010803E106019BB903D006010C
:10515000A0A974D09FB924D0A0B90CD000016A5185
:105160000F08D8B402D0060105D0640E1C6E6BC0C7
:105170001DF00601A0891AB202D0999901D099892F
:105180001AB80ED09DB905D08998929889969296B2
:1051900007D09CA903D08998929802D089969296BC
:1051A000A6B94BD030B249D09FB947D0D20EF66ED7
:1051B000060EF76E0001CCEC0FF00A0E0701116F1E
:1051C0000001A9EC0FF00A0E0701106F0001E6ECD8
:1051D00003F00601A689DC0EF66E060EF76E0001DE
:1051E000CCEC0FF0050EEA6E890EE96E47EC22F06A
:1051F000220E0701116F0001A9EC0FF00A0E070142
:10520000116F0001A9EC0FF0320E0701106F0001C1
:10521000E6EC03F0060EEA6E180EE96E47EC22F09B
:105220000A0E0701116F0001A9EC0FF01A0E070119
:10523000116F0001A9EC0FF0060103D09BA901D06A
:105240009F9962D0000E98B9010E0701106F000EF1
:1052500006019AB9010E07011019010851E1060172
:105260009999A6B94BD030B249D09FB947D0E60E34
:10527000F66E060EF76E0001CCEC0FF00A0E070179
:10528000116F0001A9EC0FF00A0E0701106F000169
:10529000E6EC03F00601A689F00EF66E060EF76E38
:1052A0000001CCEC0FF0050EEA6E890EE96E47ECBA
:1052B00022F0220E0701116F0001A9EC0FF00A0E77
:1052C0000701116F0001A9EC0FF0320E0701106FFA
:1052D0000001E6EC03F0060EEA6E180EE96E47ECEC
:1052E00022F00A0E0701116F0001A9EC0FF01A0E4F
:1052F0000701116F0001A9EC0FF0060105D00701AD
:1053000006019989A69930929EAB8BD0000E98BB6E
:10531000010E0701106F000E06019ABB010E070176
:105320001019010803E106019BBB03D00601A0ABE5
:1053300074D09FBB24D0A0BB0CD000016A510F08D1
:10534000D8B402D0060105D0640E1C6E6BC01DF0EF
:105350000601A08B1AB202D0999B01D0998B1AB882
:105360000ED09DBB05D0899892988996929607D0C9
:105370009CAB03D08998929802D089969296A6BB4E
:105380004BD030B249D09FBB47D0FA0EF66E060E16
:10539000F76E0001CCEC0FF00A0E0701116F00014F
:1053A000A9EC0FF00A0E0701106F0001E6EC03F004
:1053B0000601A68B040EF66E070EF76E0001CCEC0C
:1053C0000FF0050EEA6E890EE96E47EC22F0220E10
:1053D0000701116F0001A9EC0FF00A0E0701116F10
:1053E0000001A9EC0FF0320E0701106F0001E6EC8E
:1053F00003F0060EEA6E380EE96E47EC22F00A0E54
:105400000701116F0001A9EC0FF01A0E0701116FCF
:105410000001A9EC0FF0060103D09BAB01D09F9BCC
:1054200062D0000E98BB010E0701106F000E06013E
:105430009ABB010E07011019010851E10601999B61
:10544000A6BB4BD030B249D09FBB47D00E0EF66EF4
:10545000070EF76E0001CCEC0FF00A0E0701116F7A
:105460000001A9EC0FF00A0E0701106F0001E6EC35
:1054700003F00601A68B180EF66E070EF76E0001FC
:10548000CCEC0FF0050EEA6E890EE96E47EC22F0C7
:10549000220E0701116F0001A9EC0FF00A0E07019F
:1054A000116F0001A9EC0FF0320E0701106F00011F
:1054B000E6EC03F0060EEA6E380EE96E47EC22F0D9
:1054C0000A0E0701116F0001A9EC0FF01A0E070177
:1054D000116F0001A9EC0FF0060105D007010601CC
:1054E000998BA69B30929EAD8BD0000E98BD010E7D
:1054F0000701106F000E06019ABD010E0701101979
:10550000010803E106019BBD03D00601A0AD74D0E4
:105510009FBD24D0A0BD0CD000016A510F08D8B4A3
:1055200002D0060105D0640E1C6E6BC01DF0060192
:10553000A08D1AB202D0999D01D0998D1AB80ED0C3
:105540009DBD05D0899892988996929607D09CAD7A
:1055500003D08998929802D089969296A6BD4BD096
:1055600030B249D09FBD47D0220EF66E070EF76EBF
:105570000001CCEC0FF00A0E0701116F0001A9EC3D
:105580000FF00A0E0701106F0001E6EC03F00601B0
:10559000A68D2C0EF66E070EF76E0001CCEC0FF008
:1055A000050EEA6E890EE96E47EC22F0220E070125
:1055B000116F0001A9EC0FF00A0E0701116F000135
:1055C000A9EC0FF0320E0701106F0001E6EC03F0BA
:1055D000060EEA6E580EE96E47EC22F00A0E07013D
:1055E000116F0001A9EC0FF01A0E0701116F0001F5
:1055F000A9EC0FF0060103D09BAD01D09F9D62D0B6
:10560000000E98BD010E0701106F000E06019ABD35
:10561000010E07011019010851E10601999DA6BD6F
:105620004BD030B249D09FBD47D0360EF66E070E34
:10563000F76E0001CCEC0FF00A0E0701116F0001AC
:10564000A9EC0FF00A0E0701106F0001E6EC03F061
:105650000601A68D400EF66E070EF76E0001CCEC2B
:105660000FF0050EEA6E890EE96E47EC22F0220E6D
:105670000701116F0001A9EC0FF00A0E0701116F6D
:105680000001A9EC0FF0320E0701106F0001E6ECEB
:1056900003F0060EEA6E580EE96E47EC22F00A0E91
:1056A0000701116F0001A9EC0FF01A0E0701116F2D
:1056B0000001A9EC0FF0060105D007010601998D44
:1056C000A69D30929EAF8BD0000E98BF010E0701B1
:1056D000106F000E06019ABF010E07011019010894
:1056E00003E106019BBF03D00601A0AF74D09FBFAA
:1056F00024D0A0BF0CD000016A510F08D8B402D04A
:10570000060105D0640E1C6E6BC01DF00601A08F53
:105710001AB202D0999F01D0998F1AB80ED09DBFAE
:1057200005D0899892988996929607D09CAF03D01D
:105730008998929802D089969296A6BF4BD030B2A3
:1057400049D09FBF47D04A0EF66E070EF76E000194
:10575000CCEC0FF00A0E0701116F0001A9EC0FF05D
:105760000A0E0701106F0001E6EC03F00601A68F98
:10577000540EF66E070EF76E0001CCEC0FF0050E1E
:10578000EA6E890EE96E47EC22F0220E0701116FD6
:105790000001A9EC0FF00A0E0701116F0001A9EC3E
:1057A0000FF0320E0701106F0001E6EC03F0060E59
:1057B000EA6E780EE96E47EC22F00A0E0701116FCF
:1057C0000001A9EC0FF01A0E0701116F0001A9ECFE
:1057D0000FF0060103D09BAF01D09F9F62D0000E57
:1057E00098BF010E0701106F000E06019ABF010E4F
:1057F00007011019010851E10601999FA6BF4BD07E
:1058000030B249D09FBF47D05E0EF66E070EF76EDE
:105810000001CCEC0FF00A0E0701116F0001A9EC9A
:105820000FF00A0E0701106F0001E6EC03F006010D
:10583000A68F680EF66E070EF76E0001CCEC0FF027
:10584000050EEA6E890EE96E47EC22F0220E070182
:10585000116F0001A9EC0FF00A0E0701116F000192
:10586000A9EC0FF0320E0701106F0001E6EC03F017
:10587000060EEA6E780EE96E47EC22F00A0E07017A
:10588000116F0001A9EC0FF01A0E0701116F000152
:10589000A9EC0FF0060105D007010601998FA69F1C
:1058A0003092000E98B1010E0701106F000E060134
:1058B0009AB1010E07011019010804E106019BA12C
:1058C00004D007011AAA69D00601A1B10ED00001C7
:1058D0006A510F08D8B402D0060107D006019FB163
:1058E00004D0640E1C6E6BC01DF0A1819FB117D057
:1058F0001AB202D0999101D099811AB810D09EA104
:105900000ED09DB105D0899892988996929607D02D
:105910009CA103D08998929802D089969296010E04
:105920000701046F0601A6B137D030B235D09FB160
:1059300033D0A681720EF66E070EF76E0001CCEC26
:105940000FF0050EEA6E890EE96E47EC22F0220E8A
:105950000701116F0001A9EC0FF00A0E0701116F8A
:105960000001A9EC0FF0320E0701106F0001E6EC08
:1059700003F0050EEA6E980EE96E47EC22F00A0E6F
:105980000701116F0001A9EC0FF01A0E0701116F4A
:105990000001A9EC0FF0060145D006019BB142D0F1
:1059A000A1919F919981A6919CB102D09DB111D0F6
:1059B00007010453D8B402D006010BD0010E0F6FBB
:1059C00000015AEC22F0012C01D002D08988929873
:1059D00006019CA102D09DB111D007010453D8B497
:1059E00002D006010BD0020E0F6F00015AEC22F01C
:1059F000012C01D002D0898692960601A1B112D065
:105A0000A1B310D0A1B50ED0A1B70CD0A1B90AD0C6
:105A1000A1BB08D0A1BD06D0A1BF04D089869296B3
:105A200089889298000E98B3010E0701106F000E3E
:105A300006019AB3010E07011019010804E10601DD
:105A40009BA304D007011AAA69D00601A1B30ED006
:105A500000016A510F08D8B402D0060107D0060130
:105A60009FB304D0640E1C6E6BC01DF0A1839FB366
:105A700017D01AB202D0999301D099831AB810D0D6
:105A80009EA30ED09DB305D0899892988996929640
:105A900007D09CA303D08998929802D089969296B9
:105AA000010E0701046F0601A6B337D030B235D01E
:105AB0009FB333D0A6837C0EF66E070EF76E0001FF
:105AC000CCEC0FF0050EEA6E890EE96E47EC22F081
:105AD000220E0701116F0001A9EC0FF00A0E070159
