:04000000D4EF32F017
:08000800046ED8CF05F0E0CF33
:1000100006F00001E9CF0CF0EACF07F0E1CF08F0DD
:10002000E2CF09F0D9CF0AF0DACF0BF0F3CF12F01C
:10003000F4CF13F0FACF14F0F5CF15F0F6CF16F099
:10004000F7CF17F000C00EF001C00FF002C010F0A3
:1000500003C011F09DA230EF00F09EB2A9EF02F0B4
:100060009DAA36EF00F09EBAA1EF02F00EC000F09C
:100070000FC001F010C002F011C003F00CC0E9FF86
:1000800007C0EAFF078E08C0E1FF09C0E2FF0AC00F
:10009000D9FF0BC0DAFF12C0F3FF13C0F4FF14C086
:1000A000FAFF15C0F5FF16C0F6FF17C0F7FF0450A2
:1000B00006C0E0FF05C0D8FF1000F76ACA0FF66E51
:1000C000000EF7220900F550120000C1814001C066
:1000D000804101C0804100C1814001C0804100C118
:1000E000814000C1814001C0804101C0804100C108
:1000F000814000C1814001C0804100C1814001C0F8
:10010000804101C0804100C1814001C0804100C1E7
:10011000814000C1814001C0804100C1814001C0D7
:10012000804101C0804100C1814000C1814001C0C7
:10013000804101C0804100C1814001C0804100C1B7
:10014000814000C1814001C0804101C0804100C1A7
:10015000814000C1814001C0804100C1814001C097
:10016000804101C0804100C1814000C1814001C087
:10017000804101C0804100C1814001C0804100C177
:10018000814000C1814001C0804100C1814001C067
:10019000804101C0804100C1814001C0804100C157
:1001A000814000C1814001C0804101C0804100C147
:1001B000814000C1814001C0804100C1814001C037
:1001C000804101C0804100C18140F76ADA0FF66EBC
:1001D000010EF7220900F550120000C0C101C3034F
:1001E00002C2C60607C705C5C404CC0C0DCD0FCF8F
:1001F000CE0E0ACACB0BC90908C8D81819D91BDBFF
:10020000DA1A1EDEDF1FDD1D1CDC14D4D515D7174E
:1002100016D6D21213D311D1D010F03031F133F3FE
:10022000F23236F6F737F53534F43CFCFD3DFF3F4E
:100230003EFEFA3A3BFB39F9F83828E8E929EB2B7E
:100240002AEAEE2E2FEF2DEDEC2CE42425E527E70E
:10025000E62622E2E323E12120E0A06061A163A37E
:10026000A26266A6A767A56564A46CACAD6DAF6F0E
:100270006EAEAA6A6BAB69A9A86878B8B979BB7B7E
:100280007ABABE7E7FBF7DBDBC7CB47475B577B7CE
:10029000B67672B2B373B17170B0509091519353FE
:1002A000529296565797559594549C5C5D9D5F9FCE
:1002B0009E5E5A9A9B5B99595898884849894B8BFE
:1002C0008A4A4E8E8F4F8D4D4C8C4484854587478E
:1002D0004686824243834181804004006F51785DAD
:1002E00015E17A6B7A0E7A25E96E010EEA6ED8B0C6
:1002F000EA2A2EC0EFFF04007A2B100E786F0B0154
:10030000486B140E0901856F19D10001785110084E
:1003100061E17A0E7A25E96E010EEA6ED8B0EA2A1A
:100320002EC0EFFF04007A2B010E7A5D7A0FE96E82
:10033000010EEA6ED8B0EA2AEF50160807E370C043
:1003400078F0140E0901856F43D00001010E7A5D2B
:100350007A0FE96E010EEA6ED8B0EA2AEF50200853
:1003600007E173C078F0140E0901856F31D00001E8
:10037000010E7A5D7A0FE96E010EEA6ED8B0EA2AB4
:10038000EF50210807E176C078F0140E0901856F5F
:100390001FD00001010E7A5D7A0FE96E010EEA6E40
:1003A000D8B0EA2AEF5022080CE10B01485302E1D1
:1003B000482B02D076C078F0140E0901856F08D062
:1003C00000017A6B6FC078F00901856B8A9693966D
:1003D000B5D000017651785D1CE17A0E7A25E96E80
:1003E000010EEA6ED8B0EA2A2EC0EFFF04007A2B85
:1003F000010E7A5D7A0FE96E010EEA6ED8B0EA2A34
:10040000EFCF86F9140E0901856F77C078F096D08A
:1004100000017751785D15E17A0E7A25E96E010EBB
:10042000EA6ED8B0EA2A2EC0EFFF04007A2B090149
:100430008607862D02D073C078F0140E856F7ED0AB
:1004400000017051785D12E17A0E7A25E96E010E95
:10045000EA6ED8B0EA2A2EC0EFFF04007A2B71C0F2
:1004600078F0140E0901856F69D000017151785D33
:1004700012E17A0E7A25E96E010EEA6ED8B0EA2A08
:100480002EC0EFFF04007A2B72C078F0140E090121
:10049000856F54D000017251785D12E17A0E7A2591
:1004A000E96E010EEA6ED8B0EA2A2EC0EFFF040012
:1004B0007A2B150E786F140E0901856F3FD000015D
:1004C0007851150812E17A0E7A25E96E010EEA6E6E
:1004D000D8B0EA2A2EC0EFFF04007A2B73C078F060
:1004E000140E0901856F2AD000017351785D12E165
:1004F0007A0E7A25E96E010EEA6ED8B0EA2A2EC08D
:10050000EFFF04007A2B74C078F0140E0901856F98
:1005100015D000017451785D11E17A0E7A25E96EEB
:10052000010EEA6ED8B0EA2A2EC0EFFF04006FC0B9
:1005300078F00901856B308A8A9693960001A6EFC0
:1005400002F09EAAFED7AECF2EF0C7D69E9A36EF07
:1005500000F0192A0901855307E08507855304E156
:100560006FC078F08A9693961C520CE01C061C52C1
:1005700009E11D5204E01D061D5201E11A84308874
:10058000640E1C6E1950320815E1196A1AB004D0B5
:100590001A808A8A939A03D01A908A9A939A1AACEC
:1005A00008D02F5201E02F062F5202E11A8A308222
:1005B00001D02F6A1B5211E01B061B5208E187690C
:1005C0001AA202D01A9201D01A826CC01BF03152CA
:1005D00004E03106315201E130949E92000136EF81
:1005E00000F041542B434D47463D310041542B43CD
:1005F0004D47533D220041542B434D47463D31006A
:1006000041542B434D47533D220041542B434D470A
:10061000463D310041542B434D47533D2200415448
:100620002B434D47463D310041542B434D47533DED
:10063000220041542B434D47463D310041542B434A
:100640004D47533D220041542B434D47463D310019
:1006500041542B434D47533D220041542B434D47BA
:10066000463D310041542B434D47533D22004154F8
:100670002B434D47463D310041542B434D47533D9D
:10068000220041542B434D47463D310041542B43FA
:100690004D47533D220041542B434D47463D3100C9
:1006A00041542B434D47533D220041542B434D476A
:1006B000463D310041542B434D47533D22004154A8
:1006C0002B434D47463D310041542B434D47533D4D
:1006D000220041542B434D47463D310041542B43AA
:1006E0004D47533D220041542B434D47463D310079
:1006F00041542B434D47533D220041542B434D471A
:10070000463D310041542B434D47533D2200415457
:100710002B434D47463D310041542B434D47533DFC
:10072000220041542B434D47533D220041542B435B
:100730004D47533D220041542B434D47533D22002A
:1007400041542B434D47533D220041542B434D47C9
:10075000533D220041542B434D47533D2200415409
:100760002B434D47533D220041542B434D47533DAE
:10077000220041542B434D47463D31000B0EEA6E9B
:10078000570EE96EEF5011E0050E016EBF0E006EC0
:100790000400002EFDD7012EF9D72E0E006E002E7C
:1007A000FED700000400EF2EEFD71200929A899A2C
:1007B0000B01585140095B6FC9505BCBC9FFC73073
:1007C000FEE3C95059CBC9FFC730FEE3C9505ACB2D
:1007D000C9FFC730FEE3929A898A00011200929AFB
:1007E000898A929A0B01586B0A0E596FAA0E5A6F9A
:1007F0000001DCDF020E0B01586F0A0E596FAA0EC2
:100800005A6F0001D3DF040E0B01586F0A0E596FA7
:10081000AA0E5A6F0001CADF060E0B01586F0A0EAE
:10082000596FAA0E5A6F0001C1DF080E0B01586FF5
:100830000A0E596FAA0E5A6F0001B8DF0A0E0B019B
:10084000586F596FAA0E5A6F0001B0DF0C0E0B01E2
:10085000586F0A0E596FAA0E5A6F0001A7DF0E0ECD
:100860000B01586F0A0E596FAA0E5A6F00019EDFD6
:100870004EEF33F04ECB58FB0B01596B4FCB5AFB6D
:10088000000194DF12004ECB58FB100E0B01596F84
:100890004FCB5AFB00018ADF1200F2CF58FBF29EC9
:1008A000AA6A010EA96EA69CA69EA680A8500B015E
:1008B00058BFF28E396E39C03AF00A01E19139B071
:1008C000E181D8903930E193E8B0E1833930006EAE
:1008D00000323F0E0016E19500B0E1853930006E20
:1008E000003200321F0E0016E19700B0E187393860
:1008F000006E0F0E0016E19900B0E1893938006EE4
:100900000032070E0016E19B00B0E18B3938006E13
:1009100000320032030E0016E19D00B0E18D006A46
:1009200039BE0080E19F00B0E18F0B0145930A01C1
:10093000E1A103D00B0145830A010B0145950A0192
:10094000E1A303D00B0145850A010B0145970A017C
:10095000E1A503D00B0145870A010B0145990A0166
:10096000E1A703D00B0145890A010B01459B0A0150
:10097000E1A903D00B01458B0A010B01459D0A013A
:10098000E1AB03D00B01458D0A010B01459F0A0124
:10099000E1AD03D00B01458F0A010B0146910A011D
:1009A000E1AF03D00B0146810A01F2CF58FBF29E62
:1009B000AA6A040EA96EA69CA69EA680A8500B014A
:1009C00058BFF28E396E39C03DF00A01E29139B05C
:1009D000E281D8903930E293E8B0E2833930006E9A
:1009E00000323F0E0016E29500B0E2853930006E0D
:1009F000003200321F0E0016E29700B0E28739384D
:100A0000006E0F0E0016E29900B0E2893938006ED0
:100A10000032070E0016E29B00B0E28B3938006E00
:100A200000320032030E0016E29D00B0E28D006A33
:100A300039BE0080E29F00B0E28FF2CF58FBF29EF9
:100A4000AA6A070EA96EA69CA69EA680A8500B01B6
:100A500058BFF28E396E39C040F00A01E39139B0C7
:100A6000E381D8903930E393E8B0E3833930006E06
:100A700000323F0E0016E39500B0E3853930006E7A
:100A8000003200321F0E0016E39700B0E3873938BA
:100A9000006E0F0E0016E39900B0E3893938006E3E
:100AA0000032070E0016E39B00B0E38B3938006E6E
:100AB00000320032030E0016E39D00B0E38D006AA1
:100AC00039BE0080E39F00B0E38FF2CF58FBF29E67
:100AD000AA6A0A0EA96EA69CA69EA680A8500B0123
:100AE00058BFF28E396E39C043F00A01E49139B033
:100AF000E481D8903930E493E8B0E4833930006E73
:100B000000323F0E0016E49500B0E4853930006EE7
:100B1000003200321F0E0016E49700B0E487393827
:100B2000006E0F0E0016E49900B0E4893938006EAB
:100B30000032070E0016E49B00B0E48B3938006EDB
:100B400000320032030E0016E49D00B0E48D006A0E
:100B500039BE0080E49F00B0E48FF2CF58FBF29ED4
:100B6000AA6A0D0EA96EA69CA69EA680A8500B018F
:100B700058BFF28E396E39C046F00A01E59139B09E
:100B8000E581D8903930E593E8B0E5833930006EDF
:100B900000323F0E0016E59500B0E5853930006E55
:100BA000003200321F0E0016E59700B0E587393895
:100BB000006E0F0E0016E59900B0E5893938006E19
:100BC0000032070E0016E59B00B0E58B3938006E49
:100BD00000320032030E0016E59D00B0E58D006A7C
:100BE00039BE0080E59F00B0E58FF2CF58FBF29E42
:100BF000AA6A100EA96EA69CA69EA680A8500B01FC
:100C000058BFF28E396E0A01EB9139B0EB81D89062
:100C10003930EB93E8B0EB833930006E00323F0E91
:100C20000016EB9500B0EB853930006E00320032D3
:100C30001F0E0016EB9700B0EB873938006E0F0ED1
:100C40000016EB9900B0EB893938006E0032070EC0
:100C50000016EB9B00B0EB8B3938006E003200328F
:100C6000030E0016EB9D00B0EB8D006A39BE0080CC
:100C7000EB9F00B0EB8FF2CF58FBF29EAA6A140EE6
:100C8000A96EA69CA69EA680A8500B0158BFF28E06
:100C9000396E0A01EC9139B0EC81D8903930EC937F
:100CA000E8B0EC833930006E00323F0E0016EC9550
:100CB00000B0EC853930006E003200321F0E001695
:100CC000EC9700B0EC873938006E0F0E0016EC99E7
:100CD00000B0EC893938006E0032070E0016EC9B2C
:100CE00000B0EC8B3938006E00320032030E001673
:100CF000EC9D00B0EC8D006A39BE0080EC9F00B026
:100D0000EC8FF2CF58FBF29EAA6A180EA96EA69C31
:100D1000A69EA680A8500B0158BFF28E00016A6FF4
:100D2000F2CF58FBF29EAA6A190EA96EA69CA69E47
:100D3000A680A8500B0158BFF28E00016B6FF2CF56
:100D400058FBF29EAA6A1A0EA96EA69CA69EA680C1
:100D5000A8500B0158BFF28E00016C6F6CC01BF0E5
:100D6000F2CF58FBF29EAA6A1B0EA96EA69CA69E05
:100D7000A680A8500B0158BFF28E00016D6FF2CF14
:100D800058FBF29EAA6A1C0EA96EA69CA69EA6807F
:100D9000A8500B0158BFF28E446FF2CF58FBF29E61
:100DA000AA6A1D0EA96EA69CA69EA680A85058BF32
:100DB000F28E0001796FF2CF58FBF29EAA6A1E0EE6
:100DC000A96EA69CA69EA680A8500B0158BFF28EC5
:100DD0001F6B1E6FF2CF58FBF29EAA6A1F0EA96E00
:100DE000A69CA69EA680A85058BFF28E216B206FAD
:100DF000F2CF58FBF29EAA6A200EA96EA69CA69E70
:100E0000A680A85058BFF28E236B226FF2CF58FBFA
:100E1000F29EAA6A210EA96EA69CA69EA680A85044
:100E200058BFF28E256B246FF2CF58FBF29EAA6A50
:100E3000220EA96EA69CA69EA680A85058BFF28E30
:100E4000276B266FF2CF58FBF29EAA6A230EA96E7B
:100E5000A69CA69EA680A85058BFF28E296B286F2C
:100E6000F2CF58FBF29EAA6A240EA96EA69CA69EFB
:100E7000A680A85058BFF28E2B6B2A6FF2CF58FB7A
:100E8000F29EAA6A250EA96EA69CA69EA680A850D0
:100E900058BFF28E2D6B2C6FF2CF58FBF29EAA6AD0
:100EA000260EA96EA69CA69EA680A85058BFF28EBC
:100EB0002F6B2E6FF2CF58FBF29EAA6A270EA96EF7
:100EC000A69CA69EA680A85058BFF28E316B306FAC
:100ED000F2CF58FBF29EAA6A280EA96EA69CA69E87
:100EE000A680A85058BFF28E336B326FF2CF58FBFA
:100EF000F29EAA6A290EA96EA69CA69EA680A8505C
:100F000058BFF28E356B346FF2CF58FBF29EAA6A4F
:100F10002A0EA96EA69CA69EA680A85058BFF28E47
:100F2000376B366FF2CF58FBF29EAA6A2B0EA96E72
:100F3000A69CA69EA680A85058BFF28E396B386F2B
:100F4000F2CF58FBF29EAA6A2C0EA96EA69CA69E12
:100F5000A680A85058BFF28E3B6B3A6FF2CF58FB79
:100F6000F29EAA6A2D0EA96EA69CA69EA680A850E7
:100F700058BFF28E3D6B3C6FF2CF58FBF29EAA6ACF
:100F80002E0EA96EA69CA69EA680A85058BFF28ED3
:100F90003F6B3E6FF2CF58FBF29EAA6A2F0EA96EEE
:100FA000A69CA69EA680A85058BFF28E416B406FAB
:100FB000F2CF58FBF29EAA6A300EA96EA69CA69E9E
:100FC000A680A85058BFF28E436B426FF2CF58FBF9
:100FD000F29EAA6A310EA96EA69CA69EA680A85073
:100FE00058BFF28E456B446F4E6B0400320E4E2597
:100FF000586FF2CF59FBF29EAA6A58CBA9FFA69C64
:10100000A69EA680A85059BFF28E4F6F4F510D0873
:1010100003E04E510F0824E2036A4E51880FE96E37
:10102000090E0320EA6EEF6A320E4E25586FF25019
:10103000006EF29EAA6A58CBA9FF4FCBA8FFA69CD0
:10104000A69EA6840F01550EA76EAA0EA76EA682B5
:10105000A6B2FED7A6940050F21210D00BD00B010E
:10106000036A4E51880FE96E090E0320EA6E4FCBDA
:10107000EFFF0F010B014E2BB8D70F010B01516B86
:10108000030E506F536B526B556B546B04005D0E27
:101090005025586F000E5121596FF2CF5AFBF29E26
:1010A00059CBAAFF58CBA9FFA69CA69EA680A85004
:1010B0005ABFF28E576B566F56510D0802E15753C7
:1010C00005E0535303E15251290809E2970E5225D6
:1010D000E96E090E5321EA6EEF6A13D008D0970E1D
:1010E0005225E96E090E5321EA6E56CBEFFF51CB24
:1010F00003F05051502BD8B4512B522BD8B4532B52
:10110000C5D7502BD8B4512B536B526B04005D0ED6
:101110005025586F000E5121596FF2CF5AFBF29EA5
:1011200059CBAAFF58CBA9FFA69CA69EA680A85083
:101130005ABFF28E576B566F56510D0802E1575346
:1011400005E0535303E15251290809E2C00E52252C
:10115000E96E090E5321EA6EEF6A13D008D0C00E73
:101160005225E96E090E5321EA6E56CBEFFF51CBA3
:1011700003F05051502BD8B4512B522BD8B4532BD1
:10118000C5D7502BD8B4512B536B526B04005D0E56
:101190005025586F000E5121596FF2CF5AFBF29E25
:1011A00059CBAAFF58CBA9FFA69CA69EA680A85003
:1011B0005ABFF28E576B566F56510D0802E15753C6
:1011C00005E0535303E15251290809E2E90E522583
:1011D000E96E090E5321EA6EEF6A13D008D0E90ECA
:1011E0005225E96E090E5321EA6E56CBEFFF51CB23
:1011F00003F05051502BD8B4512B522BD8B4532B51
:10120000C5D7502BD8B4512B536B526B04005D0ED5
:101210005025586F000E5121596FF2CF5AFBF29EA4
:1012200059CBAAFF58CBA9FFA69CA69EA680A85082
:101230005ABFF28E576B566F56510D0802E1575345
:1012400005E0535303E15251290809E2120E5225D9
:10125000E96E0A0E5321EA6EEF6A13D008D0120E1F
:101260005225E96E0A0E5321EA6E56CBEFFF51CBA1
:1012700003F05051502BD8B4512B522BD8B4532BD0
:10128000C5D7502BD8B4512B536B526B04005D0E55
:101290005025586F000E5121596FF2CF5AFBF29E24
:1012A00059CBAAFF58CBA9FFA69CA69EA680A85002
:1012B0005ABFF28E576B566F56510D0802E15753C5
:1012C00005E0535303E15251290809E23B0E522530
:1012D000E96E0A0E5321EA6EEF6A13D008D03B0E76
:1012E0005225E96E0A0E5321EA6E56CBEFFF51CB21
:1012F00003F05051502BD8B4512B522BD8B4532B50
:10130000C5D7502BD8B4512B536B526B04005D0ED4
:101310005025586F000E5121596FF2CF5AFBF29EA3
:1013200059CBAAFF58CBA9FFA69CA69EA680A85081
:101330005ABFF28E576B566F56510D0802E1575344
:1013400005E0535303E15251290809E2640E522586
:10135000E96E0A0E5321EA6EEF6A13D008D0640ECC
:101360005225E96E0A0E5321EA6E56CBEFFF51CBA0
:1013700003F05051502BD8B4512B522BD8B4532BCF
:10138000C5D7502BD8B4512B536B526B04005D0E54
:101390005025586F000E5121596FF2CF5AFBF29E23
:1013A00059CBAAFF58CBA9FFA69CA69EA680A85001
:1013B0005ABFF28E576B566F56510D0802E15753C4
:1013C00005E0535303E15251290809E28D0E5225DD
:1013D000E96E0A0E5321EA6EEF6A13D008D08D0E23
:1013E0005225E96E0A0E5321EA6E56CBEFFF51CB20
:1013F00003F05051502BD8B4512B522BD8B4532B4F
:10140000C5D7502BD8B4512B536B526B04005D0ED3
:101410005025586F000E5121596FF2CF5AFBF29EA2
:1014200059CBAAFF58CBA9FFA69CA69EA680A85080
:101430005ABFF28E576B566F56510D0802E1575343
:1014400005E0535303E15251290809E2B60E522533
:10145000E96E0A0E5321EA6EEF6A13D008D0B60E79
:101460005225E96E0A0E5321EA6E56CBEFFF51CB9F
:1014700003F05051502BD8B4512B522BD8B4532BCE
:10148000C5D700011200929A899A0B015A5141095D
:101490005D6FC9505DCBC9FFC730FEE3C9505BCB60
:1014A000C9FFC730FEE3C950C96AC730FEE3C9CFE0
:1014B0005CFB929A898A5CCB01F00001120058CB48
:1014C0005AFB090E0B015B6F0001DDDF01C059FB08
:1014D0000B0159CB01F00001FFEF0AF058CB5AFB8A
:1014E000190E0B015B6F0001CEDF01C059FB0B0130
:1014F00059CB01F000014DEF0BF00B015B51070BD5
:10150000006E5B31016E013201321F0E0116015077
:101510005C25E96E000E5D21EA6EEFCF01F0002A36
:1015200001D00132002EFDD7010E0116000112007C
:101530000B015C515E03F3CF01F0F4CF00F05F03C9
:10154000F35000265D515E03F3500020026E00014F
:1015500012000B015B51070B006E5B31016E013213
:1015600001321F0E011601505D25E96E000E5E214D
:10157000EA6E016A012A002A01D00136002EFDD749
:101580005C5303E00150EF1203D0011E0150EF162F
:101590000001F4EF0AF00B01586B010E586F58BFB1
:1015A00003D05851100823E3036A5851006EE8BE77
:1015B0000306596F03C05AFB036A5851006EE8BE18
:1015C00003065B6F0A0E5D6FF10E5C6F000195DF25
:1015D00059CB5BFB0B015C6B01B05C2B0A0E5E6FA1
:1015E000EE0E5D6F0001B5D70B01582BD8D7000167
:1015F000D9EF0DF0020E0B01586F000160D701C04A
:1016000083F91AA803D00901831F0001D8900901AA
:1016100083310A01F193E8B0F18309018331006E4F
:1016200000323F0E00160A01F19500B0F185090164
:101630008331006E003200321F0E00160A01F1974E
:1016400000B0F18709018339006E0F0E00160A0100
:10165000F19900B0F18909018339006E0032070E5B
:1016600000160A01F19B00B0F18B09018339006E6D
:1016700000320032030E00160A01F19D00B0F18D18
:10168000006A090183BF00800A01F19F00B0F18F59
:10169000020E0B01586F000121D701C083F91AA86F
:1016A00003D00901831F00010A01F291090183A1FE
:1016B00003D00A01F2810901010E0B01576F575146
:1016C0000808D8A074D257CB5BFB0B0E5D6F450E9C
:1016D0005C6F000112DF0150010B0108D8A42BD16F
:1016E00057CB5BFB0A0E0B015D6FF10E5C6F0001C7
:1016F00004DF0150010BD8A48FD057CB5BFB0A0E3F
:101700000B015D6FEE0E5C6F0001F7DE0150010B07
:10171000D8A474D0D8900B015735036AF40FE96E42
:101720000A0E0320EA6E010EEE2601E3EF2AD8909E
:101730005735036AF40FE96E0A0E0320EA6EECCF08
:1017400059FBED52EFCF58FBD8905735036A1C0F69
:10175000E96E0B0E0320EA6EECCF5DFBED52EFCF8E
:101760005CFB5F6B4B0E5E6F0001E2DE02C05BFB59
:1017700001C05AFB0F0E0B010124016E000E022066
:10178000036E0350595D38E303E10150585D34E3C3
:10179000D8905735036AF40FE96E0A0E0320EA6EFB
:1017A000EC6AED52EF6A010E575DF80F25E2080F63
:1017B000000128EF0EF00A01DF910B011DD00A0194
:1017C000DF930B0119D00A01DF950B0115D00A0137
:1017D000DF970B0111D00A01DF990B010DD00A012F
:1017E000DF9B0B0109D00A01DF9D0B0105D00A0127
:1017F000DF9F0B0101D00B010DD00001D8900B0130
:101800005735036AF40FE96E0A0E0320EA6EEC6A9C
:10181000ED52EF6A8FD0000157CB5BFB0A0E0B0134
:101820005D6FEE0E5C6F000168DE0150010B010878
:10183000D8A474D0D8900B015735036AF40FE96E21
:101840000A0E0320EA6E010EEE2601E3EF2AD8907D
:101850005735036AF40FE96E0A0E0320EA6EECCFE7
:1018600059FBED52EFCF58FBD8905735036A1C0F48
:10187000E96E0B0E0320EA6EECCF5DFBED52EFCF6D
:101880005CFB5F6B4B0E5E6F000152DE02C05BFBC8
:1018900001C05AFB0F0E0B010124016E000E022045
:1018A000036E0350595D38E303E10150585D34E3A2
:1018B000D8905735036AF40FE96E0A0E0320EA6EDA
:1018C000EC6AED52010EEF6E575DF80F25E2080F3E
:1018D00000013DEF0EF00A01DF810B011DD00A016E
:1018E000DF830B0119D00A01DF850B0115D00A0136
:1018F000DF870B0111D00A01DF890B010DD00A012E
:10190000DF8B0B0109D00A01DF8D0B0105D00A0125
:10191000DF8F0B0101D00B010DD00001D8900B011E
:101920005735036AF40FE96E0A0E0320EA6EEC6A7B
:10193000ED52EF6A38D157CB5BFB0B0E0B015D6F9D
:10194000450E5C6F0001D9DD0150010BD8A42CD1EC
:1019500057CB5BFB0A0E0B015D6FF10E5C6F000154
:10196000CCDD0150010B0108D8A490D057CB5BFB14
:101970000A0E0B015D6FEE0E5C6F0001BEDD0150C3
:10198000010B0108D8A474D0D8900B015735036A15
:10199000F40FE96E0A0E0320EA6E010EEE2601E353
:1019A000EF2AD8905735036AF40FE96E0A0E032028
:1019B000EA6EECCF59FBED52EFCF58FBD89057357C
:1019C000036A1C0FE96E0B0E0320EA6EECCF5DFB81
:1019D000ED52EFCF5CFB5F6B4B0E5E6F0001A8DD3D
:1019E00002C05BFB01C05AFB0F0E0B010124016E0C
:1019F000000E0220036E0350595D38E303E10150ED
:101A0000585D34E3D8905735036AF40FE96E0A0E37
:101A10000320EA6EEC6AED52EF6A010E575DF80F93
:101A200025E2080F000152EF0EF00A01DF810B01E1
:101A30001DD00A01DF830B0119D00A01DF850B01DC
:101A400015D00A01DF870B0111D00A01DF890B01D4
:101A50000DD00A01DF8B0B0109D00A01DF8D0B01CC
:101A600005D00A01DF8F0B0101D00B010DD0000161
:101A7000D8900B015735036AF40FE96E0A0E032064
:101A8000EA6EEC6AED52EF6A8ED0000157CB5BFB39
:101A90000A0E0B015D6FEE0E5C6F00012EDD015032
:101AA000010BD8A474D0D8900B015735036AF40FFA
:101AB000E96E0A0E0320EA6E010EEE2601E3EF2A1C
:101AC000D8905735036AF40FE96E0A0E0320EA6EC8
:101AD000ECCF59FBED52EFCF58FBD8905735036A46
:101AE0001C0FE96E0B0E0320EA6EECCF5DFBED528E
:101AF000EFCF5CFB5F6B4B0E5E6F000119DD02C028
:101B00005BFB01C05AFB0F0E0B010124016E000E9E
:101B10000220036E0350595D38E303E10150585D24
:101B200034E3D8905735036AF40FE96E0A0E0320A8
:101B3000EA6EEC6AED52EF6A010E575DF80F25E28E
:101B4000080F000167EF0EF00A01DF910B011DD0B5
:101B50000A01DF930B0119D00A01DF950B0115D0A3
:101B60000A01DF970B0111D00A01DF990B010DD09B
:101B70000A01DF9B0B0109D00A01DF9D0B0105D093
:101B80000A01DF9F0B0101D00B010DD00001D8909D
:101B90000B015735036AF40FE96E0A0E0320EA6E53
:101BA000EC6AED52EF6A00010B01572B88D500015A
:101BB000F2D4496A000E0A01DFAF010E4912D89033
:101BC00049340B01586F000E0A01DFAD010E0B0105
:101BD0005811496ED8904934586F000E0A01DFAB96
:101BE000010E0B015811496ED8904934586F000E00
:101BF0000A01DFA9010E0B015811496ED890493432
:101C0000586F000E0A01DFA7010E0B015811496E33
:101C1000D8904934586F000E0A01DFA5010E0B0160
:101C20005811496ED8904934586F000E0A01DFA34D
:101C3000010E0B015811496ED8904934586F000EAF
:101C40000A01DFA1010E0B015811496E00011200BB
:101C5000E824F76AF7366B0FF66E1C0EF7220A00BF
:101C6000F550FA6E0800F550F96EB617BE17C61794
:101C7000CE17D617DE17E617EE17E824F76AF73601
:101C8000950FF66E1C0EF7220A00F550FA6E08004A
:101C9000F550F96ED618DE18E618EE18F618FE188C
:101CA00006190E19E824F76AF736BF0FF66E1C0EF8
:101CB000F7220A00F550FA6E0800F550F96E2A1A5C
:101CC000321A3A1A421A4A1A521A5A1A621AE8244C
:101CD000F76AF736E90FF66E1C0EF7220A00F55088
:101CE000FA6E0800F550F96E481B501B581B601B1C
:101CF000681B701B781B801B56CB58FB0A0E0B0110
:101D0000596F57CB5AFB0001D6EC03F0120056CBAB
:101D100058FB1A0E0B01596F57CB5AFB0001D6EC3A
:101D200003F012004E6A4F6A526A536A2F52D8A4C7
:101D3000E5D00A01E0A103D04E92529214D0EBA15B
:101D400005D0ECB103D04E8252920DD0EBB105D04C
:101D5000ECA103D04E92528206D0EBA104D0ECA1AC
:101D600002D04E825282E0A303D04E94529414D0FB
:101D7000EBA305D0ECB303D04E8452940DD0EBB35B
:101D800005D0ECA303D04E94528406D0EBA304D02C
:101D9000ECA302D04E845284E0A503D04E96529616
:101DA00014D0EBA505D0ECB503D04E8652960DD0DD
:101DB000EBB505D0ECA503D04E96528606D0EBA528
:101DC00004D0ECA502D04E865286E0A703D04E98F0
:101DD000529814D0EBA705D0ECB703D04E88529898
:101DE0000DD0EBB705D0ECA703D04E98528806D0A3
:101DF000EBA704D0ECA702D04E885288E0A903D00C
:101E00004E9A529A14D0EBA905D0ECB903D04E8A61
:101E1000529A0DD0EBB905D0ECA903D04E9A528A54
:101E200006D0EBA904D0ECA902D04E8A528AE0ABCE
:101E300003D04E9C529C14D0EBAB05D0ECBB03D02E
:101E40004E8C529C0DD0EBBB05D0ECAB03D04E9C1E
:101E5000528C06D0EBAB04D0ECAB02D04E8C528C43
:101E6000E0AD03D04E9E529E14D0EBAD05D0ECBD3C
:101E700003D04E8E529E0DD0EBBD05D0ECAD03D0FD
:101E80004E9E528E06D0EBAD04D0ECAD02D04E8EFD
:101E9000528EE0AF03D04F90539014D0EBAF05D0EB
:101EA000ECBF03D04F8053900DD0EBBF05D0ECAF0B
:101EB00003D04F90538006D0EBAF04D0ECAF02D0EC
:101EC0004F805380040E0B01566F4EC057FB00012C
:101ED00013DF040E0B01566F4FC057FB000117DFD5
:101EE000060E0B01566F52C057FB000105DF060EB0
:101EF0000B01566F53C057FB000109DF120093908E
:101F00008A90080E016E00D00000018E10D0019E54
:101F10000B0158330001D8B08A80D8A08A90018C78
:101F200006D0019C012EF4D700D000008A80840ED8
:101F3000E96EE92EFED700D0000001BEE8D701BC53
:101F4000F0D712000900F5520CE0F6CF56FBF7CFA0
:101F500057FBF5CF58FBD3DF56CBF6FF57CBF7FF38
:101F6000F1D7120005017B697A690B015C6B5A514C
:101F70005C5D21E204005C515825E96E000E592198
:101F8000EA6EEF5005017B190B015B6F036A5B5131
:101F900000015DEC00F0016E05017A5101187B6FC4
:101FA000036A0B015B510001E5EC00F0E8CF7AF524
:101FB0000B015C2BDCD7000112009EA8FED7AD6E92
:101FC00012001E6A266A0A01E7B104D0E0B102D00D
:101FD000EA8101D0EA91E7B304D0E0B302D0EA830A
:101FE00001D0EA93E7B504D0E0B502D0EA8501D08C
:101FF000EA95E7B704D0E0B702D0EA8701D0EA97C4
:10200000E7B904D0E0B902D0EA8901D0EA99E7BB88
:1020100004D0E0BB02D0EA8B01D0EA9BE7BD04D03C
:10202000E0BD02D0EA8D01D0EA9DE7BF04D0E0BF59
:1020300002D0EA8F01D0EA9F000EEABF010E2612FD
:10204000D89026340B01586F000E0A01EABD010E2C
:102050000B015811266ED8902634586F000E0A01D5
:10206000EABB010E0B015811266ED8902634586F2A
:10207000000E0A01EAB9010E0B015811266ED89024
:102080002634586F000E0A01EAB7010E0B015811F1
:10209000266ED8902634586F000E0A01EAB5010E5C
:1020A0000B015811266ED8902634586F000E0A0185
:1020B000EAB3010E0B015811266ED8902634586FE2
:1020C000000E0A01EAB1010E0B015811266E000E36
:1020D0000A01E7BF010E1E12D8901E340B01586F83
:1020E000000E0A01E7BD010E0B0158111E6ED890BB
:1020F0001E34586F000E0A01E7BB010E0B01581188
:102100001E6ED8901E34586F000E0A01E7B9010EFA
:102110000B0158111E6ED8901E34586F000E0A0124
:10212000E7B7010E0B0158111E6ED8901E34586F80
:10213000000E0A01E7B5010E0B0158111E6ED89072
:102140001E34586F000E0A01E7B3010E0B0158113F
:102150001E6ED8901E34586F000E0A01E7B1010EB2
:102160000B0158111E6E000197EF15F0948082B09C
:1021700002D01AAE02D01AA406D0320E0B01576F4D
:102180000001BEEC03F0948082B002D01AAE02D0FF
:102190001AA455D01A941D6A0A01E7B102D0E8A129
:1021A00005D0E681E791E891E091ED91E7B302D0A7
:1021B000E8A305D0E683E793E893E093ED93E7B5D2
:1021C00002D0E8A505D0E685E795E895E095ED9580
:1021D000E7B702D0E8A705D0E687E797E897E0974A
:1021E000ED97E7B902D0E8A905D0E689E799E89923
:1021F000E099ED99E7BB02D0E8AB05D0E68BE79B11
:10220000E89BE09BED9BE7BD02D0E8AD05D0E68DF5
:10221000E79DE89DE09DED9DE7BF02D0E8AF05D0CA
:10222000E68FE79FE89FE09FED9F30A201D03092BC
:102230001A8E898892988986929608D00001948097
:1022400082A003D01AAE01D01A9E0A01000112002A
:10225000948282B202D030A002D01AA606D0320EEA
:102260000B01576F0001BEEC03F0948282B202D0E2
:1022700030A002D01AA6A4D01A96000E0A01DFB12F
:10228000010E0B01586F000E0A01E1B1010E0B01A6
:10229000581907E10A01E7A102D00B0102D0E08141
:1022A0000B01000E0A01DFB3010E0B01586F000E87
:1022B0000A01E1B3010E0B01581907E10A01E7A376
:1022C00002D00B0102D0E0830B01000E0A01DFB542
:1022D000010E0B01586F000E0A01E1B5010E0B0152
:1022E000581907E10A01E7A502D00B0102D0E085E9
:1022F0000B01000E0A01DFB7010E0B01586F000E33
:102300000A01E1B7010E0B01581907E10A01E7A71D
:1023100002D00B0102D0E0870B01000E0A01DFB9E9
:10232000010E0B01586F000E0A01E1B9010E0B01FD
:10233000581907E10A01E7A902D00B0102D0E08990
:102340000B01000E0A01DFBB010E0B01586F000EDE
:102350000A01E1BB010E0B01581907E10A01E7ABC5
:1023600002D00B0102D0E08B0B01000E0A01DFBD91
:10237000010E0B01586F000E0A01E1BD010E0B01A9
:10238000581907E10A01E7AD02D00B0102D0E08D38
:102390000B01000E0A01DFBF010E0B01586F000E8A
:1023A0000A01E1BF010E0B01581907E10A01E7AF6D
:1023B00002D00B0102D0E08F0B01308008D0000169
:1023C000948282A203D030A001D030900B01000192
:1023D00012000400010E7A5D0B01576F010E596F58
:1023E0007A0E586F57CB5AFB0001BCDD010E7A5DA7
:1023F0007A0FE96E010EEA6ED8B0EA2AEF500501B5
:102400007B5DD8A446EF22F07A0E00017A25E96EB2
:10241000010EEA6ED8B0EA2AEF5005017A5DD8A421
:1024200046EF22F001017A51AA08D8A45ED17B516F
:102430002008D8A45AD179C07BF0200E00017C6F0F
:102440001C0E7D6F3AC07EF03BC07FF03CC080F038
:102450003DC081F03EC082F03FC083F040C084F0B8
:1024600041C085F042C086F043C087F044C088F088
:1024700045C089F046C08AF047C08BF048C08CF058
:10248000F2CF57FBF29EAA6A100EA96EA69CA69EDA
:10249000A680A8500B0157BFF28E00018D6FF2CFBE
:1024A00057FBF29EAA6A110EA96EA69CA69EA68054
:1024B000A8500B0157BFF28E00018E6FF2CF57FB71
:1024C000F29EAA6A120EA96EA69CA69EA680A8508D
:1024D0000B0157BFF28E00018F6FF2CF57FBF29EB8
:1024E000AA6A130EA96EA69CA69EA680A8500B01F0
:1024F00057BFF28E0001906FF2CF57FBF29EAA6A8F
:10250000140EA96EA69CA69EA680A8500B0157BFCC
:10251000F28E0001916FF2CF57FBF29EAA6A150E60
:10252000A96EA69CA69EA680A8500B0157BFF28E4E
:102530000001926FF2CF57FBF29EAA6A160EA96EA7
:10254000A69CA69EA680A8500B0157BFF28E000144
:10255000936FF2CF57FBF29EAA6A170EA96EA69C44
:10256000A69EA680A8500B0157BFF28E0001946F63
:102570006AC095F06BC096F06CC097F06DC098F093
:102580001C0E996F79C09AF01ECB9BF020CB9CF06B
:1025900022CB9DF024CB9EF026CB9FF028CBA0F041
:1025A0002ACBA1F02CCBA2F02ECBA3F030CBA4F001
:1025B00032CBA5F034CBA6F036CBA7F038CBA8F0C1
:1025C0003ACBA9F03CCBAAF03ECBABF040CBACF081
:1025D00042CBADF044CBAEF00B01596B7B0E586F84
:1025E000340E5A6F0001BEDC7BC5AFF07AC5B0F087
:1025F0008A8693960A0E0B01576F0001BEEC03F01A
:102600007B51DBDC7C51D9DC7D51D7DC7E51D5DCC4
:102610007F51D3DC8051D1DC8151CFDC8251CDDCC4
:102620008351CBDC8451C9DC8551C7DC8651C5DCC4
:102630008751C3DC8851C1DC8951BFDC8A51BDDCC4
:102640008B51BBDC8C51B9DC8D51B7DC8E51B5DCC4
:102650008F51B3DC9051B1DC9151AFDC9251ADDCC4
:102660009351ABDC9451A9DC9551A7DC9651A5DCC4
:102670009751A3DC9851A1DC99519FDC9A519DDCC4
:102680009B519BDC9C5199DC9D5197DC9E5195DCC4
:102690009F5193DCA05191DCA1518FDCA2518DDCC4
:1026A000A3518BDCA45189DCA55187DCA65185DCC4
:1026B000A75183DCA85181DCA9517FDCAA517DDCC4
:1026C000AB517BDCAC5179DCAD5177DCAE5175DCC4
:1026D000AF5173DCB05171DC030E0B01576F000179
:1026E000BEEC03F08A969396010100017951010135
:1026F0007A5DD8A441EF22F07B2D12D205017F6BC9
:102700007CC17EF57EC57FF50B01576B57510101EA
:102710007D1105017E6F0501816B7EC180F580C54D
:1027200081F50B01576B575101017F110501806F36
:1027300005017F53D8A4BBD17E510F08D8A0B7D1D3
:1027400080517E250B01576F050181517F210B01BF
:10275000586F5853D8B402D00501A9D15751100869
:10276000D8B002D00501A3D10501815306E1805103
:10277000080803E3010E826F12D0815306E18051F5
:10278000100803E3020E826F0AD0815306E18051E4
:10279000180803E3030E826F02D0010E826F822DB0
:1027A000A2D07F530DE17E5108080AE349C083F5AA
:1027B0007E51016E04E0D8908333012EFCD71AD0ED
:1027C0007F5303E17E51080815E27F5313E17E51E8
:1027D0000F0810E3080E7E5D006E000E7F59036E39
:1027E00000C001F04AC083F5015204E0D890833361
:1027F000012EFCD78051080803E1815301E135D057
:102800008051070804E1815302E1839F2ED080515B
:10281000060805E1815303E13F0E831726D080515E
:10282000050805E1815303E11F0E83171ED0805177
:10283000040805E1815303E10F0E831716D0805180
:10284000030805E1815303E1070E83170ED0805181
:10285000020805E1815303E1030E831706D0802DA2
:1028600004D0815302E1010E831779C07BF0010E81
:1028700000017C6F82C57DF083C57EF00B01596B32
:102880007B0E586F040E5A6F0001B2EC0FF07BC53F
:102890007FF07AC580F08A8693960400040E0B01BF
:1028A000576F0001BEEC03F004007B51DDEC0FF02C
:1028B0007C51DDEC0FF07D51DDEC0FF07E51DDEC55
:1028C0000FF07F51DDEC0FF08051DDEC0FF00400D4
:1028D000030E0B01576F0001BEEC03F004008A9653
:1028E0009396E3D0050182510208D8A4DFD049C0F5
:1028F00083F57E51016E04E0D8908333012EFCD71E
:102900004AC084F5070E805D0B01576F000E05016C
:1029100081590B01586F5751080803E1585301E1E1
:1029200083D0070E0501805D0B01576F000E050176
:1029300081590B01586F5751070805E1585303E1BE
:102940000501849F70D0070E0501805D0B01576F54
:10295000000E050181590B01586F5751060806E119
:10296000585304E13F0E050184175DD0070E0501A1
:10297000805D0B01576F000E050181590B01586FE7
:102980005751050806E1585304E11F0E050184174D
:102990004AD0070E0501805D0B01576F000E05013F
:1029A00081590B01586F5751040806E1585304E14F
:1029B0000F0E0501841737D0070E0501805D0B014E
:1029C000576F000E050181590B01586F57510308CD
:1029D00006E1585304E1070E0501841724D0070EC1
:1029E0000501805D0B01576F000E050181590B0138
:1029F000586F5751020806E1585304E1030E0501D0
:102A0000841711D0070E0501805D0B01576F000E72
:102A1000050181590B01586F572D06D0585304E119
:102A2000010E050184170B0179C07BF0010E000136
:102A30007C6F82C57DF083C57EF084C57FF00B017D
:102A4000596B7B0E586F050E5A6F0001B2EC0FF0F8
:102A50007BC580F07AC581F08A8693960400040EC7
:102A60000B01576F0001BEEC03F004007B51DDEC5D
:102A70000FF07C51DDEC0FF07D51DDEC0FF07E515D
:102A8000DDEC0FF07F51DDEC0FF08051DDEC0FF04D
:102A90008151DDEC0FF00400030E0B01576F0001B4
:102AA000BEEC03F004008A969396050138D079C0F5
:102AB0007BF0810E00017C6F020E7D6F0B01596B64
:102AC0007B0E586F030E5A6F0001B2EC0FF07BC5FE
:102AD0007EF07AC57FF08A8693960400040E0B017F
:102AE000576F0001BEEC03F004007B51DDEC0FF0EA
:102AF0007C51DDEC0FF07D51DDEC0FF07E51DDEC13
:102B00000FF07F51DDEC0FF00400030E0B01576F47
:102B10000001BEEC03F004008A96939605010101C2
:102B20007B510708D8A4B1D00001E1EF0FF09D92CE
:102B30001EC083F51FC084F520C085F521C086F531
:102B400022C087F523C088F524C089F525C08AF501
:102B500026C08BF527C08CF528C08DF529C08EF5D1
:102B60002AC08FF52BC090F52CC091F52DC092F5A1
:102B700079C07BF0070E7C6F100E0501826F82C555
:102B80007DF083C57EF084C57FF085C580F086C565
:102B900081F087C582F088C583F089C584F08AC535
:102BA00085F08BC586F08CC587F08DC588F08EC505
:102BB00089F08FC58AF090C58BF091C58CF092C5D5
:102BC0008DF00B01596B7B0E586F130E5A6F00017D
:102BD000B2EC0FF07BC58EF07AC58FF08A869396A3
:102BE0000400040E0B01576F0001BEEC03F004005B
:102BF0007B51DDEC0FF07C51DDEC0FF07D51DDEC15
:102C00000FF07E51DDEC0FF07F51DDEC0FF08051C5
:102C1000DDEC0FF08151DDEC0FF08251DDEC0FF0B7
:102C20008351DDEC0FF08451DDEC0FF08551DDECCC
:102C30000FF08651DDEC0FF08751DDEC0FF088517D
:102C4000DDEC0FF08951DDEC0FF08A51DDEC0FF077
:102C50008B51DDEC0FF08C51DDEC0FF08D51DDEC84
:102C60000FF08E51DDEC0FF08F51DDEC0FF0040012
:102C7000030E0B01576F0001BEEC03F004008A96AF
:102C800093969D82F6EF21F001017B510508D8A4AF
:102C900076D205017F6B7CC17EF57EC57FF50B0189
:102CA000576B575101017D1105017E6F0501816B45
:102CB0007EC180F580C581F50B01576B575101012D
:102CC0007F110501806F05017E534FE17F534DE178
:102CD00080534AE1813D48D01A8479C07BF0050ECB
:102CE00000017C6F7CC17DF07DC17EF07EC17FF0F4
:102CF0007FC180F00B01596B7B0E586F060E5A6F27
:102D00000001B2EC0FF07BC581F07AC582F08A86B3
:102D100093960400040E0B01576F0001BEEC03F004
:102D200004007B51DDEC0FF07C51DDEC0FF07D51A8
:102D3000DDEC0FF07E51DDEC0FF07F51DDEC0FF09C
:102D40008051DDEC0FF08151DDEC0FF08251DDECB4
:102D50000FF00400030E0B01576F0001BEEC03F0EF
:102D600004008A969396050107D27E2D4FD07F539B
:102D70004DE180534AE1813D48D01A8679C07BF00D
:102D8000050E00017C6F7CC17DF07DC17EF07EC1AF
:102D90007FF07FC180F00B01596B7B0E586F060EE0
:102DA0005A6F0001B2EC0FF07BC581F07AC582F05A
:102DB0008A8693960400040E0B01576F0001BEEC47
:102DC00003F004007B51DDEC0FF07C51DDEC0FF0E3
:102DD0007D51DDEC0FF07E51DDEC0FF07F51DDEC2D
:102DE0000FF08051DDEC0FF08151DDEC0FF08251DE
:102DF000DDEC0FF00400030E0B01576F0001BEEC79
:102E000003F004008A9693960501B6D17E5102081C
:102E1000D8A4A5D07F53D8A4A2D080534BE1813D44
:102E200049D01A8879C07BF0050E00017C6F7CC107
:102E30007DF07DC17EF07EC17FF07FC180F00B010F
:102E4000596B7B0E586F060E5A6F0001B2EC0FF0F3
:102E50007BC581F07AC582F08A8693960400040EC1
:102E60000B01576F0001BEEC03F004007B51DDEC59
:102E70000FF07C51DDEC0FF07D51DDEC0FF07E5159
:102E8000DDEC0FF07F51DDEC0FF08051DDEC0FF049
:102E90008151DDEC0FF08251DDEC0FF00400030EE8
:102EA0000B01576F0001BEEC03F004008A96939665
:102EB00054D00501805352E1815350E11A9800012A
:102EC000FAEC0AF01A84B6EC10F01A8628EC11F02D
:102ED00079C07BF0050E7C6F7CC17DF07DC17EF0FA
:102EE0007EC17FF07FC180F00B01596B7B0E586F64
:102EF000060E5A6F0001B2EC0FF07BC581F07AC567
:102F000082F08A8693960400040E0B01576F00012D
:102F1000BEEC03F004007B51DDEC0FF07C51DDECE6
:102F20000FF07D51DDEC0FF07E51DDEC0FF07F51A5
:102F3000DDEC0FF08051DDEC0FF08151DDEC0FF096
:102F40008251DDEC0FF00400030E0B01576F0001FE
:102F5000BEEC03F004008A96939605010DD17E51D4
:102F60000308D8A4A5D07F53D8A4A2D080534BE1A6
:102F7000813D49D01A8A79C07BF0050E00017C6F33
:102F80007CC17DF07DC17EF07EC17FF07FC180F08D
:102F90000B01596B7B0E586F060E5A6F0001B2EC95
:102FA0000FF07BC581F07AC582F08A869396040083
:102FB000040E0B01576F0001BEEC03F004007B51BF
:102FC000DDEC0FF07C51DDEC0FF07D51DDEC0FF00E
:102FD0007E51DDEC0FF07F51DDEC0FF08051DDEC28
:102FE0000FF08151DDEC0FF08251DDEC0FF00400A9
:102FF0000A0E0B01576F0001BEEC03F004008A9625
:10300000939654D00501805352E1815350E11A9AAE
:103010000001FAEC0AF01A84B6EC10F01A8628ECDB
:1030200011F079C07BF0050E7C6F7CC17DF07DC115
:103030007EF07EC17FF07FC180F00B01596B7B0E6B
:10304000586F060E5A6F0001B2EC0FF07BC581F08D
:103050007AC582F08A8693960400040E0B01576F9E
:103060000001BEEC03F004007B51DDEC0FF07C515D
:10307000DDEC0FF07D51DDEC0FF07E51DDEC0FF05B
:103080007F51DDEC0FF08051DDEC0FF08151DDEC74
:103090000FF08251DDEC0FF00400030E0B01576FAF
:1030A0000001BEEC03F004008A969396050164D0FB
:1030B0007E51640861E17F535FE180C579F0F25091
:1030C000006EF29EAA6A1D0EA96E79C0A8FFA69C8A
:1030D000A69EA6840F01550EA76EAA0EA76EA68205
:1030E000A6B2FED7A6940050F21279C07BF0050E6E
:1030F00000017C6F7CC17DF07DC17EF07EC17FF0E0
:103100007FC180F00B01596B7B0E586F060E5A6F12
:103110000001B2EC0FF07BC581F07AC582F08A869F
:1031200093960400040E0B01576F0001BEEC03F0F0
:1031300004007B51DDEC0FF07C51DDEC0FF07D5194
:10314000DDEC0FF07E51DDEC0FF07F51DDEC0FF088
:103150008051DDEC0FF08151DDEC0FF08251DDECA0
:103160000FF00400030E0B01576F0001BEEC03F0DB
:1031700004008A9693960501F7EF21F001017B5137
:103180002108D8A476EF1DF0F250006EF29EAA6AD4
:10319000A96A0F0EA86EA69CA69EA6840F01550EC6
:1031A000A76EAA0EA76EA682A6B2FED7A69400505E
:1031B000F212F2CF00F0F29EAA6A010EA96E7DC152
:1031C000A8FFA69CA69EA684550EA76EAA0EA76E63
:1031D000A682A6B2FED7A6940050F212F2CF00F05B
:1031E000F29EAA6A020EA96E7EC1A8FFA69CA69EA8
:1031F000A684550EA76EAA0EA76EA682A6B2FED70B
:10320000A6940050F212F2CF00F0F29EAA6A030ECA
:10321000A96E7FC1A8FFA69CA69EA684550EA76E88
:10322000AA0EA76EA682A6B2FED7A6940050F212EE
:10323000F2CF00F0F29EAA6A040EA96E80C1A8FF28
:10324000A69CA69EA684550EA76EAA0EA76EA68261
:10325000A6B2FED7A6940050F212F2CF00F0F29E72
:10326000AA6A050EA96E81C1A8FFA69CA69EA68487
:10327000550EA76EAA0EA76EA682A6B2FED7A6947A
:103280000050F212F2CF00F0F29EAA6A060EA96E6A
:1032900082C1A8FFA69CA69EA684550EA76EAA0E64
:1032A000A76EA682A6B2FED7A6940050F212F2CF65
:1032B00000F0F29EAA6A070EA96E83C1A8FFA69C21
:1032C000A69EA684550EA76EAA0EA76EA682A6B2CB
:1032D000FED7A6940050F212F2CF00F0F29EAA6A36
:1032E000080EA96E84C1A8FFA69CA69EA684550EB2
:1032F000A76EAA0EA76EA682A6B2FED7A69400500D
:10330000F212F2CF00F0F29EAA6A090EA96E85C1F0
:10331000A8FFA69CA69EA684550EA76EAA0EA76E11
:10332000A682A6B2FED7A6940050F212F2CF00F009
:10333000F29EAA6A0A0EA96E86C1A8FFA69CA69E46
:10334000A684550EA76EAA0EA76EA682A6B2FED7B9
:10335000A6940050F212F2CF00F0F29EAA6A0B0E71
:10336000A96E87C1A8FFA69CA69EA684550EA76E2F
:10337000AA0EA76EA682A6B2FED7A6940050F2129D
:10338000F2CF00F0F29EAA6A0C0EA96E88C1A8FFC7
:10339000A69CA69EA684550EA76EAA0EA76EA68210
:1033A000A6B2FED7A6940050F212F2CF00F0F29E21
:1033B000AA6A0D0EA96E89C1A8FFA69CA69EA68426
:1033C000550EA76EAA0EA76EA682A6B2FED7A69429
:1033D0000050F212F2CF00F0F29EAA6A0E0EA96E11
:1033E0008AC1A8FFA69CA69EA684550EA76EAA0E0B
:1033F000A76EA682A6B2FED7A6940050F212F2CF14
:1034000000F0F29EAA6A0F0EA96E8BC1A8FFA69CBF
:10341000A69EA684550EA76EAA0EA76EA682A6B279
:10342000FED7A6940050F212F2CF00F0F29EAA6AE4
:10343000100EA96E8CC1A8FFA69CA69EA684550E50
:10344000A76EAA0EA76EA682A6B2FED7A6940050BB
:10345000F212F2CF00F0F29EAA6A110EA96E8DC18F
:10346000A8FFA69CA69EA684550EA76EAA0EA76EC0
:10347000A682A6B2FED7A6940050F212F2CF00F0B8
:10348000F29EAA6A120EA96E8EC1A8FFA69CA69EE5
:10349000A684550EA76EAA0EA76EA682A6B2FED768
:1034A000A6940050F212F2CF00F0F29EAA6A130E18
:1034B000A96E8FC1A8FFA69CA69EA684550EA76ED6
:1034C000AA0EA76EA682A6B2FED7A6940050F2124C
:1034D000F2CF00F0F29EAA6A140EA96E90C1A8FF66
:1034E000A69CA69EA684550EA76EAA0EA76EA682BF
:1034F000A6B2FED7A6940050F212F2CF00F0F29ED0
:10350000AA6A150EA96E91C1A8FFA69CA69EA684C4
:10351000550EA76EAA0EA76EA682A6B2FED7A694D7
:103520000050F212F2CF00F0F29EAA6A160EA96EB7
:1035300092C1A8FFA69CA69EA684550EA76EAA0EB1
:10354000A76EA682A6B2FED7A6940050F212F2CFC2
:1035500000F0F29EAA6A170EA96E93C1A8FFA69C5E
:10356000A69EA684550EA76EAA0EA76EA682A6B228
:10357000FED7A6940050F212F2CF00F0F29EAA6A93
:10358000180EA96E94C1A8FFA69CA69EA684550EEF
:10359000A76EAA0EA76EA682A6B2FED7A69400506A
:1035A000F212F2CF00F0F29EAA6A190EA96E95C12E
:1035B000A8FFA69CA69EA684550EA76EAA0EA76E6F
:1035C000A682A6B2FED7A6940050F212F2CF00F067
:1035D000F29EAA6A1A0EA96E96C1A8FFA69CA69E84
:1035E000A684550EA76EAA0EA76EA682A6B2FED717
:1035F000A6940050F212F2CF00F0F29EAA6A1B0EBF
:10360000A96E97C1A8FFA69CA69EA684550EA76E7C
:10361000AA0EA76EA682A6B2FED7A6940050F212FA
:10362000F2CF00F0F29EAA6A1C0EA96E98C1A8FF04
:10363000A69CA69EA684550EA76EAA0EA76EA6826D
:10364000A6B2FED7A6940050F212F2CF00F0F29E7E
:10365000AA6A1D0EA96E99C1A8FFA69CA69EA68463
:10366000550EA76EAA0EA76EA682A6B2FED7A69486
:103670000050F212F2CF00F0F29EAA6A1E0EA96E5E
:103680009AC1A8FFA69CA69EA684550EA76EAA0E58
:10369000A76EA682A6B2FED7A6940050F212F2CF71
:1036A00000F0F29EAA6A1F0EA96E9BC1A8FFA69CFD
:1036B000A69EA684550EA76EAA0EA76EA682A6B2D7
:1036C000FED7A6940050F212F2CF00F0F29EAA6A42
:1036D000200EA96E9CC1A8FFA69CA69EA684550E8E
:1036E000A76EAA0EA76EA682A6B2FED7A694005019
:1036F000F212F2CF00F0F29EAA6A210EA96E9DC1CD
:10370000A8FFA69CA69EA684550EA76EAA0EA76E1D
:10371000A682A6B2FED7A6940050F212F2CF00F015
:10372000F29EAA6A220EA96E9EC1A8FFA69CA69E22
:10373000A684550EA76EAA0EA76EA682A6B2FED7C5
:10374000A6940050F212F2CF00F0F29EAA6A230E65
:10375000A96E9FC1A8FFA69CA69EA684550EA76E23
:10376000AA0EA76EA682A6B2FED7A6940050F212A9
:10377000F2CF00F0F29EAA6A240EA96EA0C1A8FFA3
:10378000A69CA69EA684550EA76EAA0EA76EA6821C
:10379000A6B2FED7A6940050F212F2CF00F0F29E2D
:1037A000AA6A250EA96EA1C1A8FFA69CA69EA68402
:1037B000550EA76EAA0EA76EA682A6B2FED7A69435
:1037C0000050F212F2CF00F0F29EAA6A260EA96E05
:1037D000A2C1A8FFA69CA69EA684550EA76EAA0EFF
:1037E000A76EA682A6B2FED7A6940050F212F2CF20
:1037F00000F0F29EAA6A270EA96EA3C1A8FFA69C9C
:10380000A69EA684550EA76EAA0EA76EA682A6B285
:10381000FED7A6940050F212F2CF00F0F29EAA6AF0
:10382000280EA96EA4C1A8FFA69CA69EA684550E2C
:10383000A76EAA0EA76EA682A6B2FED7A6940050C7
:10384000F212F2CF00F0F29EAA6A290EA96EA5C16B
:10385000A8FFA69CA69EA684550EA76EAA0EA76ECC
:10386000A682A6B2FED7A6940050F212F2CF00F0C4
:10387000F29EAA6A2A0EA96EA6C1A8FFA69CA69EC1
:10388000A684550EA76EAA0EA76EA682A6B2FED774
:10389000A6940050F212F2CF00F0F29EAA6A2B0E0C
:1038A000A96EA7C1A8FFA69CA69EA684550EA76ECA
:1038B000AA0EA76EA682A6B2FED7A6940050F21258
:1038C000F2CF00F0F29EAA6A2C0EA96EA8C1A8FF42
:1038D000A69CA69EA684550EA76EAA0EA76EA682CB
:1038E000A6B2FED7A6940050F212F2CF00F0F29EDC
:1038F000AA6A2D0EA96EA9C1A8FFA69CA69EA684A1
:10390000550EA76EAA0EA76EA682A6B2FED7A694E3
:103910000050F212F2CF00F0F29EAA6A2E0EA96EAB
:10392000AAC1A8FFA69CA69EA684550EA76EAA0EA5
:10393000A76EA682A6B2FED7A6940050F212F2CFCE
:1039400000F0F29EAA6A2F0EA96EABC1A8FFA69C3A
:10395000A69EA684550EA76EAA0EA76EA682A6B234
:10396000FED7A6940050F212F2CF00F0F29EAA6A9F
:10397000300EA96EACC1A8FFA69CA69EA684550ECB
:10398000A76EAA0EA76EA682A6B2FED7A694005076
:10399000F212F2CF00F0F29EAA6A310EA96EADC10A
:1039A000A8FFA69CA69EA684550EA76EAA0EA76E7B
:1039B000A682A6B2FED7A6940050F2120B014F6B5E
:1039C0004E6B0400AE0E4E25E96E010E4F21EA6EDD
:1039D000EFCF50FB50510D0805E04F5303E14E511E
:1039E0000F0827E2880E4E25E96E090E4F21EA6E78
:1039F000EF6A320E4E25576F000E4F21586FF2506E
:103A0000006EF29E58CBAAFF57CBA9FF50CBA8FF60
:103A1000A69CA69EA6840F01550EA76EAA0EA76EA1
:103A2000A682A6B2FED7A6940050F2122DD026D0C0
:103A30000B01880E4E25E96E090E4F21EA6E50CB20
:103A4000EFFF320E4E25576F000E4F21586FF25088
:103A5000006EF29E58CBAAFF57CBA9FF50CBA8FF10
:103A6000A69CA69EA6840F01550EA76EAA0EA76E51
:103A7000A682A6B2FED7A6940050F2120B014E2BDE
:103A8000D8B44F2B9ED70F0179C07BF0210E0001D7
:103A90007C6F0B01596B7B0E586F020E5A6F000141
:103AA000B2EC0FF07BC57DF07AC57EF08A869396E6
:103AB0000A0E0B01576F0001BEEC03F07B51DDECE9
:103AC0000FF07C51DDEC0FF07D51DDEC0FF07E51FD
:103AD000DDEC0FF0030E0B01576F0001BEEC03F09D
:103AE0008A969396FF00F6EF21F001017B512208A0
:103AF000D8A4F6EF21F00B01526B040E516F546BFA
:103B0000536B566B556B04007A0E5125E96E010E0E
:103B10005221EA6EEF500D0805E0545303E1535172
:103B2000290828E25D0E5125576F000E5221586F6B
:103B30007A0E5125E96E010E5221EA6EEFCF59FB44
:103B4000F250006EF29E58CBAAFF57CBA9FF59CB7B
:103B5000A8FFA69CA69EA6840F01550EA76EAA0ECE
:103B6000A76EA682A6B2FED7A6940050F21247D046
:103B70003AD00B01970E5325016E090E5421036EA6
:103B80007A0E5125E96E010E5221EA6EEFCF59FBF4
:103B900003C0EAFF01C0E9FF59CBEFFF5D0E5125DD
:103BA000576F000E5221586F7A0E5125E96E010EA3
:103BB0005221EA6EEFCF59FBF250006EF29E58CBC5
:103BC000AAFF57CBA9FF59CBA8FFA69CA69EA68407
:103BD0000F01550EA76EAA0EA76EA682A6B2FED73B
:103BE000A6940050F2120B0152CB03F05151512B0D
:103BF000D8B4522B532BD8B4542B85D70F01970E22
:103C00000B015325E96E090E5421EA6EEF6A546BDD
:103C1000536B512BD8B4522B04007A0E5125E96E08
:103C2000010E5221EA6EEF500D0805E0545303E1F6
:103C30005351290828E25D0E5125576F000E52217D
:103C4000586F7A0E5125E96E010E5221EA6EEFCFC0
:103C500059FBF250006EF29E58CBAAFF57CBA9FF3A
:103C600059CBA8FFA69CA69EA6840F01550EA76E51
:103C7000AA0EA76EA682A6B2FED7A6940050F21294
:103C800047D03AD00B01C00E5325016E090E5421C6
:103C9000036E7A0E5125E96E010E5221EA6EEFCFC6
:103CA00059FB03C0EAFF01C0E9FF59CBEFFF5D0EEE
:103CB0005125576F000E5221586F7A0E5125E96E2B
:103CC000010E5221EA6EEFCF59FBF250006EF29EC8
:103CD00058CBAAFF57CBA9FF59CBA8FFA69CA69EFD
:103CE000A6840F01550EA76EAA0EA76EA682A6B2D5
:103CF000FED7A6940050F2120B0152CB03F05151A3
:103D0000512BD8B4522B532BD8B4542B85D70F0139
:103D1000C00E0B015325E96E090E5421EA6EEF6ABD
:103D2000546B536B512BD8B4522B04007A0E51258F
:103D3000E96E010E5221EA6EEF500D0805E0545372
:103D400003E15351290828E25D0E5125576F000EFB
:103D50005221586F7A0E5125E96E010E5221EA6EFA
:103D6000EFCF59FBF250006EF29E58CBAAFF57CB13
:103D7000A9FF59CBA8FFA69CA69EA6840F01550EAD
:103D8000A76EAA0EA76EA682A6B2FED7A694005072
:103D9000F21247D03AD00B01E90E5325016E090EFD
:103DA0005421036E7A0E5125E96E010E5221EA6EFE
:103DB000EFCF59FB03C0EAFF01C0E9FF59CBEFFF8A
:103DC0005D0E5125576F000E5221586F7A0E512506
:103DD000E96E010E5221EA6EEFCF59FBF250006EF0
:103DE000F29E58CBAAFF57CBA9FF59CBA8FFA69CA0
:103DF000A69EA6840F01550EA76EAA0EA76EA682D8
:103E0000A6B2FED7A6940050F2120B0152CB03F0DB
:103E10005151512BD8B4522B532BD8B4542B85D796
:103E20000F01E90E0B015325E96E090E5421EA6ECC
:103E3000EF6A546B536B512BD8B4522B04007A0E9B
:103E40005125E96E010E5221EA6EEF500D0805E092
:103E5000545303E15351290828E25D0E5125576F51
:103E6000000E5221586F7A0E5125E96E010E522133
:103E7000EA6EEFCF59FBF250006EF29E58CBAAFFCC
:103E800057CBA9FF59CBA8FFA69CA69EA6840F01DD
:103E9000550EA76EAA0EA76EA682A6B2FED7A6944E
:103EA0000050F21247D03AD00B01120E5325016E8A
:103EB0000A0E5421036E7A0E5125E96E010E52212D
:103EC000EA6EEFCF59FB03C0EAFF01C0E9FF59CB0F
:103ED000EFFF5D0E5125576F000E5221586F7A0E7D
:103EE0005125E96E010E5221EA6EEFCF59FBF250D7
:103EF000006EF29E58CBAAFF57CBA9FF59CBA8FF63
:103F0000A69CA69EA6840F01550EA76EAA0EA76EAC
:103F1000A682A6B2FED7A6940050F2120B0152CB95
:103F200003F05151512BD8B4522B532BD8B4542BEE
:103F300085D70F01120E0B015325E96E0A0E54218D
:103F4000EA6EEF6A546B536B512BD8B4522B0400BA
:103F50007A0E5125E96E010E5221EA6EEF500D08DE
:103F600005E0545303E15351290828E25D0E512521
:103F7000576F000E5221586F7A0E5125E96E010ECF
:103F80005221EA6EEFCF59FBF250006EF29E58CBF1
:103F9000AAFF57CBA9FF59CBA8FFA69CA69EA68433
:103FA0000F01550EA76EAA0EA76EA682A6B2FED767
:103FB000A6940050F21247D03AD00B013B0E532585
:103FC000016E0A0E5421036E7A0E5125E96E010E20
:103FD0005221EA6EEFCF59FB03C0EAFF01C0E9FFAF
:103FE00059CBEFFF5D0E5125576F000E5221586FD0
:103FF0007A0E5125E96E010E5221EA6EEFCF59FB80
:10400000F250006EF29E58CBAAFF57CBA9FF59CBB6
:10401000A8FFA69CA69EA6840F01550EA76EAA0E09
:10402000A76EA682A6B2FED7A6940050F2120B018C
:1040300052CB03F05151512BD8B4522B532BD8B43F
:10404000542B85D70F013B0E0B015325E96E0A0E49
:104050005421EA6EEF6A546B536B512BD8B4522B38
:1040600004007A0E5125E96E010E5221EA6EEF50DE
:104070000D0805E0545303E15351290828E25D0E71
:104080005125576F000E5221586F7A0E5125E96E57
:10409000010E5221EA6EEFCF59FBF250006EF29EF4
:1040A00058CBAAFF57CBA9FF59CBA8FFA69CA69E29
:1040B000A6840F01550EA76EAA0EA76EA682A6B201
:1040C000FED7A6940050F21249D03CD00B015D0EF1
:1040D0005125576F000E5221586F7A0E5125E96E07
:1040E000010E5221EA6EEFCF59FBF250006EF29EA4
:1040F00058CBAAFF57CBA9FF59CBA8FFA69CA69ED9
:10410000A6840F01550EA76EAA0EA76EA682A6B2B0
:10411000FED7A6940050F212640E0B015325016ED7
:104120000A0E5421036E7A0E5125E96E010E5221BA
:10413000EA6EEFCF59FB03C0EAFF01C0E9FF59CB9C
:10414000EFFF0F010B0152CB03F05151512BD8B4AB
:10415000522B532BD8B4542B83D70F01640E0B0171
:104160005325E96E0A0E5421EA6EEF6A546B536BC5
:10417000512BD8B4522B04007A0E5125E96E010E52
:104180005221EA6EEF500D0805E0545303E15351FC
:10419000290828E25D0E5125576F000E5221586FF5
:1041A0007A0E5125E96E010E5221EA6EEFCF59FBCE
:1041B000F250006EF29E58CBAAFF57CBA9FF59CB05
:1041C000A8FFA69CA69EA6840F01550EA76EAA0E58
:1041D000A76EA682A6B2FED7A6940050F21247D0D0
:1041E0003AD00B018D0E5325016E0A0E5421036E39
:1041F0007A0E5125E96E010E5221EA6EEFCF59FB7E
:1042000003C0EAFF01C0E9FF59CBEFFF5D0E512566
:10421000576F000E5221586F7A0E5125E96E010E2C
:104220005221EA6EEFCF59FBF250006EF29E58CB4E
:10423000AAFF57CBA9FF59CBA8FFA69CA69EA68490
:104240000F01550EA76EAA0EA76EA682A6B2FED7C4
:10425000A6940050F2120B0152CB03F05151512B96
:10426000D8B4522B532BD8B4542B85D70F018D0EB5
:104270000B015325E96E0A0E5421EA6EEF6A546B66
:10428000536B512BD8B4522B04007A0E5125E96E92
:10429000010E5221EA6EEF500D0805E0545303E180
:1042A0005351290828E25D0E5125576F000E522107
:1042B000586F7A0E5125E96E010E5221EA6EEFCF4A
:1042C00059FBF250006EF29E58CBAAFF57CBA9FFC4
:1042D00059CBA8FFA69CA69EA6840F01550EA76EDB
:1042E000AA0EA76EA682A6B2FED7A6940050F2121E
:1042F00047D03AD00B01B60E5325016E0A0E542159
:10430000036E7A0E5125E96E010E5221EA6EEFCF4F
:1043100059FB03C0EAFF01C0E9FF59CBEFFF5D0E77
:104320005125576F000E5221586F7A0E5125E96EB4
:10433000010E5221EA6EEFCF59FBF250006EF29E51
:1043400058CBAAFF57CBA9FF59CBA8FFA69CA69E86
:10435000A6840F01550EA76EAA0EA76EA682A6B25E
:10436000FED7A6940050F2120B0152CB03F051512C
:10437000512BD8B4522B532BD8B4542B85D70F01C3
:10438000B60E0B015325E96E0A0E5421EA6EEF6A50
:1043900079C07BF0210E00017C6F0B01596B7B0E05
:1043A000586F020E5A6F0001B2EC0FF07BC57DF022
:1043B0007AC57EF08A8693960A0E0B01576F00012C
:1043C000BEEC03F07B51DDEC0FF07C51DDEC0FF027
:1043D0007D51DDEC0FF07E51DDEC0FF0030E0B0193
:1043E000576F0001BEEC03F08A9693960501010118
:1043F0007B51030846E10501836B49C084F579C010
:104400007BF0030E00017C6F020E7D6F83C57EF092
:1044100084C57FF00B01596B7B0E586F050E5A6FE8
:104420000001B2EC0FF07BC580F07AC581F08A867E
:1044300093960400040E0B01576F0001BEEC03F0CD
:1044400004007B51DDEC0FF07C51DDEC0FF07D5171
:10445000DDEC0FF07E51DDEC0FF07F51DDEC0FF065
:104460008051DDEC0FF08151DDEC0FF00400030E04
:104470000B01576F0001BEEC03F004008A9693967F
:104480000101010E05017D6FF40E7C6F309A6FC043
:1044900078F00901856B00017A6B8A96939668EF34
:1044A00035F00A01E781E783E785E787E789E78B4E
:1044B000E78DE78F0001C0EF32F0EF5210E0EACF56
:1044C00057FBE9CF56FBEFCF58FB7FEC0FF057CBF4
:1044D000EAFF56CBE9FFE92AD8B4EA2AEED7120060
:1044E0000B01562D3CD1000E0A01E7B1010E0B0164
:1044F000596F000E0A01E8B1010E0B015911586FF6
:10450000000E0A01E6A1010E0B015817000E0A0168
:10451000E3B1010E0B015B6F000E0A01E4B1010E65
:104520000B015B1158155791E8B05781000E57B138
:10453000010E586F000E0A01E7B3010E0B015A6F0E
:10454000000E0A01E8B3010E0B015A11596F000E5B
:104550000A01E6A3010E0B015917000E0A01E3B38D
:10456000010E0B015C6F000E0A01E4B3010E0B019A
:104570005C11591558115791E8B05781000E57B189
:10458000010E586F000E0A01E7B5010E0B015A6FBC
:10459000000E0A01E8B5010E0B015A11596F000E09
:1045A0000A01E6A5010E0B015917000E0A01E3B539
:1045B000010E0B015C6F000E0A01E4B5010E0B0148
:1045C0005C11591558115791E8B05781000E57B139
:1045D000010E586F000E0A01E7B7010E0B015A6F6A
:1045E000000E0A01E8B7010E0B015A11596F000EB7
:1045F0000A01E6A7010E0B015917000E0A01E3B7E5
:10460000010E0B015C6F000E0A01E4B7010E0B01F5
:104610005C11591558115791E8B05781000E57B1E8
:10462000010E586F000E0A01E7B9010E0B015A6F17
:10463000000E0A01E8B9010E0B015A11596F000E64
:104640000A01E6A9010E0B015917000E0A01E3B990
:10465000010E0B015C6F000E0A01E4B9010E0B01A3
:104660005C11591558115791E8B05781000E57B198
:10467000010E586F000E0A01E7BB010E0B015A6FC5
:10468000000E0A01E8BB010E0B015A11596F000E12
:104690000A01E6AB010E0B015917000E0A01E3BB3C
:1046A000010E0B015C6F000E0A01E4BB010E0B0151
:1046B0005C11591558115791E8B05781000E57B148
:1046C000010E586F000E0A01E7BD010E0B015A6F73
:1046D000000E0A01E8BD010E0B015A11596F000EC0
:1046E0000A01E6AD010E0B015917000E0A01E3BDE8
:1046F000010E0B015C6F000E0A01E4BD010E0B01FF
:104700005C11591558115791E8B05781000E57B1F7
:10471000010E586F000E0A01E7BF010E0B015A6F20
:10472000000E0A01E8BF010E0B015A11596F000E6D
:104730000A01E6AF010E0B015917000E0A01E3BF93
:10474000010E0B015C6F000E0A01E4BF010E0B01AC
:104750005C11591558115791E8B057813FD1565106
:104760000208D8A43BD1000E0A01E7B1010E0B01EB
:10477000596F000E0A01E8B1010E0B015911586F73
:10478000000E0A01E6A1010E0B015817000E0A01E6
:10479000E3A1010E0B015B6F000E0A01E4B1010EF3
:1047A0000B015B1158155791E8B05781000E57B1B6
:1047B000010E586F000E0A01E7B3010E0B015A6F8C
:1047C000000E0A01E8B3010E0B015A11596F000ED9
:1047D0000A01E6A3010E0B015917000E0A01E3A31B
:1047E000010E0B015C6F000E0A01E4B3010E0B0118
:1047F0005C11591558115791E8B05781000E57B107
:10480000010E586F000E0A01E7B5010E0B015A6F39
:10481000000E0A01E8B5010E0B015A11596F000E86
:104820000A01E6A5010E0B015917000E0A01E3A5C6
:10483000010E0B015C6F000E0A01E4B5010E0B01C5
:104840005C11591558115791E8B05781000E57B1B6
:10485000010E586F000E0A01E7B7010E0B015A6FE7
:10486000000E0A01E8B7010E0B015A11596F000E34
:104870000A01E6A7010E0B015917000E0A01E3A772
:10488000010E0B015C6F000E0A01E4B7010E0B0173
:104890005C11591558115791E8B05781000E57B166
:1048A000010E586F000E0A01E7B9010E0B015A6F95
:1048B000000E0A01E8B9010E0B015A11596F000EE2
:1048C0000A01E6A9010E0B015917000E0A01E3A91E
:1048D000010E0B015C6F000E0A01E4B9010E0B0121
:1048E0005C11591558115791E8B05781000E57B116
:1048F000010E586F000E0A01E7BB010E0B015A6F43
:10490000000E0A01E8BB010E0B015A11596F000E8F
:104910000A01E6AB010E0B015917000E0A01E3ABC9
:10492000010E0B015C6F000E0A01E4BB010E0B01CE
:104930005C11591558115791E8B05781000E57B1C5
:10494000010E586F000E0A01E7BD010E0B015A6FF0
:10495000000E0A01E8BD010E0B015A11596F000E3D
:104960000A01E6AD010E0B015917000E0A01E3AD75
:10497000010E0B015C6F000E0A01E4BD010E0B017C
:104980005C11591558115791E8B05781000E57B175
:10499000010E586F000E0A01E7BF010E0B015A6F9E
:1049A000000E0A01E8BF010E0B015A11596F000EEB
:1049B0000A01E6AF010E0B015917000E0A01E3AF21
:1049C000010E0B015C6F000E0A01E4BF010E0B012A
:1049D0005C11591558115791E8B05781000E57B125
:1049E000010E016E000112000A01E5A189D0000E3E
:1049F000DFB1010E0B01576F000E0A01E1B1010E8C
:104A00000B015719010803E10A01E2B103D00A01C1
:104A1000E7A172D0E6B16FD0E7B10CD000016A51C6
:104A20000F08D8B402D00A0105D0640E1C6E6BC00A
:104A30001DF00A01E7811AB202D0E09101D0E081B5
:104A40001AB80ED0E4B105D08998929889969296BA
:104A500007D0E3A103D08998929802D089969296C4
:104A6000EDB149D030B247D0E6B145D0E20EF66E96
:104A7000050EF76E0001A2EC0FF00A0E0B01586F45
:104A800000017FEC0FF00A0E0B01576F0001BEEC26
:104A900003F00A01ED81EC0EF66E050EF76E0001D3
:104AA000A2EC0FF0090EEA6E880EE96E06DD220E0A
:104AB0000B01586F00017FEC0FF00A0E0B01586FCD
:104AC00000017FEC0FF0320E0B01576F0001BEECBE
:104AD00003F0090EEA6E970EE96EEFDC0A0E0B0189
:104AE000586F00017FEC0FF01A0E0B01586F000198
:104AF0007FEC0FF00A0103D0E2A101D0E69160D073
:104B0000000EDFB1010E0B01576F000E0A01E1B17B
:104B1000010E0B01571901084FE10A01E091EDB1B7
:104B200049D030B247D0E6B145D0F60EF66E050E4C
:104B3000F76E0001A2EC0FF00A0E0B01586F000196
:104B40007FEC0FF00A0E0B01576F0001BEEC03F073
:104B50000A01ED81000EF66E060EF76E0001A2EC62
:104B60000FF0090EEA6E880EE96EA7DC220E0B012B
:104B7000586F00017FEC0FF00A0E0B01586F000117
:104B80007FEC0FF0320E0B01576F0001BEEC03F00B
:104B9000090EEA6E970EE96E90DC0A0E0B01586F53
:104BA00000017FEC0FF01A0E0B01586F00017FEC33
:104BB0000FF00A0105D00B010A01E081ED9130925E
:104BC000E5A389D0000EDFB3010E0B01576F000E75
:104BD0000A01E1B3010E0B015719010803E10A01B3
:104BE000E2B303D00A01E7A372D0E6B324D0E7B35F
:104BF0000CD000016A510F08D8B402D00A0105D0C8
:104C0000640E1C6E6BC01DF00A01E7831AB202D05D
:104C1000E09301D0E0831AB80ED0E4B305D08998B0
:104C200092988996929607D0E3A303D08998929898
:104C300002D089969296EDB349D030B247D0E6B310
:104C400045D00A0EF66E060EF76E0001A2EC0FF0CC
:104C50000A0E0B01586F00017FEC0FF00A0E0B01DA
:104C6000576F0001BEEC03F00A01ED83140EF66EDF
:104C7000060EF76E0001A2EC0FF0090EEA6E880E28
:104C8000E96E1BDC220E0B01586F00017FEC0FF068
:104C90000A0E0B01586F00017FEC0FF0320E0B0172
:104CA000576F0001BEEC03F0090EEA6EC00EE96E0C
:104CB00004DC0A0E0B01586F00017FEC0FF01A0E96
:104CC0000B01586F00017FEC0FF00A0103D0E2A343
:104CD00001D0E69362D0000EDFB3010E0B01576FD7
:104CE000000E0A01E1B3010E0B015719010851E151
:104CF0000A01E093EDB34BD030B249D0E6B347D0D0
:104D00001E0EF66E060EF76E0001A2EC0FF00A0EF4
:104D10000B01586F00017FEC0FF00A0E0B01576F6B
:104D20000001BEEC03F00A01ED83280EF66E060EBC
:104D3000F76E0001A2EC0FF0090EEA6E880EE96E24
:104D40005DEC22F0220E0B01586F00017FEC0FF09A
:104D50000A0E0B01586F00017FEC0FF0320E0B01B1
:104D6000576F0001BEEC03F0090EEA6E970EE96E74
:104D70005DEC22F00A0E0B01586F00017FEC0FF082
:104D80001A0E0B01586F00017FEC0FF00A0105D0DD
:104D90000B010A01E083ED933092E5A58BD0000E64
:104DA000DFB5010E0B01576F000E0A01E1B5010ED0
:104DB0000B015719010803E10A01E2B503D00A010A
:104DC000E7A574D0E6B524D0E7B50CD000016A5150
:104DD0000F08D8B402D00A0105D0640E1C6E6BC057
:104DE0001DF00A01E7851AB202D0E09501D0E085F6
:104DF0001AB80ED0E4B505D0899892988996929603
:104E000007D0E3A503D08998929802D0899692960C
:104E1000EDB54BD030B249D0E6B547D0320EF66E84
:104E2000060EF76E0001A2EC0FF00A0E0B01586F90
:104E300000017FEC0FF00A0E0B01576F0001BEEC72
:104E400003F00A01ED853C0EF66E060EF76E0001CA
:104E5000A2EC0FF0090EEA6E880EE96E5DEC22F00E
:104E6000220E0B01586F00017FEC0FF00A0E0B01B0
:104E7000586F00017FEC0FF0320E0B01576F0001ED
:104E8000BEEC03F0090EEA6EE90EE96E5DEC22F06D
:104E90000A0E0B01586F00017FEC0FF01A0E0B0188
:104EA000586F00017FEC0FF00A0103D0E2A501D09A
:104EB000E69562D0000EDFB5010E0B01576F000EB4
:104EC0000A01E1B5010E0B015719010851E10A0170
:104ED000E095EDB54BD030B249D0E6B547D0460E9F
:104EE000F66E060EF76E0001A2EC0FF00A0E0B0133
:104EF000586F00017FEC0FF00A0E0B01576F000195
:104F0000BEEC03F00A01ED85500EF66E060EF76E4C
:104F10000001A2EC0FF0090EEA6E880EE96E5DEC5E
:104F200022F0220E0B01586F00017FEC0FF00A0EE9
:104F30000B01586F00017FEC0FF0320E0B01576F21
:104F40000001BEEC03F0090EEA6EE90EE96E5DECBD
:104F500022F00A0E0B01586F00017FEC0FF01A0EC1
:104F60000B01586F00017FEC0FF00A0105D00B0117
:104F70000A01E085ED953092E5A78BD0000EDFB7F2
:104F8000010E0B01576F000E0A01E1B7010E0B0174
:104F90005719010803E10A01E2B703D00A01E7A7A4
:104FA00074D0E6B724D0E7B70CD000016A510F08DF
:104FB000D8B402D00A0105D0640E1C6E6BC01DF07F
:104FC0000A01E7871AB202D0E09701D0E0871AB849
:104FD0000ED0E4B705D0899892988996929607D01A
:104FE000E3A703D08998929802D089969296EDB75C
:104FF0004BD030B249D0E6B747D05A0EF66E060E07
:10500000F76E0001A2EC0FF00A0E0B01586F0001C1
:105010007FEC0FF00A0E0B01576F0001BEEC03F09E
:105020000A01ED87640EF66E060EF76E0001A2EC23
:105030000FF0090EEA6E880EE96E5DEC22F0220E8A
:105040000B01586F00017FEC0FF00A0E0B01586F37
:1050500000017FEC0FF0320E0B01576F0001BEEC28
:1050600003F00A0EEA6E120EE96E5DEC22F00A0EF3
:105070000B01586F00017FEC0FF01A0E0B01586FF7
:1050800000017FEC0FF00A0103D0E2A701D0E69700
:1050900062D0000EDFB7010E0B01576F000E0A0140
:1050A000E1B7010E0B015719010851E10A01E09720
:1050B000EDB74BD030B249D0E6B747D06E0EF66EA2
:1050C000060EF76E0001A2EC0FF00A0E0B01586FEE
:1050D00000017FEC0FF00A0E0B01576F0001BEECD0
:1050E00003F00A01ED87780EF66E060EF76E0001EA
:1050F000A2EC0FF0090EEA6E880EE96E5DEC22F06C
:10510000220E0B01586F00017FEC0FF00A0E0B010D
:10511000586F00017FEC0FF0320E0B01576F00014A
:10512000BEEC03F00A0EEA6E120EE96E5DEC22F0A0
:105130000A0E0B01586F00017FEC0FF01A0E0B01E5
:10514000586F00017FEC0FF00A0105D00B010A0136
:10515000E087ED973092E5A98BD0000EDFB9010E04
:105160000B01576F000E0A01E1B9010E0B0157192F
:10517000010803E10A01E2B903D00A01E7A974D0EA
:10518000E6B924D0E7B90CD000016A510F08D8B4B1
:1051900002D00A0105D0640E1C6E6BC01DF00A011E
:1051A000E7891AB202D0E09901D0E0891AB80ED08E
:1051B000E4B905D0899892988996929607D0E3A988
:1051C00003D08998929802D089969296EDB94BD0E7
:1051D00030B249D0E6B947D0820EF66E060EF76EB1
:1051E0000001A2EC0FF00A0E0B01586F00017FECDA
:1051F0000FF00A0E0B01576F0001BEEC03F00A011D
:10520000ED898C0EF66E060EF76E0001A2EC0FF023
:10521000090EEA6E880EE96E5DEC22F0220E0B019B
:10522000586F00017FEC0FF00A0E0B01586F000160
:105230007FEC0FF0320E0B01576F0001BEEC03F054
:105240000A0EEA6E3B0EE96E5DEC22F00A0E0B01CF
:10525000586F00017FEC0FF01A0E0B01586F000120
:105260007FEC0FF00A0103D0E2A901D0E69962D0E9
:10527000000EDFB9010E0B01576F000E0A01E1B9F4
:10528000010E0B015719010851E10A01E099EDB92E
:105290004BD030B249D0E6B947D0960EF66E060E26
:1052A000F76E0001A2EC0FF00A0E0B01586F00011F
:1052B0007FEC0FF00A0E0B01576F0001BEEC03F0FC
:1052C0000A01ED89A00EF66E060EF76E0001A2EC43
:1052D0000FF0090EEA6E880EE96E5DEC22F0220EE8
:1052E0000B01586F00017FEC0FF00A0E0B01586F95
:1052F00000017FEC0FF0320E0B01576F0001BEEC86
:1053000003F00A0EEA6E3B0EE96E5DEC22F00A0E27
:105310000B01586F00017FEC0FF01A0E0B01586F54
:1053200000017FEC0FF00A0105D00B010A01E089B2
:10533000ED993092E5AB8BD0000EDFBB010E0B0177
:10534000576F000E0A01E1BB010E0B01571901084E
:1053500003E10A01E2BB03D00A01E7AB74D0E6BB6C
:1053600024D0E7BB0CD000016A510F08D8B402D09A
:105370000A0105D0640E1C6E6BC01DF00A01E78B9C
:105380001AB202D0E09B01D0E08B1AB80ED0E4BB79
:1053900005D0899892988996929607D0E3AB03D06E
:1053A0008998929802D089969296EDBB4BD030B2F4
:1053B00049D0E6BB47D0AA0EF66E060EF76E000186
:1053C000A2EC0FF00A0E0B01586F00017FEC0FF0FA
:1053D0000A0E0B01576F0001BEEC03F00A01ED8BC2
:1053E000B40EF66E060EF76E0001A2EC0FF0090E79
:1053F000EA6E880EE96E5DEC22F0220E0B01586F0A
:1054000000017FEC0FF00A0E0B01586F00017FECDA
:105410000FF0320E0B01576F0001BEEC03F00A0EC5
:10542000EA6E640EE96E5DEC22F00A0E0B01586F15
:1054300000017FEC0FF01A0E0B01586F00017FEC9A
:105440000FF00A0103D0E2AB01D0E69B62D0000E60
:10545000DFBB010E0B01576F000E0A01E1BB010E0D
:105460000B015719010851E10A01E09BEDBB4BD03C
:1054700030B249D0E6BB47D0BE0EF66E060EF76ED0
:105480000001A2EC0FF00A0E0B01586F00017FEC37
:105490000FF00A0E0B01576F0001BEEC03F00A017A
:1054A000ED8BC80EF66E060EF76E0001A2EC0FF043
:1054B000090EEA6E880EE96E5DEC22F0220E0B01F9
:1054C000586F00017FEC0FF00A0E0B01586F0001BE
:1054D0007FEC0FF0320E0B01576F0001BEEC03F0B2
:1054E0000A0EEA6E640EE96E5DEC22F00A0E0B0104
:1054F000586F00017FEC0FF01A0E0B01586F00017E
:105500007FEC0FF00A0105D00B010A01E08BED9B47
:105510003092E5AD8BD0000EDFBD010E0B01576F51
:10552000000E0A01E1BD010E0B015719010803E14C
:105530000A01E2BD03D00A01E7AD74D0E6BD24D074
:10554000E7BD0CD000016A510F08D8B402D00A019F
:1055500005D0640E1C6E6BC01DF00A01E78D1AB2F7
:1055600002D0E09D01D0E08D1AB80ED0E4BD05D088
:10557000899892988996929607D0E3AD03D089983E
:10558000929802D089969296EDBD4BD030B249D018
:10559000E6BD47D0D20EF66E060EF76E0001A2EC05
:1055A0000FF00A0E0B01586F00017FEC0FF00A0E8E
:1055B0000B01576F0001BEEC03F00A01ED8DDC0E0C
:1055C000F66E060EF76E0001A2EC0FF0090EEA6E01
:1055D000880EE96E5DEC22F0220E0B01586F00017F
:1055E0007FEC0FF00A0E0B01586F00017FEC0FF0FB
:1055F000320E0B01576F0001BEEC03F00A0EEA6E8B
:105600008D0EE96E5DEC22F00A0E0B01586F000161
:105610007FEC0FF01A0E0B01586F00017FEC0FF0BA
:105620000A0103D0E2AD01D0E69D62D0000EDFBDDD
:10563000010E0B01576F000E0A01E1BD010E0B01B7
:105640005719010851E10A01E09DEDBD4BD030B280
:1056500049D0E6BD47D0E60EF66E060EF76E0001A5
:10566000A2EC0FF00A0E0B01586F00017FEC0FF057
:105670000A0E0B01576F0001BEEC03F00A01ED8D1D
:10568000F00EF66E060EF76E0001A2EC0FF0090E9A
:10569000EA6E880EE96E5DEC22F0220E0B01586F67
:1056A00000017FEC0FF00A0E0B01586F00017FEC38
:1056B0000FF0320E0B01576F0001BEEC03F00A0E23
:1056C000EA6E8D0EE96E5DEC22F00A0E0B01586F4A
:1056D00000017FEC0FF01A0E0B01586F00017FECF8
:1056E0000FF00A0105D00B010A01E08DED9D30920B
:1056F000E5AF8BD0000EDFBF010E0B01576F000E20
:105700000A01E1BF010E0B015719010803E10A016B
:10571000E2BF03D00A01E7AF74D0E6BF24D0E7BFF1
:105720000CD000016A510F08D8B402D00A0105D08C
:10573000640E1C6E6BC01DF00A01E78F1AB202D016
:10574000E09F01D0E08F1AB80ED0E4BF05D0899851
:1057500092988996929607D0E3AF03D08998929851
:1057600002D089969296EDBF4BD030B249D0E6BFB9
:1057700047D0FA0EF66E060EF76E0001A2EC0FF09F
:105780000A0E0B01586F00017FEC0FF00A0E0B019F
:10579000576F0001BEEC03F00A01ED8F040EF66EA8
:1057A000070EF76E0001A2EC0FF0090EEA6E880EEC
:1057B000E96E5DEC22F0220E0B01586F00017FECC8
:1057C0000FF00A0E0B01586F00017FEC0FF0320E44
:1057D0000B01576F0001BEEC03F00A0EEA6EB60E25
:1057E000E96E5DEC22F00A0E0B01586F00017FECB0
:1057F0000FF01A0E0B01586F00017FEC0FF00A0139
:1058000003D0E2AF01D0E69F62D0000EDFBF010EF1
:105810000B01576F000E0A01E1BF010E0B01571972
:10582000010851E10A01E09FEDBF4BD030B249D0F1
:10583000E6BF47D00E0EF66E070EF76E0001A2EC23
:105840000FF00A0E0B01586F00017FEC0FF00A0EEB
:105850000B01576F0001BEEC03F00A01ED8F180E2B
:10586000F66E070EF76E0001A2EC0FF0090EEA6E5D
:10587000880EE96E5DEC22F0220E0B01586F0001DC
:105880007FEC0FF00A0E0B01586F00017FEC0FF058
:10589000320E0B01576F0001BEEC03F00A0EEA6EE8
:1058A000B60EE96E5DEC22F00A0E0B01586F000196
:1058B0007FEC0FF01A0E0B01586F00017FEC0FF018
:1058C0000A0105D00B010A01E08FED9F3092000E16
:1058D000DFB1010E0B01576F000E0A01E1B1010E9D
:1058E0000B015719010804E10A01E2A104D00B01E0
:1058F0001AAA69D00A01E8B10ED000016A510F0856
:10590000D8B402D00A0107D00A01E6B104D0640E6F
:105910001C6E6BC01DF0E881E6B117D01AB202D040
:10592000E09101D0E0811AB810D0E5A10ED0E4B129
:1059300005D0899892988996929607D0E3A103D0D2
:105940008998929802D089969296010E0B014B6F1E
:105950000A01EDB137D030B235D0E6B133D0ED81A8
:10596000220EF66E070EF76E0001A2EC0FF0090E84
:10597000EA6E880EE96E5DEC22F0220E0B01586F84
:1059800000017FEC0FF00A0E0B01586F00017FEC55
:105990000FF0320E0B01576F0001BEEC03F0090E41
:1059A000EA6E970EE96E5DEC22F00A0E0B01586F5D
:1059B00000017FEC0FF01A0E0B01586F00017FEC15
:1059C0000FF00A0145D00A01E2B142D0E891E69118
:1059D000E081ED91E3B102D0E4B111D00B014B5362
:1059E000D8B402D00A010BD0010E566F000170EC42
:1059F00022F0012C01D002D0898892980A01E3A1FB
:105A000002D0E4B111D00B014B53D8B402D00A013B
:105A10000BD0020E566F000170EC22F0012C01D069
:105A200002D0898692960A01E8B112D0E8B310D06C
:105A3000E8B50ED0E8B70CD0E8B90AD0E8BB08D07A
:105A4000E8BD06D0E8BF04D08986929689889298EE
:105A5000000EDFB3010E0B01576F000E0A01E1B318
:105A6000010E0B015719010804E10A01E2A304D059
:105A70000B011AAA69D00A01E8B30ED000016A51DD
:105A80000F08D8B402D00A0107D00A01E6B304D047
:105A9000640E1C6E6BC01DF0E883E6B317D01AB21B
:105AA00002D0E09301D0E0831AB810D0E5A30ED065
:105AB000E4B305D0899892988996929607D0E3A38B
:105AC00003D08998929802D089969296010E0B0184
:105AD0004B6F0A01EDB337D030B235D0E6B333D0D7
