:020000040000FA
:10000000E0EF2EF0FFFFFFFF046ED8CF05F0E0CF4A
:1000100006F00001E9CF0CF0EACF07F0E1CF08F0DD
:10002000E2CF09F0D9CF0AF0DACF0BF0F3CF12F01C
:10003000F4CF13F0FACF14F000C00EF001C00FF0AF
:1000400002C010F003C011F09DA22AEF00F09EB292
:10005000A1EF02F09DAA30EF00F09EBA98EF02F0F7
:100060000EC000F00FC001F010C002F011C003F08C
:100070000CC0E9FF07C0EAFF078E08C0E1FF09C016
:10008000E2FF0AC0D9FF0BC0DAFF12C0F3FF13C0B2
:10009000F4FF14C0FAFF045006C0E0FF05C0D8FF0B
:1000A0001000F2CF0DF0F29EF76ABC0FF66E000E54
:1000B000F7220900F5500DBEF28E120000C18140FA
:1000C00001C0804101C0804100C1814001C0804128
:1000D00000C1814000C1814001C0804101C0804118
:1000E00000C1814000C1814001C0804100C1814008
:1000F00001C0804101C0804100C1814001C08041F8
:1001000000C1814000C1814001C0804100C18140E7
:1001100001C0804101C0804100C1814000C18140D7
:1001200001C0804101C0804100C1814001C08041C7
:1001300000C1814000C1814001C0804101C08041B7
:1001400000C1814000C1814001C0804100C18140A7
:1001500001C0804101C0804100C1814000C1814097
:1001600001C0804101C0804100C1814001C0804187
:1001700000C1814000C1814001C0804100C1814077
:1001800001C0804101C0804100C1814001C0804167
:1001900000C1814000C1814001C0804101C0804157
:1001A00000C1814000C1814001C0804100C1814047
:1001B00001C0804101C0804100C18140F2CF0DF0FB
:1001C000F29EF76AD60FF66E010EF7220900F5507F
:1001D0000DBEF28E120000C0C101C30302C2C606EA
:1001E00007C705C5C404CC0C0DCD0FCFCE0E0ACA6F
:1001F000CB0BC90908C8D81819D91BDBDA1A1EDEBF
:10020000DF1FDD1D1CDC14D4D515D71716D6D2126E
:1002100013D311D1D010F03031F133F3F23236F67E
:10022000F737F53534F43CFCFD3DFF3F3EFEFA3A2E
:100230003BFB39F9F83828E8E929EB2B2AEAEE2EBE
:100240002FEF2DEDEC2CE42425E527E7E62622E22E
:10025000E323E12120E0A06061A163A3A26266A67E
:10026000A767A56564A46CACAD6DAF6F6EAEAA6AEE
:100270006BAB69A9A86878B8B979BB7B7ABABE7E3E
:100280007FBF7DBDBC7CB47475B577B7B67672B2EE
:10029000B373B17170B0509091519353529296567E
:1002A0005797559594549C5C5D9D5F9F9E5E5A9AAE
:1002B0009B5B99595898884849894B8B8A4A4E8E3E
:1002C0008F4F8D4D4C8C44848545874746868242AE
:1002D00043834181804004006C50745C13E1766A72
:1002E000760E7624E96E010EEA6ED8B0EA2A2BC0AB
:1002F000EFFF0400762A100E746E140E0601806F54
:1003000014D10001745010085CE1760E7624E96E79
:10031000010EEA6ED8B0EA2A2BC0EFFF0400762A5D
:10032000010E765C760FE96E010EEA6ED8B0EA2A0D
:10033000EF50160807E36DC074F0140E0601806FCD
:100340003ED00001010E765C760FE96E010EEA6E7A
:10035000D8B0EA2AEF50200807E170C074F0140EFC
:100360000601806F2CD00001010E765C760FE96EDD
:10037000010EEA6ED8B0EA2AEF50210807E172C0F8
:1003800074F0140E0601806F1AD00001010E765C25
:10039000760FE96E010EEA6ED8B0EA2AEF50220815
:1003A00007E172C074F0140E0601806F08D00001DE
:1003B000766A6CC074F00601806B8A969396B5D00D
:1003C00000017250745C1CE1760E7624E96E010E19
:1003D000EA6ED8B0EA2A2BC0EFFF0400762A010E9D
:1003E000765C760FE96E010EEA6ED8B0EA2AEFCF9E
:1003F00081F60601140E806F73C074F096D0000170
:100400007350745C15E1760E7624E96E010EEA6E87
:10041000D8B0EA2A2BC0EFFF0400762A0601810734
:10042000815302E170C074F0140E806F7ED0000121
:100430006D50745C12E1760E7624E96E010EEA6E60
:10044000D8B0EA2A2BC0EFFF0400762A6EC074F001
:10045000140E0601806F69D000016E50745C12E1C9
:10046000760E7624E96E010EEA6ED8B0EA2A2BC029
:10047000EFFF0400762A6FC074F0140E0601806F3F
:1004800054D000016F50745C12E1760E7624E96E50
:10049000010EEA6ED8B0EA2A2BC0EFFF0400762ADC
:1004A000150E746E140E0601806F3FD0000174505B
:1004B000150812E1760E7624E96E010EEA6ED8B0C8
:1004C000EA2A2BC0EFFF0400762A70C074F0140EE5
:1004D0000601806F2AD000017050745C12E1760E24
:1004E0007624E96E010EEA6ED8B0EA2A2BC0EFFF3F
:1004F0000400762A71C074F0140E0601806F15D0C6
:1005000000017150745C11E1760E7624E96E010EE3
:10051000EA6ED8B0EA2A2BC0EFFF04006CC074F07A
:100520000601806B2D8A8A96939600019EEF02F059
:1005300004009EAAFDD7AECF2BF0CDD69E9A30EF09
:1005400000F0162A0601805307E08007805304E17B
:100550006CC074F08A96939619520CE019061952E1
:1005600009E11A5204E01A061A5201E117842D8893
:10057000640E196E1650320814E1166A17B004D0D2
:1005800017808A8A939A03D017908A9A939A17AC05
:1005900007D02C52D8A42C062C52D8B4178A01D0DC
:1005A0002C6A185214E0180618520BE1FF0E826FE5
:1005B0002DB405D017A202D0179201D0178269C0BE
:1005C00018F02E5204E02E062E5201E12D949E9238
:1005D000000130EF00F041542B434D47463D3100C0
:1005E00041542B434D47533D220041542B434D472B
:1005F000463D310041542B434D47533D2200415469
:100600002B434D47463D310041542B434D47533D0D
:10061000220041542B434D47463D310041542B436A
:100620004D47533D220041542B434D47463D310039
:1006300041542B434D47533D220041542B434D47DA
:10064000463D310041542B434D47533D2200415418
:100650002B434D47463D310041542B434D47533DBD
:10066000220041542B434D47463D310041542B431A
:100670004D47533D220041542B434D47463D3100E9
:1006800041542B434D47533D220041542B434D478A
:10069000463D310041542B434D47533D22004154C8
:1006A0002B434D47463D310041542B434D47533D6D
:1006B000220041542B434D47463D310041542B43CA
:1006C0004D47533D220041542B434D47463D310099
:1006D00041542B434D47533D220041542B434D473A
:1006E000463D310041542B434D47533D2200415478
:1006F0002B434D47463D310041542B434D47533D1D
:10070000220041542B434D47463D310041542B4379
:100710004D47533D220041542B434D47533D22004A
:1007200041542B434D47533D220041542B434D47E9
:10073000533D220041542B434D47533D2200415429
:100740002B434D47533D220041542B434D47533DCE
:10075000220041542B434D47533D220041542B432B
:100760004D47533D220041542B434D47463D3100F8
:10077000070EEA6ECF0EE96EEF5011E0060E016E25
:10078000BF0E006E0400002EFDD7012EF9D77A0EA1
:10079000006E002EFED700D00400EF2EEFD7000C25
:1007A000929A899A0701D1514009D46FC950D4C790
:1007B000C9FFC730FEE3C950D2C7C9FFC730FEE347
:1007C000C950D3C7C9FFC730FEE3929A898A000196
:1007D000000C929A898A929A0701D16B0A0ED26F05
:1007E000AA0ED36F0001DCDF020E0701D16F0A0EE3
:1007F000D26FAA0ED36F0001D3DF040E0701D16FB1
:100800000A0ED26FAA0ED36F0001CADF060E0701CF
:10081000D16F0A0ED26FAA0ED36F0001C1DF080E8E
:100820000701D16F0A0ED26FAA0ED36F0001B8DF95
:100830000A0E0701D16FD26FAA0ED36F0001B0DF8D
:100840000C0E0701D16F0A0ED26FAA0ED36F0001F2
:10085000A7DF0E0E0701D16F0A0ED26FAA0ED36F5B
:1008600000019EDF4AEF2FF0C7C7D1F70701D26B17
:10087000C8C7D3F7000194DF000CC7C7D1F7100E2B
:100880000701D26FC8C7D3F700018ADF000CF2CF8F
:10089000CDF7F29EAA6A010EA96EA69CA69EA6801E
:1008A000A8500701CDBFF28E366E36C037F03491B6
:1008B00036B03481D89036303493E8B03483363053
:1008C000006E00323F0E0016349500B0348536308D
:1008D000006E003200321F0E0016349700B03487CD
:1008E0003638006E0F0E0016349900B03489363851
:1008F000006E0032070E0016349B00B0348B363881
:10090000006E00320032030E0016349D00B0348DAC
:10091000006A36BE0080349F00B0348FC19334B17A
:10092000C183C19534B3C185C19734B5C187C1991D
:1009300034B7C189C19B34B9C18BC19D34BBC18D52
:10094000C19F34BDC18FC29134BFC281F2CFCDF7F8
:10095000F29EAA6A040EA96EA69CA69EA680A85026
:10096000CDBFF28E366E36C03AF0359136B0358155
:10097000D89036303593E8B035833630006E00328B
:100980003F0E0016359500B035853630006E0032CA
:1009900000321F0E0016359700B035873638006ECE
:1009A0000F0E0016359900B035893638006E0032CA
:1009B000070E0016359B00B0358B3638006E0032BE
:1009C0000032030E0016359D00B0358D006A36BE2C
:1009D0000080359F00B0358FF2CFCDF7F29EAA6A26
:1009E000070EA96EA69CA69EA680A850CDBFF28E2B
:1009F000366E36C03DF0369136B03681D8903630FE
:100A00003693E8B036833630006E00323F0E001663
:100A1000369500B036853630006E003200321F0E3B
:100A20000016369700B036873638006E0F0E001667
:100A3000369900B036893638006E0032070E00163F
:100A4000369B00B0368B3638006E00320032030E13
:100A50000016369D00B0368D006A36BE0080369F87
:100A600000B0368FF2CFCDF7F29EAA6A0A0EA96EB9
:100A7000A69CA69EA680A850CDBFF28E366E36C02C
:100A800040F0379136B03781D89036303793E8B0A0
:100A900037833630006E00323F0E0016379500B0B7
:100AA00037853630006E003200321F0E0016379741
:100AB00000B037873638006E0F0E0016379900B039
:100AC00037893638006E0032070E0016379B00B0AB
:100AD000378B3638006E00320032030E0016379D19
:100AE00000B0378D006A36BE0080379F00B0378F68
:100AF000F2CFCDF7F29EAA6A0D0EA96EA69CA69E15
:100B0000A680A850CDBFF28E366E36C043F0389125
:100B100036B03881D89036303893E8B038833630E4
:100B2000006E00323F0E0016389500B03885363022
:100B3000006E003200321F0E0016389700B0388762
:100B40003638006E0F0E0016389900B038893638E6
:100B5000006E0032070E0016389B00B0388B363816
:100B6000006E00320032030E0016389D00B0388D42
:100B7000006A36BE0080389F00B0388FF2CFCDF7C4
:100B8000F29EAA6A100EA96EA69CA69EA680A850E8
:100B9000CDBFF28E366E3E9136B03E81D890363063
:100BA0003E93E8B03E833630006E00323F0E0016B2
:100BB0003E9500B03E853630006E003200321F0E8A
:100BC00000163E9700B03E873638006E0F0E0016B6
:100BD0003E9900B03E893638006E0032070E00168E
:100BE0003E9B00B03E8B3638006E00320032030E62
:100BF00000163E9D00B03E8D006A36BE00803E9FCE
:100C000000B03E8FF2CFCDF7F29EAA6A140EA96E05
:100C1000A69CA69EA680A850CDBFF28E366E3F91B0
:100C200036B03F81D89036303F93E8B03F833630BE
:100C3000006E00323F0E00163F9500B03F85363003
:100C4000006E003200321F0E00163F9700B03F8743
:100C50003638006E0F0E00163F9900B03F893638C7
:100C6000006E0032070E00163F9B00B03F8B3638F7
:100C7000006E00320032030E00163F9D00B03F8D23
:100C8000006A36BE00803F9F00B03F8FF2CFCDF7A5
:100C9000F29EAA6A180EA96EA69CA69EA680A850CF
:100CA000CDBFF28E676EF2CFCDF7F29EAA6A190E13
:100CB000A96EA69CA69EA680A850CDBFF28E686E97
:100CC000F2CFCDF7F29EAA6A1A0EA96EA69CA69E36
:100CD000A680A850CDBFF28E696EF2CFCDF7F29EFE
:100CE000AA6A1B0EA96EA69CA69EA680A850CDBF80
:100CF000F28E6A6EF2CFCDF7F29EAA6A1C0EA96E32
:100D0000A69CA69EA680A850CDBFF28E036A856FD2
:100D100003C086F7F2CFCDF7F29EAA6A1D0EA96E28
:100D2000A69CA69EA680A850CDBFF28E756EF2CF6F
:100D3000CDF7F29EAA6A1E0EA96EA69CA69EA6805C
:100D4000A850CDBFF28E886B876FF2CFCDF7F29EA1
:100D5000AA6A1F0EA96EA69CA69EA680A850CDBF0B
:100D6000F28E8A6B896FF2CFCDF7F29EAA6A200EBF
:100D7000A96EA69CA69EA680A850CDBFF28E8C6BB5
:100D80008B6FF2CFCDF7F29EAA6A210EA96EA69CB8
:100D9000A69EA680A850CDBFF28E8E6B8D6FF2CF2F
:100DA000CDF7F29EAA6A220EA96EA69CA69EA680E8
:100DB000A850CDBFF28E906B8F6FF2CFCDF7F29E21
:100DC000AA6A230EA96EA69CA69EA680A850CDBF97
:100DD000F28E926B916FF2CFCDF7F29EAA6A240E3B
:100DE000A96EA69CA69EA680A850CDBFF28E946B3D
:100DF000936FF2CFCDF7F29EAA6A250EA96EA69C3C
:100E0000A69EA680A850CDBFF28E966B956FF2CFAE
:100E1000CDF7F29EAA6A260EA96EA69CA69EA68073
:100E2000A850CDBFF28E986B976FF2CFCDF7F29EA0
:100E3000AA6A270EA96EA69CA69EA680A850CDBF22
:100E4000F28E9A6B996FF2CFCDF7F29EAA6A280EB6
:100E5000A96EA69CA69EA680A850CDBFF28E9C6BC4
:100E60009B6FF2CFCDF7F29EAA6A290EA96EA69CBF
:100E7000A69EA680A850CDBFF28E9E6B9D6FF2CF2E
:100E8000CDF7F29EAA6A2A0EA96EA69CA69EA680FF
:100E9000A850CDBFF28EA06B9F6FF2CFCDF7F29E20
:100EA000AA6A2B0EA96EA69CA69EA680A850CDBFAE
:100EB000F28EA26BA16FF2CFCDF7F29EAA6A2C0E32
:100EC000A96EA69CA69EA680A850CDBFF28EA46B4C
:100ED000A36FF2CFCDF7F29EAA6A2D0EA96EA69C43
:100EE000A69EA680A850CDBFF28EA66BA56FF2CFAE
:100EF000CDF7F29EAA6A2E0EA96EA69CA69EA6808B
:100F0000A850CDBFF28EA86BA76FF2CFCDF7F29E9F
:100F1000AA6A2F0EA96EA69CA69EA680A850CDBF39
:100F2000F28EAA6BA96FF2CFCDF7F29EAA6A300EAD
:100F3000A96EA69CA69EA680A850CDBFF28EAC6BD3
:100F4000AB6FF2CFCDF7F29EAA6A310EA96EA69CC6
:100F5000A69EA680A850CDBFF28EAE6BAD6FC76BBC
:100F60000400320EC725CD6FF2CFCEF7F29EAA6AEB
:100F7000CDC7A9FFA69CA69EA680A850CEBFF28E84
:100F8000C86FC8510D0803E0C7510F0824E2036A77
:100F9000C751830FE96E060E0320EA6EEF6A320E28
:100FA000C725CD6FAA6ACDC7A9FFC8C7A8FFA69C51
:100FB000A69EA684F250006EF29E0F01550EA76EFB
:100FC000AA0EA76EA682A6B2FED7A6940050F21271
:100FD0000FD00BD00701036AC751830FE96E060ECD
:100FE0000320EA6EC8C7EFFF0F010701C72BB8D770
:100FF000030E0701C96FCA6BCB6B04005D0EC925D8
:10100000CD6FF2CFCEF7F29EAA6ACDC7A9FFA69CFC
:10101000A69EA680A850CEBFF28ECC6FCC510D08F4
:1010200003E0CA5110080AE2036ACA51920FE96E3E
:10103000060E0320EA6EEF6A0ED009D0036ACA5189
:10104000920FE96E060E0320EA6ECCC7EFFFC9517E
:10105000C92BCA2BD2D7C92BCA6B04005D0EC92578
:10106000CD6FF2CFCEF7F29EAA6ACDC7A9FFA69C9C
:10107000A69EA680A850CEBFF28ECC6FCC510D0894
:1010800003E0CA5110080AE2036ACA51A60FE96ECA
:10109000060E0320EA6EEF6A0ED009D0036ACA5129
:1010A000A60FE96E060E0320EA6ECCC7EFFFC9510A
:1010B000C92BCA2BD2D7C92BCA6B04005D0EC92518
:1010C000CD6FF2CFCEF7F29EAA6ACDC7A9FFA69C3C
:1010D000A69EA680A850CEBFF28ECC6FCC510D0834
:1010E00003E0CA5110080AE2036ACA51BA0FE96E56
:1010F000060E0320EA6EEF6A0ED009D0036ACA51C9
:10110000BA0FE96E060E0320EA6ECCC7EFFFC95195
:10111000C92BCA2BD2D7C92BCA6B04005D0EC925B7
:10112000CD6FF2CFCEF7F29EAA6ACDC7A9FFA69CDB
:10113000A69EA680A850CEBFF28ECC6FCC510D08D3
:1011400003E0CA5110080AE2036ACA51CE0FE96EE1
:10115000060E0320EA6EEF6A0ED009D0036ACA5168
:10116000CE0FE96E060E0320EA6ECCC7EFFFC95121
:10117000C92BCA2BD2D7C92BCA6B04005D0EC92557
:10118000CD6FF2CFCEF7F29EAA6ACDC7A9FFA69C7B
:10119000A69EA680A850CEBFF28ECC6FCC510D0873
:1011A00003E0CA5110080AE2036ACA51E20FE96E6D
:1011B000060E0320EA6EEF6A0ED009D0036ACA5108
:1011C000E20FE96E060E0320EA6ECCC7EFFFC951AD
:1011D000C92BCA2BD2D7C92BCA6B04005D0EC925F7
:1011E000CD6FF2CFCEF7F29EAA6ACDC7A9FFA69C1B
:1011F000A69EA680A850CEBFF28ECC6FCC510D0813
:1012000003E0CA5110080AE2036ACA51F60FE96EF8
:10121000060E0320EA6EEF6A0ED009D0036ACA51A7
:10122000F60FE96E060E0320EA6ECCC7EFFFC95138
:10123000C92BCA2BD2D7C92BCA6B04005D0EC92596
:10124000CD6FF2CFCEF7F29EAA6ACDC7A9FFA69CBA
:10125000A69EA680A850CEBFF28ECC6FCC510D08B2
:1012600003E0CA5110080AE2036ACA510A0FE96E84
:10127000070E0320EA6EEF6A0ED009D0036ACA5146
:101280000A0FE96E070E0320EA6ECCC7EFFFC951C3
:10129000C92BCA2BD2D7C92BCA6B04005D0EC92536
:1012A000CD6FF2CFCEF7F29EAA6ACDC7A9FFA69C5A
:1012B000A69EA680A850CEBFF28ECC6FCC510D0852
:1012C00003E0CA5110080AE2036ACA511E0FE96E10
:1012D000070E0320EA6EEF6A0ED009D0036ACA51E6
:1012E0001E0FE96E070E0320EA6ECCC7EFFFC9514F
:1012F000C92BCA2BD2D70001000C929A899A0701F8
:10130000CF514109D26FC950D2C7C9FFC730FEE3E0
:10131000C950D0C7C9FFC730FEE3C950C96AC7303A
:10132000FEE3C9CFD1F7929A898AD1C701F00001B3
:10133000000CCDC7CFF7090E0701D06F0001DDDF2C
:1013400001C0CEF70701CEC701F000012AEF0AF075
:10135000CDC7CFF7190E0701D06F0001CEDF01C056
:10136000CEF70701CEC701F0000177EF0AF00701C1
:10137000CE51070B006ECE31016E013201321F0ECD
:1013800001160150CF25E96E000ED021EA6EEFCF95
:1013900001F0002A01D00132002EFDD70001000C1F
:1013A0000701D151D303F3CF01F0F4CF00F0D40300
:1013B000F3500026D251D303F3500020026E0001F7
:1013C000000C0701CE51070B006ECE31016E0132C9
:1013D00001321F0E01160150D025E96E000ED121F9
:1013E000EA6E016A012A002A01D00136002EFDD7DB
:1013F000CF5303E00150EF1203D0011E0150EF164E
:101400000001000C0701CD6B010ECD6FCDBF03D0E5
:10141000CD51100817E3CF6BCF6BCDC7CEF7070EBA
:10142000D06F450ECF6F0001A2DF0701CF6B01B077
:10143000CF2B070ED16F410ED06F0001C2DF070125
:10144000CD2BE4D7000102EF0DF0020E0701CD6FA6
:1014500000016FD701C07EF617A803D006017E1FDA
:101460000001D89006017E3107014593E8B045831D
:1014700006017E31006E00323F0E001607014595D1
:1014800000B0458506017E31006E003200321F0E2D
:1014900000160701459700B0458706017E39006EAA
:1014A0000F0E00160701459900B0458906017E39E7
:1014B000006E0032070E00160701459B00B0458BF9
:1014C00006017E39006E00320032030E001607015D
:1014D000459D00B0458D006A06017EBF0080070172
:1014E000459F00B0458F020ECD6F000131D701C07E
:1014F0007EF617A802D006017E1F0701469106015D
:101500007EA103D0070146810601010E0701CC6FC1
:10151000CC510808D8A074D2CCC7CEF7070ED06F34
:10152000C10ECF6F000123DF000E01B0010E010BD1
:101530000108D8A429D1CCC7CEF7070E0701D06F78
:10154000450ECF6F000113DF000E01B0010E010B3D
:10155000D8A48DD0CCC7CEF7070E0701D06F410EAF
:10156000CF6F000104DF000E01B0010E010BD8A403
:1015700070D0D8900701CC35036A490FE96E070E89
:101580000320EA6E010EEE2601E3EF2AD890CC3557
:10159000036A490FE96E070E0320EA6EECCFCEF71F
:1015A000ED52EFCFCDF7D890CC35036A850FE96EB9
:1015B000070E0320EA6EECCFD0F7ED52EFCFCFF756
:1015C000D0C7D2F7CFC7D1F7D46B4B0ED36F000182
:1015D000E7DE02C0D0F701C0CFF70F0E07010124EC
:1015E000016E000E0220036E0350CE5D30E303E176
:1015F0000150CD5D2CE3D890CC35036A490FE96EDC
:10160000070E0320EA6EEC6AED52EF6A010ECC5D24
:10161000F80F1DE2080F000142EF0DF007013291B3
:1016200016D00701329313D00701329510D007016D
:1016300032970DD0070132990AD00701329B07D0AB
:101640000701329D04D00701329F01D007010DD060
:101650000001D8900701CC35036A490FE96E070EE7
:101660000320EA6EEC6AED52EF6A8DD00001CCC720
:10167000CEF7070E0701D06F410ECF6F000177DE66
:10168000000E01B0010E010B0108D8A470D0D89053
:101690000701CC35036A490FE96E070E0320EA6E95
:1016A000010EEE2601E3EF2AD890CC35036A490FEC
:1016B000E96E070E0320EA6EECCFCEF7ED52EFCFC6
:1016C000CDF7D890CC35036A850FE96E070E03205D
:1016D000EA6EECCFD0F7ED52EFCFCFF7D0C7D2F70D
:1016E000CFC7D1F7D46B4B0ED36F000159DE02C0C8
:1016F000D0F701C0CFF70F0E07010124016E000ED5
:101700000220036E0350CE5D30E303E10150CD5D56
:101710002CE3D890CC35036A490FE96E070E0320FD
:10172000EA6EEC6AED52010EEF6ECC5DF80F1DE231
:10173000080F00015CEF0DF00701328116D00701A0
:10174000328313D00701328510D0070132870DD0C4
:10175000070132890AD00701328B07D00701328D89
:1017600004D00701328F01D007010DD00001D890BD
:101770000701CC35036A490FE96E070E0320EA6EB4
:10178000EC6AED52EF6A38D1CCC7CEF7070E0701ED
:10179000D06FC10ECF6F0001EADD000E01B0010E67
:1017A000010BD8A42AD1CCC7CEF7070E0701D06F02
:1017B000450ECF6F0001DBDD000E01B0010E010B05
:1017C0000108D8A48ED0CCC7CEF7070E0701D06F82
:1017D000410ECF6F0001CBDD000E01B0010E010BF9
:1017E0000108D8A470D0D8900701CC35036A490FFE
:1017F000E96E070E0320EA6E010EEE2601E3EF2AE2
:10180000D890CC35036A490FE96E070E0320EA6EC3
:10181000ECCFCEF7ED52EFCFCDF7D890CC35036AB1
:10182000850FE96E070E0320EA6EECCFD0F7ED527C
:10183000EFCFCFF7D0C7D2F7CFC7D1F7D46B4B0ECE
:10184000D36F0001ADDD02C0D0F701C0CFF70F0E9E
:1018500007010124016E000E0220036E0350CE5DCD
:1018600030E303E10150CD5D2CE3D890CC35036A21
:10187000490FE96E070E0320EA6EEC6AED52EF6A3B
:10188000010ECC5DF80F1DE2080F000176EF0DF0A0
:101890000701328116D00701328313D00701328548
:1018A00010D0070132870DD0070132890AD0070115
:1018B000328B07D00701328D04D00701328F01D05F
:1018C00007010DD00001D8900701CC35036A490FFC
:1018D000E96E070E0320EA6EEC6AED52EF6A8CD0D7
:1018E0000001CCC7CEF7070E0701D06F410ECF6FB6
:1018F00000013DDD000E01B0010E010BD8A470D037
:10190000D8900701CC35036A490FE96E070E032012
:10191000EA6E010EEE2601E3EF2AD890CC35036A79
:10192000490FE96E070E0320EA6EECCFCEF7ED52B9
:10193000EFCFCDF7D890CC35036A850FE96E070E4F
:101940000320EA6EECCFD0F7ED52EFCFCFF7D0C740
:10195000D2F7CFC7D1F7D46B4B0ED36F000120DD88
:1019600002C0D0F701C0CFF70F0E07010124016EAE
:10197000000E0220036E0350CE5D30E303E1015000
:10198000CD5D2CE3D890CC35036A490FE96E070E84
:101990000320EA6EEC6AED52EF6A010ECC5DF80F9F
:1019A0001DE2080F000190EF0DF00701329116D0F3
:1019B0000701329313D00701329510D007013297F7
:1019C0000DD0070132990AD00701329B07D00701D9
:1019D000329D04D00701329F01D007010DD00001D4
:1019E000D8900701CC35036A490FE96E070E032032
:1019F000EA6EEC6AED52EF6A00010701CC2B88D544
:101A0000000100D5466A000E070132AF010E4612F2
:101A1000D8904634CD6F000E32AD010ECD11466E1A
:101A2000D8904634CD6F000E32AB010ECD11466E0C
:101A3000D8904634CD6F000E32A9010ECD11466EFE
:101A4000D8904634CD6F000E32A7010ECD11466EF0
:101A5000D8904634CD6F000E32A5010ECD11466EE2
:101A6000D8904634CD6F000E32A3010ECD11466ED4
:101A7000D8904634CD6F000E32A1010ECD11466EC6
:101A80000001000CF2CF0DF0F29EE824F76AF73661
:101A9000A90FF66E1A0EF7220A00F550FA6E08002A
:101AA000F5500DBEF28EF96E1C16221628162E1653
:101AB00034163A1640164616F2CF0DF0F29EE82480
:101AC000F76AF736DD0FF66E1A0EF7220A00F550A8
:101AD000FA6E0800F5500DBEF28EF96E38173E17FB
:101AE00044174A17501756175C176217F2CF0DF0BC
:101AF000F29EE824F76AF736110FF66E1B0EF722F6
:101B00000A00F550FA6E0800F5500DBEF28EF96E1F
:101B1000901896189C18A218A818AE18B418BA18DD
:101B2000F2CF0DF0F29EE824F76AF736450FF66E15
:101B30001B0EF7220A00F550FA6E0800F5500DBE94
:101B4000F28EF96EAA19B019B619BC19C219C819C2
:101B5000CE19D419CFC7D1F70A0E0701D26FD0C75B
:101B6000D3F70001D0EC03F0000CCFC7D1F71A0E69
:101B70000701D26FD0C7D3F70001D0EC03F0000CFF
:101B80004B6A4C6A4F6A506A2C52D8A4E4D00701C1
:101B900033A103D04B924F9214D03EA105D03FB158
:101BA00003D04B824F920DD03EB105D03FA103D060
:101BB0004B924F8206D03EA104D03FA102D04B826F
:101BC0004F8233A303D04B944F9414D03EA305D03F
:101BD0003FB303D04B844F940DD03EB305D03FA309
:101BE00003D04B944F8406D03EA304D03FA302D031
:101BF0004B844F8433A503D04B964F9614D03EA50B
:101C000005D03FB503D04B864F960DD03EB505D0DD
:101C10003FA503D04B964F8606D03EA504D03FA5E6
:101C200002D04B864F8633A703D04B984F9814D0E1
:101C30003EA705D03FB703D04B884F980DD03EB795
:101C400005D03FA703D04B984F8806D03EA704D0BD
:101C50003FA702D04B884F8833A903D04B9A4F9AA5
:101C600014D03EA905D03FB903D04B8A4F9A0DD06E
:101C70003EB905D03FA903D04B9A4F8A06D03EA962
:101C800004D03FA902D04B8A4F8A33AB03D04B9C80
:101C90004F9C14D03EAB05D03FBB03D04B8C4F9C28
:101CA0000DD03EBB05D03FAB03D04B9C4F8C06D034
:101CB0003EAB04D03FAB02D04B8C4F8C33AD03D046
:101CC0004B9E4F9E14D03EAD05D03FBD03D04B8EF2
:101CD0004F9E0DD03EBD05D03FAD03D04B9E4F8EE5
:101CE00006D03EAD04D03FAD02D04B8E4F8E33AF09
:101CF00003D04C90509014D03EAF05D03FBF03D0DE
:101D00004C8050900DD03EBF05D03FAF03D04C90DB
:101D1000508006D03EAF04D03FAF02D04C80508000
:101D2000040ECF6F4BC0D0F7000114DF040E070183
:101D3000CF6F4CC0D0F7000118DF060E0701CF6F40
:101D40004FC0D0F7000106DF060E0701CF6F50C06D
:101D5000D0F700010ADF000C0900F5520EE0F6CFC3
:101D6000CFF7F7CFD0F7F55004009EA8FDD7AD6EA2
:101D7000CFC7F6FFD0C7F7FFEFD7000C04009EA82F
:101D8000FDD7AD6E000CFF0E0501776F766F070172
:101D9000D16BCF51D15D2DE20400036AD151CD2525
:101DA000E96ECE510320EA6EEF5005017719070165
:101DB000D06F036AD051F2CFD2F7F29E000151ECFE
:101DC00000F00701D2BFF28E016E050176510118B5
:101DD000776F036A0701D051F2CFD2F7F29E00016C
:101DE000DEEC00F00701D2BFF28EE8CF76F5D12B02
:101DF000D0D70001000C1B6A236A07013AB104D056
:101E000033B102D03D8101D03D913AB304D033B318
:101E100002D03D8301D03D933AB504D033B502D012
:101E20003D8501D03D953AB704D033B702D03D8708
:101E300001D03D973AB904D033B902D03D8901D0E1
:101E40003D993ABB04D033BB02D03D8B01D03D9BC2
:101E50003ABD04D033BD02D03D8D01D03D9D3ABF87
:101E600004D033BF02D03D8F01D03D9F000E3DBF57
:101E7000010E2312D8902334CC6F000E3DBD010E0D
:101E8000CC11236ED8902334CC6F000E3DBB010ED5
:101E9000CC11236ED8902334CC6F000E3DB9010EC7
:101EA000CC11236ED8902334CC6F000E3DB7010EB9
:101EB000CC11236ED8902334CC6F000E3DB5010EAB
:101EC000CC11236ED8902334CC6F000E3DB3010E9D
:101ED000CC11236ED8902334CC6F000E3DB1010E8F
:101EE000CC11236E000E3ABF010E1B12D8901B348A
:101EF000CC6F000E3ABD010ECC111B6ED8901B3476
:101F0000CC6F000E3ABB010ECC111B6ED8901B3467
:101F1000CC6F000E3AB9010ECC111B6ED8901B3459
:101F2000CC6F000E3AB7010ECC111B6ED8901B344B
:101F3000CC6F000E3AB5010ECC111B6ED8901B343D
:101F4000CC6F000E3AB3010ECC111B6ED8901B342F
:101F5000CC6F000E3AB1010ECC111B6E000146EFA2
:101F600014F0948082B002D017AE02D017A406D02D
:101F7000320E0701CF6F0001B8EC03F0948082B0FD
:101F800002D017AE02D017A455D017941A6A0701D1
:101F90003AB102D03BA105D039813A913B913391BE
:101FA00040913AB302D03BA305D039833A933B9397
:101FB000339340933AB502D03BA505D039853A9585
:101FC0003B95339540953AB702D03BA705D039876A
:101FD0003A973B97339740973AB902D03BA905D03F
:101FE00039893A993B99339940993ABB02D03BAB36
:101FF00005D0398B3A9B3B9B339B409B3ABD02D02B
:102000003BAD05D0398D3A9D3B9D339D409D3ABFF8
:1020100002D03BAF05D0398F3A9F3B9F339F409F03
:102020002DA201D02D92178E89889298898692963A
:1020300008D00001948082A003D017AE01D0179E73
:1020400007010001000C948282B202D02DA002D0C0
:1020500017A606D0320E0701CF6F0001B8EC03F0CF
:10206000948282B202D02DA002D017A65DD017961E
:10207000000E070132B1010ECC6F000E34B1010E1B
:10208000CC1902E13AA13381000E32B3010ECC6FBC
:10209000000E34B3010ECC1902E13AA33383000ED3
:1020A00032B5010ECC6F000E34B5010ECC1902E131
:1020B0003AA53385000E32B7010ECC6F000E34B74F
:1020C000010ECC1902E13AA73387000E32B9010E96
:1020D000CC6F000E34B9010ECC1902E13AA9338954
:1020E000000E32BB010ECC6F000E34BB010ECC19BA
:1020F00002E13AAB338B000E32BD010ECC6F000E05
:1021000034BD010ECC1902E13AAD338D000E32BF61
:10211000010ECC6F000E34BF010ECC1902E13AAFB4
:10212000338F2D8008D00001948282A203D02DA08D
:1021300001D02D9007010001000C0400010E765C17
:102140000701CC6F010ECE6F760ECD6FCCC7CFF7E7
:10215000000119DE010E765C760FE96E010EEA6E63
:10216000D8B0EA2AEF500501775DD8A475EF20F0CA
:10217000760E7624E96E010EEA6ED8B0EA2AEF50A8
:10218000765DD8A475EF20F001017651AA08D8A495
:102190005DD177512008D8A459D175C077F0200EB1
:1021A000786E1C0E796E37C07AF038C07BF039C07B
:1021B0007CF03AC07DF03BC07EF03CC07FF03DC07B
:1021C00080F03EC081F03FC082F040C083F041C04B
:1021D00084F042C085F043C086F044C087F045C01B
:1021E00088F0F2CFCCF7F29EAA6A100EA96EA69CD8
:1021F000A69EA680A8500701CCBFF28E0001896F71
:10220000F2CFCCF7F29EAA6A110EA96EA69CA69EEA
:10221000A680A8500701CCBFF28E00018A6FF2CFD2
:10222000CCF7F29EAA6A120EA96EA69CA69EA68064
:10223000A8500701CCBFF28E00018B6FF2CFCCF714
:10224000F29EAA6A130EA96EA69CA69EA680A8500E
:102250000701CCBFF28E00018C6FF2CFCCF7F29E5B
:10226000AA6A140EA96EA69CA69EA680A850070175
:10227000CCBFF28E00018D6FF2CFCCF7F29EAA6A2E
:10228000150EA96EA69CA69EA680A8500701CCBFDD
:10229000F28E00018E6FF2CFCCF7F29EAA6A160E74
:1022A000A96EA69CA69EA680A8500701CCBFF28E60
:1022B00000018F6FF2CFCCF7F29EAA6A170EA96EBB
:1022C000A69CA69EA680A8500701CCBFF28E000156
:1022D000906F67C091F068C092F069C093F06AC0D7
:1022E00094F0850E956F75C096F087C797F089C7F3
:1022F00098F08BC799F08DC79AF08FC79BF091C764
:102300009CF093C79DF095C79EF097C79FF099C723
:10231000A0F09BC7A1F09DC7A2F09FC7A3F0A1C7E3
:10232000A4F0A3C7A5F0A5C7A6F0A7C7A7F0A9C7A3
:10233000A8F0ABC7A9F0ADC7AAF00701CE6B770E26
:10234000CD6F340ECF6F00011EDD77C5ABF076C5C3
:10235000ACF08A8693960A0E0701CF6F0001B8ECA5
:1023600003F077500BDD785009DD795007DD7A50A6
:1023700005DD7B5003DD7C5001DD7D50FFDC7E50B0
:10238000FDDC7F50FBDC8051F9DC8151F7DC8251B0
:10239000F5DC8351F3DC8451F1DC8551EFDC8651AF
:1023A000EDDC8751EBDC8851E9DC8951E7DC8A51AF
:1023B000E5DC8B51E3DC8C51E1DC8D51DFDC8E51AF
:1023C000DDDC8F51DBDC9051D9DC9151D7DC9251AF
:1023D000D5DC9351D3DC9451D1DC9551CFDC9651AF
:1023E000CDDC9751CBDC9851C9DC9951C7DC9A51AF
:1023F000C5DC9B51C3DC9C51C1DC9D51BFDC9E51AF
:10240000BDDC9F51BBDCA051B9DCA151B7DCA251AE
:10241000B5DCA351B3DCA451B1DCA551AFDCA651AE
:10242000ADDCA751ABDCA851A9DCA951A7DCAA51AE
:10243000A5DCAB51A3DCAC51A1DC030E0701CF6FCF
:102440000001B8EC03F08A96939601017550765D11
:10245000D8A470EF20F0772D12D205017B6B78C1E4
:102460007AF57AC5CDF70701CC6BCC510101791112
:1024700005017A6FCDC77BF505017D6B7AC17CF5CF
:102480007CC5CDF70701CC6BCC5101017B11050157
:102490007C6FCDC77DF505017B53D8A4B8D17A51A7
:1024A0000F08D8A0B4D17C517A250701CC6F050163
:1024B0007D517B210701CD6FCD53D8B402D00501EA
:1024C000A6D1CC511008D8B002D00501A0D1050189
:1024D0007D5306E17C51080803E3010E7E6F12D0A4
:1024E0007D5306E17C51100803E3020E7E6F0AD093
:1024F0007D5306E17C51180803E3030E7E6F02D082
:10250000010E7E6F7E2DA1D07B530DE17A5108081C
:102510000AE346C07FF57A51016E04E0D8907F331C
:10252000012EFCD71AD07B5303E17A51080815E23B
:102530007B5313E17A510F0810E3080E7A5D006EA9
:10254000000E7B59036E00C001F047C07FF50152B9
:1025500004E0D8907F33012EFCD77C51080803E1BA
:102560007D5301E135D07C51070804E17D5302E140
:102570007F9F2ED07C51060805E17D5303E13F0E7D
:102580007F1726D07C51050805E17D5303E11F0E1E
:102590007F171ED07C51040805E17D5303E10F0E27
:1025A0007F1716D07C51030805E17D5303E1070E28
:1025B0007F170ED07C51020805E17D5303E1030E25
:1025C0007F1706D07C2D04D07D5302E1010E7F17CA
:1025D00075C077F0010E786E7EC579F07FC57AF010
:1025E0000701CE6B770ECD6F040ECF6F0001C3ECE9
:1025F0000EF077C57BF076C57CF08A869396040052
:10260000040E0701CF6F0001B8EC03F0040077500F
:10261000BEEC0EF07850BEEC0EF07950BEEC0EF031
:102620007A50BEEC0EF07B50BEEC0EF07C50BEEC4F
:102630000EF00400030E0701CF6F0001B8EC03F0A9
:1026400004008A969396E1D005017E510208D8A431
:10265000DDD046C07FF57A51016E04E0D8907F331B
:10266000012EFCD747C080F5070E7C5D0701CC6FBB
:10267000000E05017D590701CD6FCC51080803E11B
:10268000CD5301E183D0070E05017C5D0701CC6FBE
:10269000000E05017D590701CD6FCC51070805E1FA
:1026A000CD5303E10501809F70D0070E05017C5DCD
:1026B0000701CC6F000E05017D590701CD6FCC518C
:1026C000060806E1CD5304E13F0E050180175DD0F9
:1026D000070E05017C5D0701CC6F000E05017D59D9
:1026E0000701CD6FCC51050806E1CD5304E11F0E63
:1026F000050180174AD0070E05017C5D0701CC6FEC
:10270000000E05017D590701CD6FCC51040806E18B
:10271000CD5304E10F0E0501801737D0070E0501D8
:102720007C5D0701CC6F000E05017D590701CD6F5F
:10273000CC51030806E1CD5304E1070E05018017D3
:1027400024D0070E05017C5D0701CC6F000E05014A
:102750007D590701CD6FCC51020806E1CD5304E14C
:10276000030E0501801711D0070E05017C5D0701DE
:10277000CC6F000E05017D590701CD6FCC2D06D021
:10278000CD5304E1010E05018017070175C077F0F4
:10279000010E786E7EC579F07FC57AF080C57BF03A
:1027A000CE6B770ECD6F050ECF6F0001C3EC0EF030
:1027B00077C57CF076C57DF08A8693960400040E7A
:1027C0000701CF6F0001B8EC03F004007750BEECB6
:1027D0000EF07850BEEC0EF07950BEEC0EF07A5050
:1027E000BEEC0EF07B50BEEC0EF07C50BEEC0EF05A
:1027F0007D50BEEC0EF00400030E0701CF6F000108
:10280000B8EC03F004008A969396050137D075C0A2
:1028100077F0810E786E020E796E0701CE6B770E1F
:10282000CD6F030ECF6F0001C3EC0EF077C57AF0C9
:1028300076C57BF08A8693960400040E0701CF6F5D
:102840000001B8EC03F004007750BEEC0EF07850B5
:10285000BEEC0EF07950BEEC0EF07A50BEEC0EF0ED
:102860007B50BEEC0EF00400030E0701CF6F000199
:10287000B8EC03F004008A969396050101017751A4
:102880000708D8A4B1D00001FBEF0EF09D921BC049
:102890007FF51CC080F51DC081F51EC082F51FC0EC
:1028A00083F520C084F521C085F522C086F523C0BC
:1028B00087F524C088F525C089F526C08AF527C08C
:1028C0008BF528C08CF529C08DF52AC08EF575C012
:1028D00077F0070E786E100E05017E6F7EC579F0D9
:1028E0007FC57AF080C57BF081C57CF082C57DF024
:1028F00083C57EF084C57FF085C580F086C581F0F4
:1029000087C582F088C583F089C584F08AC585F0C3
:102910008BC586F08CC587F08DC588F08EC589F093
:102920000701CE6B770ECD6F130ECF6F0001C3EC96
:102930000EF077C58AF076C58BF08A8693960400F0
:10294000040E0701CF6F0001B8EC03F004007750CC
:10295000BEEC0EF07850BEEC0EF07950BEEC0EF0EE
:102960007A50BEEC0EF07B50BEEC0EF07C50BEEC0C
:102970000EF07D50BEEC0EF07E50BEEC0EF07F509F
:10298000BEEC0EF08051BEEC0EF08151BEEC0EF0AC
:102990008251BEEC0EF08351BEEC0EF08451BEECC1
:1029A0000EF08551BEEC0EF08651BEEC0EF0875154
:1029B000BEEC0EF08851BEEC0EF08951BEEC0EF06C
:1029C0008A51BEEC0EF08B51BEEC0EF00400030EEB
:1029D0000701CF6F0001B8EC03F004008A969396CC
:1029E0009D8227EF20F0010177510508D8A475D208
:1029F00005017B6B78C17AF57AC5CDF70701CC6B01
:102A0000CC510101791105017A6FCDC77BF5050124
:102A10007D6B7AC17CF57CC5CDF70701CC6BCC51C1
:102A200001017B1105017C6FCDC77DF505017A534E
:102A30004EE17B534CE17C5349E17D3D47D0178407
:102A400075C077F0050E786E78C179F079C17AF0AB
:102A50007AC17BF07BC17CF00701CE6B770ECD6F26
:102A6000060ECF6F0001C3EC0EF077C57DF076C582
:102A70007EF08A8693960400040E0701CF6F000152
:102A8000B8EC03F004007750BEEC0EF07850BEECCA
:102A90000EF07950BEEC0EF07A50BEEC0EF07B508A
:102AA000BEEC0EF07C50BEEC0EF07D50BEEC0EF095
:102AB0007E50BEEC0EF00400030E0701CF6F000144
:102AC000B8EC03F004008A969396050103D27A2DA0
:102AD0004ED07B534CE17C5349E17D3D47D0178676
:102AE00075C077F0050E786E78C179F079C17AF00B
:102AF0007AC17BF07BC17CF00701CE6B770ECD6F86
:102B0000060ECF6F0001C3EC0EF077C57DF076C5E1
:102B10007EF08A8693960400040E0701CF6F0001B1
:102B2000B8EC03F004007750BEEC0EF07850BEEC29
:102B30000EF07950BEEC0EF07A50BEEC0EF07B50E9
:102B4000BEEC0EF07C50BEEC0EF07D50BEEC0EF0F4
:102B50007E50BEEC0EF00400030E0701CF6F0001A3
:102B6000B8EC03F004008A9693960501B3D17A512C
:102B70000208D8A4A4D07B53D8A4A1D07C534AE1A6
:102B80007D3D48D0178875C077F0050E786E78C106
:102B900079F079C17AF07AC17BF07BC17CF00701D2
:102BA000CE6B770ECD6F060ECF6F0001C3EC0EF02B
:102BB00077C57DF076C57EF08A8693960400040E74
:102BC0000701CF6F0001B8EC03F004007750BEECB2
:102BD0000EF07850BEEC0EF07950BEEC0EF07A504C
:102BE000BEEC0EF07B50BEEC0EF07C50BEEC0EF056
:102BF0007D50BEEC0EF07E50BEEC0EF00400030ED5
:102C00000701CF6F0001B8EC03F004008A96939699
:102C100054D005017C5352E17D5350E117980001D7
:102C200025EC0AF01784B1EC0FF0178623EC10F0B6
:102C300075C077F0050E786E78C179F079C17AF0B9
:102C40007AC17BF07BC17CF00701CE6B770ECD6F34
:102C5000060ECF6F0001C3EC0EF077C57DF076C590
:102C60007EF08A8693960400040E0701CF6F000160
:102C7000B8EC03F004007750BEEC0EF07850BEECD8
:102C80000EF07950BEEC0EF07A50BEEC0EF07B5098
:102C9000BEEC0EF07C50BEEC0EF07D50BEEC0EF0A3
:102CA0007E50BEEC0EF00400030E0701CF6F000152
:102CB000B8EC03F004008A96939605010BD17A5183
:102CC0000308D8A4A4D07B53D8A4A1D07C534AE154
:102CD0007D3D48D0178A75C077F0050E786E78C1B3
:102CE00079F079C17AF07AC17BF07BC17CF0070181
:102CF000CE6B770ECD6F060ECF6F0001C3EC0EF0DA
:102D000077C57DF076C57EF08A8693960400040E22
:102D10000701CF6F0001B8EC03F004007750BEEC60
:102D20000EF07850BEEC0EF07950BEEC0EF07A50FA
:102D3000BEEC0EF07B50BEEC0EF07C50BEEC0EF004
:102D40007D50BEEC0EF07E50BEEC0EF004000A0E7C
:102D50000701CF6F0001B8EC03F004008A96939648
:102D600054D005017C5352E17D5350E1179A000184
:102D700025EC0AF01784B1EC0FF0178623EC10F065
:102D800075C077F0050E786E78C179F079C17AF068
:102D90007AC17BF07BC17CF00701CE6B770ECD6FE3
:102DA000060ECF6F0001C3EC0EF077C57DF076C53F
:102DB0007EF08A8693960400040E0701CF6F00010F
:102DC000B8EC03F004007750BEEC0EF07850BEEC87
:102DD0000EF07950BEEC0EF07A50BEEC0EF07B5047
:102DE000BEEC0EF07C50BEEC0EF07D50BEEC0EF052
:102DF0007E50BEEC0EF00400030E0701CF6F000101
:102E0000B8EC03F004008A969396050163D07A51DA
:102E1000640860E17B535EE17CC575F0AA6A1D0E13
:102E2000A96E75C0A8FFA69CA69EA684F250006E4F
:102E3000F29E0F01550EA76EAA0EA76EA682A6B22D
:102E4000FED7A6940050F21275C077F0050E786E8A
:102E500078C179F079C17AF07AC17BF07BC17CF0DE
:102E60000701CE6B770ECD6F060ECF6F0001C3EC5E
:102E70000EF077C57DF076C57EF08A8693960400C5
:102E8000040E0701CF6F0001B8EC03F00400775087
:102E9000BEEC0EF07850BEEC0EF07950BEEC0EF0A9
:102EA0007A50BEEC0EF07B50BEEC0EF07C50BEECC7
:102EB0000EF07D50BEEC0EF07E50BEEC0EF0040025
:102EC000030E0701CF6F0001B8EC03F004008A96EF
:102ED0009396050127EF20F0010177512108D8A42E
:102EE00019EF1CF0AA6AA96A0F0EA86EA69CA69EEE
:102EF000A684F250006EF29E0F01550EA76EAA0E28
:102F0000A76EA682A6B2FED7A6940050F212AA6AB5
:102F1000010EA96E79C1A8FFA69CA69EA684F2CF39
:102F200000F0F29E550EA76EAA0EA76EA682A6B25C
:102F3000FED7A6940050F212AA6A020EA96E7AC1B8
:102F4000A8FFA69CA69EA684F2CF00F0F29E550E86
:102F5000A76EAA0EA76EA682A6B2FED7A6940050B0
:102F6000F212AA6A030EA96E7BC1A8FFA69CA69EB8
:102F7000A684F2CF00F0F29E550EA76EAA0EA76EA1
:102F8000A682A6B2FED7A6940050F212AA6A040E38
:102F9000A96E7CC1A8FFA69CA69EA684F2CF00F0D5
:102FA000F29E550EA76EAA0EA76EA682A6B2FED7F7
:102FB000A6940050F212AA6A050EA96E7DC1A8FF60
:102FC000A69CA69EA684F2CF00F0F29E550EA76E98
:102FD000AA0EA76EA682A6B2FED7A6940050F21241
:102FE000AA6A060EA96E7EC1A8FFA69CA69EA6840C
:102FF000F2CF00F0F29E550EA76EAA0EA76EA68223
:10300000A6B2FED7A6940050F212AA6A070EA96EC5
:103010007FC1A8FFA69CA69EA684F2CF00F0F29ED8
:10302000550EA76EAA0EA76EA682A6B2FED7A694CC
:103030000050F212AA6A080EA96E80C1A8FFA69CD1
:10304000A69EA684F2CF00F0F29E550EA76EAA0EA1
:10305000A76EA682A6B2FED7A6940050F212AA6A64
:10306000090EA96E81C1A8FFA69CA69EA684F2CFD8
:1030700000F0F29E550EA76EAA0EA76EA682A6B20B
:10308000FED7A6940050F212AA6A0A0EA96E82C157
:10309000A8FFA69CA69EA684F2CF00F0F29E550E35
:1030A000A76EAA0EA76EA682A6B2FED7A69400505F
:1030B000F212AA6A0B0EA96E83C1A8FFA69CA69E57
:1030C000A684F2CF00F0F29E550EA76EAA0EA76E50
:1030D000A682A6B2FED7A6940050F212AA6A0C0EDF
:1030E000A96E84C1A8FFA69CA69EA684F2CF00F07C
:1030F000F29E550EA76EAA0EA76EA682A6B2FED7A6
:10310000A6940050F212AA6A0D0EA96E85C1A8FFFE
:10311000A69CA69EA684F2CF00F0F29E550EA76E46
:10312000AA0EA76EA682A6B2FED7A6940050F212EF
:10313000AA6A0E0EA96E86C1A8FFA69CA69EA684AA
:10314000F2CF00F0F29E550EA76EAA0EA76EA682D1
:10315000A6B2FED7A6940050F212AA6A0F0EA96E6C
:1031600087C1A8FFA69CA69EA684F2CF00F0F29E7F
:10317000550EA76EAA0EA76EA682A6B2FED7A6947B
:103180000050F212AA6A100EA96E88C1A8FFA69C70
:10319000A69EA684F2CF00F0F29E550EA76EAA0E50
:1031A000A76EA682A6B2FED7A6940050F212AA6A13
:1031B000110EA96E89C1A8FFA69CA69EA684F2CF77
:1031C00000F0F29E550EA76EAA0EA76EA682A6B2BA
:1031D000FED7A6940050F212AA6A120EA96E8AC1F6
:1031E000A8FFA69CA69EA684F2CF00F0F29E550EE4
:1031F000A76EAA0EA76EA682A6B2FED7A69400500E
:10320000F212AA6A130EA96E8BC1A8FFA69CA69EF5
:10321000A684F2CF00F0F29E550EA76EAA0EA76EFE
:10322000A682A6B2FED7A6940050F212AA6A140E85
:10323000A96E8CC1A8FFA69CA69EA684F2CF00F022
:10324000F29E550EA76EAA0EA76EA682A6B2FED754
:10325000A6940050F212AA6A150EA96E8DC1A8FF9D
:10326000A69CA69EA684F2CF00F0F29E550EA76EF5
:10327000AA0EA76EA682A6B2FED7A6940050F2129E
:10328000AA6A160EA96E8EC1A8FFA69CA69EA68449
:10329000F2CF00F0F29E550EA76EAA0EA76EA68280
:1032A000A6B2FED7A6940050F212AA6A170EA96E13
:1032B0008FC1A8FFA69CA69EA684F2CF00F0F29E26
:1032C000550EA76EAA0EA76EA682A6B2FED7A6942A
:1032D0000050F212AA6A180EA96E90C1A8FFA69C0F
:1032E000A69EA684F2CF00F0F29E550EA76EAA0EFF
:1032F000A76EA682A6B2FED7A6940050F212AA6AC2
:10330000190EA96E91C1A8FFA69CA69EA684F2CF15
:1033100000F0F29E550EA76EAA0EA76EA682A6B268
:10332000FED7A6940050F212AA6A1A0EA96E92C194
:10333000A8FFA69CA69EA684F2CF00F0F29E550E92
:10334000A76EAA0EA76EA682A6B2FED7A6940050BC
:10335000F212AA6A1B0EA96E93C1A8FFA69CA69E94
:10336000A684F2CF00F0F29E550EA76EAA0EA76EAD
:10337000A682A6B2FED7A6940050F212AA6A1C0E2C
:10338000A96E94C1A8FFA69CA69EA684F2CF00F0C9
:10339000F29E550EA76EAA0EA76EA682A6B2FED703
:1033A000A6940050F212AA6A1D0EA96E95C1A8FF3C
:1033B000A69CA69EA684F2CF00F0F29E550EA76EA4
:1033C000AA0EA76EA682A6B2FED7A6940050F2124D
:1033D000AA6A1E0EA96E96C1A8FFA69CA69EA684E8
:1033E000F2CF00F0F29E550EA76EAA0EA76EA6822F
:1033F000A6B2FED7A6940050F212AA6A1F0EA96EBA
:1034000097C1A8FFA69CA69EA684F2CF00F0F29ECC
:10341000550EA76EAA0EA76EA682A6B2FED7A694D8
:103420000050F212AA6A200EA96E98C1A8FFA69CAD
:10343000A69EA684F2CF00F0F29E550EA76EAA0EAD
:10344000A76EA682A6B2FED7A6940050F212AA6A70
:10345000210EA96E99C1A8FFA69CA69EA684F2CFB4
:1034600000F0F29E550EA76EAA0EA76EA682A6B217
:10347000FED7A6940050F212AA6A220EA96E9AC133
:10348000A8FFA69CA69EA684F2CF00F0F29E550E41
:10349000A76EAA0EA76EA682A6B2FED7A69400506B
:1034A000F212AA6A230EA96E9BC1A8FFA69CA69E33
:1034B000A684F2CF00F0F29E550EA76EAA0EA76E5C
:1034C000A682A6B2FED7A6940050F212AA6A240ED3
:1034D000A96E9CC1A8FFA69CA69EA684F2CF00F070
:1034E000F29E550EA76EAA0EA76EA682A6B2FED7B2
:1034F000A6940050F212AA6A250EA96E9DC1A8FFDB
:10350000A69CA69EA684F2CF00F0F29E550EA76E52
:10351000AA0EA76EA682A6B2FED7A6940050F212FB
:10352000AA6A260EA96E9EC1A8FFA69CA69EA68486
:10353000F2CF00F0F29E550EA76EAA0EA76EA682DD
:10354000A6B2FED7A6940050F212AA6A270EA96E60
:103550009FC1A8FFA69CA69EA684F2CF00F0F29E73
:10356000550EA76EAA0EA76EA682A6B2FED7A69487
:103570000050F212AA6A280EA96EA0C1A8FFA69C4C
:10358000A69EA684F2CF00F0F29E550EA76EAA0E5C
:10359000A76EA682A6B2FED7A6940050F212AA6A1F
:1035A000290EA96EA1C1A8FFA69CA69EA684F2CF53
:1035B00000F0F29E550EA76EAA0EA76EA682A6B2C6
:1035C000FED7A6940050F212AA6A2A0EA96EA2C1D2
:1035D000A8FFA69CA69EA684F2CF00F0F29E550EF0
:1035E000A76EAA0EA76EA682A6B2FED7A69400501A
:1035F000F212AA6A2B0EA96EA3C1A8FFA69CA69ED2
:10360000A684F2CF00F0F29E550EA76EAA0EA76E0A
:10361000A682A6B2FED7A6940050F212AA6A2C0E79
:10362000A96EA4C1A8FFA69CA69EA684F2CF00F016
:10363000F29E550EA76EAA0EA76EA682A6B2FED760
:10364000A6940050F212AA6A2D0EA96EA5C1A8FF79
:10365000A69CA69EA684F2CF00F0F29E550EA76E01
:10366000AA0EA76EA682A6B2FED7A6940050F212AA
:10367000AA6A2E0EA96EA6C1A8FFA69CA69EA68425
:10368000F2CF00F0F29E550EA76EAA0EA76EA6828C
:10369000A6B2FED7A6940050F212AA6A2F0EA96E07
:1036A000A7C1A8FFA69CA69EA684F2CF00F0F29E1A
:1036B000550EA76EAA0EA76EA682A6B2FED7A69436
:1036C0000050F212AA6A300EA96EA8C1A8FFA69CEB
:1036D000A69EA684F2CF00F0F29E550EA76EAA0E0B
:1036E000A76EA682A6B2FED7A6940050F212AA6ACE
:1036F000310EA96EA9C1A8FFA69CA69EA684F2CFF2
:1037000000F0F29E550EA76EAA0EA76EA682A6B274
:10371000FED7A6940050F2120701C76B0400AA0E50
:10372000C725E96E010EEA6ED8B0EA2AEFCFC8F7D6
:10373000C8510D0803E0C7510F0824E2036AC751BE
:10374000830FE96E060E0320EA6EEF6A320EC7257C
:10375000CC6FAA6ACCC7A9FFC8C7A8FFA69CA69E23
:10376000A684F250006EF29E0F01550EA76EAA0EAF
:10377000A76EA682A6B2FED7A6940050F21228D059
:1037800023D00701036AC751830FE96E060E032099
:10379000EA6EC8C7EFFF320EC725CC6FAA6ACCC746
:1037A000A9FFC8C7A8FFA69CA69EA684F250006EDB
:1037B000F29E0F01550EA76EAA0EA76EA682A6B2A4
:1037C000FED7A6940050F2120701C72BA7D70F010E
:1037D00075C077F0210E786E0701CE6B770ECD6F36
:1037E000020ECF6F0001C3EC0EF077C579F076C5FD
:1037F0007AF08A8693960A0E0701CF6F0001B8EC23
:1038000003F07750BEEC0EF07850BEEC0EF079501D
:10381000BEEC0EF07A50BEEC0EF0030E0701CF6F37
:103820000001B8EC03F08A969396FF0027EF20F092
:10383000010177512208D8A427EF20F0030E0701D9
:10384000C96FCA6BCB6B0400760EC925E96E010EF9
:10385000EA6ED8B0EA2AEF500D0803E0CA510F080B
:1038600025E25D0EC925CC6F760EC925E96E010EE5
:10387000EA6ED8B0EA2AEFCFCDF7AA6ACCC7A9FF83
:10388000CDC7A8FFA69CA69EA684F250006EF29E0D
:103890000F01550EA76EAA0EA76EA682A6B2FED77E
:1038A000A6940050F2123FD038D00701036ACA51E3
:1038B000920F016E060E0322760EC925E96E010EE7
:1038C000EA6ED8B0EA2AEFCFCEF703C0EAFF01C014
:1038D000E9FFCEC7EFFF5D0EC925CC6F760EC92577
:1038E000E96E010EEA6ED8B0EA2AEFCFCDF7AA6AE8
:1038F000CCC7A9FFCDC7A8FFA69CA69EA684F25060
:10390000006EF29E0F01550EA76EAA0EA76EA6823C
:10391000A6B2FED7A6940050F2120701C951C92BD6
:10392000CA2B91D70F01036A0701CA51920FE96EA2
:10393000060E0320EA6EEF6ACA6BC92B0400760EEE
:10394000C925E96E010EEA6ED8B0EA2AEF500D08DB
:1039500003E0CA510F0825E25D0EC925CC6F760E33
:10396000C925E96E010EEA6ED8B0EA2AEFCFCDF78D
:10397000AA6ACCC7A9FFCDC7A8FFA69CA69EA6840D
:10398000F250006EF29E0F01550EA76EAA0EA76EA2
:10399000A682A6B2FED7A6940050F2123FD038D02D
:1039A0000701036ACA51A60F016E060E0322760EA6
:1039B000C925E96E010EEA6ED8B0EA2AEFCFCEF73C
:1039C00003C0EAFF01C0E9FFCEC7EFFF5D0EC925C6
:1039D000CC6F760EC925E96E010EEA6ED8B0EA2AE0
:1039E000EFCFCDF7AA6ACCC7A9FFCDC7A8FFA69C89
:1039F000A69EA684F250006EF29E0F01550EA76E91
:103A0000AA0EA76EA682A6B2FED7A6940050F21206
:103A10000701C951C92BCA2B91D70F01036A0701AE
:103A2000CA51A60FE96E060E0320EA6EEF6ACA6B52
:103A3000C92B0400760EC925E96E010EEA6ED8B0D6
:103A4000EA2AEF500D0803E0CA510F0825E25D0E87
:103A5000C925CC6F760EC925E96E010EEA6ED8B085
:103A6000EA2AEFCFCDF7AA6ACCC7A9FFCDC7A8FF36
:103A7000A69CA69EA684F250006EF29E0F01550EE3
:103A8000A76EAA0EA76EA682A6B2FED7A694005075
:103A9000F2123FD038D00701036ACA51BA0F016E43
:103AA000060E0322760EC925E96E010EEA6ED8B025
:103AB000EA2AEFCFCEF703C0EAFF01C0E9FFCEC785
:103AC000EFFF5D0EC925CC6F760EC925E96E010E9C
:103AD000EA6ED8B0EA2AEFCFCDF7AA6ACCC7A9FF21
:103AE000CDC7A8FFA69CA69EA684F250006EF29EAB
:103AF0000F01550EA76EAA0EA76EA682A6B2FED71C
:103B0000A6940050F2120701C951C92BCA2B91D7B4
:103B10000F01036A0701CA51BA0FE96E060E0320AE
:103B2000EA6EEF6ACA6BC92B0400760EC925E96EEE
:103B3000010EEA6ED8B0EA2AEF500D0803E0CA5130
:103B40000F0825E25D0EC925CC6F760EC925E96EFA
:103B5000010EEA6ED8B0EA2AEFCFCDF7AA6ACCC739
:103B6000A9FFCDC7A8FFA69CA69EA684F250006E12
:103B7000F29E0F01550EA76EAA0EA76EA682A6B2E0
:103B8000FED7A6940050F2123FD038D00701036A46
:103B9000CA51CE0F016E060E0322760EC925E96EBC
:103BA000010EEA6ED8B0EA2AEFCFCEF703C0EAFFE3
:103BB00001C0E9FFCEC7EFFF5D0EC925CC6F760EC1
:103BC000C925E96E010EEA6ED8B0EA2AEFCFCDF72B
:103BD000AA6ACCC7A9FFCDC7A8FFA69CA69EA684AB
:103BE000F250006EF29E0F01550EA76EAA0EA76E40
:103BF000A682A6B2FED7A6940050F2120701C951C0
:103C0000C92BCA2B91D70F01036A0701CA51CE0FE6
:103C1000E96E060E0320EA6EEF6ACA6BC92B040038
:103C2000760EC925E96E010EEA6ED8B0EA2AEF5089
:103C30000D0803E0CA510F0825E25D0EC925CC6FBF
:103C4000760EC925E96E010EEA6ED8B0EA2AEFCFEA
:103C5000CDF7AA6ACCC7A9FFCDC7A8FFA69CA69E90
:103C6000A684F250006EF29E0F01550EA76EAA0EAA
:103C7000A76EA682A6B2FED7A6940050F2123FD03D
:103C800038D00701036ACA51E20F016E060E032203
:103C9000760EC925E96E010EEA6ED8B0EA2AEFCF9A
:103CA000CEF703C0EAFF01C0E9FFCEC7EFFF5D0E0C
:103CB000C925CC6F760EC925E96E010EEA6ED8B023
:103CC000EA2AEFCFCDF7AA6ACCC7A9FFCDC7A8FFD4
:103CD000A69CA69EA684F250006EF29E0F01550E81
:103CE000A76EAA0EA76EA682A6B2FED7A694005013
:103CF000F2120701C951C92BCA2B91D70F01036AD0
:103D00000701CA51E20FE96E060E0320EA6EEF6A60
:103D1000CA6BC92B0400760EC925E96E010EEA6E46
:103D2000D8B0EA2AEF500D0803E0CA510F0825E287
:103D30005D0EC925CC6F760EC925E96E010EEA6EBF
:103D4000D8B0EA2AEFCFCDF7AA6ACCC7A9FFCDC772
:103D5000A8FFA69CA69EA684F250006EF29E0F01BC
:103D6000550EA76EAA0EA76EA682A6B2FED7A6947F
:103D70000050F21241D03AD007015D0EC925CC6F38
:103D8000760EC925E96E010EEA6ED8B0EA2AEFCFA9
:103D9000CDF7AA6ACCC7A9FFCDC7A8FFA69CA69E4F
:103DA000A684F250006EF29E0F01550EA76EAA0E69
:103DB000A76EA682A6B2FED7A6940050F212036A9E
:103DC0000701CA51F60F016E060E0322760EC925B1
:103DD000E96E010EEA6ED8B0EA2AEFCFCEF703C043
:103DE000EAFF01C0E9FFCEC7EFFF0F010701C9518C
:103DF000C92BCA2B8FD70F01036A0701CA51F60FCF
:103E0000E96E060E0320EA6EEF6ACA6BC92B040046
:103E1000760EC925E96E010EEA6ED8B0EA2AEF5097
:103E20000D0803E0CA510F0825E25D0EC925CC6FCD
:103E3000760EC925E96E010EEA6ED8B0EA2AEFCFF8
:103E4000CDF7AA6ACCC7A9FFCDC7A8FFA69CA69E9E
:103E5000A684F250006EF29E0F01550EA76EAA0EB8
:103E6000A76EA682A6B2FED7A6940050F2123FD04B
:103E700038D00701036ACA510A0F016E070E0322E8
:103E8000760EC925E96E010EEA6ED8B0EA2AEFCFA8
:103E9000CEF703C0EAFF01C0E9FFCEC7EFFF5D0E1A
:103EA000C925CC6F760EC925E96E010EEA6ED8B031
:103EB000EA2AEFCFCDF7AA6ACCC7A9FFCDC7A8FFE2
:103EC000A69CA69EA684F250006EF29E0F01550E8F
:103ED000A76EAA0EA76EA682A6B2FED7A694005021
:103EE000F2120701C951C92BCA2B91D70F01036ADE
:103EF0000701CA510A0FE96E070E0320EA6EEF6A46
:103F0000CA6BC92B0400760EC925E96E010EEA6E54
:103F1000D8B0EA2AEF500D0803E0CA510F0825E295
:103F20005D0EC925CC6F760EC925E96E010EEA6ECD
:103F3000D8B0EA2AEFCFCDF7AA6ACCC7A9FFCDC780
:103F4000A8FFA69CA69EA684F250006EF29E0F01CA
:103F5000550EA76EAA0EA76EA682A6B2FED7A6948D
:103F60000050F2123FD038D00701036ACA511E0F29
:103F7000016E070E0322760EC925E96E010EEA6E68
:103F8000D8B0EA2AEFCFCEF703C0EAFF01C0E9FFBD
:103F9000CEC7EFFF5D0EC925CC6F760EC925E96E41
:103FA000010EEA6ED8B0EA2AEFCFCDF7AA6ACCC7E5
:103FB000A9FFCDC7A8FFA69CA69EA684F250006EBE
:103FC000F29E0F01550EA76EAA0EA76EA682A6B28C
:103FD000FED7A6940050F2120701C951C92BCA2B73
:103FE00091D70F01036A0701CA511E0FE96E070E30
:103FF0000320EA6EEF6A75C077F0210E786ECE6B03
:10400000770ECD6F020ECF6F0001C3EC0EF077C5B7
:1040100079F076C57AF08A8693960A0E0701CF6FFB
:104020000001B8EC03F07750BEEC0EF07850BEEC17
:104030000EF07950BEEC0EF07A50BEEC0EF0030E8E
:104040000701CF6F0001B8EC03F08A969396010147
:104050007751030845E105017F6B46C080F575C0C7
:1040600077F0030E786E020E796E7FC57AF080C508
:104070007BF00701CE6B770ECD6F050ECF6F000181
:10408000C3EC0EF077C57CF076C57DF08A869396FA
:104090000400040E0701CF6F0001B8EC03F0040028
:1040A0007750BEEC0EF07850BEEC0EF07950BEECBE
:1040B0000EF07A50BEEC0EF07B50BEEC0EF07C5051
:1040C000BEEC0EF07D50BEEC0EF00400030E0701B6
:1040D000CF6F0001B8EC03F004008A9693960101BB
:1040E000010E0501796FF40E786F2D9A6CC074F093
:1040F0000601806B766A8A9693960001C5EF31F0CF
:104100006A50080823E10701329134A132813293C9
:1041100034A33283329534A53285329734A732875F
:10412000329934A93289329B34AB328B329D34AD13
:10413000328D329F34AF328F399139933995399717
:104140003999399B399D399F25D000016A50100853
:1041500021E10701329134A13281329334A33283B9
:10416000329534A53285329734A73287329934A9F3
:104170003289329B34AB328B329D34AD328D329FDB
:1041800034AF328F39913993399539973999399BB1
:10419000399D399F000143EF2EF0EF5211E0EACF35
:1041A000D0F7E9CFCFF7EF5004009EA8FDD7AD6E52
:1041B000D0C7EAFFCFC7E9FFE92AD8B4EA2AEDD78A
:1041C000000C0701CF2DE4D0000E3AB1010ED16FE3
:1041D000000E3BB1010ED113000E39A1010ED11713
:1041E000000E36B1010ED26F000E37B1010ED211A2
:1041F000D115D091E8B0D081000ED0B1010ED16FB1
:10420000000E3AB3010ED26F000E3BB3010ED21373
:10421000000E39A3010ED217000E36B3010ED36F74
:10422000000E37B3010ED311D215D111D091E8B0E1
:10423000D081000ED0B1010ED16F000E3AB5010E43
:10424000D26F000E3BB5010ED213000E39A5010E40
:10425000D217000E36B5010ED36F000E37B5010E22
:10426000D311D215D111D091E8B0D081000ED0B1C8
:10427000010ED16F000E3AB7010ED26F000E3BB7A0
:10428000010ED213000E39A7010ED217000E36B759
:10429000010ED36F000E37B7010ED311D215D11115
:1042A000D091E8B0D081000ED0B1010ED16F000ED8
:1042B0003AB9010ED26F000E3BB9010ED213000EB7
:1042C00039A9010ED217000E36B9010ED36F000EB8
:1042D00037B9010ED311D215D111D091E8B0D081E8
:1042E000000ED0B1010ED16F000E3ABB010ED26F9D
:1042F000000E3BBB010ED213000E39AB010ED217DC
:10430000000E36BB010ED36F000E37BB010ED3116A
:10431000D215D111D091E8B0D081000ED0B1010EEC
:10432000D16F000E3ABD010ED26F000E3BBD010EE3
:10433000D213000E39AD010ED217000E36BD010E9C
:10434000D36F000E37BD010ED311D215D111D0910C
:10435000E8B0D081000ED0B1010ED16F000E3ABF8F
:10436000010ED26F000E3BBF010ED213000E39AF0B
:10437000010ED217000E36BF010ED36F000E37BFED
:10438000010ED311D215D111D091E8B0D081E7D070
:10439000CF510208D8A4E3D0000E3AB1010ED16F7C
:1043A000000E3BB1010ED113000E39A1010ED11741
:1043B000000E36A1010ED26F000E37B1010ED211E0
:1043C000D115D091E8B0D081000ED0B1010ED16FDF
:1043D000000E3AB3010ED26F000E3BB3010ED213A2
:1043E000000E39A3010ED217000E36A3010ED36FB3
:1043F000000E37B3010ED311D215D111D091E8B010
:10440000D081000ED0B1010ED16F000E3AB5010E71
:10441000D26F000E3BB5010ED213000E39A5010E6E
:10442000D217000E36A5010ED36F000E37B5010E60
:10443000D311D215D111D091E8B0D081000ED0B1F6
:10444000010ED16F000E3AB7010ED26F000E3BB7CE
:10445000010ED213000E39A7010ED217000E36A797
:10446000010ED36F000E37B7010ED311D215D11143
:10447000D091E8B0D081000ED0B1010ED16F000E06
:104480003AB9010ED26F000E3BB9010ED213000EE5
:1044900039A9010ED217000E36A9010ED36F000EF6
:1044A00037B9010ED311D215D111D091E8B0D08116
:1044B000000ED0B1010ED16F000E3ABB010ED26FCB
:1044C000000E3BBB010ED213000E39AB010ED2170A
:1044D000000E36AB010ED36F000E37BB010ED311A9
:1044E000D215D111D091E8B0D081000ED0B1010E1B
:1044F000D16F000E3ABD010ED26F000E3BBD010E12
:10450000D213000E39AD010ED217000E36AD010EDA
:10451000D36F000E37BD010ED311D215D111D0913A
:10452000E8B0D081000ED0B1010ED16F000E3ABFBD
:10453000010ED26F000E3BBF010ED213000E39AF39
:10454000010ED217000E36AF010ED36F000E37BF2B
:10455000010ED311D215D111D091E8B0D081000E47
:10456000D0B1010E016E0001000C070138A171D01D
:10457000000E32B1010ECF6F000E34B1010ECF1913
:10458000010802E135B102D03AA160D039B15DD065
:104590003AB107D067500F0804E1640E196E68C085
:1045A0001AF03A8117B202D0339101D0338117B893
:1045B0000ED037B105D0899892988996929607D0F7
:1045C00036A103D08998929802D08996929640B1EC
:1045D0003CD02DB23AD039B138D0D60EF66E050E99
:1045E000F76E0001ACEC0EF00A0EBEEC0EF00A0EF7
:1045F0000701CF6F0001B8EC03F007014081E00E26
:10460000F66E050EF76E0001ACEC0EF0060EEA6ECB
:10461000830EE96EC2DD220E04009EA8FDD7AD6EAA
:104620000A0EBEEC0EF0320E0701CF6F0001B8EC9F
:1046300003F0060EEA6E920EE96EAFDD0A0EBEECD6
:104640000EF01A0EBEEC0EF0070102D035B1399112
:104650004DD0000E32B1010ECF6F000E34B1010EFD
:10466000CF19010840E1339140B13CD02DB23AD08E
:1046700039B138D0EA0EF66E050EF76E0001ACECDB
:104680000EF00A0EBEEC0EF00A0E0701CF6F00010D
:10469000B8EC03F007014081F40EF66E050EF76EDC
:1046A0000001ACEC0EF0060EEA6E830EE96E75DDCD
:1046B000220E04009EA8FDD7AD6E0A0EBEEC0EF0D1
:1046C000320E0701CF6F0001B8EC03F0060EEA6E60
:1046D000920EE96E62DD0A0EBEEC0EF01A0EBEEC12
:1046E0000EF0070103D0338140912D9238A371D091
:1046F000000E32B3010ECF6F000E34B3010ECF198E
:10470000010802E135B302D03AA360D039B31FD01B
:104710003AB307D067500F0804E1640E196E68C001
:104720001AF03A8317B202D0339301D0338317B80B
:104730000ED037B305D0899892988996929607D073
:1047400036A303D08998929802D08996929640B366
:104750003CD02DB23AD039B338D0FE0EF66E050EED
:10476000F76E0001ACEC0EF00A0EBEEC0EF00A0E75
:104770000701CF6F0001B8EC03F007014083080E7A
:10478000F66E060EF76E0001ACEC0EF0060EEA6E49
:10479000830EE96E02DD220E04009EA8FDD7AD6EE9
:1047A0000A0EBEEC0EF0320E0701CF6F0001B8EC1E
:1047B00003F0060EEA6EA60EE96EEFDC0A0EBEEC02
:1047C0000EF01A0EBEEC0EF0070102D035B339938D
:1047D0004DD0000E32B3010ECF6F000E34B3010E78
:1047E000CF19010840E1339340B33CD02DB23AD009
:1047F00039B338D0120EF66E060EF76E0001ACEC2F
:104800000EF00A0EBEEC0EF00A0E0701CF6F00018B
:10481000B8EC03F0070140831C0EF66E060EF76E2F
:104820000001ACEC0EF0060EEA6E830EE96EB5DC0C
:10483000220E04009EA8FDD7AD6E0A0EBEEC0EF04F
:10484000320E0701CF6F0001B8EC03F0060EEA6EDE
:10485000920EE96EA2DC0A0EBEEC0EF01A0EBEEC51
:104860000EF0070103D0338340932D9238A571D009
:10487000000E32B5010ECF6F000E34B5010ECF1908
:10488000010802E135B502D03AA560D039B51FD094
:104890003AB507D067500F0804E1640E196E68C07E
:1048A0001AF03A8517B202D0339501D0338517B884
:1048B0000ED037B505D0899892988996929607D0F0
:1048C00036A503D08998929802D08996929640B5E1
:1048D0003CD02DB23AD039B538D0260EF66E060E41
:1048E000F76E0001ACEC0EF00A0EBEEC0EF00A0EF4
:1048F0000701CF6F0001B8EC03F007014085300ECF
:10490000F66E060EF76E0001ACEC0EF0060EEA6EC7
:10491000830EE96E42DC220E04009EA8FDD7AD6E28
:104920000A0EBEEC0EF0320E0701CF6F0001B8EC9C
:1049300003F0060EEA6EBA0EE96E2FDC0A0EBEEC2C
:104940000EF01A0EBEEC0EF0070102D035B5399507
:104950004ED0000E32B5010ECF6F000E34B5010EF1
:10496000CF19010842E1339540B53ED02DB23CD07D
:1049700039B53AD03A0EF66E060EF76E0001ACEC81
:104980000EF00A0EBEEC0EF00A0E0701CF6F00010A
:10499000B8EC03F007014085440EF66E060EF76E84
:1049A0000001ACEC0EF0060EEA6E830EE96ECDEC63
:1049B00020F0220E04009EA8FDD7AD6E0A0EBEECBC
:1049C0000EF0320E0701CF6F0001B8EC03F0060EB7
:1049D000EA6EBA0EE96ECDEC20F00A0EBEEC0EF0D7
:1049E0001A0EBEEC0EF0070102D03385409538A7B1
:1049F00073D0000E32B7010ECF6F000E34B7010E28
:104A0000CF19010802E135B702D03AA762D039B711
:104A10001FD03AB707D067500F0804E1640E196E33
:104A200068C01AF03A8717B202D0339701D03387A3
:104A300017B80ED037B705D0899892988996929674
:104A400007D036A703D08998929802D0899692967B
:104A500040B73ED02DB23CD039B73AD04E0EF66EAC
:104A6000060EF76E0001ACEC0EF00A0EBEEC0EF076
:104A70000A0E0701CF6F0001B8EC03F00701408771
:104A8000580EF66E060EF76E0001ACEC0EF0060E38
:104A9000EA6E830EE96ECDEC20F0220E04009EA893
:104AA000FDD7AD6E0A0EBEEC0EF0320E0701CF6FD1
:104AB0000001B8EC03F0060EEA6ECE0EE96ECDEC06
:104AC00020F00A0EBEEC0EF01A0EBEEC0EF007013E
:104AD00002D035B739974ED0000E32B7010ECF6FE6
:104AE000000E34B7010ECF19010842E1339740B7E9
:104AF0003ED02DB23CD039B73AD0620EF66E060EDB
:104B0000F76E0001ACEC0EF00A0EBEEC0EF00A0ED1
:104B10000701CF6F0001B8EC03F0070140876C0E6E
:104B2000F66E060EF76E0001ACEC0EF0060EEA6EA5
:104B3000830EE96ECDEC20F0220E04009EA8FDD776
:104B4000AD6E0A0EBEEC0EF0320E0701CF6F000103
:104B5000B8EC03F0060EEA6ECE0EE96ECDEC20F056
:104B60000A0EBEEC0EF01A0EBEEC0EF0070102D0DB
:104B70003387409738A973D0000E32B9010ECF6F3A
:104B8000000E34B9010ECF19010802E135B902D087
:104B90003AA962D039B91FD03AB907D067500F0887
:104BA00004E1640E196E68C01AF03A8917B202D097
:104BB000339901D0338917B80ED037B905D0899809
:104BC00092988996929607D036A903D089989298A0
:104BD00002D08996929640B93ED02DB23CD039B9D8
:104BE0003AD0760EF66E060EF76E0001ACEC0EF0C3
:104BF0000A0EBEEC0EF00A0E0701CF6F0001B8ECF2
:104C000003F007014089800EF66E060EF76E000174
:104C1000ACEC0EF0060EEA6E830EE96ECDEC20F0E1
:104C2000220E04009EA8FDD7AD6E0A0EBEEC0EF05B
:104C3000320E0701CF6F0001B8EC03F0060EEA6EEA
:104C4000E20EE96ECDEC20F00A0EBEEC0EF01A0E6C
:104C5000BEEC0EF0070102D035B939994ED0000EE6
:104C600032B9010ECF6F000E34B9010ECF19010811
:104C700042E1339940B93ED02DB23CD039B93AD057
:104C80008A0EF66E060EF76E0001ACEC0EF00A0E00
:104C9000BEEC0EF00A0E0701CF6F0001B8EC03F076
:104CA00007014089940EF66E060EF76E0001ACEC1B
:104CB0000EF0060EEA6E830EE96ECDEC20F0220EA9
:104CC00004009EA8FDD7AD6E0A0EBEEC0EF0320EAB
:104CD0000701CF6F0001B8EC03F0060EEA6EE20E9A
:104CE000E96ECDEC20F00A0EBEEC0EF01A0EBEEC12
:104CF0000EF0070102D03389409938AB73D0000E13
:104D000032BB010ECF6F000E34BB010ECF1901086C
:104D100002E135BB02D03AAB62D039BB1FD03ABBFF
:104D200007D067500F0804E1640E196E68C01AF0CE
:104D30003A8B17B202D0339B01D0338B17B80ED009
:104D400037BB05D0899892988996929607D036AB52
:104D500003D08998929802D08996929640BB3ED013
:104D60002DB23CD039BB3AD09E0EF66E060EF76ED1
:104D70000001ACEC0EF00A0EBEEC0EF00A0E0701BC
:104D8000CF6F0001B8EC03F00701408BA80EF66E60
:104D9000060EF76E0001ACEC0EF0060EEA6E830E06
:104DA000E96ECDEC20F0220E04009EA8FDD7AD6E7A
:104DB0000A0EBEEC0EF0320E0701CF6F0001B8EC08
:104DC00003F0060EEA6EF60EE96ECDEC20F00A0E48
:104DD000BEEC0EF01A0EBEEC0EF0070102D035BB91
:104DE000399B4ED0000E32BB010ECF6F000E34BB8C
:104DF000010ECF19010842E1339B40BB3ED02DB2DA
:104E00003CD039BB3AD0B20EF66E060EF76E0001FA
:104E1000ACEC0EF00A0EBEEC0EF00A0E0701CF6FDE
:104E20000001B8EC03F00701408BBC0EF66E060ED5
:104E3000F76E0001ACEC0EF0060EEA6E830EE96E22
:104E4000CDEC20F0220E04009EA8FDD7AD6E0A0E18
:104E5000BEEC0EF0320E0701CF6F0001B8EC03F08C
:104E6000060EEA6EF60EE96ECDEC20F00A0EBEECF0
:104E70000EF01A0EBEEC0EF0070102D0338B409BF1
:104E800038AD73D0000E32BD010ECF6F000E34BDB1
:104E9000010ECF19010802E135BD02D03AAD62D052
:104EA00039BD1FD03ABD07D067500F0804E1640E2A
:104EB000196E68C01AF03A8D17B202D0339D01D036
:104EC000338D17B80ED037BD05D089989298899642
:104ED000929607D036AD03D08998929802D08996E1
:104EE000929640BD3ED02DB23CD039BD3AD0C60ED0
:104EF000F66E060EF76E0001ACEC0EF00A0EBEEC7C
:104F00000EF00A0E0701CF6F0001B8EC03F00701A5
:104F1000408DD00EF66E060EF76E0001ACEC0EF072
:104F2000060EEA6E830EE96ECDEC20F0220E040030
:104F30009EA8FDD7AD6E0A0EBEEC0EF0320E070134
:104F4000CF6F0001B8EC03F0070EEA6E0A0EE96EAF
:104F5000CDEC20F00A0EBEEC0EF01A0EBEEC0EF0F8
:104F6000070102D035BD399D4ED0000E32BD010E75
:104F7000CF6F000E34BD010ECF19010842E1339D01
:104F800040BD3ED02DB23CD039BD3AD0DA0EF66EDF
:104F9000060EF76E0001ACEC0EF00A0EBEEC0EF041
:104FA0000A0E0701CF6F0001B8EC03F00701408D36
:104FB000E40EF66E060EF76E0001ACEC0EF0060E77
:104FC000EA6E830EE96ECDEC20F0220E04009EA85E
:104FD000FDD7AD6E0A0EBEEC0EF0320E0701CF6F9C
:104FE0000001B8EC03F0070EEA6E0A0EE96ECDEC94
:104FF00020F00A0EBEEC0EF01A0EBEEC0EF0070109
:1050000002D0338D409D38AF73D0000E32BF010EF9
:10501000CF6F000E34BF010ECF19010802E135BF7A
:1050200002D03AAF62D039BF1FD03ABF07D0675025
:105030000F0804E1640E196E68C01AF03A8F17B2B7
:1050400002D0339F01D0338F17B80ED037BF05D0B1
:10505000899892988996929607D036AF03D089980E
:10506000929802D08996929640BF3ED02DB23CD005
:1050700039BF3AD0EE0EF66E060EF76E0001ACECBC
:105080000EF00A0EBEEC0EF00A0E0701CF6F000103
:10509000B8EC03F00701408FF80EF66E060EF76EBF
:1050A0000001ACEC0EF0060EEA6E830EE96ECDEC5C
:1050B00020F0220E04009EA8FDD7AD6E0A0EBEECB5
:1050C0000EF0320E0701CF6F0001B8EC03F0070EAF
:1050D000EA6E1E0EE96ECDEC20F00A0EBEEC0EF06C
:1050E0001A0EBEEC0EF0070102D035BF399F4ED02C
:1050F000000E32BF010ECF6F000E34BF010ECF196C
:10510000010842E1339F40BF3ED02DB23CD039BFB1
:105110003AD0020EF66E070EF76E0001ACEC0EF000
:105120000A0EBEEC0EF00A0E0701CF6F0001B8ECBC
:1051300003F00701408F0C0EF66E070EF76E0001AC
:10514000ACEC0EF0060EEA6E830EE96ECDEC20F0AC
:10515000220E04009EA8FDD7AD6E0A0EBEEC0EF026
:10516000320E0701CF6F0001B8EC03F0070EEA6EB4
:105170001E0EE96ECDEC20F00A0EBEEC0EF01A0EFB
:10518000BEEC0EF0070102D0338F409F000E32B10B
:10519000010ECF6F000E34B1010ECF19010802E1EC
:1051A00035A102D017AA57D03BB109D067500F08DC
:1051B00006E139B104D0640E196E68C01AF03B8163
:1051C00039B117D017B202D0339101D0338117B85B
:1051D00010D038A10ED037B105D089989298899611
:1051E000929607D036A103D08998929802D08996DA
:1051F0009296010EC46F40B12DD02DB22BD039B193
:1052000029D04081160EF66E070EF76E0001ACEC49
:105210000EF0060EEA6E830EE96ECDEC20F0220E43
:1052200004009EA8FDD7AD6E0A0EBEEC0EF0320E45
:105230000701CF6F0001B8EC03F0060EEA6E920E84
:10524000E96ECDEC20F00A0EBEEC0EF01A0EBEECAC
:105250000EF007013CD035B13AD03B913991338102
:10526000409136B102D037B10DD0C4530BE1010EDD
:10527000CF6F0001E1EC20F0012C01D002D0898831
:105280009298070136A102D037B10DD0C4530BE17B
:10529000020ECF6F0001E1EC20F0012C01D002D012
:1052A0008986929607013BB112D03BB310D03BB533
:1052B0000ED03BB70CD03BB90AD03BBB08D03BBDAE
:1052C00006D03BBF04D08986929689889298000EBA
:1052D00032B3010ECF6F000E34B3010ECF190108A7
:1052E00002E135A302D017AA57D03BB309D06750CB
:1052F0000F0806E139B304D0640E196E68C01AF0C5
:105300003B8339B317D017B202D0339301D0338324
:1053100017B810D038A30ED037B305D0899892981B
:105320008996929607D036A303D08998929802D096
:1053300089969296010EC46F40B32DD02DB22BD01A
:1053400039B329D04083200EF66E070EF76E0001A8
:10535000ACEC0EF0060EEA6E830EE96ECDEC20F09A
:10536000220E04009EA8FDD7AD6E0A0EBEEC0EF014
:10537000320E0701CF6F0001B8EC03F0060EEA6EA3
:10538000A60EE96ECDEC20F00A0EBEEC0EF01A0E61
:10539000BEEC0EF007013CD035B33AD03B933993C5
:1053A0003383409336B302D037B30DD0C4530BE1EF
:1053B000010ECF6F0001E1EC20F0012C01D002D0F2
:1053C00089889298070136A302D037B30DD0C45311
:1053D0000BE1020ECF6F0001E1EC20F0012C01D0B7
:1053E00002D08986929607013BB112D03BB310D010
:1053F0003BB50ED03BB70CD03BB90AD03BBB08D075
:105400003BBD06D03BBF04D089869296898892988E
:10541000000E32B5010ECF6F000E34B5010ECF195C
:10542000010802E135A502D017AA57D03BB509D033
:1054300067500F0806E139B504D0640E196E68C0D4
:105440001AF03B8539B517D017B202D0339501D089
:10545000338517B810D038A50ED037B505D0899848
:1054600092988996929607D036A503D089989298FB
:1054700002D089969296010EC46F40B52DD02DB200
:105480002BD039B529D040852A0EF66E070EF76E5F
:105490000001ACEC0EF0060EEA6E830EE96ECDEC68
:1054A00020F0220E04009EA8FDD7AD6E0A0EBEECC1
:1054B0000EF0320E0701CF6F0001B8EC03F0060EBC
:1054C000EA6EBA0EE96ECDEC20F00A0EBEEC0EF0DC
:1054D0001A0EBEEC0EF007013CD035B53AD03B9524
:1054E00039953385409536B502D037B50DD0C453C4
:1054F0000BE1010ECF6F0001E1EC20F0012C01D097
:1055000002D089889298070136A502D037B50DD010
:10551000C4530BE1020ECF6F0001E1EC20F0012C2F
:1055200001D002D08986929607013BB112D03BB3DD
:1055300010D03BB50ED03BB70CD03BB90AD03BBB2B
:1055400008D03BBD06D03BBF04D08986929689889F
:105550009298000E32B7010ECF6F000E34B7010ED5
:10556000CF19010802E135A702D017AA57D03BB7DF
:1055700009D067500F0806E139B704D0640E196EE0
:1055800068C01AF03B8739B717D017B202D03397EB
:1055900001D0338717B810D038A70ED037B705D051
:1055A000899892988996929607D036A703D08998C1
:1055B000929802D089969296010EC46F40B72DD072
:1055C0002DB22BD039B729D04087340EF66E070E96
:1055D000F76E0001ACEC0EF0060EEA6E830EE96E7B
:1055E000CDEC20F0220E04009EA8FDD7AD6E0A0E71
:1055F000BEEC0EF0320E0701CF6F0001B8EC03F0E5
:10560000060EEA6ECE0EE96ECDEC20F00A0EBEEC70
:105610000EF01A0EBEEC0EF007013CD035B73AD0B2
:105620003B9739973387409736B702D037B70DD0BD
:10563000C4530BE1010ECF6F0001E1EC20F0012C0F
:1056400001D002D089889298070136A702D037B7D7
:105650000DD0C4530BE1020ECF6F0001E1EC20F03E
:10566000012C01D002D08986929607013BB112D05D
:105670003BB310D03BB50ED03BB70CD03BB90AD0F2
:105680003BBB08D03BBD06D03BBF04D08986929679
:1056900089889298000E32B9010ECF6F000E34B98E
:1056A000010ECF19010802E135A902D017AA57D07F
:1056B0003BB909D067500F0806E139B904D0640E30
:1056C000196E68C01AF03B8939B917D017B202D0E9
:1056D000339901D0338917B810D038A90ED037B913
:1056E00005D0899892988996929607D036A903D0CA
:1056F0008998929802D089969296010EC46F40B90B
:105700002DD02DB22BD039B929D040893E0EF66E5E
:10571000070EF76E0001ACEC0EF0060EEA6E830E7B
:10572000E96ECDEC20F0220E04009EA8FDD7AD6EF0
:105730000A0EBEEC0EF0320E0701CF6F0001B8EC7E
:1057400003F0060EEA6EE20EE96ECDEC20F00A0ED2
:10575000BEEC0EF01A0EBEEC0EF007013CD035B9CF
:105760003AD03B9939993389409936B902D037B943
:105770000DD0C4530BE1010ECF6F0001E1EC20F01E
:10578000012C01D002D089889298070136A902D055
:1057900037B90DD0C4530BE1020ECF6F0001E1EC1D
:1057A00020F0012C01D002D08986929607013BB1EE
:1057B00012D03BB310D03BB50ED03BB70CD03BB9A9
:1057C0000AD03BBB08D03BBD06D03BBF04D0898686
:1057D000929689889298000E32BB010ECF6F000E10
:1057E00034BB010ECF19010802E135AB02D017AA74
:1057F00057D03BBB09D067500F0806E139BB04D036
:10580000640E196E68C01AF03B8B39BB17D017B203
:1058100002D0339B01D0338B17B810D038AB0ED0E9
:1058200037BB05D0899892988996929607D036AB67
:1058300003D08998929802D089969296010EC46FEF
:1058400040BB2DD02DB22BD039BB29D0408B480E78
:10585000F66E070EF76E0001ACEC0EF0060EEA6E67
:10586000830EE96ECDEC20F0220E04009EA8FDD739
:10587000AD6E0A0EBEEC0EF0320E0701CF6F0001C6
:10588000B8EC03F0060EEA6EF60EE96ECDEC20F0F1
:105890000A0EBEEC0EF01A0EBEEC0EF007013CD064
:1058A00035BB3AD03B9B399B338B409B36BB02D0F8
:1058B00037BB0DD0C4530BE1010ECF6F0001E1ECFB
:1058C00020F0012C01D002D089889298070136ABD4
:1058D00002D037BB0DD0C4530BE1020ECF6F0001D5
:1058E000E1EC20F0012C01D002D0898692960701CC
:1058F0003BB112D03BB310D03BB50ED03BB70CD070
:105900003BB90AD03BBB08D03BBD06D03BBF04D05F
:105910008986929689889298000E32BD010ECF6FCB
:10592000000E34BD010ECF19010802E135AD02D0E1
:1059300017AA57D03BBD09D067500F0806E139BD03
:1059400004D0640E196E68C01AF03B8D39BD17D0B3
:1059500017B202D0339D01D0338D17B810D038ADB7
:105960000ED037BD05D0899892988996929607D027
:1059700036AD03D08998929802D089969296010EFE
:10598000C46F40BD2DD02DB22BD039BD29D0408D54
:10599000520EF66E070EF76E0001ACEC0EF0060E1E
:1059A000EA6E830EE96ECDEC20F0220E04009EA874
:1059B000FDD7AD6E0A0EBEEC0EF0320E0701CF6FB2
:1059C0000001B8EC03F0070EEA6E0A0EE96ECDECAA
:1059D00020F00A0EBEEC0EF01A0EBEEC0EF007011F
:1059E0003CD035BD3AD03B9D399D338D409D36BD71
:1059F00002D037BD0DD0C4530BE1010ECF6F0001B3
:105A0000E1EC20F0012C01D002D0898892980701A6
:105A100036AD02D037BD0DD0C4530BE1020ECF6FAF
:105A20000001E1EC20F0012C01D002D08986929691
:105A300007013BB112D03BB310D03BB50ED03BB702
:105A40000CD03BB90AD03BBB08D03BBD06D03BBF16
:105A500004D08986929689889298000E32BF010EF2
:105A6000CF6F000E34BF010ECF19010802E135AF30
:105A700002D017AA57D03BBF09D067500F0806E1E4
:105A800039BF04D0640E196E68C01AF03B8F39BF5D
:105A900017D017B202D0339F01D0338F17B810D070
:105AA00038AF0ED037BF05D08998929889969296D4
:105AB00007D036AF03D08998929802D089969296F3
:105AC000010EC46F40BF2DD02DB22BD039BF29D0CD
:105AD000408F5C0EF66E070EF76E0001ACEC0EF018
