:04000000D5EF2CF01C
:08000800046ED8CF05F0E0CF33
:1000100006F00001E9CF0CF0EACF07F0E1CF08F0DD
:10002000E2CF09F0D9CF0AF0DACF0BF0F3CF12F01C
:10003000F4CF13F0FACF14F0F5CF15F0F6CF16F099
:10004000F7CF17F000C00EF001C00FF002C010F0A3
:1000500003C011F09DA230EF00F09EB2D7EF02F086
:100060009DAA36EF00F09EBACFEF02F00EC000F06E
:100070000FC001F010C002F011C003F00CC0E9FF86
:1000800007C0EAFF078E08C0E1FF09C0E2FF0AC00F
:10009000D9FF0BC0DAFF12C0F3FF13C0F4FF14C086
:1000A000FAFF15C0F5FF16C0F6FF17C0F7FF0450A2
:1000B00006C0E0FF05C0D8FF1000F76ACA0FF66E51
:1000C000000EF7220900F550120000C1814001C066
:1000D000804101C0804100C1814001C0804100C118
:1000E000814000C1814001C0804101C0804100C108
:1000F000814000C1814001C0804100C1814001C0F8
:10010000804101C0804100C1814001C0804100C1E7
:10011000814000C1814001C0804100C1814001C0D7
:10012000804101C0804100C1814000C1814001C0C7
:10013000804101C0804100C1814001C0804100C1B7
:10014000814000C1814001C0804101C0804100C1A7
:10015000814000C1814001C0804100C1814001C097
:10016000804101C0804100C1814000C1814001C087
:10017000804101C0804100C1814001C0804100C177
:10018000814000C1814001C0804100C1814001C067
:10019000804101C0804100C1814001C0804100C157
:1001A000814000C1814001C0804101C0804100C147
:1001B000814000C1814001C0804100C1814001C037
:1001C000804101C0804100C18140F76ADA0FF66EBC
:1001D000010EF7220900F550120000C0C101C3034F
:1001E00002C2C60607C705C5C404CC0C0DCD0FCF8F
:1001F000CE0E0ACACB0BC90908C8D81819D91BDBFF
:10020000DA1A1EDEDF1FDD1D1CDC14D4D515D7174E
:1002100016D6D21213D311D1D010F03031F133F3FE
:10022000F23236F6F737F53534F43CFCFD3DFF3F4E
:100230003EFEFA3A3BFB39F9F83828E8E929EB2B7E
:100240002AEAEE2E2FEF2DEDEC2CE42425E527E70E
:10025000E62622E2E323E12120E0A06061A163A37E
:10026000A26266A6A767A56564A46CACAD6DAF6F0E
:100270006EAEAA6A6BAB69A9A86878B8B979BB7B7E
:100280007ABABE7E7FBF7DBDBC7CB47475B577B7CE
:10029000B67672B2B373B17170B0509091519353FE
:1002A000529296565797559594549C5C5D9D5F9FCE
:1002B0009E5E5A9A9B5B99595898884849894B8BFE
:1002C0008A4A4E8E8F4F8D4D4C8C4484854587478E
:1002D0004686824243834181804041542B434D47AF
:1002E000463D310041542B434D47533D220004000D
:1002F00071517A5D15E17C6B7C0E7C25E96E010EF7
:10030000EA6ED8B0EA2A30C0EFFF04007C2B100E52
:100310007A6F0701AC6B140E0501876F3DD10001A8
:100320007A5110085CE17C0E7C25E96E010EEA6EC4
:10033000D8B0EA2A30C0EFFF04007C2B010E7C5DB0
:100340007C0FE96E010EEA6ED8B0EA2AEF5016086B
:1003500007E372C07AF0140E0501876F3ED00001EA
:10036000010E7C5D7C0FE96E010EEA6ED8B0EA2AC0
:10037000EF50200807E175C07AF0140E0501876F71
:100380002CD00001010E7C5D7C0FE96E010EEA6E3F
:10039000D8B0EA2AEF50210807E178C07AF0140EAD
:1003A0000501876F1AD00001010E7C5D7C0FE96E9C
:1003B000010EEA6ED8B0EA2AEF50220807E177C0B2
:1003C0007AF0140E0501876F08D000017C6B71C0B4
:1003D0007AF00501876B8A969396DED000017751FB
:1003E0007A5D12E17C0E7C25E96E010EEA6ED8B0D2
:1003F000EA2A30C0EFFF04007C2B78C07AF0140E9C
:100400000501876FC9D0000178517A5D2BE17C0E20
:100410007C25E96E010EEA6ED8B0EA2A30C0EFFF03
:1004200004007C2B01017D51220809E17E51640DFD
:10043000F3507F250501886F896B0ED00101010EF5
:1004400000017C5D7C0FE96E010EEA6ED8B0EA2AED
:100450000501896BEFCF88F5140E876F79C07AF0AC
:100460009BD0000179517A5D1AE17C0E7C25E96E02
:10047000010EEA6ED8B0EA2A30C0EFFF04007C2BF0
:1004800005018851D8B489078807885304E1895346
:1004900002E175C07AF0140E876F7ED000017251B0
:1004A0007A5D12E17C0E7C25E96E010EEA6ED8B011
:1004B000EA2A30C0EFFF04007C2B73C07AF0140EE0
:1004C0000501876F69D0000173517A5D12E17C0EDE
:1004D0007C25E96E010EEA6ED8B0EA2A30C0EFFF43
:1004E00004007C2B74C07AF0140E0501876F54D081
:1004F000000174517A5D12E17C0E7C25E96E010EDB
:10050000EA6ED8B0EA2A30C0EFFF04007C2B150E4B
:100510007A6F140E0501876F3FD000017A511508DC
:1005200012E17C0E7C25E96E010EEA6ED8B0EA2A53
:1005300030C0EFFF04007C2B75C07AF0140E05016B
:10054000876F2AD0000175517A5D12E17C0E7C25FF
:10055000E96E010EEA6ED8B0EA2A30C0EFFF04005F
:100560007C2B76C07AF0140E0501876F15D0000140
:1005700076517A5D11E17C0E7C25E96E010EEA6E02
:10058000D8B0EA2A30C0EFFF040071C07AF005014C
:10059000876B328A8A9693960001D4EF02F09EAA66
:1005A000FED7AECF30F0A3D69E9A36EF00F01B2ACE
:1005B000050187530BE08707875308E100017C6B37
:1005C00071C07AF00501876B8A9693961E5215E0EA
:1005D0001E061E5212E11F5204E01F061F5201E1C7
:1005E0001C8407013D2B3D51040803E23D6B010EC5
:1005F0003C6F3288640E1E6E05011B50320815E1F7
:100600001B6A1CB004D01C808A8A939A03D01C9069
:100610008A9A939A1CAC08D0315201E031063152CB
:1006200002E11C8A328201D0316A1D5211E01D069E
:100630001D5208E18A691CA202D01C9201D01C82C2
:100640006EC01DF0335204E03306335201E13294A0
:100650009E92000136EF00F041542B434D47463D3A
:100660003100070EEA6EB90EE96EEF5011E0050E8B
:10067000016EBF0E006E0400002EFDD7012EF9D7CB
:100680002E0E006E002EFED700000400EF2EEFD7D6
:100690001200929A899A0701BA514009BD6FC95058
:1006A000BDC7C9FFC730FEE3C950BBC7C9FFC730CC
:1006B000FEE3C950BCC7C9FFC730FEE3929A898ADE
:1006C00000011200929A898A929A0701BA6B0A0E67
:1006D000BB6FAA0EBC6F0001DCDF020E0701BA6F10
:1006E0000A0EBB6FAA0EBC6F0001D3DF040E070118
:1006F000BA6F0A0EBB6FAA0EBC6F0001CADF060EEE
:100700000701BA6F0A0EBB6FAA0EBC6F0001C1DFF2
:10071000080E0701BA6F0A0EBB6FAA0EBC6F00016C
:10072000B8DF0A0E0701BA6FBB6FAA0EBC6F0001DB
:10073000B0DF0C0E0701BA6F0A0EBB6FAA0EBC6FBA
:100740000001A7DF0E0E0701BA6F0A0EBB6FAA0EDB
:10075000BC6F00019EDF5EEF2DF0B0C7BAF7070156
:10076000BB6BB1C7BCF7000194DF1200B0C7BAF78A
:10077000100E0701BB6FB1C7BCF700018ADF120082
:10078000F2CFBAF7F29EAA6A010EA96EA69CA69EA7
:10079000A680A8500701BABFF28E3B6E3BC03CF06A
:1007A00040913BB04081D8903B304093E8B04083CB
:1007B0003B30006E00323F0E0016409500B0408581
:1007C0003B30006E003200321F0E0016409700B022
:1007D00040873B38006E0F0E0016409900B04089EC
:1007E0003B38006E0032070E0016409B00B0408B75
:1007F0003B38006E00320032030E0016409D00B000
:10080000408D006A3BBE0080409F00B0408FA493A3
:1008100040B1A483A49540B3A485A49740B5A48710
:10082000A49940B7A489A49B40B9A48BA49D40BBC4
:10083000A48DA49F40BDA48FA59140BFA581F2CFF8
:10084000BAF7F29EAA6A040EA96EA69CA69EA6807E
:10085000A850BABFF28E3B6E3BC03FF041913BB017
:100860004181D8903B304193E8B041833B30006EEA
:1008700000323F0E0016419500B041853B30006EBE
:10088000003200321F0E0016419700B041873B38FE
:10089000006E0F0E0016419900B041893B38006E82
:1008A0000032070E0016419B00B0418B3B38006EB2
:1008B00000320032030E0016419D00B0418D006AE7
:1008C0003BBE0080419F00B0418FF2CFBAF7F29E4D
:1008D000AA6A070EA96EA69CA69EA680A850BABFBB
:1008E000F28E3B6E3BC042F042913BB04281D890C9
:1008F0003B304293E8B042833B30006E00323F0E03
:100900000016429500B042853B30006E0032003246
:100910001F0E0016429700B042873B38006E0F0E44
:100920000016429900B042893B38006E0032070E33
:100930000016429B00B0428B3B38006E0032003202
:10094000030E0016429D00B0428D006A3BBE00803F
:10095000429F00B0428FF2CFBAF7F29EAA6A0A0E07
:10096000A96EA69CA69EA680A850BABFF28E3B6E2A
:100970003BC045F043913BB04381D8903B3043931B
:10098000E8B043833B30006E00323F0E00164395C3
:1009900000B043853B30006E003200321F0E00165F
:1009A000439700B043873B38006E0F0E0016439903
:1009B00000B043893B38006E0032070E0016439B9F
:1009C00000B0438B3B38006E00320032030E00163D
:1009D000439D00B0438D006A3BBE0080439F00B042
:1009E000438FF2CFBAF7F29EAA6A0D0EA96EA69CAB
:1009F000A69EA680A850BABFF28E3B6E3BC048F0C0
:100A000044913BB04481D8903B304493E8B0448358
:100A10003B30006E00323F0E0016449500B0448516
:100A20003B30006E003200321F0E0016449700B0BB
:100A300044873B38006E0F0E0016449900B044897D
:100A40003B38006E0032070E0016449B00B0448B0A
:100A50003B38006E00320032030E0016449D00B099
:100A6000448D006A3BBE0080449F00B0448FF2CFAB
:100A7000BAF7F29EAA6A100EA96EA69CA69EA68040
:100A8000A850BABFF28E3B6E4A913BB04A81D890D3
:100A90003B304A93E8B04A833B30006E00323F0E51
:100AA00000164A9500B04A853B30006E0032003295
:100AB0001F0E00164A9700B04A873B38006E0F0E93
:100AC00000164A9900B04A893B38006E0032070E82
:100AD00000164A9B00B04A8B3B38006E0032003251
:100AE000030E00164A9D00B04A8D006A3BBE00808E
:100AF0004A9F00B04A8FF2CFBAF7F29EAA6A140E4C
:100B0000A96EA69CA69EA680A850BABFF28E3B6E88
:100B10004B913BB04B81D8903B304B93E8B04B832B
:100B20003B30006E00323F0E00164B9500B04B85F7
:100B30003B30006E003200321F0E00164B9700B0A3
:100B40004B873B38006E0F0E00164B9900B04B8957
:100B50003B38006E0032070E00164B9B00B04B8BEB
:100B60003B38006E00320032030E00164B9D00B081
:100B70004B8D006A3BBE00804B9F00B04B8FF2CF85
:100B8000BAF7F29EAA6A180EA96EA69CA69EA68027
:100B9000A850BABFF28E00016C6FF2CFBAF7F29E86
:100BA000AA6A190EA96EA69CA69EA680A850070147
:100BB000BABFF28E00016D6FF2CFBAF7F29EAA6A49
:100BC0001A0EA96EA69CA69EA680A8500701BABFC1
:100BD000F28E00016E6F6EC01DF0F2CFBAF7F29E7A
:100BE000AA6A1B0EA96EA69CA69EA680A850070105
:100BF000BABFF28E00016F6FF2CFBAF7F29EAA6A07
:100C00001C0EA96EA69CA69EA680A8500701BABF7E
:100C1000F28EA36FF2CFBAF7F29EAA6A1D0EA96EEA
:100C2000A69CA69EA680A850BABFF28E00017B6F3C
:100C3000F2CFBAF7F29EAA6A1E0EA96EA69CA69ED5
:100C4000A680A8500701BABFF28E7E6B7D6FF2CFEF
:100C5000BAF7F29EAA6A1F0EA96EA69CA69EA6804F
:100C6000A850BABFF28E806B7F6FF2CFBAF7F29EB8
:100C7000AA6A200EA96EA69CA69EA680A850BABFFE
:100C8000F28E826B816FF2CFBAF7F29EAA6A210EC2
:100C9000A96EA69CA69EA680A850BABFF28E846BB1
:100CA000836FF2CFBAF7F29EAA6A220EA96EA69CB3
:100CB000A69EA680A850BABFF28E866B856FF2CF33
:100CC000BAF7F29EAA6A230EA96EA69CA69EA680DB
:100CD000A850BABFF28E886B876FF2CFBAF7F29E38
:100CE000AA6A240EA96EA69CA69EA680A850BABF8A
:100CF000F28E8A6B896FF2CFBAF7F29EAA6A250E3E
:100D0000A96EA69CA69EA680A850BABFF28E8C6B38
:100D10008B6FF2CFBAF7F29EAA6A260EA96EA69C36
:100D2000A69EA680A850BABFF28E8E6B8D6FF2CFB2
:100D3000BAF7F29EAA6A270EA96EA69CA69EA68066
:100D4000A850BABFF28E906B8F6FF2CFBAF7F29EB7
:100D5000AA6A280EA96EA69CA69EA680A850BABF15
:100D6000F28E926B916FF2CFBAF7F29EAA6A290EB9
:100D7000A96EA69CA69EA680A850BABFF28E946BC0
:100D8000936FF2CFBAF7F29EAA6A2A0EA96EA69CBA
:100D9000A69EA680A850BABFF28E966B956FF2CF32
:100DA000BAF7F29EAA6A2B0EA96EA69CA69EA680F2
:100DB000A850BABFF28E986B976FF2CFBAF7F29E37
:100DC000AA6A2C0EA96EA69CA69EA680A850BABFA1
:100DD000F28E9A6B996FF2CFBAF7F29EAA6A2D0E35
:100DE000A96EA69CA69EA680A850BABFF28E9C6B48
:100DF0009B6FF2CFBAF7F29EAA6A2E0EA96EA69C3E
:100E0000A69EA680A850BABFF28E9E6B9D6FF2CFB1
:100E1000BAF7F29EAA6A2F0EA96EA69CA69EA6807D
:100E2000A850BABFF28EA06B9F6FF2CFBAF7F29EB6
:100E3000AA6A300EA96EA69CA69EA680A850BABF2C
:100E4000F28EA26BA16FF2CFBAF7F29EAA6A310EB0
:100E5000A96EA69CA69EA680A850BABFF28EA46BCF
:100E6000A36FB06B0400320EB025BA6FF2CFBBF7A0
:100E7000F29EAA6ABAC7A9FFA69CA69EA680A85001
:100E8000BBBFF28EB16FB1510D0803E0B0510F0836
:100E900024E2036AB0518B0FE96E050E0320EA6E5F
:100EA000EF6A320EB025BA6FF250006EF29EAA6A57
:100EB000BAC7A9FFB1C7A8FFA69CA69EA6840F012A
:100EC000550EA76EAA0EA76EA682A6B2FED7A6944E
:100ED0000050F21210D00BD00701036AB0518B0FF3
:100EE000E96E050E0320EA6EB1C7EFFF0F0107019F
:100EF000B02BB8D70F010701B36B030EB26FB56B00
:100F0000B46BB76BB66B04005D0EB225BA6F000E02
:100F1000B321BB6FF2CFBCF7F29EBBC7AAFFBAC723
:100F2000A9FFA69CA69EA680A850BCBFF28EB96B56
:100F3000B86FB8510D0802E1B95305E0B55303E1AC
:100F4000B451290809E29A0EB425E96E050EB521BF
:100F5000EA6EEF6A13D008D09A0EB425E96E050E3A
:100F6000B521EA6EB8C7EFFFB3C703F0B251B22B99
:100F7000D8B4B32BB42BD8B4B52BC5D7B22BD8B4B7
:100F8000B32BB56BB46B04005D0EB225BA6F000EC7
:100F9000B321BB6FF2CFBCF7F29EBBC7AAFFBAC7A3
:100FA000A9FFA69CA69EA680A850BCBFF28EB96BD6
:100FB000B86FB8510D0802E1B95305E0B55303E12C
:100FC000B451290809E2BA0EB425E96E050EB5211F
:100FD000EA6EEF6A13D008D0BA0EB425E96E050E9A
:100FE000B521EA6EB8C7EFFFB3C703F0B251B22B19
:100FF000D8B4B32BB42BD8B4B52BC5D7B22BD8B437
:10100000B32BB56BB46B04005D0EB225BA6F000E46
:10101000B321BB6FF2CFBCF7F29EBBC7AAFFBAC722
:10102000A9FFA69CA69EA680A850BCBFF28EB96B55
:10103000B86FB8510D0802E1B95305E0B55303E1AB
:10104000B451290809E2DA0EB425E96E050EB5217E
:10105000EA6EEF6A13D008D0DA0EB425E96E050EF9
:10106000B521EA6EB8C7EFFFB3C703F0B251B22B98
:10107000D8B4B32BB42BD8B4B52BC5D7B22BD8B4B6
:10108000B32BB56BB46B04005D0EB225BA6F000EC6
:10109000B321BB6FF2CFBCF7F29EBBC7AAFFBAC7A2
:1010A000A9FFA69CA69EA680A850BCBFF28EB96BD5
:1010B000B86FB8510D0802E1B95305E0B55303E12B
:1010C000B451290809E2FA0EB425E96E050EB521DE
:1010D000EA6EEF6A13D008D0FA0EB425E96E050E59
:1010E000B521EA6EB8C7EFFFB3C703F0B251B22B18
:1010F000D8B4B32BB42BD8B4B52BC5D7B22BD8B436
:10110000B32BB56BB46B04005D0EB225BA6F000E45
:10111000B321BB6FF2CFBCF7F29EBBC7AAFFBAC721
:10112000A9FFA69CA69EA680A850BCBFF28EB96B54
:10113000B86FB8510D0802E1B95305E0B55303E1AA
:10114000B451290809E21A0EB425E96E060EB5213C
:10115000EA6EEF6A13D008D01A0EB425E96E060EB7
:10116000B521EA6EB8C7EFFFB3C703F0B251B22B97
:10117000D8B4B32BB42BD8B4B52BC5D7B22BD8B4B5
:10118000B32BB56BB46B04005D0EB225BA6F000EC5
:10119000B321BB6FF2CFBCF7F29EBBC7AAFFBAC7A1
:1011A000A9FFA69CA69EA680A850BCBFF28EB96BD4
:1011B000B86FB8510D0802E1B95305E0B55303E12A
:1011C000B451290809E23A0EB425E96E060EB5219C
:1011D000EA6EEF6A13D008D03A0EB425E96E060E17
:1011E000B521EA6EB8C7EFFFB3C703F0B251B22B17
:1011F000D8B4B32BB42BD8B4B52BC5D7B22BD8B435
:10120000B32BB56BB46B04005D0EB225BA6F000E44
:10121000B321BB6FF2CFBCF7F29EBBC7AAFFBAC720
:10122000A9FFA69CA69EA680A850BCBFF28EB96B53
:10123000B86FB8510D0802E1B95305E0B55303E1A9
:10124000B451290809E25A0EB425E96E060EB521FB
:10125000EA6EEF6A13D008D05A0EB425E96E060E76
:10126000B521EA6EB8C7EFFFB3C703F0B251B22B96
:10127000D8B4B32BB42BD8B4B52BC5D7B22BD8B4B4
:10128000B32BB56BB46B04005D0EB225BA6F000EC4
:10129000B321BB6FF2CFBCF7F29EBBC7AAFFBAC7A0
:1012A000A9FFA69CA69EA680A850BCBFF28EB96BD3
:1012B000B86FB8510D0802E1B95305E0B55303E129
:1012C000B451290809E27A0EB425E96E060EB5215B
:1012D000EA6EEF6A13D008D07A0EB425E96E060ED6
:1012E000B521EA6EB8C7EFFFB3C703F0B251B22B16
:1012F000D8B4B32BB42BD8B4B52BC5D7000112008A
:10130000929A899A0701BC514109BF6FC950BFC762
:10131000C9FFC730FEE3C950BDC7C9FFC730FEE3F0
:10132000C950C96AC730FEE3C9CFBEF7929A898A0D
:10133000BEC701F000011200BAC7BCF7090E0701D1
:10134000BD6F0001DDDF01C0BBF70701BBC701F0C6
:1013500000013CEF0AF0BAC7BCF7190E0701BD6FD8
:101360000001CEDF01C0BBF70701BBC701F00001E0
:1013700089EF0AF00701BD51070B006EBD31016E08
:10138000013201321F0E01160150BE25E96E000E1A
:10139000BF21EA6EEFCF01F0002A01D00132002E0A
:1013A000FDD7010E0116000112000701BE51C00356
:1013B000F3CF01F0F4CF00F0C103F3500026BF518A
:1013C000C003F3500020026E000112000701BD515E
:1013D000070B006EBD31016E013201321F0E011686
:1013E0000150BF25E96E000EC021EA6E016A012A94
:1013F000002A01D00136002EFDD7BE5303E0015074
:10140000EF1203D0011E0150EF16000131EF0AF078
:101410000701BA6B010EBA6FBABF03D0BA511008F8
:1014200023E3036ABA51006EE8BE0306BB6F03C034
:10143000BCF7036ABA51006EE8BE0306BD6F070E23
:10144000BF6F500EBE6F000195DFBBC7BDF7070130
:10145000BE6B01B0BE2B070EC06F4D0EBF6F0001FB
:10146000B5D70701BA2BD8D70001F5EF0CF0020E63
:101470000701BA6F000160D701C085F51CA803D031
:101480000501851F0001D8900501853107015093A2
:10149000E8B0508305018531006E00323F0E001622
:1014A0000701509500B0508505018531006E00326E
:1014B00000321F0E00160701509700B0508705013B
:1014C0008539006E0F0E00160701509900B0508943
:1014D00005018539006E0032070E00160701509B8A
:1014E00000B0508B05018539006E00320032030ECA
:1014F00000160701509D00B0508D006A050185BFA0
:1015000000800701509F00B0508F020EBA6F00019B
:1015100022D701C085F51CA803D00501851F000155
:1015200007015191050185A103D0070151810501F2
:10153000010E0701B96FB9510808D8A054D2B9C734
:10154000BDF7070EBF6FA40EBE6F000113DF015081
:10155000010B0108D8A41BD1B9C7BDF7070E0701BD
:10156000BF6F500EBE6F000105DF0150010BD8A404
:1015700087D0B9C7BDF7070E0701BF6F4D0EBE6F0D
:101580000001F8DE0150010BD8A46CD0D8900701FF
:10159000B935036A530FE96E070E0320EA6E010E98
:1015A000EE2601E3EF2AD890B935036A530FE96EAE
:1015B000070E0320EA6EECCFBBF7ED52EFCFBAF780
:1015C000D890B935036A7B0FE96E070E0320EA6EE7
:1015D000ECCFBFF7ED52EFCFBEF7C16B4B0EC06F34
:1015E0000001E3DE02C0BDF701C0BCF70F0E07012A
:1015F0000124016E000E0220036E0350BB5D30E338
:1016000003E10150BA5D2CE3D890B935036A530F5A
:10161000E96E070E0320EA6EEC6AED52EF6A010EE6
:10162000B95DF80F1DE2080F000135EF0DF007015D
:101630003E9116D007013E9313D007013E9510D07E
:1016400007013E970DD007013E990AD007013E9B46
:1016500007D007013E9D04D007013E9F01D007013E
:101660000DD00001D8900701B935036A530FE96E18
:10167000070E0320EA6EEC6AED52EF6A87D0000194
:10168000B9C7BDF7070E0701BF6F4D0EBE6F000152
:1016900071DE0150010B0108D8A46CD0D89007016D
:1016A000B935036A530FE96E070E0320EA6E010E87
:1016B000EE2601E3EF2AD890B935036A530FE96E9D
:1016C000070E0320EA6EECCFBBF7ED52EFCFBAF76F
:1016D000D890B935036A7B0FE96E070E0320EA6ED6
:1016E000ECCFBFF7ED52EFCFBEF7C16B4B0EC06F23
:1016F00000015BDE02C0BDF701C0BCF70F0E0701A1
:101700000124016E000E0220036E0350BB5D30E326
:1017100003E10150BA5D2CE3D890B935036A530F49
:10172000E96E070E0320EA6EEC6AED52010EEF6ED1
:10173000B95DF80F1DE2080F00014AEF0DF0070137
:101740003E8116D007013E8313D007013E8510D09D
:1017500007013E870DD007013E890AD007013E8B65
:1017600007D007013E8D04D007013E8F01D007014D
:101770000DD00001D8900701B935036A530FE96E07
:10178000070E0320EA6EEC6AED52EF6A28D1B9C762
:10179000BDF7070E0701BF6FA40EBE6F0001EADDA3
:1017A0000150010BD8A41CD1B9C7BDF7070E070122
:1017B000BF6F500EBE6F0001DDDD0150010B01084F
:1017C000D8A488D0B9C7BDF7070E0701BF6F4D0E6B
:1017D000BE6F0001CFDD0150010B0108D8A46CD011
:1017E000D8900701B935036A530FE96E070E03203D
:1017F000EA6E010EEE2601E3EF2AD890B935036AAE
:10180000530FE96E070E0320EA6EECCFBBF7ED52E3
:10181000EFCFBAF7D890B935036A7B0FE96E070EA0
:101820000320EA6EECCFBFF7ED52EFCFBEF7C16BEE
:101830004B0EC06F0001B9DD02C0BDF701C0BCF79F
:101840000F0E07010124016E000E0220036E0350EB
:10185000BB5D30E303E10150BA5D2CE3D890B935AC
:10186000036A530FE96E070E0320EA6EEC6AED522D
:10187000EF6A010EB95DF80F1DE2080F00015FEF7E
:101880000DF007013E8116D007013E8313D00701FA
:101890003E8510D007013E870DD007013E890AD052
:1018A00007013E8B07D007013E8D04D007013E8F14
:1018B00001D007010DD00001D8900701B935036AA6
:1018C000530FE96E070E0320EA6EEC6AED52EF6AE1
:1018D00086D00001B9C7BDF7070E0701BF6F4D0ED7
:1018E000BE6F000147DD0150010BD8A46CD0D89029
:1018F0000701B935036A530FE96E070E0320EA6E3C
:10190000010EEE2601E3EF2AD890B935036A530F92
:10191000E96E070E0320EA6EECCFBBF7ED52EFCF76
:10192000BAF7D890B935036A7B0FE96E070E03202A
:10193000EA6EECCFBFF7ED52EFCFBEF7C16B4B0EA7
:10194000C06F000132DD02C0BDF701C0BCF70F0E51
:1019500007010124016E000E0220036E0350BB5DDF
:1019600030E303E10150BA5D2CE3D890B935036A46
:10197000530FE96E070E0320EA6EEC6AED52EF6A30
:10198000010EB95DF80F1DE2080F000174EF0DF0B4
:1019900007013E9116D007013E9313D007013E95F3
:1019A00010D007013E970DD007013E990AD00701DC
:1019B0003E9B07D007013E9D04D007013E9F01D00A
:1019C00007010DD00001D8900701B935036A530F04
:1019D000E96E070E0320EA6EEC6AED52EF6A000131
:1019E0000701B92BA8D5000113D54B6A000E0701DA
:1019F0003EAF010E4B12D8904B34BA6F000E3EAD85
:101A0000010EBA114B6ED8904B34BA6F000E3EAB3C
:101A1000010EBA114B6ED8904B34BA6F000E3EA92E
:101A2000010EBA114B6ED8904B34BA6F000E3EA720
:101A3000010EBA114B6ED8904B34BA6F000E3EA512
:101A4000010EBA114B6ED8904B34BA6F000E3EA304
:101A5000010EBA114B6ED8904B34BA6F000E3EA1F6
:101A6000010EBA114B6E00011200E824F76AF73636
:101A7000850FF66E1A0EF7220A00F550FA6E08006E
:101A8000F550F96E2E1634163A16401646164C16B8
:101A900052165816E824F76AF736AF0FF66E1A0E8C
:101AA000F7220A00F550FA6E0800F550F96E3E175D
:101AB00044174A17501756175C1762176817E8241F
:101AC000F76AF736D90FF66E1A0EF7220A00F550AC
:101AD000FA6E0800F550F96E821888188E1894185E
:101AE0009A18A018A618AC18E824F76AF736030F5E
:101AF000F66E1B0EF7220A00F550FA6E0800F5503C
:101B0000F96E901996199C19A219A819AE19B41951
:101B1000BA19B8C7BAF70A0E0701BB6FB9C7BCF745
:101B2000000149EC03F01200B8C7BAF71A0E07011A
:101B3000BB6FB9C7BCF7000149EC03F01200506A53
:101B4000516A546A556A3152D8A4E4D007013FA1C2
:101B500003D05092549214D04AA105D04BB103D077
:101B6000508254920DD04AB105D04BA103D050926F
:101B7000548206D04AA104D04BA102D05082548294
:101B80003FA303D05094549414D04AA305D04BB330
:101B900003D0508454940DD04AB305D04BA303D046
:101BA0005094548406D04AA304D04BA302D050844E
:101BB00054843FA503D05096549614D04AA505D01E
:101BC0004BB503D0508654960DD04AB505D04BA5E1
:101BD00003D05096548606D04AA504D04BA502D017
:101BE000508654863FA703D05098549814D04AA7E3
:101BF00005D04BB703D0508854980DD04AB705D0C4
:101C00004BA703D05098548806D04AA704D04BA7BE
:101C100002D0508854883FA903D0509A549A14D0C7
:101C20004AA905D04BB903D0508A549A0DD04AB96D
:101C300005D04BA903D0509A548A06D04AA904D0A3
:101C40004BA902D0508A548A3FAB03D0509C549C7D
:101C500014D04AAB05D04BBB03D0508C549C0DD054
:101C60004ABB05D04BAB03D0509C548C06D04AAB3A
:101C700004D04BAB02D0508C548C3FAD03D0509E5F
:101C8000549E14D04AAD05D04BBD03D0508E549E07
:101C90000DD04ABD05D04BAD03D0509E548E06D01A
:101CA0004AAD04D04BAD02D0508E548E3FAF03D01E
:101CB0005190559014D04AAF05D04BBF03D05180FE
:101CC00055900DD04ABF05D04BAF03D051905580F1
:101CD00006D04AAF04D04BAF02D051805580040EDD
:101CE000B86F50C0B9F7000114DF040E0701B86FD8
:101CF00051C0B9F7000118DF060E0701B86F54C0D4
:101D0000B9F7000106DF060E0701B86F55C0B9F735
:101D100000010ADF120093908A90080E016E00D035
:101D20000000018E10D0019E0701B2330001D8B02F
:101D30008A80D8A08A90018C06D0019C012EF4D70D
:101D400000D000008A80840EE96EE92EFED700D014
:101D5000000001BEE8D701BCF0D712000900F5521F
:101D60000CE0F6CFB0F7F7CFB1F7F5CFB2F7D3DF8E
:101D7000B0C7F6FFB1C7F7FFF1D7120003017D69C5
:101D80007C690701BE6BBC51BE5D21E20400BE51FF
:101D9000BA25E96E000EBB21EA6EEF5003017D19F2
:101DA0000701BD6F036ABD5100015DEC00F0016EDB
:101DB00003017C5101187D6F036A0701BD510001C9
:101DC000E5EC00F0E8CF7CF30701BE2BDCD7000187
:101DD00012009EA8FED7AD6E1200206A286A070185
:101DE00046B104D03FB102D0498101D0499146B3F8
:101DF00004D03FB302D0498301D0499346B504D003
:101E00003FB502D0498501D0499546B704D03FB7C8
:101E100002D0498701D0499746B904D03FB902D0D2
:101E2000498901D0499946BB04D03FBB02D0498BB8
:101E300001D0499B46BD04D03FBD02D0498D01D0A1
:101E4000499D46BF04D03FBF02D0498F01D0499F72
:101E5000000E49BF010E2812D8902834BA6F000E28
:101E600049BD010EBA11286ED8902834BA6F000E01
:101E700049BB010EBA11286ED8902834BA6F000EF3
:101E800049B9010EBA11286ED8902834BA6F000EE5
:101E900049B7010EBA11286ED8902834BA6F000ED7
:101EA00049B5010EBA11286ED8902834BA6F000EC9
:101EB00049B3010EBA11286ED8902834BA6F000EBB
:101EC00049B1010EBA11286E000E46BF010E201254
:101ED000D8902034BA6F000E46BD010EBA11206EA4
:101EE000D8902034BA6F000E46BB010EBA11206E96
:101EF000D8902034BA6F000E46B9010EBA11206E88
:101F0000D8902034BA6F000E46B7010EBA11206E79
:101F1000D8902034BA6F000E46B5010EBA11206E6B
:101F2000D8902034BA6F000E46B3010EBA11206E5D
:101F3000D8902034BA6F000E46B1010EBA11206E4F
:101F4000000145EF14F0948082B002D01CAE02D0A4
:101F50001CA406D0320E0701B96F000131EC03F06A
:101F6000948082B002D01CAE02D01CA455D01C9428
:101F70001F6A070146B102D047A105D045814691AD
:101F800047913F914C9146B302D047A305D045837A
:101F9000469347933F934C9346B502D047A505D04F
:101FA0004585469547953F954C9546B702D047A73E
:101FB00005D04587469747973F974C9746B902D03B
:101FC00047A905D04589469947993F994C9946BB01
:101FD00002D047AB05D0458B469B479B3F9B4C9B14
:101FE00046BD02D047AD05D0458D469D479D3F9DDE
:101FF0004C9D46BF02D047AF05D0458F469F479FB7
:102000003F9F4C9F32A201D032921C8E89889298B9
:102010008986929608D00001948082A003D01CAEDD
:1020200001D01C9E070100011200948282B202D0EE
:1020300032A002D01CA606D0320E0701B96F0001F3
:1020400031EC03F0948282B202D032A002D01CA6FE
:1020500065D01C96000E07013EB1010EBA6F000E4E
:1020600040B1010EBA1903E146B101D03F81000E23
:102070003EB3010EBA6F000E40B3010EBA1903E170
:1020800046B301D03F83000E3EB5010EBA6F000E7D
:1020900040B5010EBA1903E146B501D03F85000EE7
:1020A0003EB7010EBA6F000E40B7010EBA1903E138
:1020B00046B701D03F87000E3EB9010EBA6F000E41
:1020C00040B9010EBA1903E146B901D03F89000EAB
:1020D0003EBB010EBA6F000E40BB010EBA1903E100
:1020E00046BB01D03F8B000E3EBD010EBA6F000E05
:1020F00040BD010EBA1903E146BD01D03F8D000E6F
:102100003EBF010EBA6F000E40BF010EBA1903E1C7
:1021100046BF01D03F8F328008D00001948282A256
:1021200003D032A001D03290070100011200040058
:10213000010E7C5D0701B96F010EBB6F7C0EBA6F9B
:10214000B9C7BCF700011ADE010E7C5D7C0FE96E99
:10215000010EEA6ED8B0EA2AEF5003017D5DD8A4E3
:10216000B4EF20F07C0E00017C25E96E010EEA6ED2
:10217000D8B0EA2AEF5003017C5DD8A4B4EF20F078
:1021800001017C51AA08D8A45ED17D512008D8A4B1
:102190005AD17BC07DF0200E00017E6F1C0E7F6F38
:1021A0003CC080F03DC081F03EC082F03FC083F073
:1021B00040C084F041C085F042C086F043C087F043
:1021C00044C088F045C089F046C08AF047C08BF013
:1021D00048C08CF049C08DF04AC08EF0F2CFB9F7FC
:1021E000F29EAA6A100EA96EA69CA69EA680A85072
:1021F0000701B9BFF28E00018F6FF2CFB9F7F29EDF
:10220000AA6A110EA96EA69CA69EA680A8500701D8
:10221000B9BFF28E0001906FF2CFB9F7F29EAA6AB1
:10222000120EA96EA69CA69EA680A8500701B9BF53
:10223000F28E0001916FF2CFB9F7F29EAA6A130EE7
:10224000A96EA69CA69EA680A8500701B9BFF28ED3
:102250000001926FF2CFB9F7F29EAA6A140EA96E2E
:10226000A69CA69EA680A8500701B9BFF28E0001C9
:10227000936FF2CFB9F7F29EAA6A150EA96EA69CCB
:10228000A69EA680A8500701B9BFF28E0001946FE8
:10229000F2CFB9F7F29EAA6A160EA96EA69CA69E68
:1022A000A680A8500701B9BFF28E0001956FF2CF4A
:1022B000B9F7F29EAA6A170EA96EA69CA69EA680E2
:1022C000A8500701B9BFF28E0001966F6CC097F05D
:1022D0006DC098F06EC099F06FC09AF07B0E9B6F46
:1022E0007BC09CF07DC79DF07FC79EF081C79FF0AB
:1022F00083C7A0F085C7A1F087C7A2F089C7A3F064
:102300008BC7A4F08DC7A5F08FC7A6F091C7A7F023
:1023100093C7A8F095C7A9F097C7AAF099C7ABF0E3
:102320009BC7ACF09DC7ADF09FC7AEF0A1C7AFF0A3
:10233000A3C7B0F00701BB6B7D0EBA6F340EBC6F44
:1023400000011CDD7DC3B1F07CC3B2F08A86939698
:102350000A0E0701B96F000131EC03F07D5139DD40
:102360007E5137DD7F5135DD805133DD815131DDE7
:1023700082512FDD83512DDD84512BDD855129DDE7
:10238000865127DD875125DD885123DD895121DDE7
:102390008A511FDD8B511DDD8C511BDD8D5119DDE7
:1023A0008E5117DD8F5115DD905113DD915111DDE7
:1023B00092510FDD93510DDD94510BDD955109DDE7
:1023C000965107DD975105DD985103DD995101DDE7
:1023D0009A51FFDC9B51FDDC9C51FBDC9D51F9DCEB
:1023E0009E51F7DC9F51F5DCA051F3DCA151F1DCEB
:1023F000A251EFDCA351EDDCA451EBDCA551E9DCEB
:10240000A651E7DCA751E5DCA851E3DCA951E1DCEA
:10241000AA51DFDCAB51DDDCAC51DBDCAD51D9DCEA
:10242000AE51D7DCAF51D5DCB051D3DCB151D1DCEA
:10243000B251CFDC030E0701B96F000131EC03F09C
:102440008A969396010100017B5101017C5DD8A41D
:10245000AFEF20F07D2D12D20301816B7EC180F39E
:1024600080C381F30701B96BB95101017F110301E9
:10247000806F0301836B80C182F382C383F3070102
:10248000B96BB951010181110301826F03018153BD
:10249000D8A4BBD180510F08D8A0B7D182518025D4
:1024A0000701B96F0301835181210701BA6FBA5344
:1024B000D8B402D00301A9D1B9511008D8B002D0C4
:1024C0000301A3D10301835306E18251080803E30A
:1024D000010E846F12D0835306E18251100803E38A
:1024E000020E846F0AD0835306E18251180803E379
:1024F000030E846F02D0010E846F842DA2D081530D
:102500000DE1805108080AE34BC085F38051016E4C
:1025100004E0D8908533012EFCD71AD0815303E113
:102520008051080815E2815313E180510F0810E330
:10253000080E805D006E000E8159036E00C001F030
:102540004CC085F3015204E0D8908533012EFCD7AE
:102550008251080803E1835301E135D08251070815
:1025600004E1835302E1859F2ED08251060805E1E4
:10257000835303E13F0E851726D08251050805E1FC
:10258000835303E11F0E85171ED08251040805E115
:10259000835303E10F0E851716D08251030805E11E
:1025A000835303E1070E85170ED08251020805E11F
:1025B000835303E1030E851706D0822D04D0835385
:1025C00002E1010E85177BC07DF0010E00017E6FD8
:1025D00084C37FF085C380F00701BB6B7D0EBA6FAB
:1025E000040EBC6F0001BEEC0EF07DC381F07CC315
:1025F00082F08A8693960400040E0701B96F0001E9
:1026000031EC03F004007D51E9EC0EF07E51E9EC71
:102610000EF07F51E9EC0EF08051E9EC0EF08151A3
:10262000E9EC0EF08251E9EC0EF00400030E070114
:10263000B96F000131EC03F004008A969396E3D061
:10264000030184510208D8A4DFD04BC085F3805128
:10265000016E04E0D8908533012EFCD74CC086F380
:10266000070E825D0701B96F000E03018359070150
:10267000BA6FB951080803E1BA5301E183D0070EDC
:102680000301825D0701B96F000E03018359070141
:10269000BA6FB951070805E1BA5303E10301869FF8
:1026A00070D0070E0301825D0701B96F000E0301B0
:1026B00083590701BA6FB951060806E1BA5304E11C
:1026C0003F0E030186175DD0070E0301825D0701EF
:1026D000B96F000E030183590701BA6FB95105089C
:1026E00006E1BA5304E11F0E030186174AD0070E14
:1026F0000301825D0701B96F000E030183590701D1
:10270000BA6FB951040806E1BA5304E10F0E030190
:10271000861737D0070E0301825D0701B96F000EDF
:10272000030183590701BA6FB951030806E1BA538F
:1027300004E1070E0301861724D0070E0301825D12
:102740000701B96F000E030183590701BA6FB95130
:10275000020806E1BA5304E1030E0301861711D003
:10276000070E0301825D0701B96F000E0301835953
:102770000701BA6FB92D06D0BA5304E1010E030167
:10278000861707017BC07DF0010E00017E6F84C3B8
:102790007FF085C380F086C381F00701BB6B7D0E9F
:1027A000BA6F050EBC6F0001BEEC0EF07DC382F067
:1027B0007CC383F08A8693960400040E0701B96FE8
:1027C000000131EC03F004007D51E9EC0EF07E5184
:1027D000E9EC0EF07F51E9EC0EF08051E9EC0EF0DF
:1027E0008151E9EC0EF08251E9EC0EF08351E9ECF5
:1027F0000EF00400030E0701B96F000131EC03F085
:1028000004008A969396030138D07BC07DF0810E38
:1028100000017E6F020E7F6F0701BB6B7D0EBA6FEA
:10282000030EBC6F0001BEEC0EF07DC380F07CC3D4
:1028300081F08A8693960400040E0701B96F0001A7
:1028400031EC03F004007D51E9EC0EF07E51E9EC2F
:102850000EF07F51E9EC0EF08051E9EC0EF0815161
:10286000E9EC0EF00400030E0701B96F000131EC32
:1028700003F004008A969396030101017D51070835
:10288000D8A4B1D00001EDEF0EF09D9220C085F3E9
:1028900021C086F322C087F323C088F324C089F3C4
:1028A00025C08AF326C08BF327C08CF328C08DF394
:1028B00029C08EF32AC08FF32BC090F32CC091F364
:1028C0002DC092F32EC093F32FC094F37BC07DF004
:1028D000070E7E6F100E0301846F84C37FF085C3E3
:1028E00080F086C381F087C382F088C383F089C3F8
:1028F00084F08AC385F08BC386F08CC387F08DC3C8
:1029000088F08EC389F08FC38AF090C38BF091C397
:102910008CF092C38DF093C38EF094C38FF00701B7
:10292000BB6B7D0EBA6F130EBC6F0001BEEC0EF0D8
:102930007DC390F07CC391F08A8693960400040EC8
:102940000701B96F000131EC03F004007D51E9EC9F
:102950000EF07E51E9EC0EF07F51E9EC0EF0805163
:10296000E9EC0EF08151E9EC0EF08251E9EC0EF049
:102970008351E9EC0EF08451E9EC0EF08551E9EC5D
:102980000EF08651E9EC0EF08751E9EC0EF088511B
:10299000E9EC0EF08951E9EC0EF08A51E9EC0EF009
:1029A0008B51E9EC0EF08C51E9EC0EF08D51E9EC15
:1029B0000EF08E51E9EC0EF08F51E9EC0EF09051D3
:1029C000E9EC0EF09151E9EC0EF00400030E070162
:1029D000B96F000131EC03F004008A9693969D8252
:1029E00064EF20F001017D510508D8A476D20301DF
:1029F000816B7EC180F380C381F30701B96BB9514C
:102A000001017F110301806F0301836B80C182F399
:102A100082C383F30701B96BB9510101811103012D
:102A2000826F030180534FE181534DE182534AE1AC
:102A3000833D48D01C847BC07DF0050E00017E6F75
:102A40007EC17FF07FC180F080C181F081C182F0C2
:102A50000701BB6B7D0EBA6F060EBC6F0001BEECAA
:102A60000EF07DC383F07CC384F08A8693960400C5
:102A7000040E0701B96F000131EC03F004007D5131
:102A8000E9EC0EF07E51E9EC0EF07F51E9EC0EF02E
:102A90008051E9EC0EF08151E9EC0EF08251E9EC45
:102AA0000EF08351E9EC0EF08451E9EC0EF00400D5
:102AB000030E0701B96F000131EC03F004008A96A0
:102AC0009396030107D2802D4FD081534DE182535D
:102AD0004AE1833D48D01C867BC07DF0050E000195
:102AE0007E6F7EC17FF07FC180F080C181F081C1A7
:102AF00082F00701BB6B7D0EBA6F060EBC6F000142
:102B0000BEEC0EF07DC383F07CC384F08A8693967E
:102B10000400040E0701B96F000131EC03F004005A
:102B20007D51E9EC0EF07E51E9EC0EF07F51E9ECBD
:102B30000EF08051E9EC0EF08151E9EC0EF082517B
:102B4000E9EC0EF08351E9EC0EF08451E9EC0EF063
:102B50000400030E0701B96F000131EC03F004001B
:102B60008A9693960301B6D180510208D8A4A5D0C5
:102B70008153D8A4A2D082534BE1833D49D01C8815
:102B80007BC07DF0050E00017E6F7EC17FF07FC1AE
:102B900080F080C181F081C182F00701BB6B7D0EA6
:102BA000BA6F060EBC6F0001BEEC0EF07DC383F061
:102BB0007CC384F08A8693960400040E0701B96FE3
:102BC000000131EC03F004007D51E9EC0EF07E5180
:102BD000E9EC0EF07F51E9EC0EF08051E9EC0EF0DB
:102BE0008151E9EC0EF08251E9EC0EF08351E9ECF1
:102BF0000EF08451E9EC0EF00400030E0701B96FEA
:102C0000000131EC03F004008A96939654D003013E
:102C1000825352E1835350E11C98000137EC0AF0D3
:102C20001C84A3EC0FF01C8615EC10F07BC07DF02B
:102C3000050E7E6F7EC17FF07FC180F080C181F084
:102C400081C182F00701BB6B7D0EBA6F060EBC6FAF
:102C50000001BEEC0EF07DC383F07CC384F08A8655
:102C600093960400040E0701B96F000131EC03F0E4
:102C700004007D51E9EC0EF07E51E9EC0EF07F513D
:102C8000E9EC0EF08051E9EC0EF08151E9EC0EF028
:102C90008251E9EC0EF08351E9EC0EF08451E9EC3D
:102CA0000EF00400030E0701B96F000131EC03F0D0
:102CB00004008A96939603010DD180510308D8A48D
:102CC000A5D08153D8A4A2D082534BE1833D49D0F3
:102CD0001C8A7BC07DF0050E00017E6F7EC17FF0F7
:102CE0007FC180F080C181F081C182F00701BB6BA0
:102CF0007D0EBA6F060EBC6F0001BEEC0EF07DC3F8
:102D000083F07CC384F08A8693960400040E070146
:102D1000B96F000131EC03F004007D51E9EC0EF0D5
:102D20007E51E9EC0EF07F51E9EC0EF08051E9ECB8
:102D30000EF08151E9EC0EF08251E9EC0EF0835176
:102D4000E9EC0EF08451E9EC0EF004000A0E0701E4
:102D5000B96F000131EC03F004008A96939654D0C9
:102D60000301825352E1835350E11C9A000137EC76
:102D70000AF01C84A3EC0FF01C8615EC10F07BC04D
:102D80007DF0050E7E6F7EC17FF07FC180F080C137
:102D900081F081C182F00701BB6B7D0EBA6F060E18
:102DA000BC6F0001BEEC0EF07DC383F07CC384F0E9
:102DB0008A8693960400040E0701B96F000131EC76
:102DC00003F004007D51E9EC0EF07E51E9EC0EF0C9
:102DD0007F51E9EC0EF08051E9EC0EF08151E9EC05
:102DE0000EF08251E9EC0EF08351E9EC0EF08451C3
:102DF000E9EC0EF00400030E0701B96F000131EC9D
:102E000003F004008A969396030164D0805164080D
:102E100061E181535FE182C37BF0F250006EF29E6C
:102E2000AA6A1D0EA96E7BC0A8FFA69CA69EA684BA
:102E30000F01550EA76EAA0EA76EA682A6B2FED7E8
:102E4000A6940050F2127BC07DF0050E00017E6F4B
:102E50007EC17FF07FC180F080C181F081C182F0AE
:102E60000701BB6B7D0EBA6F060EBC6F0001BEEC96
:102E70000EF07DC383F07CC384F08A8693960400B1
:102E8000040E0701B96F000131EC03F004007D511D
:102E9000E9EC0EF07E51E9EC0EF07F51E9EC0EF01A
:102EA0008051E9EC0EF08151E9EC0EF08251E9EC31
:102EB0000EF08351E9EC0EF08451E9EC0EF00400C1
:102EC000030E0701B96F000131EC03F004008A968C
:102ED0009396030165EF20F001017D512108D8A4EC
:102EE00024EF1CF0F250006EF29EAA6AA96A0F0E3F
:102EF000A86EA69CA69EA6840F01550EA76EAA0ECC
:102F0000A76EA682A6B2FED7A6940050F212F2CF08
:102F100000F0F29EAA6A010EA96E7FC1A8FFA69CCE
:102F2000A69EA684550EA76EAA0EA76EA682A6B26E
:102F3000FED7A6940050F212F2CF00F0F29EAA6AD9
:102F4000020EA96E80C1A8FFA69CA69EA684550E5F
:102F5000A76EAA0EA76EA682A6B2FED7A6940050B0
:102F6000F212F2CF00F0F29EAA6A030EA96E81C19E
:102F7000A8FFA69CA69EA684550EA76EAA0EA76EB5
:102F8000A682A6B2FED7A6940050F212F2CF00F0AD
:102F9000F29EAA6A040EA96E82C1A8FFA69CA69EF4
:102FA000A684550EA76EAA0EA76EA682A6B2FED75D
:102FB000A6940050F212F2CF00F0F29EAA6A050E1B
:102FC000A96E83C1A8FFA69CA69EA684550EA76ED7
:102FD000AA0EA76EA682A6B2FED7A6940050F21241
:102FE000F2CF00F0F29EAA6A060EA96E84C1A8FF75
:102FF000A69CA69EA684550EA76EAA0EA76EA682B4
:10300000A6B2FED7A6940050F212F2CF00F0F29EC4
:10301000AA6A070EA96E85C1A8FFA69CA69EA684D3
:10302000550EA76EAA0EA76EA682A6B2FED7A694CC
:103030000050F212F2CF00F0F29EAA6A080EA96EBA
:1030400086C1A8FFA69CA69EA684550EA76EAA0EB2
:10305000A76EA682A6B2FED7A6940050F212F2CFB7
:1030600000F0F29EAA6A090EA96E87C1A8FFA69C6D
:10307000A69EA684550EA76EAA0EA76EA682A6B21D
:10308000FED7A6940050F212F2CF00F0F29EAA6A88
:103090000A0EA96E88C1A8FFA69CA69EA684550EFE
:1030A000A76EAA0EA76EA682A6B2FED7A69400505F
:1030B000F212F2CF00F0F29EAA6A0B0EA96E89C13D
:1030C000A8FFA69CA69EA684550EA76EAA0EA76E64
:1030D000A682A6B2FED7A6940050F212F2CF00F05C
:1030E000F29EAA6A0C0EA96E8AC1A8FFA69CA69E93
:1030F000A684550EA76EAA0EA76EA682A6B2FED70C
:10310000A6940050F212F2CF00F0F29EAA6A0D0EC1
:10311000A96E8BC1A8FFA69CA69EA684550EA76E7D
:10312000AA0EA76EA682A6B2FED7A6940050F212EF
:10313000F2CF00F0F29EAA6A0E0EA96E8CC1A8FF13
:10314000A69CA69EA684550EA76EAA0EA76EA68262
:10315000A6B2FED7A6940050F212F2CF00F0F29E73
:10316000AA6A0F0EA96E8DC1A8FFA69CA69EA68472
:10317000550EA76EAA0EA76EA682A6B2FED7A6947B
:103180000050F212F2CF00F0F29EAA6A100EA96E61
:103190008EC1A8FFA69CA69EA684550EA76EAA0E59
:1031A000A76EA682A6B2FED7A6940050F212F2CF66
:1031B00000F0F29EAA6A110EA96E8FC1A8FFA69C0C
:1031C000A69EA684550EA76EAA0EA76EA682A6B2CC
:1031D000FED7A6940050F212F2CF00F0F29EAA6A37
:1031E000120EA96E90C1A8FFA69CA69EA684550E9D
:1031F000A76EAA0EA76EA682A6B2FED7A69400500E
:10320000F212F2CF00F0F29EAA6A130EA96E91C1DB
:10321000A8FFA69CA69EA684550EA76EAA0EA76E12
:10322000A682A6B2FED7A6940050F212F2CF00F00A
:10323000F29EAA6A140EA96E92C1A8FFA69CA69E31
:10324000A684550EA76EAA0EA76EA682A6B2FED7BA
:10325000A6940050F212F2CF00F0F29EAA6A150E68
:10326000A96E93C1A8FFA69CA69EA684550EA76E24
:10327000AA0EA76EA682A6B2FED7A6940050F2129E
:10328000F2CF00F0F29EAA6A160EA96E94C1A8FFB2
:10329000A69CA69EA684550EA76EAA0EA76EA68211
:1032A000A6B2FED7A6940050F212F2CF00F0F29E22
:1032B000AA6A170EA96E95C1A8FFA69CA69EA68411
:1032C000550EA76EAA0EA76EA682A6B2FED7A6942A
:1032D0000050F212F2CF00F0F29EAA6A180EA96E08
:1032E00096C1A8FFA69CA69EA684550EA76EAA0E00
:1032F000A76EA682A6B2FED7A6940050F212F2CF15
:1033000000F0F29EAA6A190EA96E97C1A8FFA69CAA
:10331000A69EA684550EA76EAA0EA76EA682A6B27A
:10332000FED7A6940050F212F2CF00F0F29EAA6AE5
:103330001A0EA96E98C1A8FFA69CA69EA684550E3B
:10334000A76EAA0EA76EA682A6B2FED7A6940050BC
:10335000F212F2CF00F0F29EAA6A1B0EA96E99C17A
:10336000A8FFA69CA69EA684550EA76EAA0EA76EC1
:10337000A682A6B2FED7A6940050F212F2CF00F0B9
:10338000F29EAA6A1C0EA96E9AC1A8FFA69CA69ED0
:10339000A684550EA76EAA0EA76EA682A6B2FED769
:1033A000A6940050F212F2CF00F0F29EAA6A1D0E0F
:1033B000A96E9BC1A8FFA69CA69EA684550EA76ECB
:1033C000AA0EA76EA682A6B2FED7A6940050F2124D
:1033D000F2CF00F0F29EAA6A1E0EA96E9CC1A8FF51
:1033E000A69CA69EA684550EA76EAA0EA76EA682C0
:1033F000A6B2FED7A6940050F212F2CF00F0F29ED1
:10340000AA6A1F0EA96E9DC1A8FFA69CA69EA684AF
:10341000550EA76EAA0EA76EA682A6B2FED7A694D8
:103420000050F212F2CF00F0F29EAA6A200EA96EAE
:103430009EC1A8FFA69CA69EA684550EA76EAA0EA6
:10344000A76EA682A6B2FED7A6940050F212F2CFC3
:1034500000F0F29EAA6A210EA96E9FC1A8FFA69C49
:10346000A69EA684550EA76EAA0EA76EA682A6B229
:10347000FED7A6940050F212F2CF00F0F29EAA6A94
:10348000220EA96EA0C1A8FFA69CA69EA684550EDA
:10349000A76EAA0EA76EA682A6B2FED7A69400506B
:1034A000F212F2CF00F0F29EAA6A230EA96EA1C119
:1034B000A8FFA69CA69EA684550EA76EAA0EA76E70
:1034C000A682A6B2FED7A6940050F212F2CF00F068
:1034D000F29EAA6A240EA96EA2C1A8FFA69CA69E6F
:1034E000A684550EA76EAA0EA76EA682A6B2FED718
:1034F000A6940050F212F2CF00F0F29EAA6A250EB6
:10350000A96EA3C1A8FFA69CA69EA684550EA76E71
:10351000AA0EA76EA682A6B2FED7A6940050F212FB
:10352000F2CF00F0F29EAA6A260EA96EA4C1A8FFEF
:10353000A69CA69EA684550EA76EAA0EA76EA6826E
:10354000A6B2FED7A6940050F212F2CF00F0F29E7F
:10355000AA6A270EA96EA5C1A8FFA69CA69EA6844E
:10356000550EA76EAA0EA76EA682A6B2FED7A69487
:103570000050F212F2CF00F0F29EAA6A280EA96E55
:10358000A6C1A8FFA69CA69EA684550EA76EAA0E4D
:10359000A76EA682A6B2FED7A6940050F212F2CF72
:1035A00000F0F29EAA6A290EA96EA7C1A8FFA69CE8
:1035B000A69EA684550EA76EAA0EA76EA682A6B2D8
:1035C000FED7A6940050F212F2CF00F0F29EAA6A43
:1035D0002A0EA96EA8C1A8FFA69CA69EA684550E79
:1035E000A76EAA0EA76EA682A6B2FED7A69400501A
:1035F000F212F2CF00F0F29EAA6A2B0EA96EA9C1B8
:10360000A8FFA69CA69EA684550EA76EAA0EA76E1E
:10361000A682A6B2FED7A6940050F212F2CF00F016
:10362000F29EAA6A2C0EA96EAAC1A8FFA69CA69E0D
:10363000A684550EA76EAA0EA76EA682A6B2FED7C6
:10364000A6940050F212F2CF00F0F29EAA6A2D0E5C
:10365000A96EABC1A8FFA69CA69EA684550EA76E18
:10366000AA0EA76EA682A6B2FED7A6940050F212AA
:10367000F2CF00F0F29EAA6A2E0EA96EACC1A8FF8E
:10368000A69CA69EA684550EA76EAA0EA76EA6821D
:10369000A6B2FED7A6940050F212F2CF00F0F29E2E
:1036A000AA6A2F0EA96EADC1A8FFA69CA69EA684ED
:1036B000550EA76EAA0EA76EA682A6B2FED7A69436
:1036C0000050F212F2CF00F0F29EAA6A300EA96EFC
:1036D000AEC1A8FFA69CA69EA684550EA76EAA0EF4
:1036E000A76EA682A6B2FED7A6940050F212F2CF21
:1036F00000F0F29EAA6A310EA96EAFC1A8FFA69C87
:10370000A69EA684550EA76EAA0EA76EA682A6B286
:10371000FED7A6940050F2120701B16BB06B040003
:10372000B00EB025E96E010EB121EA6EEFCFB2F70F
:10373000B2510D0805E0B15303E1B0510F0827E283
:103740008B0EB025E96E050EB121EA6EEF6A320EDE
:10375000B025B96F000EB121BA6FF250006EF29E23
:10376000BAC7AAFFB9C7A9FFB2C7A8FFA69CA69E61
:10377000A6840F01550EA76EAA0EA76EA682A6B24A
:10378000FED7A6940050F2122DD026D007018B0E42
:10379000B025E96E050EB121EA6EB2C7EFFF320E19
:1037A000B025B96F000EB121BA6FF250006EF29ED3
:1037B000BAC7AAFFB9C7A9FFB2C7A8FFA69CA69E11
:1037C000A6840F01550EA76EAA0EA76EA682A6B2FA
:1037D000FED7A6940050F2120701B02BD8B4B12B3B
:1037E0009ED70F017BC07DF0210E00017E6F070187
:1037F000BB6B7D0EBA6F020EBC6F0001BEEC0EF00B
:103800007DC37FF07CC380F08A8693960A0E070101
:10381000B96F000131EC03F07D51E9EC0EF07E51FF
:10382000E9EC0EF07F51E9EC0EF08051E9EC0EF07E
:10383000030E0701B96F000131EC03F08A969396ED
:10384000FF0064EF20F001017D512208D8A464EF4D
:1038500020F00701B46B040EB36FB66BB56BB86B99
:10386000B76B04007C0EB325E96E010EB421EA6E3D
:10387000EF500D0805E0B65303E1B5511E0820E2F4
:103880005D0EB325B96F000EB421BA6FF250006E11
:10389000F29EBAC7AAFFB9C7A9FF0D0EA86EA69CD3
:1038A000A69EA6840F01550EA76EAA0EA76EA6822D
:1038B000A6B2FED7A6940050F21247D03AD0070124
:1038C0009A0EB525016E050EB621036E7C0EB3254A
:1038D000E96E010EB421EA6EEFCFBBF703C0EAFF39
:1038E00001C0E9FFBBC7EFFF5D0EB325B96F000E46
:1038F000B421BA6F7C0EB325E96E010EB421EA6ED5
:10390000EFCFBBF7F250006EF29EBAC7AAFFB9C75D
:10391000A9FFBBC7A8FFA69CA69EA6840F01550EB3
:10392000A76EAA0EA76EA682A6B2FED7A6940050D6
:10393000F2120701B4C703F0B351B32BD8B4B42BC0
:10394000B52BD8B4B62B8DD70F019A0E0701B5252C
:10395000E96E050EB621EA6EEF6AB66BB56BB32B56
:10396000D8B4B42B04007C0EB325E96E010EB4214B
:10397000EA6EEF500D0805E0B65303E1B5511E089D
:1039800020E25D0EB325B96F000EB421BA6FF2507C
:10399000006EF29EBAC7AAFFB9C7A9FF0D0EA86EA6
:1039A000A69CA69EA6840F01550EA76EAA0EA76E12
:1039B000A682A6B2FED7A6940050F21247D03AD003
:1039C0000701BA0EB525016E050EB621036E7C0EF9
:1039D000B325E96E010EB421EA6EEFCFBBF703C049
:1039E000EAFF01C0E9FFBBC7EFFF5D0EB325B96F6A
:1039F000000EB421BA6F7C0EB325E96E010EB4211E
:103A0000EA6EEFCFBBF7F250006EF29EBAC7AAFF84
:103A1000B9C7A9FFBBC7A8FFA69CA69EA6840F0195
:103A2000550EA76EAA0EA76EA682A6B2FED7A694C2
:103A30000050F2120701B4C703F0B351B32BD8B44E
:103A4000B42BB52BD8B4B62B8DD70F01BA0E070106
:103A5000B525E96E050EB621EA6EEF6AB66BB56B59
:103A6000B32BD8B4B42B04007C0EB325E96E010E41
:103A7000B421EA6EEF500D0805E0B65303E1B551ED
:103A80001E0820E25D0EB325B96F000EB421BA6F97
:103A9000F250006EF29EBAC7AAFFB9C7A9FF0D0E79
:103AA000A86EA69CA69EA6840F01550EA76EAA0E10
:103AB000A76EA682A6B2FED7A6940050F21247D0F7
:103AC0003AD00701DA0EB525016E050EB621036E58
:103AD0007C0EB325E96E010EB421EA6EEFCFBBF781
:103AE00003C0EAFF01C0E9FFBBC7EFFF5D0EB325CE
:103AF000B96F000EB421BA6F7C0EB325E96E010ECA
:103B0000B421EA6EEFCFBBF7F250006EF29EBAC757
:103B1000AAFFB9C7A9FFBBC7A8FFA69CA69EA684FB
:103B20000F01550EA76EAA0EA76EA682A6B2FED7EB
:103B3000A6940050F2120701B4C703F0B351B32B9F
:103B4000D8B4B42BB52BD8B4B62B8DD70F01DA0E61
:103B50000701B525E96E050EB621EA6EEF6AB66B70
:103B6000B56BB32BD8B4B42B04007C0EB325E96E2F
:103B7000010EB421EA6EEF500D0805E0B65303E1E3
:103B8000B5511E0820E25D0EB325B96F000EB421B9
:103B9000BA6FF250006EF29EBAC7AAFFB9C7A9FF6A
:103BA0000D0EA86EA69CA69EA6840F01550EA76EAC
:103BB000AA0EA76EA682A6B2FED7A6940050F21255
:103BC00047D03AD00701FA0EB525016E050EB62191
:103BD000036E7C0EB325E96E010EB421EA6EEFCFC1
:103BE000BBF703C0EAFF01C0E9FFBBC7EFFF5D0EF3
:103BF000B325B96F000EB421BA6F7C0EB325E96E00
:103C0000010EB421EA6EEFCFBBF7F250006EF29EC8
:103C1000BAC7AAFFB9C7A9FFBBC7A8FFA69CA69EA3
:103C2000A6840F01550EA76EAA0EA76EA682A6B295
:103C3000FED7A6940050F2120701B4C703F0B351A7
:103C4000B32BD8B4B42BB52BD8B4B62B8DD70F016A
:103C5000FA0E0701B525E96E050EB621EA6EEF6A88
:103C6000B66BB56BB32BD8B4B42B04007C0EB32564
:103C7000E96E010EB421EA6EEF500D0805E0B6536F
:103C800003E1B5511E0820E25D0EB325B96F000EA9
:103C9000B421BA6FF250006EF29EBAC7AAFFB9C73C
:103CA000A9FF0D0EA86EA69CA69EA6840F01550E18
:103CB000A76EAA0EA76EA682A6B2FED7A694005043
:103CC000F21247D03AD007011A0EB525016E060E42
:103CD000B621036E7C0EB325E96E010EB421EA6EA7
:103CE000EFCFBBF703C0EAFF01C0E9FFBBC7EFFF9F
:103CF0005D0EB325B96F000EB421BA6F7C0EB325EB
:103D0000E96E010EB421EA6EEFCFBBF7F250006E00
:103D1000F29EBAC7AAFFB9C7A9FFBBC7A8FFA69C56
:103D2000A69EA6840F01550EA76EAA0EA76EA682A8
:103D3000A6B2FED7A6940050F2120701B4C703F052
:103D4000B351B32BD8B4B42BB52BD8B4B62B8DD775
:103D50000F011A0E0701B525E96E060EB621EA6EAF
:103D6000EF6AB66BB56BB32BD8B4B42B04007C0EE2
:103D7000B325E96E010EB421EA6EEF500D0805E09F
:103D8000B65303E1B5511E0820E25D0EB325B96FAD
:103D9000000EB421BA6FF250006EF29EBAC7AAFFAD
:103DA000B9C7A9FF0D0EA86EA69CA69EA6840F01FA
:103DB000550EA76EAA0EA76EA682A6B2FED7A6942F
:103DC0000050F21249D03CD007015D0EB325B96F07
:103DD000000EB421BA6F7C0EB325E96E010EB4213A
:103DE000EA6EEFCFBBF7F250006EF29EBAC7AAFFA1
:103DF000B9C7A9FFBBC7A8FFA69CA69EA6840F01B2
:103E0000550EA76EAA0EA76EA682A6B2FED7A694DE
:103E10000050F2123A0E0701B525016E060EB621CA
:103E2000036E7C0EB325E96E010EB421EA6EEFCF6E
:103E3000BBF703C0EAFF01C0E9FFBBC7EFFF0F01FB
:103E40000701B4C703F0B351B32BD8B4B42BB52BCF
:103E5000D8B4B62B8BD70F013A0E0701B525E96E02
:103E6000060EB621EA6EEF6AB66BB56BB32BD8B40B
:103E7000B42B04007C0EB325E96E010EB421EA6E6A
:103E8000EF500D0805E0B65303E1B5511E0820E2DE
:103E90005D0EB325B96F000EB421BA6FF250006EFB
:103EA000F29EBAC7AAFFB9C7A9FF0D0EA86EA69CBD
:103EB000A69EA6840F01550EA76EAA0EA76EA68217
:103EC000A6B2FED7A6940050F21247D03AD007010E
:103ED0005A0EB525016E060EB621036E7C0EB32573
:103EE000E96E010EB421EA6EEFCFBBF703C0EAFF23
:103EF00001C0E9FFBBC7EFFF5D0EB325B96F000E30
:103F0000B421BA6F7C0EB325E96E010EB421EA6EBE
:103F1000EFCFBBF7F250006EF29EBAC7AAFFB9C747
:103F2000A9FFBBC7A8FFA69CA69EA6840F01550E9D
:103F3000A76EAA0EA76EA682A6B2FED7A6940050C0
:103F4000F2120701B4C703F0B351B32BD8B4B42BAA
:103F5000B52BD8B4B62B8DD70F015A0E0701B52556
:103F6000E96E060EB621EA6EEF6AB66BB56BB32B3F
:103F7000D8B4B42B04007C0EB325E96E010EB42135
:103F8000EA6EEF500D0805E0B65303E1B5511E0887
:103F900020E25D0EB325B96F000EB421BA6FF25066
:103FA000006EF29EBAC7AAFFB9C7A9FF0D0EA86E90
:103FB000A69CA69EA6840F01550EA76EAA0EA76EFC
:103FC000A682A6B2FED7A6940050F21247D03AD0ED
:103FD00007017A0EB525016E060EB621036E7C0E22
:103FE000B325E96E010EB421EA6EEFCFBBF703C033
:103FF000EAFF01C0E9FFBBC7EFFF5D0EB325B96F54
:10400000000EB421BA6F7C0EB325E96E010EB42107
:10401000EA6EEFCFBBF7F250006EF29EBAC7AAFF6E
:10402000B9C7A9FFBBC7A8FFA69CA69EA6840F017F
:10403000550EA76EAA0EA76EA682A6B2FED7A694AC
:104040000050F2120701B4C703F0B351B32BD8B438
:10405000B42BB52BD8B4B62B8DD70F017A0E070130
:10406000B525E96E060EB621EA6EEF6A7BC07DF0DB
:10407000220E00017E6F0701BB6B7D0EBA6F020E30
:10408000BC6F0001BEEC0EF07DC37FF07CC380F0FE
:104090008A8693960A0E0701B96F000131EC03F08E
:1040A0007D51E9EC0EF07E51E9EC0EF07F51E9EC28
:1040B0000EF08051E9EC0EF0030E0701B96F00011C
:1040C00031EC03F08A969396030101017D510308B8
:1040D00046E10301856B4BC086F37BC07DF0030E88
:1040E00000017E6F020E7F6F85C380F086C381F072
:1040F0000701BB6B7D0EBA6F050EBC6F0001BEECF5
:104100000EF07DC382F07CC383F08A869396040010
:10411000040E0701B96F000131EC03F004007D517A
:10412000E9EC0EF07E51E9EC0EF07F51E9EC0EF077
:104130008051E9EC0EF08151E9EC0EF08251E9EC8E
:104140000EF08351E9EC0EF00400030E0701B96F85
:10415000000131EC03F004008A9693960101010EF0
:1041600003017F6FF40E7E6F329A71C07AF0050101
:10417000876B00017C6B8A96939671EF2FF0070195
:1041800046814683468546874689468B468D468FBF
:10419000000119EF21F034C0B0F735C0B1F79484B5
:1041A00082B402D01CAC02D01CA806D0320E07018B
:1041B000B96F000131EC03F0948482B402D01CACDE
:1041C00002D01CA82AD0948482B402D01CAC02D0A5
:1041D0001CA822D00400315202E1060E316E1C8C64
:1041E000040E0701B86FB969000189EC0DF0040EE7
:1041F0000701B86FB969000194EC0DF0060E0701D4
:10420000B86FB969000189EC0DF0060E0701B86FAF
:10421000B969000194EC0DF008D0948482A405D013
:104220001CAC03D0316A1C9C1C9A1CAA07D0328299
:10423000A6D7948482A401D01C9A0BD0948482A423
:1042400008D01CAC06D06F510F0800E2316A1C9CEC
:104250001C9A78EF2FF0B1C7B5F7B0C7B4F7B5C760
:10426000EAFF0701B4C7E9FFEF5206E0B42BD8B468
:10427000B52B0001F4D70701B3C7EAFFB2C7E9FFC6
:10428000EF5213E0B3C7EAFFB2C7E9FFEFCFB8F7C9
:10429000B5C7EAFFB4C7E9FFB8C7EFFFB42BD8B47E
:1042A000B52BB22BD8B4B32BE7D7B5C7EAFFB4C749
:1042B000E9FFEF6AB0C701F0B1C702F000011200D8
:1042C0000701B02DECD0000E46B1010EB36F000E09
:1042D00047B1010EB311B26F000E45A1010EB21726
:1042E000000E42B1010EB56F000E43B1010EB511C3
:1042F000B215B191E8B0B181000EB1B1010EB26F4B
:10430000000E46B3010EB46F000E47B3010EB41198
:10431000B36F000E45A3010EB317000E42B3010E9A
:10432000B66F000E43B3010EB611B315B211B191C1
:10433000E8B0B181000EB1B1010EB26F000E46B50A
:10434000010EB46F000E47B5010EB411B36F000E2D
:1043500045A5010EB317000E42B5010EB66F000E53
:1043600043B5010EB611B315B211B191E8B0B181E8
:10437000000EB1B1010EB26F000E46B7010EB46F60
:10438000000E47B7010EB411B36F000E45A7010E22
:10439000B317000E42B7010EB66F000E43B7010E01
:1043A000B611B315B211B191E8B0B181000EB1B13F
:1043B000010EB26F000E46B9010EB46F000E47B980
:1043C000010EB411B36F000E45A9010EB317000E14
:1043D00042B9010EB66F000E43B9010EB611B31506
:1043E000B211B191E8B0B181000EB1B1010EB26F5E
:1043F000000E46BB010EB46F000E47BB010EB41198
:10440000B36F000E45AB010EB317000E42BB010E99
:10441000B66F000E43BB010EB611B315B211B191C8
:10442000E8B0B181000EB1B1010EB26F000E46BD11
:10443000010EB46F000E47BD010EB411B36F000E34
:1044400045AD010EB317000E42BD010EB66F000E52
:1044500043BD010EB611B315B211B191E8B0B181EF
:10446000000EB1B1010EB26F000E46BF010EB46F67
:10447000000E47BF010EB411B36F000E45AF010E21
:10448000B317000E42BF010EB66F000E43BF010E00
:10449000B611B315B211B191E8B0B181EFD0B051FE
:1044A0000208D8A4EBD0000E46B1010EB36F000E87
:1044B00047B1010EB311B26F000E45A1010EB21744
:1044C000000E42A1010EB56F000E43B1010EB511F1
:1044D000B215B191E8B0B181000EB1B1010EB26F69
:1044E000000E46B3010EB46F000E47B3010EB411B7
:1044F000B36F000E45A3010EB317000E42A3010EC9
:10450000B66F000E43B3010EB611B315B211B191DF
:10451000E8B0B181000EB1B1010EB26F000E46B528
:10452000010EB46F000E47B5010EB411B36F000E4B
:1045300045A5010EB317000E42A5010EB66F000E81
:1045400043B5010EB611B315B211B191E8B0B18106
:10455000000EB1B1010EB26F000E46B7010EB46F7E
:10456000000E47B7010EB411B36F000E45A7010E40
:10457000B317000E42A7010EB66F000E43B7010E2F
:10458000B611B315B211B191E8B0B181000EB1B15D
:10459000010EB26F000E46B9010EB46F000E47B99E
:1045A000010EB411B36F000E45A9010EB317000E32
:1045B00042A9010EB66F000E43B9010EB611B31534
:1045C000B211B191E8B0B181000EB1B1010EB26F7C
:1045D000000E46BB010EB46F000E47BB010EB411B6
:1045E000B36F000E45AB010EB317000E42AB010EC8
:1045F000B66F000E43BB010EB611B315B211B191E7
:10460000E8B0B181000EB1B1010EB26F000E46BD2F
:10461000010EB46F000E47BD010EB411B36F000E52
:1046200045AD010EB317000E42AD010EB66F000E80
:1046300043BD010EB611B315B211B191E8B0B1810D
:10464000000EB1B1010EB26F000E46BF010EB46F85
:10465000000E47BF010EB411B36F000E45AF010E3F
:10466000B317000E42AF010EB66F000E43BF010E2E
:10467000B611B315B211B191E8B0B181000EB1B16C
:10468000010E016E00011200070144A156D0000E78
:104690003EB1010EB16F000E40B1010EB11901081B
:1046A00002E141B102D046A144D045B141D046B16A
:1046B0000CD000016C510F08D8B402D0070105D00E
:1046C000640E1E6E6DC01FF0070146811CB202D041
:1046D0003F9101D03F811CB80ED043B105D08998DD
:1046E00092988996929607D042A103D08998929881
:1046F00002D0899692964CB11BD032B219D045B1F6
:1047000017D04C81060EB16F9A0EB06F050EB36FC5
:104710009A0EB26F00019FDD060E0701B16F9A0E6F
:10472000B06F070EB36F3A0EB26F000194DD070150
:1047300003D041A101D045912CD0000E3EB1010E15
:10474000B16F000E40B1010EB11901081FE13F9198
:104750004CB11BD032B219D045B117D04C81060EE6
:10476000B16F9A0EB06F050EB36F9A0EB26F000163
:1047700072DD060E0701B16F9A0EB06F070EB36FB0
:104780003A0EB26F000167DD070103D03F814C9103
:10479000329244A356D0000E3EB3010EB16F000E0C
:1047A00040B3010EB119010802E141B302D046A3A2
:1047B00044D045B324D046B30CD000016C510F084F
:1047C000D8B402D0070105D0640E1E6E6DC01FF074
:1047D000070146831CB202D03F9301D03F831CB82F
:1047E0000ED043B305D0899892988996929607D0B7
:1047F00042A303D08998929802D0899692964CB39E
:104800001BD032B219D045B317D04C83060EB16F0E
:104810009A0EB06F050EB36FBA0EB26F00011BDDBA
:10482000060E0701B16F9A0EB06F070EB36F3A0E06
:10483000B26F000110DD070103D041A301D0459301
:104840002CD0000E3EB3010EB16F000E40B3010E2E
:10485000B11901081FE13F934CB31BD032B219D0FC
:1048600045B317D04C83060EB16F9A0EB06F050E8C
:10487000B36FBA0EB26F0001EEDC060E0701B16F26
:104880009A0EB06F070EB36F3A0EB26F0001E3DC01
:10489000070103D03F834C93329244A556D0000EBB
:1048A0003EB5010EB16F000E40B5010EB119010801
:1048B00002E141B502D046A544D045B524D046B565
:1048C0000CD000016C510F08D8B402D0070105D0FC
:1048D000640E1E6E6DC01FF0070146851CB202D02B
:1048E0003F9501D03F851CB80ED043B505D08998BF
:1048F00092988996929607D042A503D0899892986B
:1049000002D0899692964CB51BD032B219D045B5DB
:1049100017D04C85060EB16F9A0EB06F050EB36FAF
:10492000DA0EB26F000197DC060E0701B16F9A0E26
:10493000B06F070EB36F3A0EB26F00018CDC070147
:1049400003D041A501D045952CD0000E3EB5010EF7
:10495000B16F000E40B5010EB11901081FE13F957E
:104960004CB51BD032B219D045B517D04C85060EC8
:10497000B16F9A0EB06F050EB36FDA0EB26F000111
:104980006ADC060E0701B16F9A0EB06F070EB36FA7
:104990003A0EB26F00015FDC070103D03F854C95F2
:1049A000329244A756D0000E3EB7010EB16F000EF2
:1049B00040B7010EB119010802E141B702D046A784
:1049C00044D045B724D046B70CD000016C510F0835
:1049D000D8B402D0070105D0640E1E6E6DC01FF062
:1049E000070146871CB202D03F9701D03F871CB811
:1049F0000ED043B705D0899892988996929607D0A1
:104A000042A703D08998929802D0899692964CB783
:104A10001BD032B219D045B717D04C87060EB16FF4
:104A20009A0EB06F050EB36FFA0EB26F000113DC71
:104A3000060E0701B16F9A0EB06F070EB36F3A0EF4
:104A4000B26F000108DC070103D041A701D04597F0
:104A50002ED0000E3EB7010EB16F000E40B7010E12
:104A6000B119010821E13F974CB71DD032B21BD0DC
:104A700045B719D04C87060EB16F9A0EB06F050E70
:104A8000B36FFA0EB26F00012BEC21F0060E070196
:104A9000B16F9A0EB06F070EB36F3A0EB26F00018E
:104AA0002BEC21F0070103D03F874C97329244A9A9
:104AB00058D0000E3EB9010EB16F000E40B9010E84
:104AC000B119010802E141B902D046A946D045B961
:104AD00024D046B90CD000016C510F08D8B402D0D4
:104AE000070105D0640E1E6E6DC01FF007014689D8
:104AF0001CB202D03F9901D03F891CB80ED043B9F7
:104B000005D0899892988996929607D042A903D0A9
:104B10008998929802D0899692964CB91DD032B25B
:104B20001BD045B919D04C89060EB16F9A0EB06FE3
:104B3000060EB36F1A0EB26F00012BEC21F0060EB9
:104B40000701B16F9A0EB06F070EB36F3A0EB26FD6
:104B500000012BEC21F0070103D041A901D04599B8
:104B60002ED0000E3EB9010EB16F000E40B9010EFD
:104B7000B119010821E13F994CB91DD032B21BD0C7
:104B800045B919D04C89060EB16F9A0EB06F060E5A
:104B9000B36F1A0EB26F00012BEC21F0060E070165
:104BA000B16F9A0EB06F070EB36F3A0EB26F00017D
:104BB0002BEC21F0070103D03F894C99329244AB92
:104BC00058D0000E3EBB010EB16F000E40BB010E6F
:104BD000B119010802E141BB02D046AB46D045BB4A
:104BE00024D046BB0CD000016C510F08D8B402D0C1
:104BF000070105D0640E1E6E6DC01FF00701468BC5
:104C00001CB202D03F9B01D03F8B1CB80ED043BBDF
:104C100005D0899892988996929607D042AB03D096
:104C20008998929802D0899692964CBB1DD032B248
:104C30001BD045BB19D04C8B060EB16F9A0EB06FCE
:104C4000060EB36F3A0EB26F00012BEC21F0060E88
:104C50000701B16F9A0EB06F070EB36F3A0EB26FC5
:104C600000012BEC21F0070103D041AB01D0459BA3
:104C70002ED0000E3EBB010EB16F000E40BB010EE8
:104C8000B119010821E13F9B4CBB1DD032B21BD0B2
:104C900045BB19D04C8B060EB16F9A0EB06F060E45
:104CA000B36F3A0EB26F00012BEC21F0060E070134
:104CB000B16F9A0EB06F070EB36F3A0EB26F00016C
:104CC0002BEC21F0070103D03F8B4C9B329244AD7B
:104CD00058D0000E3EBD010EB16F000E40BD010E5A
:104CE000B119010802E141BD02D046AD46D045BD33
:104CF00024D046BD0CD000016C510F08D8B402D0AE
:104D0000070105D0640E1E6E6DC01FF00701468DB1
:104D10001CB202D03F9D01D03F8D1CB80ED043BDC8
:104D200005D0899892988996929607D042AD03D083
:104D30008998929802D0899692964CBD1DD032B235
:104D40001BD045BD19D04C8D060EB16F9A0EB06FB9
:104D5000060EB36F5A0EB26F00012BEC21F0060E57
:104D60000701B16F9A0EB06F070EB36F3A0EB26FB4
:104D700000012BEC21F0070103D041AD01D0459D8E
:104D80002ED0000E3EBD010EB16F000E40BD010ED3
:104D9000B119010821E13F9D4CBD1DD032B21BD09D
:104DA00045BD19D04C8D060EB16F9A0EB06F060E30
:104DB000B36F5A0EB26F00012BEC21F0060E070103
:104DC000B16F9A0EB06F070EB36F3A0EB26F00015B
:104DD0002BEC21F0070103D03F8D4C9D329244AF64
:104DE00058D0000E3EBF010EB16F000E40BF010E45
:104DF000B119010802E141BF02D046AF46D045BF1C
:104E000024D046BF0CD000016C510F08D8B402D09A
:104E1000070105D0640E1E6E6DC01FF00701468F9E
:104E20001CB202D03F9F01D03F8F1CB80ED043BFB1
:104E300005D0899892988996929607D042AF03D070
:104E40008998929802D0899692964CBF1DD032B222
:104E50001BD045BF19D04C8F060EB16F9A0EB06FA4
:104E6000060EB36F7A0EB26F00012BEC21F0060E26
:104E70000701B16F9A0EB06F070EB36F3A0EB26FA3
:104E800000012BEC21F0070103D041AF01D0459F79
:104E90002ED0000E3EBF010EB16F000E40BF010EBE
:104EA000B119010821E13F9F4CBF1DD032B21BD088
:104EB00045BF19D04C8F060EB16F9A0EB06F060E1B
:104EC000B36F7A0EB26F00012BEC21F0060E0701D2
:104ED000B16F9A0EB06F070EB36F3A0EB26F00014A
:104EE0002BEC21F0070103D03F8F4C9F3292000E34
:104EF0003EB1010EB16F000E40B1010EB1190108B3
:104F000002E141A102D01CAA4CD047B10ED0000151
:104F10006C510F08D8B402D0070107D0070145B182
:104F200004D0640E1E6E6DC01FF0478145B117D0CE
:104F30001CB202D03F9101D03F811CB810D044A1D7
:104F40000ED043B105D0899892988996929607D051
:104F500042A103D08998929802D089969296010E28
:104F6000AD6F4CB11DD032B21BD045B119D04C81C0
:104F7000060EB16F9A0EB06F050EB36F9A0EB26F38
:104F800000012BEC21F0060E0701B16F9A0EB06FF5
:104F9000070EB36F3A0EB26F00012BEC21F0070140
:104FA0003CD041B13AD0479145913F814C9142B1BB
:104FB00002D043B10DD0AD530BE1010EB06F000133
:104FC00060EC21F0012C01D002D089889298070171
:104FD00042A102D043B10DD0AD530BE1020EB06F30
:104FE000000160EC21F0012C01D002D0898692965C
:104FF000070147B112D047B310D047B50ED047B71D
:105000000CD047B90AD047BB08D047BD06D047BF30
:1050100004D08986929689889298000E3EB3010E3C
:10502000B16F000E40B3010EB119010802E141A3B6
:1050300002D01CAA4CD047B30ED000016C510F080F
:10504000D8B402D0070107D0070145B304D0640EDD
:105050001E6E6DC01FF0478345B317D01CB202D03F
:105060003F9301D03F831CB810D044A30ED043B36C
:1050700005D0899892988996929607D042A303D03A
:105080008998929802D089969296010EAD6F4CB392
:105090001DD032B21BD045B319D04C83060EB16F70
:1050A0009A0EB06F050EB36FBA0EB26F00012BEC03
:1050B00021F0060E0701B16F9A0EB06F070EB36FA5
:1050C0003A0EB26F00012BEC21F007013CD041B346
:1050D0003AD0479345933F834C9342B302D043B3B6
:1050E0000DD0AD530BE1010EB06F000160EC21F06B
:1050F000012C01D002D089889298070142A302D0E6
:1051000043B30DD0AD530BE1020EB06F000160EC64
:1051100021F0012C01D002D089869296070147B177
:1051200012D047B310D047B50ED047B70CD047B90F
:105130000AD047BB08D047BD06D047BF04D08986F8
:10514000929689889298000E3EB5010EB16F000EBE
:1051500040B5010EB119010802E141A502D01CAA17
:105160004CD047B50ED000016C510F08D8B402D016
:10517000070107D0070145B504D0640E1E6E6DC04F
:105180001FF0478545B517D01CB202D03F9501D01E
:105190003F851CB810D044A50ED043B505D08998E2
:1051A00092988996929607D042A503D089989298B2
:1051B00002D089969296010EAD6F4CB51DD032B2D9
:1051C0001BD045B519D04C85060EB16F9A0EB06F45
:1051D000050EB36FDA0EB26F00012BEC21F0060E54
:1051E0000701B16F9A0EB06F070EB36F3A0EB26F30
:1051F00000012BEC21F007013CD041B53AD0479596
:1052000045953F854C9542B502D043B50DD0AD5381
:105210000BE1010EB06F000160EC21F0012C01D018
:1052200002D089889298070142A502D043B50DD0DB
:10523000AD530BE1020EB06F000160EC21F0012CC8
:1052400001D002D089869296070147B112D047B3A8
:1052500010D047B50ED047B70CD047B90AD047BBDE
:1052600008D047BD06D047BF04D08986929689886A
:105270009298000E3EB7010EB16F000E40B7010EBE
:10528000B119010802E141A702D01CAA4CD047B7CE
:105290000ED000016C510F08D8B402D0070107D01E
:1052A000070145B704D0640E1E6E6DC01FF047871E
:1052B00045B717D01CB202D03F9701D03F871CB82A
:1052C00010D044A70ED043B705D0899892988996FC
:1052D000929607D042A703D08998929802D08996D7
:1052E0009296010EAD6F4CB71DD032B21BD045B7B0
:1052F00019D04C87060EB16F9A0EB06F050EB36FC2
:10530000FA0EB26F00012BEC21F0060E0701B16F0F
:105310009A0EB06F070EB36F3A0EB26F00012BEC0E
:1053200021F007013CD041B73AD0479745973F87D6
:105330004C9742B702D043B70DD0AD530BE1010EED
:10534000B06F000160EC21F0012C01D002D08988FF
:105350009298070142A702D043B70DD0AD530BE19D
:10536000020EB06F000160EC21F0012C01D002D0E0
:1053700089869296070147B112D047B310D047B53E
:105380000ED047B70CD047B90AD047BB08D047BDAD
:1053900006D047BF04D08986929689889298000EDD
:1053A0003EB9010EB16F000E40B9010EB1190108EE
:1053B00002E141A902D01CAA4CD047B90ED000018D
:1053C0006C510F08D8B402D0070107D0070145B9C6
:1053D00004D0640E1E6E6DC01FF0478945B917D00A
:1053E0001CB202D03F9901D03F891CB810D044A90B
:1053F0000ED043B905D0899892988996929607D095
:1054000042A903D08998929802D089969296010E6B
:10541000AD6F4CB91DD032B21BD045B919D04C89F3
:10542000060EB16F9A0EB06F060EB36F1A0EB26F02
:1054300000012BEC21F0060E0701B16F9A0EB06F40
:10544000070EB36F3A0EB26F00012BEC21F007018B
:105450003CD041B93AD0479945993F894C9942B9D6
:1054600002D043B90DD0AD530BE1010EB06F000176
:1054700060EC21F0012C01D002D0898892980701BC
:1054800042A902D043B90DD0AD530BE1020EB06F6B
:10549000000160EC21F0012C01D002D089869296A7
:1054A000070147B112D047B310D047B50ED047B768
:1054B0000CD047B90AD047BB08D047BD06D047BF7C
:1054C00004D08986929689889298000E3EBB010E80
:1054D000B16F000E40BB010EB119010802E141ABF2
:1054E00002D01CAA4CD047BB0ED000016C510F0853
:1054F000D8B402D0070107D0070145BB04D0640E21
:105500001E6E6DC01FF0478B45BB17D01CB202D07A
:105510003F9B01D03F8B1CB810D044AB0ED043BB97
:1055200005D0899892988996929607D042AB03D07D
:105530008998929802D089969296010EAD6F4CBBD5
:105540001DD032B21BD045BB19D04C8B060EB16FAB
:105550009A0EB06F060EB36F3A0EB26F00012BECCD
:1055600021F0060E0701B16F9A0EB06F070EB36FF0
:105570003A0EB26F00012BEC21F007013CD041BB89
:105580003AD0479B459B3F8B4C9B42BB02D043BBD1
:105590000DD0AD530BE1010EB06F000160EC21F0B6
:1055A000012C01D002D089889298070142AB02D029
:1055B00043BB0DD0AD530BE1020EB06F000160ECA8
:1055C00021F0012C01D002D089869296070147B1C3
:1055D00012D047B310D047B50ED047B70CD047B95B
:1055E0000AD047BB08D047BD06D047BF04D0898644
:1055F000929689889298000E3EBD010EB16F000E02
:1056000040BD010EB119010802E141AD02D01CAA52
:105610004CD047BD0ED000016C510F08D8B402D059
:10562000070107D0070145BD04D0640E1E6E6DC092
:105630001FF0478D45BD17D01CB202D03F9D01D051
:105640003F8D1CB810D044AD0ED043BD05D0899815
:1056500092988996929607D042AD03D089989298F5
:1056600002D089969296010EAD6F4CBD1DD032B21C
:105670001BD045BD19D04C8D060EB16F9A0EB06F80
:10568000060EB36F5A0EB26F00012BEC21F0060E1E
:105690000701B16F9A0EB06F070EB36F3A0EB26F7B
:1056A00000012BEC21F007013CD041BD3AD0479DD1
:1056B000459D3F8D4C9D42BD02D043BD0DD0AD53A5
:1056C0000BE1010EB06F000160EC21F0012C01D064
:1056D00002D089889298070142AD02D043BD0DD017
:1056E000AD530BE1020EB06F000160EC21F0012C14
:1056F00001D002D089869296070147B112D047B3F4
:1057000010D047B50ED047B70CD047B90AD047BB29
:1057100008D047BD06D047BF04D0898692968988B5
:105720009298000E3EBF010EB16F000E40BF010EF9
:10573000B119010802E141AF02D01CAA4CD047BF09
:105740000ED000016C510F08D8B402D0070107D069
:10575000070145BF04D0640E1E6E6DC01FF0478F59
:1057600045BF17D01CB202D03F9F01D03F8F1CB85D
:1057700010D044AF0ED043BF05D089989298899637
:10578000929607D042AF03D08998929802D089961A
:105790009296010EAD6F4CBF1DD032B21BD045BFEB
:1057A00019D04C8F060EB16F9A0EB06F060EB36F04
:1057B0007A0EB26F00012BEC21F0060E0701B16FDB
:1057C0009A0EB06F070EB36F3A0EB26F00012BEC5A
:1057D00021F007013CD041BF3AD0479F459F3F8F02
:1057E0004C9F42BF02D043BF0DD0AD530BE1010E21
:1057F000B06F000160EC21F0012C01D002D089884B
:105800009298070142AF02D043BF0DD0AD530BE1D8
:10581000020EB06F000160EC21F0012C01D002D02B
:1058200089869296070147B112D047B310D047B589
:105830000ED047B70CD047B90AD047BB08D047BDF8
:1058400006D047BF04D08986929689889298000135
:105850007BEF2FF0B1C7EAFF0701B0C7E9FFEFCF39
:10586000B4F7B3C7EAFFB2C7E9FFEF50B45D17E181
:10587000B1C703F0B0C7E9FF03C0EAFFEF5203E18D
:10588000000E016E21D0B1C703F0B051B02BD8B4D7
:10589000B12BB22BD8B4B32B0001DCD70701B1C7B1
:1058A00003F0B0C7E9FF03C0EAFFEFCFB4F7B3C717
:1058B00003F0B2C7E9FF03C0EAFFEF50B45D02E2B4
:1058C000FF0E01D0010E016E000185EF2CF0EF52AA
:1058D00010E0EACFB1F7E9CFB0F7EFCFB2F78BEC3A
:1058E0000EF0B1C7EAFFB0C7E9FFE92AD8B4EA2A47
:1058F000EED71200060E0701B16F9A0EB06F070EB9
:10590000B36FA70EB26F0001A5D701524CE0DA0EBB
:10591000F66E020EF76EAEEC0EF00A0E0701B26FD5
:1059200000018BEC0EF00A0E0701B96F000131EC9B
:1059300003F0E40EF66E020EF76EAEEC0EF0050EFE
:10594000EA6E8B0EE96EC3DF220E0701B26F000113
:105950008BEC0EF00A0E0701B26F00018BEC0EF01B
:10596000320E0701B96F000131EC03F0060EEA6E4A
:105970009A0EE96EACDF0A0E0701B26F00018BECE4
:105980000EF01A0E0701B26F00018BEC0EF0060E3E
:10599000EA6E9A0EE96E070EE26EA70EE16EE7520E
:1059A000E6CFEEFFFCE185EF2FF0F86AD09E078E80
:1059B000700ED36E9B9C9B9EB886A00EAF6E010EA0
:1059C000B06EA60EAC6E900EAB6E93908A801B6A82
:1059D0001C90190E1D6E1C92640E1E6E1F6A1C9484
:1059E0001C961C98306A1C9A316A1C9C1C9E329032
:1059F000329232943296336A3298110E716F120ECF
:105A0000726F130E736F140E746F160E756F170E80
:105A1000766F180E776F190E786F200E796F329AA5
:105A20007C6B010E03017F6FF40E7E6F816B806BC8
:105A3000836B826B846B0501896B886B8A6B0701B2
:105A4000AB6BAA6BAC6B0F01386B396B3A6B776A37
:105A5000786A796A196A1A6A3E0E06019A6F9B6F14
:105A60009C6B200E07013A6F3B6B3E0EA76FA86F31
:105A7000A96BAD6B320EB96F000131EC03F08A9A5D
:105A8000939AC150F00BC16E000E0F01386F396F41
:105A90003A6FC290800ED56E780E0609BA6EC40EAB
:105AA000BB6E9D829D8AC69A949A94889496200E85
:105AB000C66E400EC76E000162EF03F00701B06BC7
:105AC000B1690001ADEC03F00701B06BB1690001F1
:105AD000B6EC03F0020E0701B06FB1690001ADEC46
