:0400000036EF32F0B5
:08000800046ED8CF05F0E0CF33
:1000100006F00001E9CF0CF0EACF07F0E1CF08F0DD
:10002000E2CF09F0D9CF0AF0DACF0BF0F3CF12F01C
:10003000F4CF13F0FACF14F0F5CF15F0F6CF16F099
:10004000F7CF17F000C00EF001C00FF002C010F0A3
:1000500003C011F09DA230EF00F09EB2A2EF02F0BB
:100060009DAA36EF00F09EBA9AEF02F00EC000F0A3
:100070000FC001F010C002F011C003F00CC0E9FF86
:1000800007C0EAFF078E08C0E1FF09C0E2FF0AC00F
:10009000D9FF0BC0DAFF12C0F3FF13C0F4FF14C086
:1000A000FAFF15C0F5FF16C0F6FF17C0F7FF0450A2
:1000B00006C0E0FF05C0D8FF1000F76ACA0FF66E51
:1000C000000EF7220900F550120000C1814001C066
:1000D000804101C0804100C1814001C0804100C118
:1000E000814000C1814001C0804101C0804100C108
:1000F000814000C1814001C0804100C1814001C0F8
:10010000804101C0804100C1814001C0804100C1E7
:10011000814000C1814001C0804100C1814001C0D7
:10012000804101C0804100C1814000C1814001C0C7
:10013000804101C0804100C1814001C0804100C1B7
:10014000814000C1814001C0804101C0804100C1A7
:10015000814000C1814001C0804100C1814001C097
:10016000804101C0804100C1814000C1814001C087
:10017000804101C0804100C1814001C0804100C177
:10018000814000C1814001C0804100C1814001C067
:10019000804101C0804100C1814001C0804100C157
:1001A000814000C1814001C0804101C0804100C147
:1001B000814000C1814001C0804100C1814001C037
:1001C000804101C0804100C18140F76ADA0FF66EBC
:1001D000010EF7220900F550120000C0C101C3034F
:1001E00002C2C60607C705C5C404CC0C0DCD0FCF8F
:1001F000CE0E0ACACB0BC90908C8D81819D91BDBFF
:10020000DA1A1EDEDF1FDD1D1CDC14D4D515D7174E
:1002100016D6D21213D311D1D010F03031F133F3FE
:10022000F23236F6F737F53534F43CFCFD3DFF3F4E
:100230003EFEFA3A3BFB39F9F83828E8E929EB2B7E
:100240002AEAEE2E2FEF2DEDEC2CE42425E527E70E
:10025000E62622E2E323E12120E0A06061A163A37E
:10026000A26266A6A767A56564A46CACAD6DAF6F0E
:100270006EAEAA6A6BAB69A9A86878B8B979BB7B7E
:100280007ABABE7E7FBF7DBDBC7CB47475B577B7CE
:10029000B67672B2B373B17170B0509091519353FE
:1002A000529296565797559594549C5C5D9D5F9FCE
:1002B0009E5E5A9A9B5B99595898884849894B8BFE
:1002C0008A4A4E8E8F4F8D4D4C8C4484854587478E
:1002D0004686824243834181804004006F51775DAE
:1002E00013E1796B790E7925E96E010EEA6ED8B0CB
:1002F000EA2A2EC0EFFF0400792B100E776F140E40
:100300000601836F14D10001775110085CE1790E6A
:100310007925E96E010EEA6ED8B0EA2A2EC0EFFF09
:100320000400792B010E795D790FE96E010EEA6EFA
:10033000D8B0EA2AEF50160807E370C077F0140E21
:100340000601836F3ED00001010E795D790FE96EE1
:10035000010EEA6ED8B0EA2AEF50200807E173C018
:1003600077F0140E0601836F2CD00001010E795D29
:10037000790FE96E010EEA6ED8B0EA2AEF50210833
:1003800007E175C077F0140E0601836F1AD00001E3
:10039000010E795D790FE96E010EEA6ED8B0EA2A96
:1003A000EF50220807E175C077F0140E0601836F45
:1003B00008D00001796B6FC077F00601836B8A96D5
:1003C0009396B5D000017551775D1CE1790E7925C2
:1003D000E96E010EEA6ED8B0EA2A2EC0EFFF0400E3
:1003E000792B010E795D790FE96E010EEA6ED8B0B6
:1003F000EA2AEFCF84F6140E0601836F76C077F0F9
:1004000096D000017651775D15E1790E7925E96E78
:10041000010EEA6ED8B0EA2A2EC0EFFF0400792B55
:1004200006018407845302E173C077F0140E836FD2
:100430007ED000017051775D12E1790E7925E96E69
:10044000010EEA6ED8B0EA2A2EC0EFFF0400792B25
:1004500071C077F0140E0601836F69D000017151ED
:10046000775D12E1790E7925E96E010EEA6ED8B05A
:10047000EA2A2EC0EFFF0400792B72C077F0140E29
:100480000601836F54D000017251775D12E1790E3D
:100490007925E96E010EEA6ED8B0EA2A2EC0EFFF88
:1004A0000400792B150E776F140E0601836F3FD071
:1004B00000017751150812E1790E7925E96E010ED8
:1004C000EA6ED8B0EA2A2EC0EFFF0400792B73C081
:1004D00077F0140E0601836F2AD000017351775D07
:1004E00012E1790E7925E96E010EEA6ED8B0EA2A9A
:1004F0002EC0EFFF0400792B74C077F0140E0601B4
:10050000836F15D000017451775D11E1790E792563
:10051000E96E010EEA6ED8B0EA2A2EC0EFFF0400A1
:100520006FC077F00601836B308A8A96939600013C
:100530009FEF02F09EAAFED7AECF2EF0CED69E9AA7
:1005400036EF00F0192A0601835307E0830783532F
:1005500004E16FC077F08A9693961C520CE01C065B
:100560001C5209E11D5204E01D061D5201E11A84CE
:100570003088640E1C6E1950320815E1196A1AB0E1
:1005800004D01A808A8A939A03D01A908A9A939AEE
:100590001AAC08D02F5201E02F062F5202E11A8A1E
:1005A000308201D02F6A1B5213E01B061B520AE156
:1005B000856930B405D01AA202D01A9201D01A82ED
:1005C0006CC01BF0315204E03106315201E130942D
:1005D0009E92000136EF00F041542B434D47463DBB
:1005E000310041542B434D47533D220041542B438E
:1005F0004D47463D310041542B434D47533D22006A
:1006000041542B434D47463D310041542B434D4708
:10061000533D220041542B434D47463D3100415448
:100620002B434D47533D220041542B434D47463DFC
:10063000310041542B434D47533D220041542B433D
:100640004D47463D310041542B434D47533D220019
:1006500041542B434D47463D310041542B434D47B8
:10066000533D220041542B434D47463D31004154F8
:100670002B434D47533D220041542B434D47463DAC
:10068000310041542B434D47533D220041542B43ED
:100690004D47463D310041542B434D47533D2200C9
:1006A00041542B434D47463D310041542B434D4768
:1006B000533D220041542B434D47463D31004154A8
:1006C0002B434D47533D220041542B434D47463D5C
:1006D000310041542B434D47533D220041542B439D
:1006E0004D47463D310041542B434D47533D220079
:1006F00041542B434D47533D220041542B434D471A
:10070000533D220041542B434D47533D2200415459
:100710002B434D47533D220041542B434D47533DFE
:10072000220041542B434D47533D220041542B435B
:100730004D47533D220041542B434D47533D22002A
:1007400041542B434D47463D3100080EEA6E7E0E64
:10075000E96EEF5011E0050E016EBF0E006E040051
:10076000002EFDD7012EF9D72E0E006E002EFED7DB
:1007700000000400EF2EEFD71200929A899A080128
:100780007F514009826FC95082C8C9FFC730FEE35C
:10079000C95080C8C9FFC730FEE3C95081C8C9FF2E
:1007A000C730FEE3929A898A00011200929A898AE0
:1007B000929A08017F6B0A0E806FAA0E816F00016A
:1007C000DCDF020E08017F6F0A0E806FAA0E816FB8
:1007D0000001D3DF040E08017F6F0A0E806FAA0E9E
:1007E000816F0001CADF060E08017F6F0A0E806F5D
:1007F000AA0E816F0001C1DF080E08017F6F0A0E8B
:10080000806FAA0E816F0001B8DF0A0E08017F6FAA
:10081000806FAA0E816F0001B0DF0C0E08017F6FA0
:100820000A0E806FAA0E816F0001A7DF0E0E08016D
:100830007F6F0A0E806FAA0E816F00019EDFADEF01
:1008400032F075C87FF80801806B76C881F8000126
:1008500094DF120075C87FF8100E0801806F76C80B
:1008600081F800018ADF1200F2CF7FF8F29EAA6AB7
:10087000010EA96EA69CA69EA680A85008017FBF67
:10088000F28E396E39C03AF00701DF9139B0DF815D
:10089000D8903930DF93E8B0DF833930006E003212
:1008A0003F0E0016DF9500B0DF853930006E003254
:1008B00000321F0E0016DF9700B0DF873938006E58
:1008C0000F0E0016DF9900B0DF893938006E003254
:1008D000070E0016DF9B00B0DF8B3938006E003248
:1008E0000032030E0016DF9D00B0DF8D006A39BEB6
:1008F0000080DF9F00B0DF8F08016C930701DFA14C
:1009000003D008016C83070108016C950701DFA380
:1009100003D008016C85070108016C970701DFA56A
:1009200003D008016C87070108016C990701DFA754
:1009300003D008016C89070108016C9B0701DFA93E
:1009400003D008016C8B070108016C9D0701DFAB28
:1009500003D008016C8D070108016C9F0701DFAD12
:1009600003D008016C8F070108016D910701DFAF0B
:1009700003D008016D810701F2CF7FF8F29EAA6AC9
:10098000040EA96EA69CA69EA680A85008017FBF53
:10099000F28E396E39C03DF00701E09139B0E08147
:1009A000D8903930E093E8B0E0833930006E0032FF
:1009B0003F0E0016E09500B0E0853930006E003241
:1009C00000321F0E0016E09700B0E0873938006E45
:1009D0000F0E0016E09900B0E0893938006E003241
:1009E000070E0016E09B00B0E08B3938006E003235
:1009F0000032030E0016E09D00B0E08D006A39BEA3
:100A00000080E09F00B0E08FF2CF7FF8F29EAA6AEC
:100A1000070EA96EA69CA69EA680A85008017FBFBF
:100A2000F28E396E39C040F00701E19139B0E181B1
:100A3000D8903930E193E8B0E1833930006E00326C
:100A40003F0E0016E19500B0E1853930006E0032AE
:100A500000321F0E0016E19700B0E1873938006EB2
:100A60000F0E0016E19900B0E1893938006E0032AE
:100A7000070E0016E19B00B0E18B3938006E0032A2
:100A80000032030E0016E19D00B0E18D006A39BE10
:100A90000080E19F00B0E18FF2CF7FF8F29EAA6A5A
:100AA0000A0EA96EA69CA69EA680A85008017FBF2C
:100AB000F28E396E39C043F00701E29139B0E2811C
:100AC000D8903930E293E8B0E2833930006E0032DA
:100AD0003F0E0016E29500B0E2853930006E00321C
:100AE00000321F0E0016E29700B0E2873938006E20
:100AF0000F0E0016E29900B0E2893938006E00321C
:100B0000070E0016E29B00B0E28B3938006E00320F
:100B10000032030E0016E29D00B0E28D006A39BE7D
:100B20000080E29F00B0E28FF2CF7FF8F29EAA6AC7
:100B30000D0EA96EA69CA69EA680A85008017FBF98
:100B4000F28E396E39C046F00701E39139B0E38186
:100B5000D8903930E393E8B0E3833930006E003247
:100B60003F0E0016E39500B0E3853930006E003289
:100B700000321F0E0016E39700B0E3873938006E8D
:100B80000F0E0016E39900B0E3893938006E003289
:100B9000070E0016E39B00B0E38B3938006E00327D
:100BA0000032030E0016E39D00B0E38D006A39BEEB
:100BB0000080E39F00B0E38FF2CF7FF8F29EAA6A35
:100BC000100EA96EA69CA69EA680A85008017FBF05
:100BD000F28E396E0701E99139B0E981D890393048
:100BE000E993E8B0E9833930006E00323F0E001619
:100BF000E99500B0E9853930006E003200321F0EF1
:100C00000016E99700B0E9873938006E0F0E00161C
:100C1000E99900B0E9893938006E0032070E0016F4
:100C2000E99B00B0E98B3938006E00320032030EC8
:100C30000016E99D00B0E98D006A39BE0080E99F89
:100C400000B0E98FF2CF7FF8F29EAA6A140EA96E67
:100C5000A69CA69EA680A85008017FBFF28E396E82
:100C60000701EA9139B0EA81D8903930EA93E8B0C7
:100C7000EA833930006E00323F0E0016EA9500B06C
:100C8000EA853930006E003200321F0E0016EA97F6
:100C900000B0EA873938006E0F0E0016EA9900B0EE
:100CA000EA893938006E0032070E0016EA9B00B060
:100CB000EA8B3938006E00320032030E0016EA9DCE
:100CC00000B0EA8D006A39BE0080EA9F00B0EA8F6A
:100CD000F2CF7FF8F29EAA6A180EA96EA69CA69E75
:100CE000A680A85008017FBFF28E00016A6FF2CF84
:100CF0007FF8F29EAA6A190EA96EA69CA69EA680EF
:100D0000A85008017FBFF28E00016B6FF2CF7FF811
:100D1000F29EAA6A1A0EA96EA69CA69EA680A8504C
:100D200008017FBFF28E00016C6FF2CF7FF8F29E58
:100D3000AA6A1B0EA96EA69CA69EA680A8500801B2
:100D40007FBFF28E00016D6FF2CF7FF8F29EAA6A2C
:100D50001C0EA96EA69CA69EA680A85008017FBF67
:100D6000F28E1B6EF2CF7FF8F29EAA6A1D0EA96E5C
:100D7000A69CA69EA680A8507FBFF28E0001786F29
:100D8000F2CF7FF8F29EAA6A1E0EA96EA69CA69EBE
:100D9000A680A85008017FBFF28E336B326FF2CF6E
:100DA0007FF8F29EAA6A1F0EA96EA69CA69EA68038
:100DB000A8507FBFF28E356B346FF2CF7FF8F29E72
:100DC000AA6A200EA96EA69CA69EA680A8507FBFE8
:100DD000F28E376B366FF2CF7FF8F29EAA6A210E41
:100DE000A96EA69CA69EA680A8507FBFF28E396BE6
:100DF000386FF2CF7FF8F29EAA6A220EA96EA69CE7
:100E0000A69EA680A8507FBFF28E3B6B3A6FF2CFB2
:100E10007FF8F29EAA6A230EA96EA69CA69EA680C3
:100E2000A8507FBFF28E3D6B3C6FF2CF7FF8F29EF1
:100E3000AA6A240EA96EA69CA69EA680A8507FBF73
:100E4000F28E3F6B3E6FF2CF7FF8F29EAA6A250EBC
:100E5000A96EA69CA69EA680A8507FBFF28E416B6D
:100E6000406FF2CF7FF8F29EAA6A260EA96EA69C6A
:100E7000A69EA680A8507FBFF28E436B426FF2CF32
:100E80007FF8F29EAA6A270EA96EA69CA69EA6804F
:100E9000A8507FBFF28E456B446FF2CF7FF8F29E71
:100EA000AA6A280EA96EA69CA69EA680A8507FBFFF
:100EB000F28E476B466FF2CF7FF8F29EAA6A290E38
:100EC000A96EA69CA69EA680A8507FBFF28E496BF5
:100ED000486FF2CF7FF8F29EAA6A2A0EA96EA69CEE
:100EE000A69EA680A8507FBFF28E4B6B4A6FF2CFB2
:100EF0007FF8F29EAA6A2B0EA96EA69CA69EA680DB
:100F0000A8507FBFF28E4D6B4C6FF2CF7FF8F29EF0
:100F1000AA6A2C0EA96EA69CA69EA680A8507FBF8A
:100F2000F28E4F6B4E6FF2CF7FF8F29EAA6A2D0EB3
:100F3000A96EA69CA69EA680A8507FBFF28E516B7C
:100F4000506FF2CF7FF8F29EAA6A2E0EA96EA69C71
:100F5000A69EA680A8507FBFF28E536B526FF2CF31
:100F60007FF8F29EAA6A2F0EA96EA69CA69EA68066
:100F7000A8507FBFF28E556B546FF2CF7FF8F29E70
:100F8000AA6A300EA96EA69CA69EA680A8507FBF16
:100F9000F28E576B566FF2CF7FF8F29EAA6A310E2F
:100FA000A96EA69CA69EA680A8507FBFF28E596B04
:100FB000586F756B0400320E75257F6FF2CF80F885
:100FC000F29EAA6A7FC8A9FFA69CA69EA680A850EA
:100FD00080BFF28E766F76510D0803E075510F08D1
:100FE00024E2036A7551860FE96E060E0320EA6E4D
:100FF000EF6A320E75257F6FF250006EF29EAA6A7C
:101000007FC8A9FF76C8A8FFA69CA69EA6840F014C
:10101000550EA76EAA0EA76EA682A6B2FED7A694FC
:101020000050F21210D00BD00801036A7551860FE0
:10103000E96E060E0320EA6E76C8EFFF0F01080185
:10104000752BB8D70F010801786B030E776F7A6B99
:10105000796B7C6B7B6B04005D0E77257F6F000ED8
:101060007821806FF2CF81F8F29E80C8AAFF7FC8F6
:10107000A9FFA69CA69EA680A85081BFF28E7E6B7B
:101080007D6F7D510D0802E17E5305E07A5303E147
:101090007951290809E2950E7925E96E060E7A2123
:1010A000EA6EEF6A13D008D0950E7925E96E060E28
:1010B0007A21EA6E7DC8EFFF78C803F07751772B6D
:1010C000D8B4782B792BD8B47A2BC5D7772BD8B452
:1010D000782B7A6B796B04005D0E77257F6F000E9D
:1010E0007821806FF2CF81F8F29E80C8AAFF7FC876
:1010F000A9FFA69CA69EA680A85081BFF28E7E6BFB
:101100007D6F7D510D0802E17E5305E07A5303E1C6
:101110007951290809E2BE0E7925E96E060E7A2179
:10112000EA6EEF6A13D008D0BE0E7925E96E060E7E
:101130007A21EA6E7DC8EFFF78C803F07751772BEC
:10114000D8B4782B792BD8B47A2BC5D7772BD8B4D1
:10115000782B7A6B796B04005D0E77257F6F000E1C
:101160007821806FF2CF81F8F29E80C8AAFF7FC8F5
:10117000A9FFA69CA69EA680A85081BFF28E7E6B7A
:101180007D6F7D510D0802E17E5305E07A5303E146
:101190007951290809E2E70E7925E96E060E7A21D0
:1011A000EA6EEF6A13D008D0E70E7925E96E060ED5
:1011B0007A21EA6E7DC8EFFF78C803F07751772B6C
:1011C000D8B4782B792BD8B47A2BC5D7772BD8B451
:1011D000782B7A6B796B04005D0E77257F6F000E9C
:1011E0007821806FF2CF81F8F29E80C8AAFF7FC875
:1011F000A9FFA69CA69EA680A85081BFF28E7E6BFA
:101200007D6F7D510D0802E17E5305E07A5303E1C5
:101210007951290809E2100E7925E96E070E7A2125
:10122000EA6EEF6A13D008D0100E7925E96E070E2A
:101230007A21EA6E7DC8EFFF78C803F07751772BEB
:10124000D8B4782B792BD8B47A2BC5D7772BD8B4D0
:10125000782B7A6B796B04005D0E77257F6F000E1B
:101260007821806FF2CF81F8F29E80C8AAFF7FC8F4
:10127000A9FFA69CA69EA680A85081BFF28E7E6B79
:101280007D6F7D510D0802E17E5305E07A5303E145
:101290007951290809E2390E7925E96E070E7A217C
:1012A000EA6EEF6A13D008D0390E7925E96E070E81
:1012B0007A21EA6E7DC8EFFF78C803F07751772B6B
:1012C000D8B4782B792BD8B47A2BC5D7772BD8B450
:1012D000782B7A6B796B04005D0E77257F6F000E9B
:1012E0007821806FF2CF81F8F29E80C8AAFF7FC874
:1012F000A9FFA69CA69EA680A85081BFF28E7E6BF9
:101300007D6F7D510D0802E17E5305E07A5303E1C4
:101310007951290809E2620E7925E96E070E7A21D2
:10132000EA6EEF6A13D008D0620E7925E96E070ED7
:101330007A21EA6E7DC8EFFF78C803F07751772BEA
:10134000D8B4782B792BD8B47A2BC5D7772BD8B4CF
:10135000782B7A6B796B04005D0E77257F6F000E1A
:101360007821806FF2CF81F8F29E80C8AAFF7FC8F3
:10137000A9FFA69CA69EA680A85081BFF28E7E6B78
:101380007D6F7D510D0802E17E5305E07A5303E144
:101390007951290809E28B0E7925E96E070E7A2129
:1013A000EA6EEF6A13D008D08B0E7925E96E070E2E
:1013B0007A21EA6E7DC8EFFF78C803F07751772B6A
:1013C000D8B4782B792BD8B47A2BC5D7772BD8B44F
:1013D000782B7A6B796B04005D0E77257F6F000E9A
:1013E0007821806FF2CF81F8F29E80C8AAFF7FC873
:1013F000A9FFA69CA69EA680A85081BFF28E7E6BF8
:101400007D6F7D510D0802E17E5305E07A5303E1C3
:101410007951290809E2B40E7925E96E070E7A217F
:10142000EA6EEF6A13D008D0B40E7925E96E070E84
:101430007A21EA6E7DC8EFFF78C803F07751772BE9
:10144000D8B4782B792BD8B47A2BC5D700011200E9
:10145000929A899A080181514109846FC95084C8C0
:10146000C9FFC730FEE3C95082C8C9FFC730FEE3D9
:10147000C950C96AC730FEE3C9CF83F8929A898AF6
:1014800083C801F0000112007FC881F8090E08012D
:10149000826F0001DDDF01C080F8080180C801F023
:1014A0000001E3EF0AF07FC881F8190E0801826F8E
:1014B0000001CEDF01C080F8080180C801F0000102
:1014C00031EF0BF008018251070B006E8231016E83
:1014D000013201321F0E011601508325E96E000E04
:1014E0008421EA6EEFCF01F0002A01D00132002EF4
:1014F000FDD7010E0116000112000801835185037A
:10150000F3CF01F0F4CF00F08603F35000268451AE
:101510008503F3500020026E000112000801825181
:10152000070B006E8231016E013201321F0E01166F
:1015300001508425E96E000E8521EA6E016A012AB8
:10154000002A01D00136002EFDD7835303E001505D
:10155000EF1203D0011E0150EF1600011200080126
:101560007F6B010E7F6F7FBF03D07F51100823E395
:10157000036A7F51006EE8BE0306806F03C081F8E6
:10158000036A7F51006EE8BE0306826F070E846F08
:10159000F00E836F000196DF80C882F80801836B2C
:1015A00001B0832B070E856FEC0E846F0001B6DF50
:1015B00008017F2BD8D70001BDEF0DF0020E080106
:1015C0007F6F000161D701C081F61AA803D0060120
:1015D000811F0001D890060181310701F093E8B026
:1015E000F08306018131006E00323F0E00160701C4
:1015F000F09500B0F08506018131006E00320032B6
:101600001F0E00160701F09700B0F0870601813920
:10161000006E0F0E00160701F09900B0F089060168
:101620008139006E0032070E00160701F09B00B0F2
:10163000F08B06018139006E00320032030E001675
:101640000701F09D00B0F08D006A060181BF0080A7
:101650000701F09F00B0F08F020E08017F6F0001BC
:1016600022D701C081F61AA803D00601811F00010C
:101670000701F191060181A103D00701F181060163
:10168000010E08017E6F7E510808D8A074D27EC872
:1016900082F8080E846F6C0E836F000113DF015017
:1016A000010B0108D8A42BD17EC882F8070E0801CF
:1016B000846FF00E836F000105DF0150010BD8A489
:1016C0008FD07EC882F8070E0801846FEC0E836FFE
:1016D0000001F8DE0150010BD8A474D0D8900801A5
:1016E0007E35036AF40FE96E070E0320EA6E010EE1
:1016F000EE2601E3EF2AD8907E35036AF40FE96EF7
:10170000070E0320EA6EECCF80F8ED52EFCF7FF8A2
:10171000D8907E35036A300FE96E080E0320EA6E1A
:10172000ECCF84F8ED52EFCF83F8866B4B0E856FCC
:101730000001E3DE02C082F801C081F80F0E08014B
:101740000124016E000E0220036E0350805D38E319
:1017500003E101507F5D34E3D8907E35036AF40FD6
:10176000E96E070E0320EA6EEC6AED52EF6A010E95
:101770007E5DF80F25E2080F00010CEF0EF0070167
:10178000DD9108011DD00701DD93080119D0070183
:10179000DD95080115D00701DD97080111D007017B
:1017A000DD9908010DD00701DD9B080109D0070173
:1017B000DD9D080105D00701DD9F080101D008016A
:1017C0000DD00001D89008017E35036AF40FE96E50
:1017D000070E0320EA6EEC6AED52EF6A8FD000012B
:1017E0007EC882F8070E0801846FEC0E836F00013B
:1017F00069DE0150010B0108D8A474D0D89008010B
:101800007E35036AF40FE96E070E0320EA6E010EBF
:10181000EE2601E3EF2AD8907E35036AF40FE96ED5
:10182000070E0320EA6EECCF80F8ED52EFCF7FF881
:10183000D8907E35036A300FE96E080E0320EA6EF9
:10184000ECCF84F8ED52EFCF83F8866B4B0E856FAB
:10185000000153DE02C082F801C081F80F0E0801BA
:101860000124016E000E0220036E0350805D38E3F8
:1018700003E101507F5D34E3D8907E35036AF40FB5
:10188000E96E070E0320EA6EEC6AED52010EEF6E70
:101890007E5DF80F25E2080F000121EF0EF0070131
:1018A000DD8108011DD00701DD83080119D0070182
:1018B000DD85080115D00701DD87080111D007017A
:1018C000DD8908010DD00701DD8B080109D0070172
:1018D000DD8D080105D00701DD8F080101D0080169
:1018E0000DD00001D89008017E35036AF40FE96E2F
:1018F000070E0320EA6EEC6AED52EF6A38D17EC81B
:1019000082F8080E0801846F6C0E836F0001DADD27
:101910000150010BD8A42CD17EC882F8070E080113
:10192000846FF00E836F0001CDDD0150010B0108C3
:10193000D8A490D07EC882F8070E0801846FEC0E00
:10194000836F0001BFDD0150010B0108D8A474D0E2
:10195000D89008017E35036AF40FE96E070E032064
:10196000EA6E010EEE2601E3EF2AD8907E35036A77
:10197000F40FE96E070E0320EA6EECCF80F8ED520B
:10198000EFCF7FF8D8907E35036A300FE96E080EEE
:101990000320EA6EECCF84F8ED52EFCF83F8866B2C
:1019A0004B0E856F0001A9DD02C082F801C081F8ED
:1019B0000F0E08010124016E000E0220036E035079
:1019C000805D38E303E101507F5D34E3D8907E35DC
:1019D000036AF40FE96E070E0320EA6EEC6AED521B
:1019E000EF6A010E7E5DF80F25E2080F000136EF69
:1019F0000EF00701DD8108011DD00701DD8308011C
:101A000019D00701DD85080115D00701DD87080120
:101A100011D00701DD8908010DD00701DD8B080118
:101A200009D00701DD8D080105D00701DD8F080110
:101A300001D008010DD00001D89008017E35036A5D
:101A4000F40FE96E070E0320EA6EEC6AED52EF6ABE
:101A50008ED000017EC882F8070E0801846FEC0E5C
:101A6000836F00012FDD0150010BD8A474D0D890F2
:101A700008017E35036AF40FE96E070E0320EA6E53
:101A8000010EEE2601E3EF2AD8907E35036AF40FAB
:101A9000E96E070E0320EA6EECCF80F8ED52EFCF2F
:101AA0007FF8D8907E35036A300FE96E080E032068
:101AB000EA6EECCF84F8ED52EFCF83F8866B4B0ED5
:101AC000856F00011ADD02C082F801C081F80F0E97
:101AD00008010124016E000E0220036E0350805D98
:101AE00038E303E101507F5D34E3D8907E35036A2B
:101AF000F40FE96E070E0320EA6EEC6AED52EF6A0E
:101B0000010E7E5DF80F25E2080F00014BEF0EF08D
:101B10000701DD9108011DD00701DD93080119D0EF
:101B20000701DD95080115D00701DD97080111D0E7
:101B30000701DD9908010DD00701DD9B080109D0DF
:101B40000701DD9D080105D00701DD9F080101D0D7
:101B500008010DD00001D89008017E35036AF40F0A
:101B6000E96E070E0320EA6EEC6AED52EF6A00019F
:101B700008017E2B88D50001F2D4496A000E0701C6
:101B8000DDAF010E4912D890493408017F6F000E75
:101B90000701DDAD010E08017F11496ED89049346F
:101BA0007F6F000E0701DDAB010E08017F11496E4A
:101BB000D89049347F6F000E0701DDA9010E08019E
:101BC0007F11496ED89049347F6F000E0701DDA761
:101BD000010E08017F11496ED89049347F6F000EC5
:101BE0000701DDA5010E08017F11496ED890493427
:101BF0007F6F000E0701DDA3010E08017F11496E02
:101C0000D89049347F6F000E0701DDA1010E080155
:101C10007F11496E00011200E824F76AF736330F8E
:101C2000F66E1C0EF7220A00F550FA6E0800F55009
:101C3000F96E7E1786178E1796179E17A617AE1782
:101C4000B617E824F76AF7365D0FF66E1C0EF7221A
:101C50000A00F550FA6E0800F550F96E9E18A618A5
:101C6000AE18B618BE18C618CE18D618E824F76AEB
:101C7000F736870FF66E1C0EF7220A00F550FA6E43
:101C80000800F550F96EF219FA19021A0A1A121A16
:101C90001A1A221A2A1AE824F76AF736B10FF66ED2
:101CA0001C0EF7220A00F550FA6E0800F550F96E86
:101CB000101B181B201B281B301B381B401B481BEC
:101CC0007DC87FF80A0E0801806F7EC881F8000188
:101CD000BDEC03F012007DC87FF81A0E0801806F7A
:101CE0007EC881F80001BDEC03F012004E6A4F6A15
:101CF000526A536A2F52D8A4E5D00701DEA103D05F
:101D00004E92529214D0E9A105D0EAB103D04E828E
:101D100052920DD0E9B105D0EAA103D04E92528281
:101D200006D0E9A104D0EAA102D04E825282DEA3FD
:101D300003D04E94529414D0E9A305D0EAB303D053
:101D40004E8452940DD0E9B305D0EAA303D04E944B
:101D5000528406D0E9A304D0EAA302D04E84528470
:101D6000DEA503D04E96529614D0E9A505D0EAB56B
:101D700003D04E8652960DD0E9B505D0EAA503D022
:101D80004E96528606D0E9A504D0EAA502D04E862A
:101D90005286DEA703D04E98529814D0E9A705D0FA
:101DA000EAB703D04E8852980DD0E9B705D0EAA71C
:101DB00003D04E98528806D0E9A704D0EAA702D0F3
:101DC0004E885288DEA903D04E9A529A14D0E9A9BF
:101DD00005D0EAB903D04E8A529A0DD0E9B905D0A0
:101DE000EAA903D04E9A528A06D0E9A904D0EAA9FA
:101DF00002D04E8A528ADEAB03D04E9C529C14D045
:101E0000E9AB05D0EABB03D04E8C529C0DD0E9BBA8
:101E100005D0EAAB03D04E9C528C06D0E9AB04D07F
:101E2000EAAB02D04E8C528CDEAD03D04E9E529E59
:101E300014D0E9AD05D0EABD03D04E8E529E0DD030
:101E4000E9BD05D0EAAD03D04E9E528E06D0E9AD75
:101E500004D0EAAD02D04E8E528EDEAF03D04F904A
:101E6000539014D0E9AF05D0EABF03D04F80539010
:101E70000DD0E9BF05D0EAAF03D04F90538006D014
:101E8000E9AF04D0EAAF02D04F805380040E0801BE
:101E90007D6F4EC07EF8000113DF040E08017D6FD8
:101EA0004FC07EF8000117DF060E08017D6F52C09B
:101EB0007EF8000105DF060E08017D6F53C07EF835
:101EC000000109DF120093908A90080E016E00D085
:101ED0000000018E10D0019E08017F330001D8B0B0
:101EE0008A80D8A08A90018C06D0019C012EF4D75C
:101EF00000D000008A80840EE96EE92EFED700D063
:101F0000000001BEE8D701BCF0D712000900F5526D
:101F10000CE0F6CF7DF8F7CF7EF8F5CF7FF8D3DF72
:101F20007DC8F6FF7EC8F7FFF1D7120005017A6978
:101F300079690801836B8151835D21E2040083513B
:101F40007F25E96E000E8021EA6EEF5005017A19B7
:101F50000801826F036A825100015DEC00F0016E9E
:101F60000501795101187A6F036A08018251000155
:101F7000E5EC00F0E8CF79F50801832BDCD7000110
:101F800012009EA8FED7AD6E12001E6A266A0701D7
:101F9000E5B104D0DEB102D0E88101D0E891E5B32B
:101FA00004D0DEB302D0E88301D0E893E5B504D0D5
:101FB000DEB502D0E88501D0E895E5B704D0DEB7FC
:101FC00002D0E88701D0E897E5B904D0DEB902D0A5
:101FD000E88901D0E899E5BB04D0DEBB02D0E88BEC
:101FE00001D0E89BE5BD04D0DEBD02D0E88D01D074
:101FF000E89DE5BF04D0DEBF02D0E88F01D0E89FA6
:10200000000EE8BF010E2612D890263408017F6F1B
:10201000000E0701E8BD010E08017F11266ED89061
:1020200026347F6F000E0701E8BB010E08017F1107
:10203000266ED89026347F6F000E0701E8B9010E96
:1020400008017F11266ED89026347F6F000E07019D
:10205000E8B7010E08017F11266ED89026347F6FF5
:10206000000E0701E8B5010E08017F11266ED89019
:1020700026347F6F000E0701E8B3010E08017F11BF
:10208000266ED89026347F6F000E0701E8B1010E4E
:1020900008017F11266E000E0701E5BF010E1E121A
:1020A000D8901E3408017F6F000E0701E5BD010EB8
:1020B00008017F111E6ED8901E347F6F000E07013D
:1020C000E5BB010E08017F111E6ED8901E347F6F94
:1020D000000E0701E5B9010E08017F111E6ED890B0
:1020E0001E347F6F000E0701E5B7010E08017F1156
:1020F0001E6ED8901E347F6F000E0701E5B5010EED
:1021000008017F111E6ED8901E347F6F000E0701EC
:10211000E5B3010E08017F111E6ED8901E347F6F4B
:10212000000E0701E5B1010E08017F111E6E0001CE
:102130007BEF15F0948082B002D01AAE02D01AA4C0
:1021400006D0320E08017E6F0001A5EC03F09480EA
:1021500082B002D01AAE02D01AA455D01A941D6AC9
:102160000701E5B102D0E6A105D0E481E591E69151
:10217000DE91EB91E5B302D0E6A305D0E483E593CD
:10218000E693DE93EB93E5B502D0E6A505D0E485B2
:10219000E595E695DE95EB95E5B702D0E6A705D087
:1021A000E487E597E697DE97EB97E5B902D0E6A9D5
:1021B00005D0E489E599E699DE99EB99E5BB02D073
:1021C000E6AB05D0E48BE59BE69BDE9BEB9BE5BD98
:1021D00002D0E6AD05D0E48DE59DE69DDE9DEB9D4C
:1021E000E5BF02D0E6AF05D0E48FE59FE69FDE9F16
:1021F000EB9F30A201D030921A8E898892988986FE
:10220000929608D00001948082A003D01AAE01D02B
:102210001A9E070100011200948282B202D030A0FF
:1022200002D01AA606D0320E08017E6F0001A5EC7E
:1022300003F0948282B202D030A002D01AA6A4D0B9
:102240001A96000E0701DDB1010E08017F6F000E26
:102250000701DFB1010E08017F1907E10701E5A1C0
:1022600002D0080102D0DE810801000E0701DDB3B3
:10227000010E08017F6F000E0701DFB3010E080198
:102280007F1907E10701E5A302D0080102D0DE8330
:102290000801000E0701DDB5010E08017F6F000E79
:1022A0000701DFB5010E08017F1907E10701E5A568
:1022B00002D0080102D0DE850801000E0701DDB75B
:1022C000010E08017F6F000E0701DFB7010E080144
:1022D0007F1907E10701E5A702D0080102D0DE87D8
:1022E0000801000E0701DDB9010E08017F6F000E25
:1022F0000701DFB9010E08017F1907E10701E5A910
:1023000002D0080102D0DE890801000E0701DDBB02
:10231000010E08017F6F000E0701DFBB010E0801EF
:102320007F1907E10701E5AB02D0080102D0DE8B7F
:102330000801000E0701DDBD010E08017F6F000ED0
:102340000701DFBD010E08017F1907E10701E5ADB7
:1023500002D0080102D0DE8D0801000E0701DDBFAA
:10236000010E08017F6F000E0701DFBF010E08019B
:102370007F1907E10701E5AF02D0080102D0DE8F27
:102380000801308008D00001948282A203D030A0DE
:1023900001D030900801000112000400010E795DA7
:1023A00008017E6F010E806F790E7F6F7EC881F805
:1023B0000001BCDD010E795D790FE96E010EEA6E58
:1023C000D8B0EA2AEF5005017A5DD8A42AEF22F0AE
:1023D000790E00017925E96E010EEA6ED8B0EA2A7D
:1023E000EF500501795DD8A42AEF22F0010179515F
:1023F000AA08D8A45ED17A512008D8A45AD178C0AE
:102400007AF0200E00017B6F1C0E7C6F3AC07DF0CD
:102410003BC07EF03CC07FF03DC080F03EC081F00C
:102420003FC082F040C083F041C084F042C085F0DC
:1024300043C086F044C087F045C088F046C089F0AC
:1024400047C08AF048C08BF0F2CF7EF8F29EAA6AAD
:10245000100EA96EA69CA69EA680A85008017EBF5D
:10246000F28E00018C6FF2CF7EF8F29EAA6A110EF6
:10247000A96EA69CA69EA680A85008017EBFF28EDB
:1024800000018D6FF2CF7EF8F29EAA6A120EA96E3D
:10249000A69CA69EA680A85008017EBFF28E0001D1
:1024A0008E6FF2CF7EF8F29EAA6A130EA96EA69CDA
:1024B000A69EA680A85008017EBFF28E00018F6FF5
:1024C000F2CF7EF8F29EAA6A140EA96EA69CA69E72
:1024D000A680A85008017EBFF28E0001906FF2CF57
:1024E0007EF8F29EAA6A150EA96EA69CA69EA680EC
:1024F000A85008017EBFF28E0001916FF2CF7EF8E6
:10250000F29EAA6A160EA96EA69CA69EA680A85048
:1025100008017EBFF28E0001926FF2CF7EF8F29E2C
:10252000AA6A170EA96EA69CA69EA680A8500801AE
:102530007EBFF28E0001936F6AC094F06BC095F07D
:102540006CC096F06DC097F0300E986F78C099F01F
:1025500032C89AF034C89BF036C89CF038C89DF059
:102560003AC89EF03CC89FF03EC8A0F040C8A1F019
:1025700042C8A2F044C8A3F046C8A4F048C8A5F0D9
:102580004AC8A6F04CC8A7F04EC8A8F050C8A9F099
:1025900052C8AAF054C8ABF056C8ACF058C8ADF059
:1025A0000801806B7A0E7F6F340E816F0001BEDCF4
:1025B0007AC5AEF079C5AFF08A8693960A0E080107
:1025C0007E6F0001A5EC03F07A51DBDC7B51D9DC96
:1025D0007C51D7DC7D51D5DC7E51D3DC7F51D1DC01
:1025E0008051CFDC8151CDDC8251CBDC8351C9DC01
:1025F0008451C7DC8551C5DC8651C3DC8751C1DC01
:102600008851BFDC8951BDDC8A51BBDC8B51B9DC00
:102610008C51B7DC8D51B5DC8E51B3DC8F51B1DC00
:102620009051AFDC9151ADDC9251ABDC9351A9DC00
:102630009451A7DC9551A5DC9651A3DC9751A1DC00
:1026400098519FDC99519DDC9A519BDC9B5199DC00
:102650009C5197DC9D5195DC9E5193DC9F5191DC00
:10266000A0518FDCA1518DDCA2518BDCA35189DC00
:10267000A45187DCA55185DCA65183DCA75181DC00
:10268000A8517FDCA9517DDCAA517BDCAB5179DC00
:10269000AC5177DCAD5175DCAE5173DCAF5171DC00
:1026A000030E08017E6F0001A5EC03F08A96939655
:1026B0000101000178510101795DD8A425EF22F0D4
:1026C0007A2D12D205017E6B7BC17DF57DC57EF52D
:1026D00008017E6B7E5101017C1105017D6F0501B2
:1026E000806B7DC17FF57FC580F508017E6B7E51D3
:1026F00001017E1105017F6F05017E53D8A4BBD176
:102700007D510F08D8A0B7D17F517D2508017E6F7C
:10271000050180517E2108017F6F7F53D8B402D01C
:102720000501A9D17E511008D8B002D00501A3D16E
:102730000501805306E17F51080803E3010E816F14
:1027400012D0805306E17F51100803E3020E816F1F
:102750000AD0805306E17F51180803E3030E816F0E
:1027600002D0010E816F812DA2D07E530DE17D51EB
:1027700008080AE349C082F57D51016E04E0D89053
:102780008233012EFCD71AD07E5303E17D51080815
:1027900015E27E5313E17D510F0810E3080E7D5DB5
:1027A000006E000E7E59036E00C001F04AC082F533
:1027B000015204E0D8908233012EFCD77F510808E3
:1027C00003E1805301E135D07F51070804E18053D4
:1027D00002E1829F2ED07F51060805E1805303E17C
:1027E0003F0E821726D07F51050805E1805303E193
:1027F0001F0E82171ED07F51040805E1805303E1AC
:102800000F0E821716D07F51030805E1805303E1B4
:10281000070E82170ED07F51020805E1805303E1B5
:10282000030E821706D07F2D04D0805302E1010EE3
:10283000821778C07AF0010E00017B6F81C57CF0B1
:1028400082C57DF00801806B7A0E7F6F040E816F68
:10285000000196EC0FF07AC57EF079C57FF08A868C
:1028600093960400040E08017E6F0001A5EC03F0AE
:1028700004007A51C1EC0FF07B51C1EC0FF07C5198
:10288000C1EC0FF07D51C1EC0FF07E51C1EC0FF0A7
:102890007F51C1EC0FF00400030E08017E6F0001B0
:1028A000A5EC03F004008A969396E3D005018151CC
:1028B0000208D8A4DFD049C082F57D51016E04E042
:1028C000D8908233012EFCD74AC083F5070E7F5D76
:1028D00008017E6F000E0501805908017F6F7E514F
:1028E000080803E17F5301E183D0070E05017F5DF6
:1028F00008017E6F000E0501805908017F6F7E512F
:10290000070805E17F5303E10501839F70D0070E9F
:1029100005017F5D08017E6F000E050180590801E9
:102920007F6F7E51060806E17F5304E13F0E0501EB
:1029300083175DD0070E05017F5D08017E6F000ED5
:102940000501805908017F6F7E51050806E17F531C
:1029500004E11F0E050183174AD0070E05017F5DB4
:1029600008017E6F000E0501805908017F6F7E51BE
:10297000040806E17F5304E10F0E0501831737D0E9
:10298000070E05017F5D08017E6F000E050180596D
:1029900008017F6F7E51030806E17F5304E1070EB3
:1029A0000501831724D0070E05017F5D08017E6FA6
:1029B000000E0501805908017F6F7E51020806E173
:1029C0007F5304E1030E0501831711D0070E0501A3
:1029D0007F5D08017E6F000E0501805908017F6F41
:1029E0007E2D06D07F5304E1010E050183170801F7
:1029F00078C07AF0010E00017B6F81C57CF082C542
:102A00007DF083C57EF00801806B7A0E7F6F050E26
:102A1000816F000196EC0FF07AC57FF079C580F0E8
:102A20008A8693960400040E08017E6F0001A5ECCF
:102A300003F004007A51C1EC0FF07B51C1EC0FF0B0
:102A40007C51C1EC0FF07D51C1EC0FF07E51C1EC17
:102A50000FF07F51C1EC0FF08051C1EC0FF004007A
:102A6000030E08017E6F0001A5EC03F004008A96B6
:102A70009396050138D078C07AF0810E00017B6F03
:102A8000020E7C6F0801806B7A0E7F6F030E816FE0
:102A9000000196EC0FF07AC57DF079C57EF08A864C
:102AA00093960400040E08017E6F0001A5EC03F06C
:102AB00004007A51C1EC0FF07B51C1EC0FF07C5156
:102AC000C1EC0FF07D51C1EC0FF07E51C1EC0FF065
:102AD0000400030E08017E6F0001A5EC03F0040062
:102AE0008A969396050101017A510708D8A4B1D0BE
:102AF0000001C5EF0FF09D921EC082F51FC083F547
:102B000020C084F521C085F522C086F523C087F555
:102B100024C088F525C089F526C08AF527C08BF525
:102B200028C08CF529C08DF52AC08EF52BC08FF5F5
:102B30002CC090F52DC091F578C07AF0070E7B6F10
:102B4000100E0501816F81C57CF082C57DF083C5C3
:102B50007EF084C57FF085C580F086C581F087C58D
:102B600082F088C583F089C584F08AC585F08BC55D
:102B700086F08CC587F08DC588F08EC589F08FC52D
:102B80008AF090C58BF091C58CF00801806B7A0EAD
:102B90007F6F130E816F000196EC0FF07AC58DF0F8
:102BA00079C58EF08A8693960400040E08017E6F24
:102BB0000001A5EC03F004007A51C1EC0FF07B5149
:102BC000C1EC0FF07C51C1EC0FF07D51C1EC0FF066
:102BD0007E51C1EC0FF07F51C1EC0FF08051C1EC80
:102BE0000FF08151C1EC0FF08251C1EC0FF0835115
:102BF000C1EC0FF08451C1EC0FF08551C1EC0FF026
:102C00008651C1EC0FF08751C1EC0FF08851C1EC37
:102C10000FF08951C1EC0FF08A51C1EC0FF08B51CC
:102C2000C1EC0FF08C51C1EC0FF08D51C1EC0FF0E5
:102C30008E51C1EC0FF00400030E08017E6F0001FD
:102C4000A5EC03F004008A9693969D82DAEF21F0BA
:102C500001017A510508D8A476D205017E6B7BC1AB
:102C60007DF57DC57EF508017E6B7E5101017C11ED
:102C700005017D6F0501806B7DC17FF57FC580F506
:102C800008017E6B7E5101017E1105017F6F0501F8
:102C90007D534FE17E534DE17F534AE1803D48D063
:102CA0001A8478C07AF0050E00017B6F7BC17CF03E
:102CB0007CC17DF07DC17EF07EC17FF00801806B1C
:102CC0007A0E7F6F060E816F000196EC0FF07AC5C9
:102CD00080F079C581F08A8693960400040E08017D
:102CE0007E6F0001A5EC03F004007A51C1EC0FF0F7
:102CF0007B51C1EC0FF07C51C1EC0FF07D51C1EC68
:102D00000FF07E51C1EC0FF07F51C1EC0FF08051FC
:102D1000C1EC0FF08151C1EC0FF00400030E08016B
:102D20007E6F0001A5EC03F004008A9693960501DE
:102D300007D27D2D4FD07E534DE17F534AE1803D38
:102D400048D01A8678C07AF0050E00017B6F7BC1EF
:102D50007CF07CC17DF07DC17EF07EC17FF00801FA
:102D6000806B7A0E7F6F060E816F000196EC0FF07C
:102D70007AC580F079C581F08A8693960400040EA6
:102D800008017E6F0001A5EC03F004007A51C1EC4C
:102D90000FF07B51C1EC0FF07C51C1EC0FF07D5175
:102DA000C1EC0FF07E51C1EC0FF07F51C1EC0FF080
:102DB0008051C1EC0FF08151C1EC0FF00400030E03
:102DC00008017E6F0001A5EC03F004008A9693963B
:102DD0000501B6D17D510208D8A4A5D07E53D8A450
:102DE000A2D07F534BE1803D49D01A8878C07AF059
:102DF000050E00017B6F7BC17CF07CC17DF07DC145
:102E00007EF07EC17FF00801806B7A0E7F6F060E28
:102E1000816F000196EC0FF07AC580F079C581F0E2
:102E20008A8693960400040E08017E6F0001A5ECCB
:102E300003F004007A51C1EC0FF07B51C1EC0FF0AC
:102E40007C51C1EC0FF07D51C1EC0FF07E51C1EC13
:102E50000FF07F51C1EC0FF08051C1EC0FF08151A8
:102E6000C1EC0FF00400030E08017E6F0001A5EC19
:102E700003F004008A96939654D005017F5352E1E3
:102E8000805350E11A980001DEEC0AF01A849AECA3
:102E900010F01A860CEC11F078C07AF0050E7B6FFA
:102EA0007BC17CF07CC17DF07DC17EF07EC17FF076
:102EB0000801806B7A0E7F6F060E816F000196EC21
:102EC0000FF07AC580F079C581F08A869396040068
:102ED000040E08017E6F0001A5EC03F004007A5196
:102EE000C1EC0FF07B51C1EC0FF07C51C1EC0FF045
:102EF0007D51C1EC0FF07E51C1EC0FF07F51C1EC60
:102F00000FF08051C1EC0FF08151C1EC0FF00400C3
:102F1000030E08017E6F0001A5EC03F004008A9601
:102F2000939605010DD17D510308D8A4A5D07E53F9
:102F3000D8A4A2D07F534BE1803D49D01A8A78C0F3
:102F40007AF0050E00017B6F7BC17CF07CC17DF0C7
:102F50007DC17EF07EC17FF00801806B7A0E7F6FAD
:102F6000060E816F000196EC0FF07AC580F079C5EE
:102F700081F08A8693960400040E08017E6F00019A
:102F8000A5EC03F004007A51C1EC0FF07B51C1ECC9
:102F90000FF07C51C1EC0FF07D51C1EC0FF07E5170
:102FA000C1EC0FF07F51C1EC0FF08051C1EC0FF07C
:102FB0008151C1EC0FF004000A0E08017E6F000180
:102FC000A5EC03F004008A96939654D005017F5334
:102FD00052E1805350E11A9A0001DEEC0AF01A84A3
:102FE0009AEC10F01A860CEC11F078C07AF0050E0D
:102FF0007B6F7BC17CF07CC17DF07DC17EF07EC1AA
:103000007FF00801806B7A0E7F6F060E816F0001E2
:1030100096EC0FF07AC580F079C581F08A86939698
:103020000400040E08017E6F0001A5EC03F004000B
:103030007A51C1EC0FF07B51C1EC0FF07C51C1EC27
:103040000FF07D51C1EC0FF07E51C1EC0FF07F51BC
:10305000C1EC0FF08051C1EC0FF08151C1EC0FF0C9
:103060000400030E08017E6F0001A5EC03F00400CC
:103070008A969396050164D07D51640861E17E5380
:103080005FE17FC578F0F250006EF29EAA6A1D0ED5
:10309000A96E78C0A8FFA69CA69EA6840F01550E17
:1030A000A76EAA0EA76EA682A6B2FED7A69400505F
:1030B000F21278C07AF0050E00017B6F7BC17CF0C4
:1030C0007CC17DF07DC17EF07EC17FF00801806B08
:1030D0007A0E7F6F060E816F000196EC0FF07AC5B5
:1030E00080F079C581F08A8693960400040E080169
:1030F0007E6F0001A5EC03F004007A51C1EC0FF0E3
:103100007B51C1EC0FF07C51C1EC0FF07D51C1EC53
:103110000FF07E51C1EC0FF07F51C1EC0FF08051E8
:10312000C1EC0FF08151C1EC0FF00400030E080157
:103130007E6F0001A5EC03F004008A9693960501CA
:10314000DBEF21F001017A512108D8A45AEF1DF0DC
:10315000F250006EF29EAA6AA96A0F0EA86EA69C93
:10316000A69EA6840F01550EA76EAA0EA76EA68274
:10317000A6B2FED7A6940050F212F2CF00F0F29E53
:10318000AA6A010EA96E7CC1A8FFA69CA69EA68471
:10319000550EA76EAA0EA76EA682A6B2FED7A6945B
:1031A0000050F212F2CF00F0F29EAA6A020EA96E4F
:1031B0007DC1A8FFA69CA69EA684550EA76EAA0E4A
:1031C000A76EA682A6B2FED7A6940050F212F2CF46
:1031D00000F0F29EAA6A030EA96E7EC1A8FFA69C0B
:1031E000A69EA684550EA76EAA0EA76EA682A6B2AC
:1031F000FED7A6940050F212F2CF00F0F29EAA6A17
:10320000040EA96E7FC1A8FFA69CA69EA684550E9B
:10321000A76EAA0EA76EA682A6B2FED7A6940050ED
:10322000F212F2CF00F0F29EAA6A050EA96E80C1DA
:10323000A8FFA69CA69EA684550EA76EAA0EA76EF2
:10324000A682A6B2FED7A6940050F212F2CF00F0EA
:10325000F29EAA6A060EA96E81C1A8FFA69CA69E30
:10326000A684550EA76EAA0EA76EA682A6B2FED79A
:10327000A6940050F212F2CF00F0F29EAA6A070E56
:10328000A96E82C1A8FFA69CA69EA684550EA76E15
:10329000AA0EA76EA682A6B2FED7A6940050F2127E
:1032A000F2CF00F0F29EAA6A080EA96E83C1A8FFB1
:1032B000A69CA69EA684550EA76EAA0EA76EA682F1
:1032C000A6B2FED7A6940050F212F2CF00F0F29E02
:1032D000AA6A090EA96E84C1A8FFA69CA69EA68410
:1032E000550EA76EAA0EA76EA682A6B2FED7A6940A
:1032F0000050F212F2CF00F0F29EAA6A0A0EA96EF6
:1033000085C1A8FFA69CA69EA684550EA76EAA0EF0
:10331000A76EA682A6B2FED7A6940050F212F2CFF4
:1033200000F0F29EAA6A0B0EA96E86C1A8FFA69CA9
:10333000A69EA684550EA76EAA0EA76EA682A6B25A
:10334000FED7A6940050F212F2CF00F0F29EAA6AC5
:103350000C0EA96E87C1A8FFA69CA69EA684550E3A
:10336000A76EAA0EA76EA682A6B2FED7A69400509C
:10337000F212F2CF00F0F29EAA6A0D0EA96E88C179
:10338000A8FFA69CA69EA684550EA76EAA0EA76EA1
:10339000A682A6B2FED7A6940050F212F2CF00F099
:1033A000F29EAA6A0E0EA96E89C1A8FFA69CA69ECF
:1033B000A684550EA76EAA0EA76EA682A6B2FED749
:1033C000A6940050F212F2CF00F0F29EAA6A0F0EFD
:1033D000A96E8AC1A8FFA69CA69EA684550EA76EBC
:1033E000AA0EA76EA682A6B2FED7A6940050F2122D
:1033F000F2CF00F0F29EAA6A100EA96E8BC1A8FF50
:10340000A69CA69EA684550EA76EAA0EA76EA6829F
:10341000A6B2FED7A6940050F212F2CF00F0F29EB0
:10342000AA6A110EA96E8CC1A8FFA69CA69EA684AE
:10343000550EA76EAA0EA76EA682A6B2FED7A694B8
:103440000050F212F2CF00F0F29EAA6A120EA96E9C
:103450008DC1A8FFA69CA69EA684550EA76EAA0E97
:10346000A76EA682A6B2FED7A6940050F212F2CFA3
:1034700000F0F29EAA6A130EA96E8EC1A8FFA69C48
:10348000A69EA684550EA76EAA0EA76EA682A6B209
:10349000FED7A6940050F212F2CF00F0F29EAA6A74
:1034A000140EA96E8FC1A8FFA69CA69EA684550ED9
:1034B000A76EAA0EA76EA682A6B2FED7A69400504B
:1034C000F212F2CF00F0F29EAA6A150EA96E90C118
:1034D000A8FFA69CA69EA684550EA76EAA0EA76E50
:1034E000A682A6B2FED7A6940050F212F2CF00F048
:1034F000F29EAA6A160EA96E91C1A8FFA69CA69E6E
:10350000A684550EA76EAA0EA76EA682A6B2FED7F7
:10351000A6940050F212F2CF00F0F29EAA6A170EA3
:10352000A96E92C1A8FFA69CA69EA684550EA76E62
:10353000AA0EA76EA682A6B2FED7A6940050F212DB
:10354000F2CF00F0F29EAA6A180EA96E93C1A8FFEE
:10355000A69CA69EA684550EA76EAA0EA76EA6824E
:10356000A6B2FED7A6940050F212F2CF00F0F29E5F
:10357000AA6A190EA96E94C1A8FFA69CA69EA6844D
:10358000550EA76EAA0EA76EA682A6B2FED7A69467
:103590000050F212F2CF00F0F29EAA6A1A0EA96E43
:1035A00095C1A8FFA69CA69EA684550EA76EAA0E3E
:1035B000A76EA682A6B2FED7A6940050F212F2CF52
:1035C00000F0F29EAA6A1B0EA96E96C1A8FFA69CE7
:1035D000A69EA684550EA76EAA0EA76EA682A6B2B8
:1035E000FED7A6940050F212F2CF00F0F29EAA6A23
:1035F0001C0EA96E97C1A8FFA69CA69EA684550E78
:10360000A76EAA0EA76EA682A6B2FED7A6940050F9
:10361000F212F2CF00F0F29EAA6A1D0EA96E98C1B6
:10362000A8FFA69CA69EA684550EA76EAA0EA76EFE
:10363000A682A6B2FED7A6940050F212F2CF00F0F6
:10364000F29EAA6A1E0EA96E99C1A8FFA69CA69E0C
:10365000A684550EA76EAA0EA76EA682A6B2FED7A6
:10366000A6940050F212F2CF00F0F29EAA6A1F0E4A
:10367000A96E9AC1A8FFA69CA69EA684550EA76E09
:10368000AA0EA76EA682A6B2FED7A6940050F2128A
:10369000F2CF00F0F29EAA6A200EA96E9BC1A8FF8D
:1036A000A69CA69EA684550EA76EAA0EA76EA682FD
:1036B000A6B2FED7A6940050F212F2CF00F0F29E0E
:1036C000AA6A210EA96E9CC1A8FFA69CA69EA684EC
:1036D000550EA76EAA0EA76EA682A6B2FED7A69416
:1036E0000050F212F2CF00F0F29EAA6A220EA96EEA
:1036F0009DC1A8FFA69CA69EA684550EA76EAA0EE5
:10370000A76EA682A6B2FED7A6940050F212F2CF00
:1037100000F0F29EAA6A230EA96E9EC1A8FFA69C85
:10372000A69EA684550EA76EAA0EA76EA682A6B266
:10373000FED7A6940050F212F2CF00F0F29EAA6AD1
:10374000240EA96E9FC1A8FFA69CA69EA684550E16
:10375000A76EAA0EA76EA682A6B2FED7A6940050A8
:10376000F212F2CF00F0F29EAA6A250EA96EA0C155
:10377000A8FFA69CA69EA684550EA76EAA0EA76EAD
:10378000A682A6B2FED7A6940050F212F2CF00F0A5
:10379000F29EAA6A260EA96EA1C1A8FFA69CA69EAB
:1037A000A684550EA76EAA0EA76EA682A6B2FED755
:1037B000A6940050F212F2CF00F0F29EAA6A270EF1
:1037C000A96EA2C1A8FFA69CA69EA684550EA76EB0
:1037D000AA0EA76EA682A6B2FED7A6940050F21239
:1037E000F2CF00F0F29EAA6A280EA96EA3C1A8FF2C
:1037F000A69CA69EA684550EA76EAA0EA76EA682AC
:10380000A6B2FED7A6940050F212F2CF00F0F29EBC
:10381000AA6A290EA96EA4C1A8FFA69CA69EA6848A
:10382000550EA76EAA0EA76EA682A6B2FED7A694C4
:103830000050F212F2CF00F0F29EAA6A2A0EA96E90
:10384000A5C1A8FFA69CA69EA684550EA76EAA0E8B
:10385000A76EA682A6B2FED7A6940050F212F2CFAF
:1038600000F0F29EAA6A2B0EA96EA6C1A8FFA69C24
:10387000A69EA684550EA76EAA0EA76EA682A6B215
:10388000FED7A6940050F212F2CF00F0F29EAA6A80
:103890002C0EA96EA7C1A8FFA69CA69EA684550EB5
:1038A000A76EAA0EA76EA682A6B2FED7A694005057
:1038B000F212F2CF00F0F29EAA6A2D0EA96EA8C1F4
:1038C000A8FFA69CA69EA684550EA76EAA0EA76E5C
:1038D000A682A6B2FED7A6940050F212F2CF00F054
:1038E000F29EAA6A2E0EA96EA9C1A8FFA69CA69E4A
:1038F000A684550EA76EAA0EA76EA682A6B2FED704
:10390000A6940050F212F2CF00F0F29EAA6A2F0E97
:10391000A96EAAC1A8FFA69CA69EA684550EA76E56
:10392000AA0EA76EA682A6B2FED7A6940050F212E7
:10393000F2CF00F0F29EAA6A300EA96EABC1A8FFCA
:10394000A69CA69EA684550EA76EAA0EA76EA6825A
:10395000A6B2FED7A6940050F212F2CF00F0F29E6B
:10396000AA6A310EA96EACC1A8FFA69CA69EA68429
:10397000550EA76EAA0EA76EA682A6B2FED7A69473
:103980000050F2120801766B756B0400AD0E7525C0
:10399000E96E010E7621EA6EEFCF77F877510D08C8
:1039A00005E0765303E175510F0827E2860E752571
:1039B000E96E060E7621EA6EEF6A320E75257E6F8D
:1039C000000E76217F6FF250006EF29E7FC8AAFF34
:1039D0007EC8A9FF77C8A8FFA69CA69EA6840F0153
:1039E000550EA76EAA0EA76EA682A6B2FED7A69403
:1039F0000050F2122DD026D00801860E7525E96EF2
:103A0000060E7621EA6E77C8EFFF320E75257E6FBF
:103A1000000E76217F6FF250006EF29E7FC8AAFFE3
:103A20007EC8A9FF77C8A8FFA69CA69EA6840F0102
:103A3000550EA76EAA0EA76EA682A6B2FED7A694B2
:103A40000050F2120801752BD8B4762B9ED70F01C7
:103A500078C07AF0210E00017B6F0801806B7A0E2E
:103A60007F6F020E816F000196EC0FF07AC57CF03B
:103A700079C57DF08A8693960A0E08017E6F000153
:103A8000A5EC03F07A51C1EC0FF07B51C1EC0FF0C3
:103A90007C51C1EC0FF07D51C1EC0FF0030E080119
:103AA0007E6F0001A5EC03F08A969396FF00DAEF93
:103AB00021F001017A512208D8A4DAEF21F008019F
:103AC000796B030E786F7B6B7A6B7D6B7C6B04007C
:103AD000790E7825E96E010E7921EA6EEF500D0816
:103AE00005E07B5303E17A51290828E25D0E782531
:103AF0007E6F000E79217F6F790E7825E96E010EB9
:103B00007921EA6EEFCF80F8F250006EF29E7FC806
:103B1000AAFF7EC8A9FF80C8A8FFA69CA69EA6846F
:103B20000F01550EA76EAA0EA76EA682A6B2FED7EB
:103B3000A6940050F21247D03AD00801950E7A258B
:103B4000016E060E7B21036E790E7825E96E010E5B
:103B50007921EA6EEFCF80F803C0EAFF01C0E9FFE8
:103B600080C8EFFF5D0E78257E6F000E79217F6F94
:103B7000790E7825E96E010E7921EA6EEFCF80F893
:103B8000F250006EF29E7FC8AAFF7EC8A9FF80C8CF
:103B9000A8FFA69CA69EA6840F01550EA76EAA0E8E
:103BA000A76EA682A6B2FED7A6940050F212080114
:103BB00079C803F07851782BD8B4792B7A2BD8B404
:103BC0007B2B85D70F01950E08017A25E96E060E2D
:103BD0007B21EA6EEF6A7B6B7A6B782BD8B4792BFA
:103BE0000400790E7825E96E010E7921EA6EEF5016
:103BF0000D0805E07B5303E17A51290828E25D0EA8
:103C000078257E6F000E79217F6F790E7825E96E19
:103C1000010E7921EA6EEFCF80F8F250006EF29E2D
:103C20007FC8AAFF7EC8A9FF80C8A8FFA69CA69E41
:103C3000A6840F01550EA76EAA0EA76EA682A6B285
:103C4000FED7A6940050F21247D03AD00801BE0E1B
:103C50007A25016E060E7B21036E790E7825E96EBA
:103C6000010E7921EA6EEFCF80F803C0EAFF01C0B0
:103C7000E9FF80C8EFFF5D0E78257E6F000E792189
:103C80007F6F790E7825E96E010E7921EA6EEFCF0C
:103C900080F8F250006EF29E7FC8AAFF7EC8A9FF8E
:103CA00080C8A8FFA69CA69EA6840F01550EA76EED
:103CB000AA0EA76EA682A6B2FED7A6940050F21254
:103CC000080179C803F07851782BD8B4792B7A2B76
:103CD000D8B47B2B85D70F01BE0E08017A25E96E7B
:103CE000060E7B21EA6EEF6A7B6B7A6B782BD8B479
:103CF000792B0400790E7825E96E010E7921EA6EA0
:103D0000EF500D0805E07B5303E17A51290828E2C2
:103D10005D0E78257E6F000E79217F6F790E7825F4
:103D2000E96E010E7921EA6EEFCF80F8F250006E55
:103D3000F29E7FC8AAFF7EC8A9FF80C8A8FFA69CE4
:103D4000A69EA6840F01550EA76EAA0EA76EA68288
:103D5000A6B2FED7A6940050F21247D03AD008017E
:103D6000E70E7A25016E060E7B21036E790E78250B
:103D7000E96E010E7921EA6EEFCF80F803C0EAFF09
:103D800001C0E9FF80C8EFFF5D0E78257E6F000E51
:103D900079217F6F790E7825E96E010E7921EA6E1F
:103DA000EFCF80F8F250006EF29E7FC8AAFF7EC867
:103DB000A9FF80C8A8FFA69CA69EA6840F01550E49
:103DC000A76EAA0EA76EA682A6B2FED7A694005032
:103DD000F212080179C803F07851782BD8B4792B06
:103DE0007A2BD8B47B2B85D70F01E70E08017A25F3
:103DF000E96E060E7B21EA6EEF6A7B6B7A6B782B9D
:103E0000D8B4792B0400790E7825E96E010E79215A
:103E1000EA6EEF500D0805E07B5303E17A51290863
:103E200028E25D0E78257E6F000E79217F6F790E76
:103E30007825E96E010E7921EA6EEFCF80F8F25015
:103E4000006EF29E7FC8AAFF7EC8A9FF80C8A8FFA7
:103E5000A69CA69EA6840F01550EA76EAA0EA76E5D
:103E6000A682A6B2FED7A6940050F21247D03AD04E
:103E70000801100E7A25016E070E7B21036E790E64
:103E80007825E96E010E7921EA6EEFCF80F803C044
:103E9000EAFF01C0E9FF80C8EFFF5D0E78257E6F65
:103EA000000E79217F6F790E7825E96E010E792158
:103EB000EA6EEFCF80F8F250006EF29E7FC8AAFF44
:103EC0007EC8A9FF80C8A8FFA69CA69EA6840F0155
:103ED000550EA76EAA0EA76EA682A6B2FED7A6940E
:103EE0000050F212080179C803F07851782BD8B449
:103EF000792B7A2BD8B47B2B85D70F01100E0801B4
:103F00007A25E96E070E7B21EA6EEF6A7B6B7A6B8E
:103F1000782BD8B4792B0400790E7825E96E010E40
:103F20007921EA6EEF500D0805E07B5303E17A51E9
:103F3000290828E25D0E78257E6F000E79217F6FBB
:103F4000790E7825E96E010E7921EA6EEFCF80F8BF
:103F5000F250006EF29E7FC8AAFF7EC8A9FF80C8FB
:103F6000A8FFA69CA69EA6840F01550EA76EAA0EBA
:103F7000A76EA682A6B2FED7A6940050F21247D032
:103F80003AD00801390E7A25016E070E7B21036EA7
:103F9000790E7825E96E010E7921EA6EEFCF80F86F
:103FA00003C0EAFF01C0E9FF80C8EFFF5D0E78257E
:103FB0007E6F000E79217F6F790E7825E96E010EF4
:103FC0007921EA6EEFCF80F8F250006EF29E7FC842
:103FD000AAFF7EC8A9FF80C8A8FFA69CA69EA684AB
:103FE0000F01550EA76EAA0EA76EA682A6B2FED727
:103FF000A6940050F212080179C803F07851782B8A
:10400000D8B4792B7A2BD8B47B2B85D70F01390EF6
:1040100008017A25E96E070E7B21EA6EEF6A7B6B59
:104020007A6B782BD8B4792B0400790E7825E96E59
:10403000010E7921EA6EEF500D0805E07B5303E194
:104040007A51290828E25D0E78257E6F000E7921CD
:104050007F6F790E7825E96E010E7921EA6EEFCF38
:1040600080F8F250006EF29E7FC8AAFF7EC8A9FFBA
:1040700080C8A8FFA69CA69EA6840F01550EA76E19
:10408000AA0EA76EA682A6B2FED7A6940050F21280
:1040900049D03CD008015D0E78257E6F000E792155
:1040A0007F6F790E7825E96E010E7921EA6EEFCFE8
:1040B00080F8F250006EF29E7FC8AAFF7EC8A9FF6A
:1040C00080C8A8FFA69CA69EA6840F01550EA76EC9
:1040D000AA0EA76EA682A6B2FED7A6940050F21230
:1040E000620E08017A25016E070E7B21036E790EA0
:1040F0007825E96E010E7921EA6EEFCF80F803C0D2
:10410000EAFF01C0E9FF80C8EFFF0F01080179C88D
:1041100003F07851782BD8B4792B7A2BD8B47B2B39
:1041200083D70F01620E08017A25E96E070E7B2105
:10413000EA6EEF6A7B6B7A6B782BD8B4792B04002C
:10414000790E7825E96E010E7921EA6EEF500D089F
:1041500005E07B5303E17A51290828E25D0E7825BA
:104160007E6F000E79217F6F790E7825E96E010E42
:104170007921EA6EEFCF80F8F250006EF29E7FC890
:10418000AAFF7EC8A9FF80C8A8FFA69CA69EA684F9
:104190000F01550EA76EAA0EA76EA682A6B2FED775
:1041A000A6940050F21247D03AD008018B0E7A251F
:1041B000016E070E7B21036E790E7825E96E010EE4
:1041C0007921EA6EEFCF80F803C0EAFF01C0E9FF72
:1041D00080C8EFFF5D0E78257E6F000E79217F6F1E
:1041E000790E7825E96E010E7921EA6EEFCF80F81D
:1041F000F250006EF29E7FC8AAFF7EC8A9FF80C859
:10420000A8FFA69CA69EA6840F01550EA76EAA0E17
:10421000A76EA682A6B2FED7A6940050F21208019D
:1042200079C803F07851782BD8B4792B7A2BD8B48D
:104230007B2B85D70F018B0E08017A25E96E070EBF
:104240007B21EA6EEF6A7B6B7A6B782BD8B4792B83
:104250000400790E7825E96E010E7921EA6EEF509F
:104260000D0805E07B5303E17A51290828E25D0E31
:1042700078257E6F000E79217F6F790E7825E96EA3
:10428000010E7921EA6EEFCF80F8F250006EF29EB7
:104290007FC8AAFF7EC8A9FF80C8A8FFA69CA69ECB
:1042A000A6840F01550EA76EAA0EA76EA682A6B20F
:1042B000FED7A6940050F21247D03AD00801B40EAF
:1042C0007A25016E070E7B21036E790E7825E96E43
:1042D000010E7921EA6EEFCF80F803C0EAFF01C03A
:1042E000E9FF80C8EFFF5D0E78257E6F000E792113
:1042F0007F6F790E7825E96E010E7921EA6EEFCF96
:1043000080F8F250006EF29E7FC8AAFF7EC8A9FF17
:1043100080C8A8FFA69CA69EA6840F01550EA76E76
:10432000AA0EA76EA682A6B2FED7A6940050F212DD
:10433000080179C803F07851782BD8B4792B7A2BFF
:10434000D8B47B2B85D70F01B40E08017A25E96E0E
:10435000070E7B21EA6EEF6A78C07AF0210E000129
:104360007B6F0801806B7A0E7F6F020E816F0001F8
:1043700096EC0FF07AC57CF079C57DF08A8693962D
:104380000A0E08017E6F0001A5EC03F07A51C1EC22
:104390000FF07B51C1EC0FF07C51C1EC0FF07D515F
:1043A000C1EC0FF0030E08017E6F0001A5EC03F0D5
:1043B0008A969396050101017A51030846E10501A9
:1043C000826B49C083F578C07AF0030E00017B6FE1
:1043D000020E7C6F82C57DF083C57EF00801806B84
:1043E0007A0E7F6F050E816F000196EC0FF07AC593
:1043F0007FF079C580F08A8693960400040E080148
:104400007E6F0001A5EC03F004007A51C1EC0FF0BF
:104410007B51C1EC0FF07C51C1EC0FF07D51C1EC30
:104420000FF07E51C1EC0FF07F51C1EC0FF08051C5
:10443000C1EC0FF00400030E08017E6F0001A5EC33
:1044400003F004008A9693960101010E05017C6F2A
:10445000F40E7B6F309A6FC077F00601836B00011A
:10446000796B8A969396D1EF35F00701E581E58364
:10447000E585E587E589E58BE58DE58F000122EF90
:1044800032F0EF5210E0EACF7EF8E9CF7DF8EFCFBF
:104490007FF863EC0FF07EC8EAFF7DC8E9FFE92AE8
:1044A000D8B4EA2AEED7120008017D2D3CD1000EC7
:1044B0000701E5B1010E0801806F000E0701E6B1AA
:1044C000010E080180117F6F000E0701E4A1010EAB
:1044D00008017F17000E0701E1B1010E0801826F8C
:1044E000000E0701E2B1010E080182117F157E91D5
:1044F000E8B07E81000E7EB1010E7F6F000E0701D5
:10450000E5B3010E0801816F000E0701E6B3010E4D
:1045100008018111806F000E0701E4A3010E08015C
:104520008017000E0701E1B3010E0801836F000E32
:104530000701E2B3010E0801831180157F117E91FE
:10454000E8B07E81000E7EB1010E7F6F000E070184
:10455000E5B5010E0801816F000E0701E6B5010EF9
:1045600008018111806F000E0701E4A5010E08010A
:104570008017000E0701E1B5010E0801836F000EE0
:104580000701E2B5010E0801831180157F117E91AC
:10459000E8B07E81000E7EB1010E7F6F000E070134
:1045A000E5B7010E0801816F000E0701E6B7010EA5
:1045B00008018111806F000E0701E4A7010E0801B8
:1045C0008017000E0701E1B7010E0801836F000E8E
:1045D0000701E2B7010E0801831180157F117E915A
:1045E000E8B07E81000E7EB1010E7F6F000E0701E4
:1045F000E5B9010E0801816F000E0701E6B9010E51
:1046000008018111806F000E0701E4A9010E080165
:104610008017000E0701E1B9010E0801836F000E3B
:104620000701E2B9010E0801831180157F117E9107
:10463000E8B07E81000E7EB1010E7F6F000E070193
:10464000E5BB010E0801816F000E0701E6BB010EFC
:1046500008018111806F000E0701E4AB010E080113
:104660008017000E0701E1BB010E0801836F000EE9
:104670000701E2BB010E0801831180157F117E91B5
:10468000E8B07E81000E7EB1010E7F6F000E070143
:10469000E5BD010E0801816F000E0701E6BD010EA8
:1046A00008018111806F000E0701E4AD010E0801C1
:1046B0008017000E0701E1BD010E0801836F000E97
:1046C0000701E2BD010E0801831180157F117E9163
:1046D000E8B07E81000E7EB1010E7F6F000E0701F3
:1046E000E5BF010E0801816F000E0701E6BF010E54
:1046F00008018111806F000E0701E4AF010E08016F
:104700008017000E0701E1BF010E0801836F000E44
:104710000701E2BF010E0801831180157F117E9110
:10472000E8B07E813FD17D510208D8A43BD1000E74
:104730000701E5B1010E0801806F000E0701E6B127
:10474000010E080180117F6F000E0701E4A1010E28
:1047500008017F17000E0701E1A1010E0801826F19
:10476000000E0701E2B1010E080182117F157E9152
:10477000E8B07E81000E7EB1010E7F6F000E070152
:10478000E5B3010E0801816F000E0701E6B3010ECB
:1047900008018111806F000E0701E4A3010E0801DA
:1047A0008017000E0701E1A3010E0801836F000EC0
:1047B0000701E2B3010E0801831180157F117E917C
:1047C000E8B07E81000E7EB1010E7F6F000E070102
:1047D000E5B5010E0801816F000E0701E6B5010E77
:1047E00008018111806F000E0701E4A5010E080188
:1047F0008017000E0701E1A5010E0801836F000E6E
:104800000701E2B5010E0801831180157F117E9129
:10481000E8B07E81000E7EB1010E7F6F000E0701B1
:10482000E5B7010E0801816F000E0701E6B7010E22
:1048300008018111806F000E0701E4A7010E080135
:104840008017000E0701E1A7010E0801836F000E1B
:104850000701E2B7010E0801831180157F117E91D7
:10486000E8B07E81000E7EB1010E7F6F000E070161
:10487000E5B9010E0801816F000E0701E6B9010ECE
:1048800008018111806F000E0701E4A9010E0801E3
:104890008017000E0701E1A9010E0801836F000EC9
:1048A0000701E2B9010E0801831180157F117E9185
:1048B000E8B07E81000E7EB1010E7F6F000E070111
:1048C000E5BB010E0801816F000E0701E6BB010E7A
:1048D00008018111806F000E0701E4AB010E080191
:1048E0008017000E0701E1AB010E0801836F000E77
:1048F0000701E2BB010E0801831180157F117E9133
:10490000E8B07E81000E7EB1010E7F6F000E0701C0
:10491000E5BD010E0801816F000E0701E6BD010E25
:1049200008018111806F000E0701E4AD010E08013E
:104930008017000E0701E1AD010E0801836F000E24
:104940000701E2BD010E0801831180157F117E91E0
:10495000E8B07E81000E7EB1010E7F6F000E070170
:10496000E5BF010E0801816F000E0701E6BF010ED1
:1049700008018111806F000E0701E4AF010E0801EC
:104980008017000E0701E1AF010E0801836F000ED2
:104990000701E2BF010E0801831180157F117E918E
:1049A000E8B07E81000E7EB1010E016E00011200A2
:1049B0000701E3A13ED0000EDDB1010E08017E6FBC
:1049C000000E0701DFB1010E08017E19010803E1A5
:1049D0000701E0B103D00701E5A127D0E4B124D05D
:1049E000E5B10CD000016A510F08D8B402D007011C
:1049F00005D0640E1C6E6BC01DF00701E5811AB274
:104A000002D0DE9101D0DE811AB80ED0E2B105D01D
:104A1000899892988996929607D0E1A103D08998B7
:104A2000929802D08996929603D0E0A101D0E491A9
:104A300015D0000EDDB1010E08017E6F000E0701DA
:104A4000DFB1010E08017E19010804E10701DE91C2
:104A500005D008010701DE81EB913092E3A389D0F4
:104A6000000EDDB3010E08017E6F000E0701DFB3FB
:104A7000010E08017E19010803E10701E0B303D02C
:104A80000701E5A372D0E4B324D0E5B30CD0000154
:104A90006A510F08D8B402D0070105D0640E1C6E0D
:104AA0006BC01DF00701E5831AB202D0DE9301D07E
:104AB000DE831AB80ED0E2B305D089989298899611
:104AC000929607D0E1A303D08998929802D0899654
:104AD0009296EBB349D030B247D0E4B345D0D80E6C
:104AE000F66E050EF76E000186EC0FF00A0E080157
:104AF0007F6F000163EC0FF00A0E08017E6F00016A
:104B0000A5EC03F00701EB83E20EF66E050EF76EDF
:104B1000000186EC0FF0060EEA6E860EE96EB1DC3F
:104B2000220E08017F6F000163EC0FF00A0E0801EE
:104B30007F6F000163EC0FF0320E08017E6F000101
:104B4000A5EC03F0060EEA6EBE0EE96E9ADC0A0EC4
:104B500008017F6F000163EC0FF01A0E08017F6FF0
:104B6000000163EC0FF0070103D0E0A301D0E49350
:104B700060D0000EDDB3010E08017E6F000E07014C
:104B8000DFB3010E08017E1901084FE10701DE9332
:104B9000EBB349D030B247D0E4B345D0EC0EF66E5B
:104BA000050EF76E000186EC0FF00A0E08017F6F0C
:104BB000000163EC0FF00A0E08017E6F0001A5EC06
:104BC00003F00701EB83F60EF66E050EF76E00019B
:104BD00086EC0FF0060EEA6E860EE96E52DC220EAF
:104BE00008017F6F000163EC0FF00A0E08017F6F70
:104BF000000163EC0FF0320E08017E6F0001A5EC9E
:104C000003F0060EEA6E950EE96E3BDC0A0E080113
:104C10007F6F000163EC0FF01A0E08017F6F000137
:104C200063EC0FF0070105D008010701DE83EB9369
:104C30003092E3A58BD0000EDDB5010E08017E6F2A
:104C4000000E0701DFB5010E08017E19010803E11E
:104C50000701E0B503D00701E5A574D0E4B524D081
:104C6000E5B50CD000016A510F08D8B402D0070195
:104C700005D0640E1C6E6BC01DF00701E5851AB2ED
:104C800002D0DE9501D0DE851AB80ED0E2B505D08F
:104C9000899892988996929607D0E1A503D0899831
:104CA000929802D089969296EBB54BD030B249D00B
:104CB000E4B547D0000EF66E060EF76E000186ECE6
:104CC0000FF00A0E08017F6F000163EC0FF00A0E6F
:104CD00008017E6F0001A5EC03F00701EB850A0EC9
:104CE000F66E060EF76E000186EC0FF0060EEA6E09
:104CF000860EE96E41EC22F0220E08017F6F000162
:104D000063EC0FF00A0E08017F6F000163EC0FF0F7
:104D1000320E08017E6F0001A5EC03F0060EEA6E6C
:104D2000E70EE96E41EC22F00A0E08017F6F0001E8
:104D300063EC0FF01A0E08017F6F000163EC0FF0B7
:104D4000070103D0E0A501D0E49561D0000EDDB5E8
:104D5000010E08017E6F000E0701DFB5010E08018C
:104D60007E19010851E10701DE95EBB54BD030B259
:104D700049D0E4B547D0140EF66E060EF76E00016A
:104D800086EC0FF00A0E08017F6F000163EC0FF054
:104D90000A0E08017E6F0001A5EC03F00701EB8508
:104DA0001E0EF66E060EF76E000186EC0FF0060E74
:104DB000EA6E860EE96E41EC22F0220E08017F6F4A
:104DC000000163EC0FF00A0E08017F6F000163EC35
:104DD0000FF0320E08017E6F0001A5EC03F0060E05
:104DE000EA6EE70EE96E41EC22F00A0E08017F6FD1
:104DF000000163EC0FF01A0E08017F6F000163ECF5
:104E00000FF0070104D008010701DE85EB95E3A749
:104E10008BD0000EDDB7010E08017E6F000E07017A
:104E2000DFB7010E08017E19010803E10701E0B7B1
:104E300003D00701E5A774D0E4B724D0E5B70CD0C0
:104E400000016A510F08D8B402D0070105D0640EE2
:104E50001C6E6BC01DF00701E5871AB202D0DE9709
:104E600001D0DE871AB80ED0E2B705D089989298A3
:104E70008996929607D0E1A703D08998929802D09C
:104E800089969296EBB74BD030B249D0E4B747D071
:104E9000280EF66E060EF76E000186EC0FF00A0E75
:104EA00008017F6F000163EC0FF00A0E08017E6FAE
:104EB0000001A5EC03F00701EB87320EF66E060E3B
:104EC000F76E000186EC0FF0060EEA6E860EE96EB4
:104ED00041EC22F0220E08017F6F000163EC0FF01D
:104EE0000A0E08017F6F000163EC0FF0320E08011B
:104EF0007E6F0001A5EC03F0070EEA6E100EE96E5E
:104F000041EC22F00A0E08017F6F000163EC0FF004
:104F10001A0E08017F6F000163EC0FF0070103D048
:104F2000E0A701D0E49761D0000EDDB7010E0801C3
:104F30007E6F000E0701DFB7010E08017E19010820
:104F400051E10701DE97EBB74BD030B249D0E4B75F
:104F500047D03C0EF66E060EF76E000186EC0FF0A1
:104F60000A0E08017F6F000163EC0FF00A0E0801C2
:104F70007E6F0001A5EC03F00701EB87460EF66E8D
:104F8000060EF76E000186EC0FF0060EEA6E860E36
:104F9000E96E41EC22F0220E08017F6F000163EC04
:104FA0000FF00A0E08017F6F000163EC0FF0320E64
:104FB00008017E6F0001A5EC03F0070EEA6E100EEB
:104FC000E96E41EC22F00A0E08017F6F000163ECEC
:104FD0000FF01A0E08017F6F000163EC0FF007015C
:104FE00004D008010701DE87EB97E3A98BD0000E00
:104FF000DDB9010E08017E6F000E0701DFB9010E59
:1050000008017E19010803E10701E0B903D0070197
:10501000E5A974D0E4B924D0E5B90CD000016A51F7
:105020000F08D8B402D0070105D0640E1C6E6BC007
:105030001DF00701E5891AB202D0DE9901D0DE89A0
:105040001AB80ED0E2B905D08998929889969296AE
:1050500007D0E1A903D08998929802D089969296B8
:10506000EBB94BD030B249D0E4B947D0500EF66E10
:10507000060EF76E000186EC0FF00A0E08017F6F36
:10508000000163EC0FF00A0E08017E6F0001A5EC31
:1050900003F00701EB895A0EF66E060EF76E00015B
:1050A00086EC0FF0060EEA6E860EE96E41EC22F0F9
:1050B000220E08017F6F000163EC0FF00A0E080159
:1050C0007F6F000163EC0FF0320E08017E6F00016C
:1050D000A5EC03F0070EEA6E390EE96E41EC22F002
:1050E0000A0E08017F6F000163EC0FF01A0E080131
:1050F0007F6F000163EC0FF0070103D0E0A901D03E
:10510000E49961D0000EDDB9010E08017E6F000E3A
:105110000701DFB9010E08017E19010851E10701FD
:10512000DE99EBB94BD030B249D0E4B947D0640E28
:10513000F66E060EF76E000186EC0FF00A0E0801FF
:105140007F6F000163EC0FF00A0E08017E6F000113
:10515000A5EC03F00701EB896E0EF66E060EF76EF6
:10516000000186EC0FF0060EEA6E860EE96E41EC49
:1051700022F0220E08017F6F000163EC0FF00A0E8F
:1051800008017F6F000163EC0FF0320E08017E6FA3
:105190000001A5EC03F0070EEA6E390EE96E41EC52
:1051A00022F00A0E08017F6F000163EC0FF01A0E67
:1051B00008017F6F000163EC0FF0070104D00801C4
:1051C0000701DE89EB99E3AB8BD0000EDDBB010E4E
:1051D00008017E6F000E0701DFBB010E08017E197A
:1051E000010803E10701E0BB03D00701E5AB74D080
:1051F000E4BB24D0E5BB0CD000016A510F08D8B441
:1052000002D0070105D0640E1C6E6BC01DF00701B3
:10521000E58B1AB202D0DE9B01D0DE8B1AB80ED01D
:10522000E2BB05D0899892988996929607D0E1AB17
:1052300003D08998929802D089969296EBBB4BD076
:1052400030B249D0E4BB47D0780EF66E060EF76E4A
:10525000000186EC0FF00A0E08017F6F000163EC7D
:105260000FF00A0E08017E6F0001A5EC03F00701A4
:10527000EB8B820EF66E060EF76E000186EC0FF0D9
:10528000060EEA6E860EE96E41EC22F0220E08014F
:105290007F6F000163EC0FF00A0E08017F6F0001C1
:1052A00063EC0FF0320E08017E6F0001A5EC03F0F5
:1052B000070EEA6E620EE96E41EC22F00A0E08015A
:1052C0007F6F000163EC0FF01A0E08017F6F000181
:1052D00063EC0FF0070103D0E0AB01D0E49B61D099
:1052E000000EDDBB010E08017E6F000E0701DFBB63
:1052F000010E08017E19010851E10701DE9BEBBB9D
:105300004BD030B249D0E4BB47D08C0EF66E060EBF
:10531000F76E000186EC0FF00A0E08017F6F0001A6
:1053200063EC0FF00A0E08017E6F0001A5EC03F09C
:105330000701EB8B960EF66E060EF76E000186ECFB
:105340000FF0060EEA6E860EE96E41EC22F0220E98
:1053500008017F6F000163EC0FF00A0E08017F6FF8
:10536000000163EC0FF0320E08017E6F0001A5EC26
:1053700003F0070EEA6E620EE96E41EC22F00A0EAF
:1053800008017F6F000163EC0FF01A0E08017F6FB8
:10539000000163EC0FF0070104D008010701DE8B68
:1053A000EB9BE3AD8BD0000EDDBD010E08017E6FDF
:1053B000000E0701DFBD010E08017E19010803E19F
:1053C0000701E0BD03D00701E5AD74D0E4BD24D0F2
:1053D000E5BD0CD000016A510F08D8B402D0070116
:1053E00005D0640E1C6E6BC01DF00701E58D1AB26E
:1053F00002D0DE9D01D0DE8D1AB80ED0E2BD05D000
:10540000899892988996929607D0E1AD03D08998B1
:10541000929802D089969296EBBD4BD030B249D08B
:10542000E4BD47D0A00EF66E060EF76E000186ECC6
:105430000FF00A0E08017F6F000163EC0FF00A0EF7
:1054400008017E6F0001A5EC03F00701EB8DAA0EA9
:10545000F66E060EF76E000186EC0FF0060EEA6E91
:10546000860EE96E41EC22F0220E08017F6F0001EA
:1054700063EC0FF00A0E08017F6F000163EC0FF080
:10548000320E08017E6F0001A5EC03F0070EEA6EF4
:105490008B0EE96E41EC22F00A0E08017F6F0001CD
:1054A00063EC0FF01A0E08017F6F000163EC0FF040
:1054B000070103D0E0AD01D0E49D61D0000EDDBD59
:1054C000010E08017E6F000E0701DFBD010E08010D
:1054D0007E19010851E10701DE9DEBBD4BD030B2D2
:1054E00049D0E4BD47D0B40EF66E060EF76E00014B
:1054F00086EC0FF00A0E08017F6F000163EC0FF0DD
:105500000A0E08017E6F0001A5EC03F00701EB8D88
:10551000BE0EF66E060EF76E000186EC0FF0060E5C
:10552000EA6E860EE96E41EC22F0220E08017F6FD2
:10553000000163EC0FF00A0E08017F6F000163ECBD
:105540000FF0320E08017E6F0001A5EC03F0070E8C
:10555000EA6E8B0EE96E41EC22F00A0E08017F6FB5
:10556000000163EC0FF01A0E08017F6F000163EC7D
:105570000FF0070104D008010701DE8DEB9DE3AFBA
:105580008BD0000EDDBF010E08017E6F000E0701FB
:10559000DFBF010E08017E19010803E10701E0BF2A
:1055A00003D00701E5AF74D0E4BF24D0E5BF0CD031
:1055B00000016A510F08D8B402D0070105D0640E6B
:1055C0001C6E6BC01DF00701E58F1AB202D0DE9F82
:1055D00001D0DE8F1AB80ED0E2BF05D0899892981C
:1055E0008996929607D0E1AF03D08998929802D01D
:1055F00089969296EBBF4BD030B249D0E4BF47D0EA
:10560000C80EF66E060EF76E000186EC0FF00A0E5D
:1056100008017F6F000163EC0FF00A0E08017E6F36
:105620000001A5EC03F00701EB8FD20EF66E060E1B
:10563000F76E000186EC0FF0060EEA6E860EE96E3C
:1056400041EC22F0220E08017F6F000163EC0FF0A5
:105650000A0E08017F6F000163EC0FF0320E0801A3
:105660007E6F0001A5EC03F0070EEA6EB40EE96E42
:1056700041EC22F00A0E08017F6F000163EC0FF08D
:105680001A0E08017F6F000163EC0FF0070103D0D1
:10569000E0AF01D0E49F61D0000EDDBF010E080134
:1056A0007E6F000E0701DFBF010E08017E190108A1
:1056B00051E10701DE9FEBBF4BD030B249D0E4BFD0
:1056C00047D0DC0EF66E060EF76E000186EC0FF08A
:1056D0000A0E08017F6F000163EC0FF00A0E08014B
:1056E0007E6F0001A5EC03F00701EB8FE60EF66E6E
:1056F000060EF76E000186EC0FF0060EEA6E860EBF
:10570000E96E41EC22F0220E08017F6F000163EC8C
:105710000FF00A0E08017F6F000163EC0FF0320EEC
:1057200008017E6F0001A5EC03F0070EEA6EB40ECF
:10573000E96E41EC22F00A0E08017F6F000163EC74
:105740000FF01A0E08017F6F000163EC0FF00701E4
:1057500004D008010701DE8FEB9F000EDDB1010EC2
:1057600008017E6F000E0701DFB1010E08017E19EE
:10577000010804E10701E0A104D008011AAA69D0D8
:105780000701E6B10ED000016A510F08D8B402D06B
:10579000070107D00701E4B104D0640E1C6E6BC092
:1057A0001DF0E681E4B117D01AB202D0DE9101D02B
:1057B000DE811AB810D0E3A10ED0E2B105D08998ED
:1057C00092988996929607D0E1A103D089989298F1
:1057D00002D089969296010E0801716F0701EBB114
:1057E00037D030B235D0E4B133D0EB81F00EF66E65
:1057F000060EF76E000186EC0FF0060EEA6E860EBE
:10580000E96E41EC22F0220E08017F6F000163EC8B
:105810000FF00A0E08017F6F000163EC0FF0320EEB
:1058200008017E6F0001A5EC03F0060EEA6E950EEE
:10583000E96E41EC22F00A0E08017F6F000163EC73
:105840000FF01A0E08017F6F000163EC0FF00701E3
:1058500045D00701E0B142D0E691E491DE81EB91C1
:10586000E1B102D0E2B111D008017153D8B402D035
:1058700007010BD0010E7D6F000154EC22F0012CCA
:1058800001D002D0898892980701E1A102D0E2B14B
:1058900011D008017153D8B402D007010BD0020E09
:1058A0007D6F000154EC22F0012C01D002D08986DA
:1058B00092960701E6B112D0E6B310D0E6B50ED04D
:1058C000E6B70CD0E6B90AD0E6BB08D0E6BD06D0F4
:1058D000E6BF04D08986929689889298000EDDB33F
:1058E000010E08017E6F000E0701DFB3010E0801F3
:1058F0007E19010804E10701E0A304D008011AAAF7
:1059000069D00701E6B30ED000016A510F08D8B480
:1059100002D0070107D00701E4B304D0640E1C6E67
:105920006BC01DF0E683E4B317D01AB202D0DE9349
:1059300001D0DE831AB810D0E3A30ED0E2B305D0B5
:10594000899892988996929607D0E1A303D0899876
:10595000929802D089969296010E0801716F070104
:10596000EBB337D030B235D0E4B333D0EB83FA0E9B
:10597000F66E060EF76E000186EC0FF0060EEA6E6C
:10598000860EE96E41EC22F0220E08017F6F0001C5
:1059900063EC0FF00A0E08017F6F000163EC0FF05B
:1059A000320E08017E6F0001A5EC03F0060EEA6ED0
:1059B000BE0EE96E41EC22F00A0E08017F6F000175
:1059C00063EC0FF01A0E08017F6F000163EC0FF01B
:1059D000070145D00701E0B342D0E693E493DE83AC
:1059E000EB93E1B302D0E2B311D008017153D8B404
:1059F00002D007010BD0010E7D6F000154EC22F0A4
:105A0000012C01D002D0898892980701E1A302D02D
:105A1000E2B311D008017153D8B402D007010BD002
:105A2000020E7D6F000154EC22F0012C01D002D057
:105A3000898692960701E6B112D0E6B310D0E6B59A
:105A40000ED0E6B70CD0E6B90AD0E6BB08D0E6BD6A
:105A500006D0E6BF04D08986929689889298000E77
:105A6000DDB5010E08017E6F000E0701DFB5010EE6
:105A700008017E19010804E10701E0A504D008012E
:105A80001AAA69D00701E6B50ED000016A510F08C5
:105A9000D8B402D0070107D00701E4B504D0640EE2
:105AA0001C6E6BC01DF0E685E4B517D01AB202D0AB
:105AB000DE9501D0DE851AB810D0E3A50ED0E2B590
:105AC00005D0899892988996929607D0E1A503D03F
:105AD0008998929802D089969296010E0801716F6A
